{
	"contracts/lottery.sol": {
		"lottery": {
			"abi": [
				{
					"inputs": [],
					"stateMutability": "nonpayable",
					"type": "constructor"
				},
				{
					"stateMutability": "payable",
					"type": "fallback"
				},
				{
					"inputs": [
						{
							"internalType": "address",
							"name": "",
							"type": "address"
						}
					],
					"name": "addressToNumberOfTickets",
					"outputs": [
						{
							"internalType": "uint256",
							"name": "",
							"type": "uint256"
						}
					],
					"stateMutability": "view",
					"type": "function"
				},
				{
					"inputs": [
						{
							"internalType": "address",
							"name": "",
							"type": "address"
						}
					],
					"name": "addressToTip",
					"outputs": [
						{
							"internalType": "uint256",
							"name": "",
							"type": "uint256"
						}
					],
					"stateMutability": "view",
					"type": "function"
				},
				{
					"inputs": [],
					"name": "buyTicket",
					"outputs": [],
					"stateMutability": "payable",
					"type": "function"
				},
				{
					"inputs": [],
					"name": "childContract",
					"outputs": [
						{
							"internalType": "contract myProfit",
							"name": "",
							"type": "address"
						}
					],
					"stateMutability": "view",
					"type": "function"
				},
				{
					"inputs": [],
					"name": "creator",
					"outputs": [
						{
							"internalType": "address",
							"name": "",
							"type": "address"
						}
					],
					"stateMutability": "view",
					"type": "function"
				},
				{
					"inputs": [],
					"name": "distributeRewards",
					"outputs": [],
					"stateMutability": "nonpayable",
					"type": "function"
				},
				{
					"inputs": [
						{
							"internalType": "uint256",
							"name": "",
							"type": "uint256"
						}
					],
					"name": "participants",
					"outputs": [
						{
							"internalType": "address",
							"name": "",
							"type": "address"
						}
					],
					"stateMutability": "view",
					"type": "function"
				},
				{
					"inputs": [],
					"name": "withdrawAllLinkFromContract",
					"outputs": [],
					"stateMutability": "nonpayable",
					"type": "function"
				},
				{
					"inputs": [],
					"name": "withdrawEverythingAlsoCalledRugLol",
					"outputs": [],
					"stateMutability": "nonpayable",
					"type": "function"
				},
				{
					"inputs": [],
					"name": "withdrawTip",
					"outputs": [],
					"stateMutability": "nonpayable",
					"type": "function"
				},
				{
					"stateMutability": "payable",
					"type": "receive"
				}
			],
			"devdoc": {
				"kind": "dev",
				"methods": {},
				"version": 1
			},
			"evm": {
				"assembly": "    /* \"contracts/lottery.sol\":236:3833  contract lottery {... */\n  mstore(0x40, 0xc0)\n    /* \"contracts/lottery.sol\":378:379  0 */\n  0x00\n    /* \"contracts/lottery.sol\":347:379  uint256 numberOfParticipants = 0 */\n  dup1\n  sstore\n    /* \"contracts/lottery.sol\":645:646  3 */\n  0x03\n    /* \"contracts/lottery.sol\":627:646  uint32 numWords = 3 */\n  0x04\n  exp(0x0100, 0x00)\n  dup2\n  sload\n  dup2\n  0xffffffff\n  mul\n  not\n  and\n  swap1\n  dup4\n  0xffffffff\n  and\n  mul\n  or\n  swap1\n  sstore\n  pop\n    /* \"contracts/lottery.sol\":675:717  0x779877A7B0D9E8603169DdbD7836e478b4624789 */\n  0x779877a7b0d9e8603169ddbd7836e478b4624789\n    /* \"contracts/lottery.sol\":653:717  address linkAddress = 0x779877A7B0D9E8603169DdbD7836e478b4624789 */\n  0x04\n  dup1\n  0x0100\n  exp\n  dup2\n  sload\n  dup2\n  0xffffffffffffffffffffffffffffffffffffffff\n  mul\n  not\n  and\n  swap1\n  dup4\n  0xffffffffffffffffffffffffffffffffffffffff\n  and\n  mul\n  or\n  swap1\n  sstore\n  pop\n    /* \"contracts/lottery.sol\":726:827  constructor() {... */\n  callvalue\n  dup1\n  iszero\n  tag_1\n  jumpi\n  0x00\n  dup1\n  revert\ntag_1:\n  pop\n    /* \"contracts/lottery.sol\":761:771  msg.sender */\n  caller\n    /* \"contracts/lottery.sol\":751:771  creator = msg.sender */\n  0xffffffffffffffffffffffffffffffffffffffff\n  and\n  0x80\n  dup2\n  0xffffffffffffffffffffffffffffffffffffffff\n  and\n  dup2\n  mstore\n  pop\n  pop\n    /* \"contracts/lottery.sol\":811:818  creator */\n  mload(0x80)\n    /* \"contracts/lottery.sol\":798:819  new myProfit(creator) */\n  mload(0x40)\n  tag_4\n  swap1\n  tag_5\n  jump\t// in\ntag_4:\n  tag_6\n  swap2\n  swap1\n  tag_7\n  jump\t// in\ntag_6:\n  mload(0x40)\n  dup1\n  swap2\n  sub\n  swap1\n  0x00\n  create\n  dup1\n  iszero\n  dup1\n  iszero\n  tag_8\n  jumpi\n  returndatasize\n  0x00\n  dup1\n  returndatacopy\n  revert(0x00, returndatasize)\ntag_8:\n  pop\n    /* \"contracts/lottery.sol\":782:819  childContract = new myProfit(creator) */\n  0xffffffffffffffffffffffffffffffffffffffff\n  and\n  0xa0\n  dup2\n  0xffffffffffffffffffffffffffffffffffffffff\n  and\n  dup2\n  mstore\n  pop\n  pop\n    /* \"contracts/lottery.sol\":236:3833  contract lottery {... */\n  jump(tag_9)\ntag_5:\n  dataSize(sub_1)\n  dup1\n  dataOffset(sub_1)\n  dup4\n  codecopy\n  add\n  swap1\n  jump\t// out\n    /* \"#utility.yul\":7:133   */\ntag_10:\n    /* \"#utility.yul\":44:51   */\n  0x00\n    /* \"#utility.yul\":84:126   */\n  0xffffffffffffffffffffffffffffffffffffffff\n    /* \"#utility.yul\":77:82   */\n  dup3\n    /* \"#utility.yul\":73:127   */\n  and\n    /* \"#utility.yul\":62:127   */\n  swap1\n  pop\n    /* \"#utility.yul\":7:133   */\n  swap2\n  swap1\n  pop\n  jump\t// out\n    /* \"#utility.yul\":139:235   */\ntag_11:\n    /* \"#utility.yul\":176:183   */\n  0x00\n    /* \"#utility.yul\":205:229   */\n  tag_16\n    /* \"#utility.yul\":223:228   */\n  dup3\n    /* \"#utility.yul\":205:229   */\n  tag_10\n  jump\t// in\ntag_16:\n    /* \"#utility.yul\":194:229   */\n  swap1\n  pop\n    /* \"#utility.yul\":139:235   */\n  swap2\n  swap1\n  pop\n  jump\t// out\n    /* \"#utility.yul\":241:359   */\ntag_12:\n    /* \"#utility.yul\":328:352   */\n  tag_18\n    /* \"#utility.yul\":346:351   */\n  dup2\n    /* \"#utility.yul\":328:352   */\n  tag_11\n  jump\t// in\ntag_18:\n    /* \"#utility.yul\":323:326   */\n  dup3\n    /* \"#utility.yul\":316:353   */\n  mstore\n    /* \"#utility.yul\":241:359   */\n  pop\n  pop\n  jump\t// out\n    /* \"#utility.yul\":365:587   */\ntag_7:\n    /* \"#utility.yul\":458:462   */\n  0x00\n    /* \"#utility.yul\":496:498   */\n  0x20\n    /* \"#utility.yul\":485:494   */\n  dup3\n    /* \"#utility.yul\":481:499   */\n  add\n    /* \"#utility.yul\":473:499   */\n  swap1\n  pop\n    /* \"#utility.yul\":509:580   */\n  tag_20\n    /* \"#utility.yul\":577:578   */\n  0x00\n    /* \"#utility.yul\":566:575   */\n  dup4\n    /* \"#utility.yul\":562:579   */\n  add\n    /* \"#utility.yul\":553:559   */\n  dup5\n    /* \"#utility.yul\":509:580   */\n  tag_12\n  jump\t// in\ntag_20:\n    /* \"#utility.yul\":365:587   */\n  swap3\n  swap2\n  pop\n  pop\n  jump\t// out\n    /* \"contracts/lottery.sol\":236:3833  contract lottery {... */\ntag_9:\n  mload(0x80)\n  mload(0xa0)\n  codecopy(0x00, dataOffset(sub_0), dataSize(sub_0))\n  0x00\n  assignImmutable(\"0x05dee4192aaad4acb149f9615e8a72a761fc8cdb1d8b4e9c00fe66665f5a8184\")\n  0x00\n  assignImmutable(\"0xc7d00ca82740de2eef417cfa47c2970dbdec49b2a6d15c64e85f83cf97939ca5\")\n  return(0x00, dataSize(sub_0))\nstop\n\nsub_0: assembly {\n        /* \"contracts/lottery.sol\":236:3833  contract lottery {... */\n      mstore(0x40, 0x80)\n      jumpi(tag_1, lt(calldatasize, 0x04))\n      shr(0xe0, calldataload(0x00))\n      dup1\n      0x9425d841\n      gt\n      tag_13\n      jumpi\n      dup1\n      0x9425d841\n      eq\n      tag_8\n      jumpi\n      dup1\n      0xd9801146\n      eq\n      tag_9\n      jumpi\n      dup1\n      0xe626223a\n      eq\n      tag_10\n      jumpi\n      dup1\n      0xead506b6\n      eq\n      tag_11\n      jumpi\n      dup1\n      0xedca914c\n      eq\n      tag_12\n      jumpi\n      jump(tag_2)\n    tag_13:\n      dup1\n      0x02d05d3f\n      eq\n      tag_3\n      jumpi\n      dup1\n      0x35c1d349\n      eq\n      tag_4\n      jumpi\n      dup1\n      0x50d3ebd8\n      eq\n      tag_5\n      jumpi\n      dup1\n      0x6d157036\n      eq\n      tag_6\n      jumpi\n      dup1\n      0x6f4a2cd0\n      eq\n      tag_7\n      jumpi\n      jump(tag_2)\n    tag_1:\n      jumpi(tag_2, calldatasize)\n        /* \"contracts/lottery.sol\":3745:3756  buyTicket() */\n      tag_16\n        /* \"contracts/lottery.sol\":3745:3754  buyTicket */\n      tag_17\n        /* \"contracts/lottery.sol\":3745:3756  buyTicket() */\n      jump\t// in\n    tag_16:\n        /* \"contracts/lottery.sol\":236:3833  contract lottery {... */\n      stop\n    tag_2:\n        /* \"contracts/lottery.sol\":3811:3822  buyTicket() */\n      tag_20\n        /* \"contracts/lottery.sol\":3811:3820  buyTicket */\n      tag_17\n        /* \"contracts/lottery.sol\":3811:3822  buyTicket() */\n      jump\t// in\n    tag_20:\n        /* \"contracts/lottery.sol\":236:3833  contract lottery {... */\n      stop\n        /* \"contracts/lottery.sol\":388:420  address public immutable creator */\n    tag_3:\n      callvalue\n      dup1\n      iszero\n      tag_21\n      jumpi\n      0x00\n      dup1\n      revert\n    tag_21:\n      pop\n      tag_22\n      tag_23\n      jump\t// in\n    tag_22:\n      mload(0x40)\n      tag_24\n      swap2\n      swap1\n      tag_25\n      jump\t// in\n    tag_24:\n      mload(0x40)\n      dup1\n      swap2\n      sub\n      swap1\n      return\n        /* \"contracts/lottery.sol\":473:502  address[] public participants */\n    tag_4:\n      callvalue\n      dup1\n      iszero\n      tag_26\n      jumpi\n      0x00\n      dup1\n      revert\n    tag_26:\n      pop\n      tag_27\n      0x04\n      dup1\n      calldatasize\n      sub\n      dup2\n      add\n      swap1\n      tag_28\n      swap2\n      swap1\n      tag_29\n      jump\t// in\n    tag_28:\n      tag_30\n      jump\t// in\n    tag_27:\n      mload(0x40)\n      tag_31\n      swap2\n      swap1\n      tag_25\n      jump\t// in\n    tag_31:\n      mload(0x40)\n      dup1\n      swap2\n      sub\n      swap1\n      return\n        /* \"contracts/lottery.sol\":573:618  mapping(address=>uint256) public addressToTip */\n    tag_5:\n      callvalue\n      dup1\n      iszero\n      tag_32\n      jumpi\n      0x00\n      dup1\n      revert\n    tag_32:\n      pop\n      tag_33\n      0x04\n      dup1\n      calldatasize\n      sub\n      dup2\n      add\n      swap1\n      tag_34\n      swap2\n      swap1\n      tag_35\n      jump\t// in\n    tag_34:\n      tag_36\n      jump\t// in\n    tag_33:\n      mload(0x40)\n      tag_37\n      swap2\n      swap1\n      tag_38\n      jump\t// in\n    tag_37:\n      mload(0x40)\n      dup1\n      swap2\n      sub\n      swap1\n      return\n        /* \"contracts/lottery.sol\":3082:3349  function withdrawAllLinkFromContract() public onlyOwner {... */\n    tag_6:\n      callvalue\n      dup1\n      iszero\n      tag_39\n      jumpi\n      0x00\n      dup1\n      revert\n    tag_39:\n      pop\n      tag_40\n      tag_41\n      jump\t// in\n    tag_40:\n      stop\n        /* \"contracts/lottery.sol\":2122:2759  function distributeRewards() public onlyOwner {... */\n    tag_7:\n      callvalue\n      dup1\n      iszero\n      tag_42\n      jumpi\n      0x00\n      dup1\n      revert\n    tag_42:\n      pop\n      tag_43\n      tag_44\n      jump\t// in\n    tag_43:\n      stop\n        /* \"contracts/lottery.sol\":3357:3571  function withdrawEverythingAlsoCalledRugLol() public onlyOwner {... */\n    tag_8:\n      callvalue\n      dup1\n      iszero\n      tag_45\n      jumpi\n      0x00\n      dup1\n      revert\n    tag_45:\n      pop\n      tag_46\n      tag_47\n      jump\t// in\n    tag_46:\n      stop\n        /* \"contracts/lottery.sol\":2767:3074  function withdrawTip() public {... */\n    tag_9:\n      callvalue\n      dup1\n      iszero\n      tag_48\n      jumpi\n      0x00\n      dup1\n      revert\n    tag_48:\n      pop\n      tag_49\n      tag_50\n      jump\t// in\n    tag_49:\n      stop\n        /* \"contracts/lottery.sol\":427:466  myProfit public immutable childContract */\n    tag_10:\n      callvalue\n      dup1\n      iszero\n      tag_51\n      jumpi\n      0x00\n      dup1\n      revert\n    tag_51:\n      pop\n      tag_52\n      tag_53\n      jump\t// in\n    tag_52:\n      mload(0x40)\n      tag_54\n      swap2\n      swap1\n      tag_55\n      jump\t// in\n    tag_54:\n      mload(0x40)\n      dup1\n      swap2\n      sub\n      swap1\n      return\n        /* \"contracts/lottery.sol\":509:566  mapping(address=>uint256) public addressToNumberOfTickets */\n    tag_11:\n      callvalue\n      dup1\n      iszero\n      tag_56\n      jumpi\n      0x00\n      dup1\n      revert\n    tag_56:\n      pop\n      tag_57\n      0x04\n      dup1\n      calldatasize\n      sub\n      dup2\n      add\n      swap1\n      tag_58\n      swap2\n      swap1\n      tag_35\n      jump\t// in\n    tag_58:\n      tag_59\n      jump\t// in\n    tag_57:\n      mload(0x40)\n      tag_60\n      swap2\n      swap1\n      tag_38\n      jump\t// in\n    tag_60:\n      mload(0x40)\n      dup1\n      swap2\n      sub\n      swap1\n      return\n        /* \"contracts/lottery.sol\":1181:1855  function buyTicket() public payable {... */\n    tag_12:\n      tag_61\n      tag_17\n      jump\t// in\n    tag_61:\n      stop\n    tag_17:\n        /* \"contracts/lottery.sol\":331:340  10 * 1e18 */\n      0x8ac7230489e80000\n        /* \"contracts/lottery.sol\":1236:1253  msg.value.toUSD() */\n      tag_63\n        /* \"contracts/lottery.sol\":1236:1245  msg.value */\n      callvalue\n        /* \"contracts/lottery.sol\":1236:1251  msg.value.toUSD */\n      tag_64\n        /* \"contracts/lottery.sol\":1236:1253  msg.value.toUSD() */\n      jump\t// in\n    tag_63:\n        /* \"contracts/lottery.sol\":1236:1267  msg.value.toUSD() > MINIMUM_USD */\n      gt\n        /* \"contracts/lottery.sol\":1228:1290  require(msg.value.toUSD() > MINIMUM_USD, \"Need to send more.\") */\n      tag_65\n      jumpi\n      mload(0x40)\n      0x08c379a000000000000000000000000000000000000000000000000000000000\n      dup2\n      mstore\n      0x04\n      add\n      tag_66\n      swap1\n      tag_67\n      jump\t// in\n    tag_66:\n      mload(0x40)\n      dup1\n      swap2\n      sub\n      swap1\n      revert\n    tag_65:\n        /* \"contracts/lottery.sol\":1301:1312  uint256 tip */\n      0x00\n        /* \"contracts/lottery.sol\":331:340  10 * 1e18 */\n      0x8ac7230489e80000\n        /* \"contracts/lottery.sol\":1315:1332  msg.value.toUSD() */\n      tag_68\n        /* \"contracts/lottery.sol\":1315:1324  msg.value */\n      callvalue\n        /* \"contracts/lottery.sol\":1315:1330  msg.value.toUSD */\n      tag_64\n        /* \"contracts/lottery.sol\":1315:1332  msg.value.toUSD() */\n      jump\t// in\n    tag_68:\n        /* \"contracts/lottery.sol\":1315:1346  msg.value.toUSD() % MINIMUM_USD */\n      tag_69\n      swap2\n      swap1\n      tag_70\n      jump\t// in\n    tag_69:\n        /* \"contracts/lottery.sol\":1301:1346  uint256 tip = msg.value.toUSD() % MINIMUM_USD */\n      swap1\n      pop\n        /* \"contracts/lottery.sol\":1360:1382  isNewBuyer(msg.sender) */\n      tag_71\n        /* \"contracts/lottery.sol\":1371:1381  msg.sender */\n      caller\n        /* \"contracts/lottery.sol\":1360:1370  isNewBuyer */\n      tag_72\n        /* \"contracts/lottery.sol\":1360:1382  isNewBuyer(msg.sender) */\n      jump\t// in\n    tag_71:\n        /* \"contracts/lottery.sol\":1357:1629  if(isNewBuyer(msg.sender)) {... */\n      iszero\n      tag_73\n      jumpi\n        /* \"contracts/lottery.sol\":1399:1411  participants */\n      0x01\n        /* \"contracts/lottery.sol\":1417:1427  msg.sender */\n      caller\n        /* \"contracts/lottery.sol\":1399:1428  participants.push(msg.sender) */\n      swap1\n      dup1\n      0x01\n      dup2\n      sload\n      add\n      dup1\n      dup3\n      sstore\n      dup1\n      swap2\n      pop\n      pop\n      0x01\n      swap1\n      sub\n      swap1\n      0x00\n      mstore\n      keccak256(0x00, 0x20)\n      add\n      0x00\n      swap1\n      swap2\n      swap1\n      swap2\n      swap1\n      swap2\n      0x0100\n      exp\n      dup2\n      sload\n      dup2\n      0xffffffffffffffffffffffffffffffffffffffff\n      mul\n      not\n      and\n      swap1\n      dup4\n      0xffffffffffffffffffffffffffffffffffffffff\n      and\n      mul\n      or\n      swap1\n      sstore\n      pop\n        /* \"contracts/lottery.sol\":331:340  10 * 1e18 */\n      0x8ac7230489e80000\n        /* \"contracts/lottery.sol\":1482:1499  msg.value.toUSD() */\n      tag_75\n        /* \"contracts/lottery.sol\":1482:1491  msg.value */\n      callvalue\n        /* \"contracts/lottery.sol\":1482:1497  msg.value.toUSD */\n      tag_64\n        /* \"contracts/lottery.sol\":1482:1499  msg.value.toUSD() */\n      jump\t// in\n    tag_75:\n        /* \"contracts/lottery.sol\":1482:1513  msg.value.toUSD() % MINIMUM_USD */\n      tag_76\n      swap2\n      swap1\n      tag_70\n      jump\t// in\n    tag_76:\n        /* \"contracts/lottery.sol\":1443:1467  addressToNumberOfTickets */\n      0x02\n        /* \"contracts/lottery.sol\":1443:1479  addressToNumberOfTickets[msg.sender] */\n      0x00\n        /* \"contracts/lottery.sol\":1468:1478  msg.sender */\n      caller\n        /* \"contracts/lottery.sol\":1443:1479  addressToNumberOfTickets[msg.sender] */\n      0xffffffffffffffffffffffffffffffffffffffff\n      and\n      0xffffffffffffffffffffffffffffffffffffffff\n      and\n      dup2\n      mstore\n      0x20\n      add\n      swap1\n      dup2\n      mstore\n      0x20\n      add\n      0x00\n      keccak256\n        /* \"contracts/lottery.sol\":1443:1513  addressToNumberOfTickets[msg.sender] = msg.value.toUSD() % MINIMUM_USD */\n      dup2\n      swap1\n      sstore\n      pop\n        /* \"contracts/lottery.sol\":1357:1629  if(isNewBuyer(msg.sender)) {... */\n      jump(tag_77)\n    tag_73:\n        /* \"contracts/lottery.sol\":331:340  10 * 1e18 */\n      0x8ac7230489e80000\n        /* \"contracts/lottery.sol\":1586:1603  msg.value.toUSD() */\n      tag_78\n        /* \"contracts/lottery.sol\":1586:1595  msg.value */\n      callvalue\n        /* \"contracts/lottery.sol\":1586:1601  msg.value.toUSD */\n      tag_64\n        /* \"contracts/lottery.sol\":1586:1603  msg.value.toUSD() */\n      jump\t// in\n    tag_78:\n        /* \"contracts/lottery.sol\":1586:1617  msg.value.toUSD() % MINIMUM_USD */\n      tag_79\n      swap2\n      swap1\n      tag_70\n      jump\t// in\n    tag_79:\n        /* \"contracts/lottery.sol\":1546:1570  addressToNumberOfTickets */\n      0x02\n        /* \"contracts/lottery.sol\":1546:1582  addressToNumberOfTickets[msg.sender] */\n      0x00\n        /* \"contracts/lottery.sol\":1571:1581  msg.sender */\n      caller\n        /* \"contracts/lottery.sol\":1546:1582  addressToNumberOfTickets[msg.sender] */\n      0xffffffffffffffffffffffffffffffffffffffff\n      and\n      0xffffffffffffffffffffffffffffffffffffffff\n      and\n      dup2\n      mstore\n      0x20\n      add\n      swap1\n      dup2\n      mstore\n      0x20\n      add\n      0x00\n      keccak256\n      0x00\n        /* \"contracts/lottery.sol\":1546:1617  addressToNumberOfTickets[msg.sender] += msg.value.toUSD() % MINIMUM_USD */\n      dup3\n      dup3\n      sload\n      tag_80\n      swap2\n      swap1\n      tag_81\n      jump\t// in\n    tag_80:\n      swap3\n      pop\n      pop\n      dup2\n      swap1\n      sstore\n      pop\n        /* \"contracts/lottery.sol\":1357:1629  if(isNewBuyer(msg.sender)) {... */\n    tag_77:\n        /* \"contracts/lottery.sol\":1649:1650  0 */\n      0x00\n        /* \"contracts/lottery.sol\":1643:1646  tip */\n      dup2\n        /* \"contracts/lottery.sol\":1643:1650  tip > 0 */\n      gt\n        /* \"contracts/lottery.sol\":1639:1848  if (tip > 0) {... */\n      iszero\n      tag_82\n      jumpi\n        /* \"contracts/lottery.sol\":1697:1698  0 */\n      0x00\n        /* \"contracts/lottery.sol\":1670:1682  addressToTip */\n      0x03\n        /* \"contracts/lottery.sol\":1670:1694  addressToTip[msg.sender] */\n      0x00\n        /* \"contracts/lottery.sol\":1683:1693  msg.sender */\n      caller\n        /* \"contracts/lottery.sol\":1670:1694  addressToTip[msg.sender] */\n      0xffffffffffffffffffffffffffffffffffffffff\n      and\n      0xffffffffffffffffffffffffffffffffffffffff\n      and\n      dup2\n      mstore\n      0x20\n      add\n      swap1\n      dup2\n      mstore\n      0x20\n      add\n      0x00\n      keccak256\n      sload\n        /* \"contracts/lottery.sol\":1670:1698  addressToTip[msg.sender] > 0 */\n      gt\n        /* \"contracts/lottery.sol\":1667:1837  if(addressToTip[msg.sender] > 0) {... */\n      iszero\n      tag_83\n      jumpi\n        /* \"contracts/lottery.sol\":1747:1750  tip */\n      dup1\n        /* \"contracts/lottery.sol\":1719:1731  addressToTip */\n      0x03\n        /* \"contracts/lottery.sol\":1719:1743  addressToTip[msg.sender] */\n      0x00\n        /* \"contracts/lottery.sol\":1732:1742  msg.sender */\n      caller\n        /* \"contracts/lottery.sol\":1719:1743  addressToTip[msg.sender] */\n      0xffffffffffffffffffffffffffffffffffffffff\n      and\n      0xffffffffffffffffffffffffffffffffffffffff\n      and\n      dup2\n      mstore\n      0x20\n      add\n      swap1\n      dup2\n      mstore\n      0x20\n      add\n      0x00\n      keccak256\n      0x00\n        /* \"contracts/lottery.sol\":1719:1750  addressToTip[msg.sender] += tip */\n      dup3\n      dup3\n      sload\n      tag_84\n      swap2\n      swap1\n      tag_81\n      jump\t// in\n    tag_84:\n      swap3\n      pop\n      pop\n      dup2\n      swap1\n      sstore\n      pop\n        /* \"contracts/lottery.sol\":1667:1837  if(addressToTip[msg.sender] > 0) {... */\n      jump(tag_85)\n    tag_83:\n        /* \"contracts/lottery.sol\":1818:1821  tip */\n      dup1\n        /* \"contracts/lottery.sol\":1791:1803  addressToTip */\n      0x03\n        /* \"contracts/lottery.sol\":1791:1815  addressToTip[msg.sender] */\n      0x00\n        /* \"contracts/lottery.sol\":1804:1814  msg.sender */\n      caller\n        /* \"contracts/lottery.sol\":1791:1815  addressToTip[msg.sender] */\n      0xffffffffffffffffffffffffffffffffffffffff\n      and\n      0xffffffffffffffffffffffffffffffffffffffff\n      and\n      dup2\n      mstore\n      0x20\n      add\n      swap1\n      dup2\n      mstore\n      0x20\n      add\n      0x00\n      keccak256\n        /* \"contracts/lottery.sol\":1791:1821  addressToTip[msg.sender] = tip */\n      dup2\n      swap1\n      sstore\n      pop\n        /* \"contracts/lottery.sol\":1667:1837  if(addressToTip[msg.sender] > 0) {... */\n    tag_85:\n        /* \"contracts/lottery.sol\":1639:1848  if (tip > 0) {... */\n    tag_82:\n        /* \"contracts/lottery.sol\":1217:1855  {... */\n      pop\n        /* \"contracts/lottery.sol\":1181:1855  function buyTicket() public payable {... */\n      jump\t// out\n        /* \"contracts/lottery.sol\":388:420  address public immutable creator */\n    tag_23:\n      immutable(\"0xc7d00ca82740de2eef417cfa47c2970dbdec49b2a6d15c64e85f83cf97939ca5\")\n      dup2\n      jump\t// out\n        /* \"contracts/lottery.sol\":473:502  address[] public participants */\n    tag_30:\n      0x01\n      dup2\n      dup2\n      sload\n      dup2\n      lt\n      tag_86\n      jumpi\n      0x00\n      dup1\n      revert\n    tag_86:\n      swap1\n      0x00\n      mstore\n      keccak256(0x00, 0x20)\n      add\n      0x00\n      swap2\n      pop\n      sload\n      swap1\n      0x0100\n      exp\n      swap1\n      div\n      0xffffffffffffffffffffffffffffffffffffffff\n      and\n      dup2\n      jump\t// out\n        /* \"contracts/lottery.sol\":573:618  mapping(address=>uint256) public addressToTip */\n    tag_36:\n      mstore(0x20, 0x03)\n      dup1\n      0x00\n      mstore\n      keccak256(0x00, 0x40)\n      0x00\n      swap2\n      pop\n      swap1\n      pop\n      sload\n      dup2\n      jump\t// out\n        /* \"contracts/lottery.sol\":3082:3349  function withdrawAllLinkFromContract() public onlyOwner {... */\n    tag_41:\n        /* \"contracts/lottery.sol\":3633:3640  creator */\n      immutable(\"0xc7d00ca82740de2eef417cfa47c2970dbdec49b2a6d15c64e85f83cf97939ca5\")\n        /* \"contracts/lottery.sol\":3619:3640  msg.sender == creator */\n      0xffffffffffffffffffffffffffffffffffffffff\n      and\n        /* \"contracts/lottery.sol\":3619:3629  msg.sender */\n      caller\n        /* \"contracts/lottery.sol\":3619:3640  msg.sender == creator */\n      0xffffffffffffffffffffffffffffffffffffffff\n      and\n      eq\n        /* \"contracts/lottery.sol\":3611:3679  require(msg.sender == creator, \"Not Allowed! You are not the owner\") */\n      tag_89\n      jumpi\n      mload(0x40)\n      0x08c379a000000000000000000000000000000000000000000000000000000000\n      dup2\n      mstore\n      0x04\n      add\n      tag_90\n      swap1\n      tag_91\n      jump\t// in\n    tag_90:\n      mload(0x40)\n      dup1\n      swap2\n      sub\n      swap1\n      revert\n    tag_89:\n        /* \"contracts/lottery.sol\":3149:3172  LinkTokenInterface link */\n      0x00\n        /* \"contracts/lottery.sol\":3194:3205  linkAddress */\n      0x04\n      dup1\n      sload\n      swap1\n      0x0100\n      exp\n      swap1\n      div\n      0xffffffffffffffffffffffffffffffffffffffff\n      and\n        /* \"contracts/lottery.sol\":3149:3206  LinkTokenInterface link = LinkTokenInterface(linkAddress) */\n      swap1\n      pop\n        /* \"contracts/lottery.sol\":3239:3243  link */\n      dup1\n        /* \"contracts/lottery.sol\":3239:3252  link.transfer */\n      0xffffffffffffffffffffffffffffffffffffffff\n      and\n      0xa9059cbb\n        /* \"contracts/lottery.sol\":3253:3263  msg.sender */\n      caller\n        /* \"contracts/lottery.sol\":3265:3269  link */\n      dup4\n        /* \"contracts/lottery.sol\":3265:3279  link.balanceOf */\n      0xffffffffffffffffffffffffffffffffffffffff\n      and\n      0x70a08231\n        /* \"contracts/lottery.sol\":3288:3292  this */\n      address\n        /* \"contracts/lottery.sol\":3265:3294  link.balanceOf(address(this)) */\n      mload(0x40)\n      dup3\n      0xffffffff\n      and\n      0xe0\n      shl\n      dup2\n      mstore\n      0x04\n      add\n      tag_93\n      swap2\n      swap1\n      tag_25\n      jump\t// in\n    tag_93:\n      0x20\n      mload(0x40)\n      dup1\n      dup4\n      sub\n      dup2\n      dup7\n      gas\n      staticcall\n      iszero\n      dup1\n      iszero\n      tag_95\n      jumpi\n      returndatasize\n      0x00\n      dup1\n      returndatacopy\n      revert(0x00, returndatasize)\n    tag_95:\n      pop\n      pop\n      pop\n      pop\n      mload(0x40)\n      returndatasize\n      not(0x1f)\n      0x1f\n      dup3\n      add\n      and\n      dup3\n      add\n      dup1\n      0x40\n      mstore\n      pop\n      dup2\n      add\n      swap1\n      tag_96\n      swap2\n      swap1\n      tag_97\n      jump\t// in\n    tag_96:\n        /* \"contracts/lottery.sol\":3239:3295  link.transfer(msg.sender, link.balanceOf(address(this))) */\n      mload(0x40)\n      dup4\n      0xffffffff\n      and\n      0xe0\n      shl\n      dup2\n      mstore\n      0x04\n      add\n      tag_98\n      swap3\n      swap2\n      swap1\n      tag_99\n      jump\t// in\n    tag_98:\n      0x20\n      mload(0x40)\n      dup1\n      dup4\n      sub\n      dup2\n      0x00\n      dup8\n      gas\n      call\n      iszero\n      dup1\n      iszero\n      tag_101\n      jumpi\n      returndatasize\n      0x00\n      dup1\n      returndatacopy\n      revert(0x00, returndatasize)\n    tag_101:\n      pop\n      pop\n      pop\n      pop\n      mload(0x40)\n      returndatasize\n      not(0x1f)\n      0x1f\n      dup3\n      add\n      and\n      dup3\n      add\n      dup1\n      0x40\n      mstore\n      pop\n      dup2\n      add\n      swap1\n      tag_102\n      swap2\n      swap1\n      tag_103\n      jump\t// in\n    tag_102:\n        /* \"contracts/lottery.sol\":3217:3341  require(... */\n      tag_104\n      jumpi\n      mload(0x40)\n      0x08c379a000000000000000000000000000000000000000000000000000000000\n      dup2\n      mstore\n      0x04\n      add\n      tag_105\n      swap1\n      tag_106\n      jump\t// in\n    tag_105:\n      mload(0x40)\n      dup1\n      swap2\n      sub\n      swap1\n      revert\n    tag_104:\n        /* \"contracts/lottery.sol\":3138:3349  {... */\n      pop\n        /* \"contracts/lottery.sol\":3082:3349  function withdrawAllLinkFromContract() public onlyOwner {... */\n      jump\t// out\n        /* \"contracts/lottery.sol\":2122:2759  function distributeRewards() public onlyOwner {... */\n    tag_44:\n        /* \"contracts/lottery.sol\":3633:3640  creator */\n      immutable(\"0xc7d00ca82740de2eef417cfa47c2970dbdec49b2a6d15c64e85f83cf97939ca5\")\n        /* \"contracts/lottery.sol\":3619:3640  msg.sender == creator */\n      0xffffffffffffffffffffffffffffffffffffffff\n      and\n        /* \"contracts/lottery.sol\":3619:3629  msg.sender */\n      caller\n        /* \"contracts/lottery.sol\":3619:3640  msg.sender == creator */\n      0xffffffffffffffffffffffffffffffffffffffff\n      and\n      eq\n        /* \"contracts/lottery.sol\":3611:3679  require(msg.sender == creator, \"Not Allowed! You are not the owner\") */\n      tag_108\n      jumpi\n      mload(0x40)\n      0x08c379a000000000000000000000000000000000000000000000000000000000\n      dup2\n      mstore\n      0x04\n      add\n      tag_109\n      swap1\n      tag_91\n      jump\t// in\n    tag_109:\n      mload(0x40)\n      dup1\n      swap2\n      sub\n      swap1\n      revert\n    tag_108:\n        /* \"contracts/lottery.sol\":2179:2204  uint256 balanceInContract */\n      0x00\n        /* \"contracts/lottery.sol\":2207:2228  address(this).balance */\n      selfbalance\n        /* \"contracts/lottery.sol\":2179:2228  uint256 balanceInContract = address(this).balance */\n      swap1\n      pop\n        /* \"contracts/lottery.sol\":2239:2258  uint256 ownerReward */\n      0x00\n        /* \"contracts/lottery.sol\":2285:2288  100 */\n      0x64\n        /* \"contracts/lottery.sol\":2282:2283  5 */\n      0x05\n        /* \"contracts/lottery.sol\":2262:2279  balanceInContract */\n      dup4\n        /* \"contracts/lottery.sol\":2262:2283  balanceInContract * 5 */\n      tag_111\n      swap2\n      swap1\n      tag_112\n      jump\t// in\n    tag_111:\n        /* \"contracts/lottery.sol\":2261:2288  (balanceInContract * 5)/100 */\n      tag_113\n      swap2\n      swap1\n      tag_114\n      jump\t// in\n    tag_113:\n        /* \"contracts/lottery.sol\":2239:2288  uint256 ownerReward = (balanceInContract * 5)/100 */\n      swap1\n      pop\n        /* \"contracts/lottery.sol\":2300:2319  bool sentToContract */\n      0x00\n        /* \"contracts/lottery.sol\":2341:2354  childContract */\n      immutable(\"0x05dee4192aaad4acb149f9615e8a72a761fc8cdb1d8b4e9c00fe66665f5a8184\")\n        /* \"contracts/lottery.sol\":2325:2361  payable(address(childContract)).call */\n      0xffffffffffffffffffffffffffffffffffffffff\n      and\n        /* \"contracts/lottery.sol\":2383:2394  ownerReward */\n      dup3\n        /* \"contracts/lottery.sol\":2325:2409  payable(address(childContract)).call{... */\n      mload(0x40)\n      tag_115\n      swap1\n      tag_116\n      jump\t// in\n    tag_115:\n      0x00\n      mload(0x40)\n      dup1\n      dup4\n      sub\n      dup2\n      dup6\n      dup8\n      gas\n      call\n      swap3\n      pop\n      pop\n      pop\n      returndatasize\n      dup1\n      0x00\n      dup2\n      eq\n      tag_119\n      jumpi\n      mload(0x40)\n      swap2\n      pop\n      and(add(returndatasize, 0x3f), not(0x1f))\n      dup3\n      add\n      0x40\n      mstore\n      returndatasize\n      dup3\n      mstore\n      returndatasize\n      0x00\n      0x20\n      dup5\n      add\n      returndatacopy\n      jump(tag_118)\n    tag_119:\n      0x60\n      swap2\n      pop\n    tag_118:\n      pop\n        /* \"contracts/lottery.sol\":2299:2409  (bool sentToContract, ) = payable(address(childContract)).call{... */\n      pop\n      swap1\n      pop\n        /* \"contracts/lottery.sol\":2428:2442  sentToContract */\n      dup1\n        /* \"contracts/lottery.sol\":2420:2492  require(sentToContract, \"Call Failed. Couldn't send to child contract.\") */\n      tag_120\n      jumpi\n      mload(0x40)\n      0x08c379a000000000000000000000000000000000000000000000000000000000\n      dup2\n      mstore\n      0x04\n      add\n      tag_121\n      swap1\n      tag_122\n      jump\t// in\n    tag_121:\n      mload(0x40)\n      dup1\n      swap2\n      sub\n      swap1\n      revert\n    tag_120:\n        /* \"contracts/lottery.sol\":2503:2521  uint256 firstPrize */\n      0x00\n        /* \"contracts/lottery.sol\":2551:2554  100 */\n      0x64\n        /* \"contracts/lottery.sol\":2545:2547  50 */\n      0x32\n        /* \"contracts/lottery.sol\":2525:2542  balanceInContract */\n      dup6\n        /* \"contracts/lottery.sol\":2525:2547  balanceInContract * 50 */\n      tag_123\n      swap2\n      swap1\n      tag_112\n      jump\t// in\n    tag_123:\n        /* \"contracts/lottery.sol\":2524:2554  (balanceInContract * 50) / 100 */\n      tag_124\n      swap2\n      swap1\n      tag_114\n      jump\t// in\n    tag_124:\n        /* \"contracts/lottery.sol\":2503:2554  uint256 firstPrize = (balanceInContract * 50) / 100 */\n      swap1\n      pop\n        /* \"contracts/lottery.sol\":2565:2584  uint256 secondPrize */\n      0x00\n        /* \"contracts/lottery.sol\":2614:2617  100 */\n      0x64\n        /* \"contracts/lottery.sol\":2608:2610  30 */\n      0x1e\n        /* \"contracts/lottery.sol\":2588:2605  balanceInContract */\n      dup7\n        /* \"contracts/lottery.sol\":2588:2610  balanceInContract * 30 */\n      tag_125\n      swap2\n      swap1\n      tag_112\n      jump\t// in\n    tag_125:\n        /* \"contracts/lottery.sol\":2587:2617  (balanceInContract * 30) / 100 */\n      tag_126\n      swap2\n      swap1\n      tag_114\n      jump\t// in\n    tag_126:\n        /* \"contracts/lottery.sol\":2565:2617  uint256 secondPrize = (balanceInContract * 30) / 100 */\n      swap1\n      pop\n        /* \"contracts/lottery.sol\":2628:2646  uint256 thirdPrize */\n      0x00\n        /* \"contracts/lottery.sol\":2676:2679  100 */\n      0x64\n        /* \"contracts/lottery.sol\":2670:2672  10 */\n      0x0a\n        /* \"contracts/lottery.sol\":2650:2667  balanceInContract */\n      dup8\n        /* \"contracts/lottery.sol\":2650:2672  balanceInContract * 10 */\n      tag_127\n      swap2\n      swap1\n      tag_112\n      jump\t// in\n    tag_127:\n        /* \"contracts/lottery.sol\":2649:2679  (balanceInContract * 10) / 100 */\n      tag_128\n      swap2\n      swap1\n      tag_114\n      jump\t// in\n    tag_128:\n        /* \"contracts/lottery.sol\":2628:2679  uint256 thirdPrize = (balanceInContract * 10) / 100 */\n      swap1\n      pop\n        /* \"contracts/lottery.sol\":2734:2751  resetEverything() */\n      tag_129\n        /* \"contracts/lottery.sol\":2734:2749  resetEverything */\n      tag_130\n        /* \"contracts/lottery.sol\":2734:2751  resetEverything() */\n      jump\t// in\n    tag_129:\n        /* \"contracts/lottery.sol\":2168:2759  {... */\n      pop\n      pop\n      pop\n      pop\n      pop\n      pop\n        /* \"contracts/lottery.sol\":2122:2759  function distributeRewards() public onlyOwner {... */\n      jump\t// out\n        /* \"contracts/lottery.sol\":3357:3571  function withdrawEverythingAlsoCalledRugLol() public onlyOwner {... */\n    tag_47:\n        /* \"contracts/lottery.sol\":3633:3640  creator */\n      immutable(\"0xc7d00ca82740de2eef417cfa47c2970dbdec49b2a6d15c64e85f83cf97939ca5\")\n        /* \"contracts/lottery.sol\":3619:3640  msg.sender == creator */\n      0xffffffffffffffffffffffffffffffffffffffff\n      and\n        /* \"contracts/lottery.sol\":3619:3629  msg.sender */\n      caller\n        /* \"contracts/lottery.sol\":3619:3640  msg.sender == creator */\n      0xffffffffffffffffffffffffffffffffffffffff\n      and\n      eq\n        /* \"contracts/lottery.sol\":3611:3679  require(msg.sender == creator, \"Not Allowed! You are not the owner\") */\n      tag_132\n      jumpi\n      mload(0x40)\n      0x08c379a000000000000000000000000000000000000000000000000000000000\n      dup2\n      mstore\n      0x04\n      add\n      tag_133\n      swap1\n      tag_91\n      jump\t// in\n    tag_133:\n      mload(0x40)\n      dup1\n      swap2\n      sub\n      swap1\n      revert\n    tag_132:\n        /* \"contracts/lottery.sol\":3432:3441  bool sent */\n      0x00\n        /* \"contracts/lottery.sol\":3455:3465  msg.sender */\n      caller\n        /* \"contracts/lottery.sol\":3447:3471  payable(msg.sender).call */\n      0xffffffffffffffffffffffffffffffffffffffff\n      and\n        /* \"contracts/lottery.sol\":3493:3514  address(this).balance */\n      selfbalance\n        /* \"contracts/lottery.sol\":3447:3529  payable(msg.sender).call{... */\n      mload(0x40)\n      tag_135\n      swap1\n      tag_116\n      jump\t// in\n    tag_135:\n      0x00\n      mload(0x40)\n      dup1\n      dup4\n      sub\n      dup2\n      dup6\n      dup8\n      gas\n      call\n      swap3\n      pop\n      pop\n      pop\n      returndatasize\n      dup1\n      0x00\n      dup2\n      eq\n      tag_138\n      jumpi\n      mload(0x40)\n      swap2\n      pop\n      and(add(returndatasize, 0x3f), not(0x1f))\n      dup3\n      add\n      0x40\n      mstore\n      returndatasize\n      dup3\n      mstore\n      returndatasize\n      0x00\n      0x20\n      dup5\n      add\n      returndatacopy\n      jump(tag_137)\n    tag_138:\n      0x60\n      swap2\n      pop\n    tag_137:\n      pop\n        /* \"contracts/lottery.sol\":3431:3529  (bool sent, ) = payable(msg.sender).call{... */\n      pop\n      swap1\n      pop\n        /* \"contracts/lottery.sol\":3548:3552  sent */\n      dup1\n        /* \"contracts/lottery.sol\":3540:3563  require(sent, \"Failed\") */\n      tag_139\n      jumpi\n      mload(0x40)\n      0x08c379a000000000000000000000000000000000000000000000000000000000\n      dup2\n      mstore\n      0x04\n      add\n      tag_140\n      swap1\n      tag_141\n      jump\t// in\n    tag_140:\n      mload(0x40)\n      dup1\n      swap2\n      sub\n      swap1\n      revert\n    tag_139:\n        /* \"contracts/lottery.sol\":3420:3571  {... */\n      pop\n        /* \"contracts/lottery.sol\":3357:3571  function withdrawEverythingAlsoCalledRugLol() public onlyOwner {... */\n      jump\t// out\n        /* \"contracts/lottery.sol\":2767:3074  function withdrawTip() public {... */\n    tag_50:\n        /* \"contracts/lottery.sol\":2843:2844  0 */\n      0x00\n        /* \"contracts/lottery.sol\":2816:2828  addressToTip */\n      0x03\n        /* \"contracts/lottery.sol\":2816:2840  addressToTip[msg.sender] */\n      0x00\n        /* \"contracts/lottery.sol\":2829:2839  msg.sender */\n      caller\n        /* \"contracts/lottery.sol\":2816:2840  addressToTip[msg.sender] */\n      0xffffffffffffffffffffffffffffffffffffffff\n      and\n      0xffffffffffffffffffffffffffffffffffffffff\n      and\n      dup2\n      mstore\n      0x20\n      add\n      swap1\n      dup2\n      mstore\n      0x20\n      add\n      0x00\n      keccak256\n      sload\n        /* \"contracts/lottery.sol\":2816:2844  addressToTip[msg.sender] > 0 */\n      gt\n        /* \"contracts/lottery.sol\":2808:2868  require(addressToTip[msg.sender] > 0, \"No Tip to withdraw!\") */\n      tag_143\n      jumpi\n      mload(0x40)\n      0x08c379a000000000000000000000000000000000000000000000000000000000\n      dup2\n      mstore\n      0x04\n      add\n      tag_144\n      swap1\n      tag_145\n      jump\t// in\n    tag_144:\n      mload(0x40)\n      dup1\n      swap2\n      sub\n      swap1\n      revert\n    tag_143:\n        /* \"contracts/lottery.sol\":2880:2889  bool sent */\n      0x00\n        /* \"contracts/lottery.sol\":2903:2913  msg.sender */\n      caller\n        /* \"contracts/lottery.sol\":2895:2919  payable(msg.sender).call */\n      0xffffffffffffffffffffffffffffffffffffffff\n      and\n        /* \"contracts/lottery.sol\":2975:2978  100 */\n      0x64\n        /* \"contracts/lottery.sol\":2969:2971  99 */\n      0x63\n        /* \"contracts/lottery.sol\":2942:2954  addressToTip */\n      0x03\n        /* \"contracts/lottery.sol\":2942:2966  addressToTip[msg.sender] */\n      0x00\n        /* \"contracts/lottery.sol\":2955:2965  msg.sender */\n      caller\n        /* \"contracts/lottery.sol\":2942:2966  addressToTip[msg.sender] */\n      0xffffffffffffffffffffffffffffffffffffffff\n      and\n      0xffffffffffffffffffffffffffffffffffffffff\n      and\n      dup2\n      mstore\n      0x20\n      add\n      swap1\n      dup2\n      mstore\n      0x20\n      add\n      0x00\n      keccak256\n      sload\n        /* \"contracts/lottery.sol\":2942:2971  addressToTip[msg.sender] * 99 */\n      tag_146\n      swap2\n      swap1\n      tag_112\n      jump\t// in\n    tag_146:\n        /* \"contracts/lottery.sol\":2941:2978  (addressToTip[msg.sender] * 99) / 100 */\n      tag_147\n      swap2\n      swap1\n      tag_114\n      jump\t// in\n    tag_147:\n        /* \"contracts/lottery.sol\":2895:2993  payable(msg.sender).call{... */\n      mload(0x40)\n      tag_148\n      swap1\n      tag_116\n      jump\t// in\n    tag_148:\n      0x00\n      mload(0x40)\n      dup1\n      dup4\n      sub\n      dup2\n      dup6\n      dup8\n      gas\n      call\n      swap3\n      pop\n      pop\n      pop\n      returndatasize\n      dup1\n      0x00\n      dup2\n      eq\n      tag_151\n      jumpi\n      mload(0x40)\n      swap2\n      pop\n      and(add(returndatasize, 0x3f), not(0x1f))\n      dup3\n      add\n      0x40\n      mstore\n      returndatasize\n      dup3\n      mstore\n      returndatasize\n      0x00\n      0x20\n      dup5\n      add\n      returndatacopy\n      jump(tag_150)\n    tag_151:\n      0x60\n      swap2\n      pop\n    tag_150:\n      pop\n        /* \"contracts/lottery.sol\":2879:2993  (bool sent, ) = payable(msg.sender).call{... */\n      pop\n      swap1\n      pop\n        /* \"contracts/lottery.sol\":3012:3016  sent */\n      dup1\n        /* \"contracts/lottery.sol\":3004:3027  require(sent, \"Failed\") */\n      tag_152\n      jumpi\n      mload(0x40)\n      0x08c379a000000000000000000000000000000000000000000000000000000000\n      dup2\n      mstore\n      0x04\n      add\n      tag_153\n      swap1\n      tag_141\n      jump\t// in\n    tag_153:\n      mload(0x40)\n      dup1\n      swap2\n      sub\n      swap1\n      revert\n    tag_152:\n        /* \"contracts/lottery.sol\":3065:3066  0 */\n      0x00\n        /* \"contracts/lottery.sol\":3038:3050  addressToTip */\n      0x03\n        /* \"contracts/lottery.sol\":3038:3062  addressToTip[msg.sender] */\n      0x00\n        /* \"contracts/lottery.sol\":3051:3061  msg.sender */\n      caller\n        /* \"contracts/lottery.sol\":3038:3062  addressToTip[msg.sender] */\n      0xffffffffffffffffffffffffffffffffffffffff\n      and\n      0xffffffffffffffffffffffffffffffffffffffff\n      and\n      dup2\n      mstore\n      0x20\n      add\n      swap1\n      dup2\n      mstore\n      0x20\n      add\n      0x00\n      keccak256\n        /* \"contracts/lottery.sol\":3038:3066  addressToTip[msg.sender] = 0 */\n      dup2\n      swap1\n      sstore\n      pop\n        /* \"contracts/lottery.sol\":2797:3074  {... */\n      pop\n        /* \"contracts/lottery.sol\":2767:3074  function withdrawTip() public {... */\n      jump\t// out\n        /* \"contracts/lottery.sol\":427:466  myProfit public immutable childContract */\n    tag_53:\n      immutable(\"0x05dee4192aaad4acb149f9615e8a72a761fc8cdb1d8b4e9c00fe66665f5a8184\")\n      dup2\n      jump\t// out\n        /* \"contracts/lottery.sol\":509:566  mapping(address=>uint256) public addressToNumberOfTickets */\n    tag_59:\n      mstore(0x20, 0x02)\n      dup1\n      0x00\n      mstore\n      keccak256(0x00, 0x40)\n      0x00\n      swap2\n      pop\n      swap1\n      pop\n      sload\n      dup2\n      jump\t// out\n        /* \"contracts/uintLibrary.sol\":478:722  function toUSD(uint256 ethAmount)... */\n    tag_64:\n        /* \"contracts/uintLibrary.sol\":562:569  uint256 */\n      0x00\n        /* \"contracts/uintLibrary.sol\":587:603  uint256 ethPrice */\n      dup1\n        /* \"contracts/uintLibrary.sol\":606:616  getPrice() */\n      tag_155\n        /* \"contracts/uintLibrary.sol\":606:614  getPrice */\n      tag_156\n        /* \"contracts/uintLibrary.sol\":606:616  getPrice() */\n      jump\t// in\n    tag_155:\n        /* \"contracts/uintLibrary.sol\":587:616  uint256 ethPrice = getPrice() */\n      swap1\n      pop\n        /* \"contracts/uintLibrary.sol\":637:653  uint amountInUSD */\n      0x00\n        /* \"contracts/uintLibrary.sol\":681:685  1e18 */\n      0x0de0b6b3a7640000\n        /* \"contracts/uintLibrary.sol\":668:677  ethAmount */\n      dup5\n        /* \"contracts/uintLibrary.sol\":657:665  ethPrice */\n      dup4\n        /* \"contracts/uintLibrary.sol\":657:677  ethPrice * ethAmount */\n      tag_157\n      swap2\n      swap1\n      tag_112\n      jump\t// in\n    tag_157:\n        /* \"contracts/uintLibrary.sol\":656:685  (ethPrice * ethAmount) / 1e18 */\n      tag_158\n      swap2\n      swap1\n      tag_114\n      jump\t// in\n    tag_158:\n        /* \"contracts/uintLibrary.sol\":637:685  uint amountInUSD = (ethPrice * ethAmount) / 1e18 */\n      swap1\n      pop\n        /* \"contracts/uintLibrary.sol\":703:714  amountInUSD */\n      dup1\n        /* \"contracts/uintLibrary.sol\":696:714  return amountInUSD */\n      swap3\n      pop\n      pop\n      pop\n        /* \"contracts/uintLibrary.sol\":478:722  function toUSD(uint256 ethAmount)... */\n      swap2\n      swap1\n      pop\n      jump\t// out\n        /* \"contracts/lottery.sol\":835:1173  function isNewBuyer(address buyer) internal view returns(bool) {... */\n    tag_72:\n        /* \"contracts/lottery.sol\":892:896  bool */\n      0x00\n        /* \"contracts/lottery.sol\":909:923  uint256 length */\n      dup1\n        /* \"contracts/lottery.sol\":926:938  participants */\n      0x01\n        /* \"contracts/lottery.sol\":926:945  participants.length */\n      dup1\n      sload\n      swap1\n      pop\n        /* \"contracts/lottery.sol\":909:945  uint256 length = participants.length */\n      swap1\n      pop\n        /* \"contracts/lottery.sol\":956:966  bool found */\n      0x00\n        /* \"contracts/lottery.sol\":989:998  uint256 i */\n      dup1\n        /* \"contracts/lottery.sol\":985:1143  for(uint256 i = 0; i < length; i++) {... */\n    tag_160:\n        /* \"contracts/lottery.sol\":1008:1014  length */\n      dup3\n        /* \"contracts/lottery.sol\":1004:1005  i */\n      dup2\n        /* \"contracts/lottery.sol\":1004:1014  i < length */\n      lt\n        /* \"contracts/lottery.sol\":985:1143  for(uint256 i = 0; i < length; i++) {... */\n      iszero\n      tag_161\n      jumpi\n        /* \"contracts/lottery.sol\":1036:1058  address addressAtIndex */\n      0x00\n        /* \"contracts/lottery.sol\":1061:1073  participants */\n      0x01\n        /* \"contracts/lottery.sol\":1074:1075  i */\n      dup3\n        /* \"contracts/lottery.sol\":1061:1076  participants[i] */\n      dup2\n      sload\n      dup2\n      lt\n      tag_163\n      jumpi\n      tag_164\n      tag_165\n      jump\t// in\n    tag_164:\n    tag_163:\n      swap1\n      0x00\n      mstore\n      keccak256(0x00, 0x20)\n      add\n      0x00\n      swap1\n      sload\n      swap1\n      0x0100\n      exp\n      swap1\n      div\n      0xffffffffffffffffffffffffffffffffffffffff\n      and\n        /* \"contracts/lottery.sol\":1036:1076  address addressAtIndex = participants[i] */\n      swap1\n      pop\n        /* \"contracts/lottery.sol\":1112:1117  buyer */\n      dup6\n        /* \"contracts/lottery.sol\":1094:1117  addressAtIndex == buyer */\n      0xffffffffffffffffffffffffffffffffffffffff\n      and\n        /* \"contracts/lottery.sol\":1094:1108  addressAtIndex */\n      dup2\n        /* \"contracts/lottery.sol\":1094:1117  addressAtIndex == buyer */\n      0xffffffffffffffffffffffffffffffffffffffff\n      and\n      sub\n        /* \"contracts/lottery.sol\":1091:1131  if(addressAtIndex == buyer) found = true */\n      tag_167\n      jumpi\n        /* \"contracts/lottery.sol\":1127:1131  true */\n      0x01\n        /* \"contracts/lottery.sol\":1119:1131  found = true */\n      swap3\n      pop\n        /* \"contracts/lottery.sol\":1091:1131  if(addressAtIndex == buyer) found = true */\n    tag_167:\n        /* \"contracts/lottery.sol\":1021:1143  {... */\n      pop\n        /* \"contracts/lottery.sol\":1016:1019  i++ */\n      dup1\n      dup1\n      0x01\n      add\n      swap2\n      pop\n      pop\n        /* \"contracts/lottery.sol\":985:1143  for(uint256 i = 0; i < length; i++) {... */\n      jump(tag_160)\n    tag_161:\n      pop\n        /* \"contracts/lottery.sol\":1160:1165  found */\n      dup1\n        /* \"contracts/lottery.sol\":1153:1165  return found */\n      swap3\n      pop\n      pop\n      pop\n        /* \"contracts/lottery.sol\":835:1173  function isNewBuyer(address buyer) internal view returns(bool) {... */\n      swap2\n      swap1\n      pop\n      jump\t// out\n        /* \"contracts/lottery.sol\":1863:2114  function resetEverything() internal {... */\n    tag_130:\n        /* \"contracts/lottery.sol\":1910:1924  uint256 length */\n      0x00\n        /* \"contracts/lottery.sol\":1927:1939  participants */\n      0x01\n        /* \"contracts/lottery.sol\":1927:1946  participants.length */\n      dup1\n      sload\n      swap1\n      pop\n        /* \"contracts/lottery.sol\":1910:1946  uint256 length = participants.length */\n      swap1\n      pop\n        /* \"contracts/lottery.sol\":1961:1970  uint256 i */\n      0x00\n        /* \"contracts/lottery.sol\":1957:2065  for(uint256 i = 0; i < length; i++) {... */\n    tag_169:\n        /* \"contracts/lottery.sol\":1980:1986  length */\n      dup2\n        /* \"contracts/lottery.sol\":1976:1977  i */\n      dup2\n        /* \"contracts/lottery.sol\":1976:1986  i < length */\n      lt\n        /* \"contracts/lottery.sol\":1957:2065  for(uint256 i = 0; i < length; i++) {... */\n      iszero\n      tag_170\n      jumpi\n        /* \"contracts/lottery.sol\":2052:2053  0 */\n      0x00\n        /* \"contracts/lottery.sol\":2008:2032  addressToNumberOfTickets */\n      0x02\n        /* \"contracts/lottery.sol\":2008:2049  addressToNumberOfTickets[participants[i]] */\n      0x00\n        /* \"contracts/lottery.sol\":2033:2045  participants */\n      0x01\n        /* \"contracts/lottery.sol\":2046:2047  i */\n      dup5\n        /* \"contracts/lottery.sol\":2033:2048  participants[i] */\n      dup2\n      sload\n      dup2\n      lt\n      tag_172\n      jumpi\n      tag_173\n      tag_165\n      jump\t// in\n    tag_173:\n    tag_172:\n      swap1\n      0x00\n      mstore\n      keccak256(0x00, 0x20)\n      add\n      0x00\n      swap1\n      sload\n      swap1\n      0x0100\n      exp\n      swap1\n      div\n      0xffffffffffffffffffffffffffffffffffffffff\n      and\n        /* \"contracts/lottery.sol\":2008:2049  addressToNumberOfTickets[participants[i]] */\n      0xffffffffffffffffffffffffffffffffffffffff\n      and\n      0xffffffffffffffffffffffffffffffffffffffff\n      and\n      dup2\n      mstore\n      0x20\n      add\n      swap1\n      dup2\n      mstore\n      0x20\n      add\n      0x00\n      keccak256\n        /* \"contracts/lottery.sol\":2008:2053  addressToNumberOfTickets[participants[i]] = 0 */\n      dup2\n      swap1\n      sstore\n      pop\n        /* \"contracts/lottery.sol\":1988:1991  i++ */\n      dup1\n      dup1\n      0x01\n      add\n      swap2\n      pop\n      pop\n        /* \"contracts/lottery.sol\":1957:2065  for(uint256 i = 0; i < length; i++) {... */\n      jump(tag_169)\n    tag_170:\n      pop\n        /* \"contracts/lottery.sol\":2104:2105  0 */\n      0x00\n        /* \"contracts/lottery.sol\":2090:2106  new address[](0) */\n      0xffffffffffffffff\n      dup2\n      gt\n      iszero\n      tag_175\n      jumpi\n      tag_176\n      tag_177\n      jump\t// in\n    tag_176:\n    tag_175:\n      mload(0x40)\n      swap1\n      dup1\n      dup3\n      mstore\n      dup1\n      0x20\n      mul\n      0x20\n      add\n      dup3\n      add\n      0x40\n      mstore\n      dup1\n      iszero\n      tag_178\n      jumpi\n      dup2\n      0x20\n      add\n      0x20\n      dup3\n      mul\n      dup1\n      calldatasize\n      dup4\n      calldatacopy\n      dup1\n      dup3\n      add\n      swap2\n      pop\n      pop\n      swap1\n      pop\n    tag_178:\n      pop\n        /* \"contracts/lottery.sol\":2075:2087  participants */\n      0x01\n        /* \"contracts/lottery.sol\":2075:2106  participants = new address[](0) */\n      swap1\n      dup1\n      mload\n      swap1\n      0x20\n      add\n      swap1\n      tag_179\n      swap3\n      swap2\n      swap1\n      tag_180\n      jump\t// in\n    tag_179:\n      pop\n        /* \"contracts/lottery.sol\":1899:2114  {... */\n      pop\n        /* \"contracts/lottery.sol\":1863:2114  function resetEverything() internal {... */\n      jump\t// out\n        /* \"contracts/uintLibrary.sol\":174:470  function getPrice() internal view returns (uint256) {... */\n    tag_156:\n        /* \"contracts/uintLibrary.sol\":217:224  uint256 */\n      0x00\n        /* \"contracts/uintLibrary.sol\":237:268  AggregatorV3Interface priceFeed */\n      dup1\n        /* \"contracts/uintLibrary.sol\":307:349  0x694AA1769357215DE4FAC081bf1f309aDC325306 */\n      0x694aa1769357215de4fac081bf1f309adc325306\n        /* \"contracts/uintLibrary.sol\":237:360  AggregatorV3Interface priceFeed = AggregatorV3Interface(... */\n      swap1\n      pop\n        /* \"contracts/uintLibrary.sol\":374:387  int256 answer */\n      0x00\n        /* \"contracts/uintLibrary.sol\":397:406  priceFeed */\n      dup2\n        /* \"contracts/uintLibrary.sol\":397:422  priceFeed.latestRoundData */\n      0xffffffffffffffffffffffffffffffffffffffff\n      and\n      0xfeaf968c\n        /* \"contracts/uintLibrary.sol\":397:424  priceFeed.latestRoundData() */\n      mload(0x40)\n      dup2\n      0xffffffff\n      and\n      0xe0\n      shl\n      dup2\n      mstore\n      0x04\n      add\n      0xa0\n      mload(0x40)\n      dup1\n      dup4\n      sub\n      dup2\n      dup7\n      gas\n      staticcall\n      iszero\n      dup1\n      iszero\n      tag_183\n      jumpi\n      returndatasize\n      0x00\n      dup1\n      returndatacopy\n      revert(0x00, returndatasize)\n    tag_183:\n      pop\n      pop\n      pop\n      pop\n      mload(0x40)\n      returndatasize\n      not(0x1f)\n      0x1f\n      dup3\n      add\n      and\n      dup3\n      add\n      dup1\n      0x40\n      mstore\n      pop\n      dup2\n      add\n      swap1\n      tag_184\n      swap2\n      swap1\n      tag_185\n      jump\t// in\n    tag_184:\n        /* \"contracts/uintLibrary.sol\":371:424  (, int256 answer, , , ) = priceFeed.latestRoundData() */\n      pop\n      pop\n      pop\n      swap2\n      pop\n      pop\n        /* \"contracts/uintLibrary.sol\":457:461  1e10 */\n      0x02540be400\n        /* \"contracts/uintLibrary.sol\":450:456  answer */\n      dup2\n        /* \"contracts/uintLibrary.sol\":450:461  answer*1e10 */\n      tag_186\n      swap2\n      swap1\n      tag_187\n      jump\t// in\n    tag_186:\n        /* \"contracts/uintLibrary.sol\":435:462  return uint256(answer*1e10) */\n      swap3\n      pop\n      pop\n      pop\n        /* \"contracts/uintLibrary.sol\":174:470  function getPrice() internal view returns (uint256) {... */\n      swap1\n      jump\t// out\n    tag_180:\n      dup3\n      dup1\n      sload\n      dup3\n      dup3\n      sstore\n      swap1\n      0x00\n      mstore\n      keccak256(0x00, 0x20)\n      swap1\n      dup2\n      add\n      swap3\n      dup3\n      iszero\n      tag_188\n      jumpi\n      swap2\n      0x20\n      mul\n      dup3\n      add\n    tag_189:\n      dup3\n      dup2\n      gt\n      iszero\n      tag_190\n      jumpi\n      dup3\n      mload\n      dup3\n      exp(0x0100, 0x00)\n      dup2\n      sload\n      dup2\n      0xffffffffffffffffffffffffffffffffffffffff\n      mul\n      not\n      and\n      swap1\n      dup4\n      0xffffffffffffffffffffffffffffffffffffffff\n      and\n      mul\n      or\n      swap1\n      sstore\n      pop\n      swap2\n      0x20\n      add\n      swap2\n      swap1\n      0x01\n      add\n      swap1\n      jump(tag_189)\n    tag_190:\n    tag_188:\n      pop\n      swap1\n      pop\n      tag_191\n      swap2\n      swap1\n      tag_192\n      jump\t// in\n    tag_191:\n      pop\n      swap1\n      jump\t// out\n    tag_192:\n    tag_193:\n      dup1\n      dup3\n      gt\n      iszero\n      tag_194\n      jumpi\n      0x00\n      dup2\n      0x00\n      swap1\n      sstore\n      pop\n      0x01\n      add\n      jump(tag_193)\n    tag_194:\n      pop\n      swap1\n      jump\t// out\n        /* \"#utility.yul\":7:133   */\n    tag_195:\n        /* \"#utility.yul\":44:51   */\n      0x00\n        /* \"#utility.yul\":84:126   */\n      0xffffffffffffffffffffffffffffffffffffffff\n        /* \"#utility.yul\":77:82   */\n      dup3\n        /* \"#utility.yul\":73:127   */\n      and\n        /* \"#utility.yul\":62:127   */\n      swap1\n      pop\n        /* \"#utility.yul\":7:133   */\n      swap2\n      swap1\n      pop\n      jump\t// out\n        /* \"#utility.yul\":139:235   */\n    tag_196:\n        /* \"#utility.yul\":176:183   */\n      0x00\n        /* \"#utility.yul\":205:229   */\n      tag_243\n        /* \"#utility.yul\":223:228   */\n      dup3\n        /* \"#utility.yul\":205:229   */\n      tag_195\n      jump\t// in\n    tag_243:\n        /* \"#utility.yul\":194:229   */\n      swap1\n      pop\n        /* \"#utility.yul\":139:235   */\n      swap2\n      swap1\n      pop\n      jump\t// out\n        /* \"#utility.yul\":241:359   */\n    tag_197:\n        /* \"#utility.yul\":328:352   */\n      tag_245\n        /* \"#utility.yul\":346:351   */\n      dup2\n        /* \"#utility.yul\":328:352   */\n      tag_196\n      jump\t// in\n    tag_245:\n        /* \"#utility.yul\":323:326   */\n      dup3\n        /* \"#utility.yul\":316:353   */\n      mstore\n        /* \"#utility.yul\":241:359   */\n      pop\n      pop\n      jump\t// out\n        /* \"#utility.yul\":365:587   */\n    tag_25:\n        /* \"#utility.yul\":458:462   */\n      0x00\n        /* \"#utility.yul\":496:498   */\n      0x20\n        /* \"#utility.yul\":485:494   */\n      dup3\n        /* \"#utility.yul\":481:499   */\n      add\n        /* \"#utility.yul\":473:499   */\n      swap1\n      pop\n        /* \"#utility.yul\":509:580   */\n      tag_247\n        /* \"#utility.yul\":577:578   */\n      0x00\n        /* \"#utility.yul\":566:575   */\n      dup4\n        /* \"#utility.yul\":562:579   */\n      add\n        /* \"#utility.yul\":553:559   */\n      dup5\n        /* \"#utility.yul\":509:580   */\n      tag_197\n      jump\t// in\n    tag_247:\n        /* \"#utility.yul\":365:587   */\n      swap3\n      swap2\n      pop\n      pop\n      jump\t// out\n        /* \"#utility.yul\":674:791   */\n    tag_199:\n        /* \"#utility.yul\":783:784   */\n      0x00\n        /* \"#utility.yul\":780:781   */\n      dup1\n        /* \"#utility.yul\":773:785   */\n      revert\n        /* \"#utility.yul\":920:997   */\n    tag_201:\n        /* \"#utility.yul\":957:964   */\n      0x00\n        /* \"#utility.yul\":986:991   */\n      dup2\n        /* \"#utility.yul\":975:991   */\n      swap1\n      pop\n        /* \"#utility.yul\":920:997   */\n      swap2\n      swap1\n      pop\n      jump\t// out\n        /* \"#utility.yul\":1003:1125   */\n    tag_202:\n        /* \"#utility.yul\":1076:1100   */\n      tag_253\n        /* \"#utility.yul\":1094:1099   */\n      dup2\n        /* \"#utility.yul\":1076:1100   */\n      tag_201\n      jump\t// in\n    tag_253:\n        /* \"#utility.yul\":1069:1074   */\n      dup2\n        /* \"#utility.yul\":1066:1101   */\n      eq\n        /* \"#utility.yul\":1056:1119   */\n      tag_254\n      jumpi\n        /* \"#utility.yul\":1115:1116   */\n      0x00\n        /* \"#utility.yul\":1112:1113   */\n      dup1\n        /* \"#utility.yul\":1105:1117   */\n      revert\n        /* \"#utility.yul\":1056:1119   */\n    tag_254:\n        /* \"#utility.yul\":1003:1125   */\n      pop\n      jump\t// out\n        /* \"#utility.yul\":1131:1270   */\n    tag_203:\n        /* \"#utility.yul\":1177:1182   */\n      0x00\n        /* \"#utility.yul\":1215:1221   */\n      dup2\n        /* \"#utility.yul\":1202:1222   */\n      calldataload\n        /* \"#utility.yul\":1193:1222   */\n      swap1\n      pop\n        /* \"#utility.yul\":1231:1264   */\n      tag_256\n        /* \"#utility.yul\":1258:1263   */\n      dup2\n        /* \"#utility.yul\":1231:1264   */\n      tag_202\n      jump\t// in\n    tag_256:\n        /* \"#utility.yul\":1131:1270   */\n      swap3\n      swap2\n      pop\n      pop\n      jump\t// out\n        /* \"#utility.yul\":1276:1605   */\n    tag_29:\n        /* \"#utility.yul\":1335:1341   */\n      0x00\n        /* \"#utility.yul\":1384:1386   */\n      0x20\n        /* \"#utility.yul\":1372:1381   */\n      dup3\n        /* \"#utility.yul\":1363:1370   */\n      dup5\n        /* \"#utility.yul\":1359:1382   */\n      sub\n        /* \"#utility.yul\":1355:1387   */\n      slt\n        /* \"#utility.yul\":1352:1471   */\n      iszero\n      tag_258\n      jumpi\n        /* \"#utility.yul\":1390:1469   */\n      tag_259\n      tag_199\n      jump\t// in\n    tag_259:\n        /* \"#utility.yul\":1352:1471   */\n    tag_258:\n        /* \"#utility.yul\":1510:1511   */\n      0x00\n        /* \"#utility.yul\":1535:1588   */\n      tag_260\n        /* \"#utility.yul\":1580:1587   */\n      dup5\n        /* \"#utility.yul\":1571:1577   */\n      dup3\n        /* \"#utility.yul\":1560:1569   */\n      dup6\n        /* \"#utility.yul\":1556:1578   */\n      add\n        /* \"#utility.yul\":1535:1588   */\n      tag_203\n      jump\t// in\n    tag_260:\n        /* \"#utility.yul\":1525:1588   */\n      swap2\n      pop\n        /* \"#utility.yul\":1481:1598   */\n      pop\n        /* \"#utility.yul\":1276:1605   */\n      swap3\n      swap2\n      pop\n      pop\n      jump\t// out\n        /* \"#utility.yul\":1611:1733   */\n    tag_204:\n        /* \"#utility.yul\":1684:1708   */\n      tag_262\n        /* \"#utility.yul\":1702:1707   */\n      dup2\n        /* \"#utility.yul\":1684:1708   */\n      tag_196\n      jump\t// in\n    tag_262:\n        /* \"#utility.yul\":1677:1682   */\n      dup2\n        /* \"#utility.yul\":1674:1709   */\n      eq\n        /* \"#utility.yul\":1664:1727   */\n      tag_263\n      jumpi\n        /* \"#utility.yul\":1723:1724   */\n      0x00\n        /* \"#utility.yul\":1720:1721   */\n      dup1\n        /* \"#utility.yul\":1713:1725   */\n      revert\n        /* \"#utility.yul\":1664:1727   */\n    tag_263:\n        /* \"#utility.yul\":1611:1733   */\n      pop\n      jump\t// out\n        /* \"#utility.yul\":1739:1878   */\n    tag_205:\n        /* \"#utility.yul\":1785:1790   */\n      0x00\n        /* \"#utility.yul\":1823:1829   */\n      dup2\n        /* \"#utility.yul\":1810:1830   */\n      calldataload\n        /* \"#utility.yul\":1801:1830   */\n      swap1\n      pop\n        /* \"#utility.yul\":1839:1872   */\n      tag_265\n        /* \"#utility.yul\":1866:1871   */\n      dup2\n        /* \"#utility.yul\":1839:1872   */\n      tag_204\n      jump\t// in\n    tag_265:\n        /* \"#utility.yul\":1739:1878   */\n      swap3\n      swap2\n      pop\n      pop\n      jump\t// out\n        /* \"#utility.yul\":1884:2213   */\n    tag_35:\n        /* \"#utility.yul\":1943:1949   */\n      0x00\n        /* \"#utility.yul\":1992:1994   */\n      0x20\n        /* \"#utility.yul\":1980:1989   */\n      dup3\n        /* \"#utility.yul\":1971:1978   */\n      dup5\n        /* \"#utility.yul\":1967:1990   */\n      sub\n        /* \"#utility.yul\":1963:1995   */\n      slt\n        /* \"#utility.yul\":1960:2079   */\n      iszero\n      tag_267\n      jumpi\n        /* \"#utility.yul\":1998:2077   */\n      tag_268\n      tag_199\n      jump\t// in\n    tag_268:\n        /* \"#utility.yul\":1960:2079   */\n    tag_267:\n        /* \"#utility.yul\":2118:2119   */\n      0x00\n        /* \"#utility.yul\":2143:2196   */\n      tag_269\n        /* \"#utility.yul\":2188:2195   */\n      dup5\n        /* \"#utility.yul\":2179:2185   */\n      dup3\n        /* \"#utility.yul\":2168:2177   */\n      dup6\n        /* \"#utility.yul\":2164:2186   */\n      add\n        /* \"#utility.yul\":2143:2196   */\n      tag_205\n      jump\t// in\n    tag_269:\n        /* \"#utility.yul\":2133:2196   */\n      swap2\n      pop\n        /* \"#utility.yul\":2089:2206   */\n      pop\n        /* \"#utility.yul\":1884:2213   */\n      swap3\n      swap2\n      pop\n      pop\n      jump\t// out\n        /* \"#utility.yul\":2219:2337   */\n    tag_206:\n        /* \"#utility.yul\":2306:2330   */\n      tag_271\n        /* \"#utility.yul\":2324:2329   */\n      dup2\n        /* \"#utility.yul\":2306:2330   */\n      tag_201\n      jump\t// in\n    tag_271:\n        /* \"#utility.yul\":2301:2304   */\n      dup3\n        /* \"#utility.yul\":2294:2331   */\n      mstore\n        /* \"#utility.yul\":2219:2337   */\n      pop\n      pop\n      jump\t// out\n        /* \"#utility.yul\":2343:2565   */\n    tag_38:\n        /* \"#utility.yul\":2436:2440   */\n      0x00\n        /* \"#utility.yul\":2474:2476   */\n      0x20\n        /* \"#utility.yul\":2463:2472   */\n      dup3\n        /* \"#utility.yul\":2459:2477   */\n      add\n        /* \"#utility.yul\":2451:2477   */\n      swap1\n      pop\n        /* \"#utility.yul\":2487:2558   */\n      tag_273\n        /* \"#utility.yul\":2555:2556   */\n      0x00\n        /* \"#utility.yul\":2544:2553   */\n      dup4\n        /* \"#utility.yul\":2540:2557   */\n      add\n        /* \"#utility.yul\":2531:2537   */\n      dup5\n        /* \"#utility.yul\":2487:2558   */\n      tag_206\n      jump\t// in\n    tag_273:\n        /* \"#utility.yul\":2343:2565   */\n      swap3\n      swap2\n      pop\n      pop\n      jump\t// out\n        /* \"#utility.yul\":2571:2631   */\n    tag_207:\n        /* \"#utility.yul\":2599:2602   */\n      0x00\n        /* \"#utility.yul\":2620:2625   */\n      dup2\n        /* \"#utility.yul\":2613:2625   */\n      swap1\n      pop\n        /* \"#utility.yul\":2571:2631   */\n      swap2\n      swap1\n      pop\n      jump\t// out\n        /* \"#utility.yul\":2637:2779   */\n    tag_208:\n        /* \"#utility.yul\":2687:2696   */\n      0x00\n        /* \"#utility.yul\":2720:2773   */\n      tag_276\n        /* \"#utility.yul\":2738:2772   */\n      tag_277\n        /* \"#utility.yul\":2747:2771   */\n      tag_278\n        /* \"#utility.yul\":2765:2770   */\n      dup5\n        /* \"#utility.yul\":2747:2771   */\n      tag_195\n      jump\t// in\n    tag_278:\n        /* \"#utility.yul\":2738:2772   */\n      tag_207\n      jump\t// in\n    tag_277:\n        /* \"#utility.yul\":2720:2773   */\n      tag_195\n      jump\t// in\n    tag_276:\n        /* \"#utility.yul\":2707:2773   */\n      swap1\n      pop\n        /* \"#utility.yul\":2637:2779   */\n      swap2\n      swap1\n      pop\n      jump\t// out\n        /* \"#utility.yul\":2785:2911   */\n    tag_209:\n        /* \"#utility.yul\":2835:2844   */\n      0x00\n        /* \"#utility.yul\":2868:2905   */\n      tag_280\n        /* \"#utility.yul\":2899:2904   */\n      dup3\n        /* \"#utility.yul\":2868:2905   */\n      tag_208\n      jump\t// in\n    tag_280:\n        /* \"#utility.yul\":2855:2905   */\n      swap1\n      pop\n        /* \"#utility.yul\":2785:2911   */\n      swap2\n      swap1\n      pop\n      jump\t// out\n        /* \"#utility.yul\":2917:3059   */\n    tag_210:\n        /* \"#utility.yul\":2983:2992   */\n      0x00\n        /* \"#utility.yul\":3016:3053   */\n      tag_282\n        /* \"#utility.yul\":3047:3052   */\n      dup3\n        /* \"#utility.yul\":3016:3053   */\n      tag_209\n      jump\t// in\n    tag_282:\n        /* \"#utility.yul\":3003:3053   */\n      swap1\n      pop\n        /* \"#utility.yul\":2917:3059   */\n      swap2\n      swap1\n      pop\n      jump\t// out\n        /* \"#utility.yul\":3065:3228   */\n    tag_211:\n        /* \"#utility.yul\":3168:3221   */\n      tag_284\n        /* \"#utility.yul\":3215:3220   */\n      dup2\n        /* \"#utility.yul\":3168:3221   */\n      tag_210\n      jump\t// in\n    tag_284:\n        /* \"#utility.yul\":3163:3166   */\n      dup3\n        /* \"#utility.yul\":3156:3222   */\n      mstore\n        /* \"#utility.yul\":3065:3228   */\n      pop\n      pop\n      jump\t// out\n        /* \"#utility.yul\":3234:3488   */\n    tag_55:\n        /* \"#utility.yul\":3343:3347   */\n      0x00\n        /* \"#utility.yul\":3381:3383   */\n      0x20\n        /* \"#utility.yul\":3370:3379   */\n      dup3\n        /* \"#utility.yul\":3366:3384   */\n      add\n        /* \"#utility.yul\":3358:3384   */\n      swap1\n      pop\n        /* \"#utility.yul\":3394:3481   */\n      tag_286\n        /* \"#utility.yul\":3478:3479   */\n      0x00\n        /* \"#utility.yul\":3467:3476   */\n      dup4\n        /* \"#utility.yul\":3463:3480   */\n      add\n        /* \"#utility.yul\":3454:3460   */\n      dup5\n        /* \"#utility.yul\":3394:3481   */\n      tag_211\n      jump\t// in\n    tag_286:\n        /* \"#utility.yul\":3234:3488   */\n      swap3\n      swap2\n      pop\n      pop\n      jump\t// out\n        /* \"#utility.yul\":3494:3663   */\n    tag_212:\n        /* \"#utility.yul\":3578:3589   */\n      0x00\n        /* \"#utility.yul\":3612:3618   */\n      dup3\n        /* \"#utility.yul\":3607:3610   */\n      dup3\n        /* \"#utility.yul\":3600:3619   */\n      mstore\n        /* \"#utility.yul\":3652:3656   */\n      0x20\n        /* \"#utility.yul\":3647:3650   */\n      dup3\n        /* \"#utility.yul\":3643:3657   */\n      add\n        /* \"#utility.yul\":3628:3657   */\n      swap1\n      pop\n        /* \"#utility.yul\":3494:3663   */\n      swap3\n      swap2\n      pop\n      pop\n      jump\t// out\n        /* \"#utility.yul\":3669:3837   */\n    tag_213:\n        /* \"#utility.yul\":3809:3829   */\n      0x4e65656420746f2073656e64206d6f72652e0000000000000000000000000000\n        /* \"#utility.yul\":3805:3806   */\n      0x00\n        /* \"#utility.yul\":3797:3803   */\n      dup3\n        /* \"#utility.yul\":3793:3807   */\n      add\n        /* \"#utility.yul\":3786:3830   */\n      mstore\n        /* \"#utility.yul\":3669:3837   */\n      pop\n      jump\t// out\n        /* \"#utility.yul\":3843:4209   */\n    tag_214:\n        /* \"#utility.yul\":3985:3988   */\n      0x00\n        /* \"#utility.yul\":4006:4073   */\n      tag_290\n        /* \"#utility.yul\":4070:4072   */\n      0x12\n        /* \"#utility.yul\":4065:4068   */\n      dup4\n        /* \"#utility.yul\":4006:4073   */\n      tag_212\n      jump\t// in\n    tag_290:\n        /* \"#utility.yul\":3999:4073   */\n      swap2\n      pop\n        /* \"#utility.yul\":4082:4175   */\n      tag_291\n        /* \"#utility.yul\":4171:4174   */\n      dup3\n        /* \"#utility.yul\":4082:4175   */\n      tag_213\n      jump\t// in\n    tag_291:\n        /* \"#utility.yul\":4200:4202   */\n      0x20\n        /* \"#utility.yul\":4195:4198   */\n      dup3\n        /* \"#utility.yul\":4191:4203   */\n      add\n        /* \"#utility.yul\":4184:4203   */\n      swap1\n      pop\n        /* \"#utility.yul\":3843:4209   */\n      swap2\n      swap1\n      pop\n      jump\t// out\n        /* \"#utility.yul\":4215:4634   */\n    tag_67:\n        /* \"#utility.yul\":4381:4385   */\n      0x00\n        /* \"#utility.yul\":4419:4421   */\n      0x20\n        /* \"#utility.yul\":4408:4417   */\n      dup3\n        /* \"#utility.yul\":4404:4422   */\n      add\n        /* \"#utility.yul\":4396:4422   */\n      swap1\n      pop\n        /* \"#utility.yul\":4468:4477   */\n      dup2\n        /* \"#utility.yul\":4462:4466   */\n      dup2\n        /* \"#utility.yul\":4458:4478   */\n      sub\n        /* \"#utility.yul\":4454:4455   */\n      0x00\n        /* \"#utility.yul\":4443:4452   */\n      dup4\n        /* \"#utility.yul\":4439:4456   */\n      add\n        /* \"#utility.yul\":4432:4479   */\n      mstore\n        /* \"#utility.yul\":4496:4627   */\n      tag_293\n        /* \"#utility.yul\":4622:4626   */\n      dup2\n        /* \"#utility.yul\":4496:4627   */\n      tag_214\n      jump\t// in\n    tag_293:\n        /* \"#utility.yul\":4488:4627   */\n      swap1\n      pop\n        /* \"#utility.yul\":4215:4634   */\n      swap2\n      swap1\n      pop\n      jump\t// out\n        /* \"#utility.yul\":4640:4820   */\n    tag_215:\n        /* \"#utility.yul\":4688:4765   */\n      0x4e487b7100000000000000000000000000000000000000000000000000000000\n        /* \"#utility.yul\":4685:4686   */\n      0x00\n        /* \"#utility.yul\":4678:4766   */\n      mstore\n        /* \"#utility.yul\":4785:4789   */\n      0x12\n        /* \"#utility.yul\":4782:4783   */\n      0x04\n        /* \"#utility.yul\":4775:4790   */\n      mstore\n        /* \"#utility.yul\":4809:4813   */\n      0x24\n        /* \"#utility.yul\":4806:4807   */\n      0x00\n        /* \"#utility.yul\":4799:4814   */\n      revert\n        /* \"#utility.yul\":4826:5002   */\n    tag_70:\n        /* \"#utility.yul\":4858:4859   */\n      0x00\n        /* \"#utility.yul\":4875:4895   */\n      tag_296\n        /* \"#utility.yul\":4893:4894   */\n      dup3\n        /* \"#utility.yul\":4875:4895   */\n      tag_201\n      jump\t// in\n    tag_296:\n        /* \"#utility.yul\":4870:4895   */\n      swap2\n      pop\n        /* \"#utility.yul\":4909:4929   */\n      tag_297\n        /* \"#utility.yul\":4927:4928   */\n      dup4\n        /* \"#utility.yul\":4909:4929   */\n      tag_201\n      jump\t// in\n    tag_297:\n        /* \"#utility.yul\":4904:4929   */\n      swap3\n      pop\n        /* \"#utility.yul\":4948:4949   */\n      dup3\n        /* \"#utility.yul\":4938:4973   */\n      tag_298\n      jumpi\n        /* \"#utility.yul\":4953:4971   */\n      tag_299\n      tag_215\n      jump\t// in\n    tag_299:\n        /* \"#utility.yul\":4938:4973   */\n    tag_298:\n        /* \"#utility.yul\":4994:4995   */\n      dup3\n        /* \"#utility.yul\":4991:4992   */\n      dup3\n        /* \"#utility.yul\":4987:4996   */\n      mod\n        /* \"#utility.yul\":4982:4996   */\n      swap1\n      pop\n        /* \"#utility.yul\":4826:5002   */\n      swap3\n      swap2\n      pop\n      pop\n      jump\t// out\n        /* \"#utility.yul\":5008:5188   */\n    tag_216:\n        /* \"#utility.yul\":5056:5133   */\n      0x4e487b7100000000000000000000000000000000000000000000000000000000\n        /* \"#utility.yul\":5053:5054   */\n      0x00\n        /* \"#utility.yul\":5046:5134   */\n      mstore\n        /* \"#utility.yul\":5153:5157   */\n      0x11\n        /* \"#utility.yul\":5150:5151   */\n      0x04\n        /* \"#utility.yul\":5143:5158   */\n      mstore\n        /* \"#utility.yul\":5177:5181   */\n      0x24\n        /* \"#utility.yul\":5174:5175   */\n      0x00\n        /* \"#utility.yul\":5167:5182   */\n      revert\n        /* \"#utility.yul\":5194:5385   */\n    tag_81:\n        /* \"#utility.yul\":5234:5237   */\n      0x00\n        /* \"#utility.yul\":5253:5273   */\n      tag_302\n        /* \"#utility.yul\":5271:5272   */\n      dup3\n        /* \"#utility.yul\":5253:5273   */\n      tag_201\n      jump\t// in\n    tag_302:\n        /* \"#utility.yul\":5248:5273   */\n      swap2\n      pop\n        /* \"#utility.yul\":5287:5307   */\n      tag_303\n        /* \"#utility.yul\":5305:5306   */\n      dup4\n        /* \"#utility.yul\":5287:5307   */\n      tag_201\n      jump\t// in\n    tag_303:\n        /* \"#utility.yul\":5282:5307   */\n      swap3\n      pop\n        /* \"#utility.yul\":5330:5331   */\n      dup3\n        /* \"#utility.yul\":5327:5328   */\n      dup3\n        /* \"#utility.yul\":5323:5332   */\n      add\n        /* \"#utility.yul\":5316:5332   */\n      swap1\n      pop\n        /* \"#utility.yul\":5351:5354   */\n      dup1\n        /* \"#utility.yul\":5348:5349   */\n      dup3\n        /* \"#utility.yul\":5345:5355   */\n      gt\n        /* \"#utility.yul\":5342:5378   */\n      iszero\n      tag_304\n      jumpi\n        /* \"#utility.yul\":5358:5376   */\n      tag_305\n      tag_216\n      jump\t// in\n    tag_305:\n        /* \"#utility.yul\":5342:5378   */\n    tag_304:\n        /* \"#utility.yul\":5194:5385   */\n      swap3\n      swap2\n      pop\n      pop\n      jump\t// out\n        /* \"#utility.yul\":5391:5612   */\n    tag_217:\n        /* \"#utility.yul\":5531:5565   */\n      0x4e6f7420416c6c6f7765642120596f7520617265206e6f7420746865206f776e\n        /* \"#utility.yul\":5527:5528   */\n      0x00\n        /* \"#utility.yul\":5519:5525   */\n      dup3\n        /* \"#utility.yul\":5515:5529   */\n      add\n        /* \"#utility.yul\":5508:5566   */\n      mstore\n        /* \"#utility.yul\":5600:5604   */\n      0x6572000000000000000000000000000000000000000000000000000000000000\n        /* \"#utility.yul\":5595:5597   */\n      0x20\n        /* \"#utility.yul\":5587:5593   */\n      dup3\n        /* \"#utility.yul\":5583:5598   */\n      add\n        /* \"#utility.yul\":5576:5605   */\n      mstore\n        /* \"#utility.yul\":5391:5612   */\n      pop\n      jump\t// out\n        /* \"#utility.yul\":5618:5984   */\n    tag_218:\n        /* \"#utility.yul\":5760:5763   */\n      0x00\n        /* \"#utility.yul\":5781:5848   */\n      tag_308\n        /* \"#utility.yul\":5845:5847   */\n      0x22\n        /* \"#utility.yul\":5840:5843   */\n      dup4\n        /* \"#utility.yul\":5781:5848   */\n      tag_212\n      jump\t// in\n    tag_308:\n        /* \"#utility.yul\":5774:5848   */\n      swap2\n      pop\n        /* \"#utility.yul\":5857:5950   */\n      tag_309\n        /* \"#utility.yul\":5946:5949   */\n      dup3\n        /* \"#utility.yul\":5857:5950   */\n      tag_217\n      jump\t// in\n    tag_309:\n        /* \"#utility.yul\":5975:5977   */\n      0x40\n        /* \"#utility.yul\":5970:5973   */\n      dup3\n        /* \"#utility.yul\":5966:5978   */\n      add\n        /* \"#utility.yul\":5959:5978   */\n      swap1\n      pop\n        /* \"#utility.yul\":5618:5984   */\n      swap2\n      swap1\n      pop\n      jump\t// out\n        /* \"#utility.yul\":5990:6409   */\n    tag_91:\n        /* \"#utility.yul\":6156:6160   */\n      0x00\n        /* \"#utility.yul\":6194:6196   */\n      0x20\n        /* \"#utility.yul\":6183:6192   */\n      dup3\n        /* \"#utility.yul\":6179:6197   */\n      add\n        /* \"#utility.yul\":6171:6197   */\n      swap1\n      pop\n        /* \"#utility.yul\":6243:6252   */\n      dup2\n        /* \"#utility.yul\":6237:6241   */\n      dup2\n        /* \"#utility.yul\":6233:6253   */\n      sub\n        /* \"#utility.yul\":6229:6230   */\n      0x00\n        /* \"#utility.yul\":6218:6227   */\n      dup4\n        /* \"#utility.yul\":6214:6231   */\n      add\n        /* \"#utility.yul\":6207:6254   */\n      mstore\n        /* \"#utility.yul\":6271:6402   */\n      tag_311\n        /* \"#utility.yul\":6397:6401   */\n      dup2\n        /* \"#utility.yul\":6271:6402   */\n      tag_218\n      jump\t// in\n    tag_311:\n        /* \"#utility.yul\":6263:6402   */\n      swap1\n      pop\n        /* \"#utility.yul\":5990:6409   */\n      swap2\n      swap1\n      pop\n      jump\t// out\n        /* \"#utility.yul\":6415:6558   */\n    tag_219:\n        /* \"#utility.yul\":6472:6477   */\n      0x00\n        /* \"#utility.yul\":6503:6509   */\n      dup2\n        /* \"#utility.yul\":6497:6510   */\n      mload\n        /* \"#utility.yul\":6488:6510   */\n      swap1\n      pop\n        /* \"#utility.yul\":6519:6552   */\n      tag_313\n        /* \"#utility.yul\":6546:6551   */\n      dup2\n        /* \"#utility.yul\":6519:6552   */\n      tag_202\n      jump\t// in\n    tag_313:\n        /* \"#utility.yul\":6415:6558   */\n      swap3\n      swap2\n      pop\n      pop\n      jump\t// out\n        /* \"#utility.yul\":6564:6915   */\n    tag_97:\n        /* \"#utility.yul\":6634:6640   */\n      0x00\n        /* \"#utility.yul\":6683:6685   */\n      0x20\n        /* \"#utility.yul\":6671:6680   */\n      dup3\n        /* \"#utility.yul\":6662:6669   */\n      dup5\n        /* \"#utility.yul\":6658:6681   */\n      sub\n        /* \"#utility.yul\":6654:6686   */\n      slt\n        /* \"#utility.yul\":6651:6770   */\n      iszero\n      tag_315\n      jumpi\n        /* \"#utility.yul\":6689:6768   */\n      tag_316\n      tag_199\n      jump\t// in\n    tag_316:\n        /* \"#utility.yul\":6651:6770   */\n    tag_315:\n        /* \"#utility.yul\":6809:6810   */\n      0x00\n        /* \"#utility.yul\":6834:6898   */\n      tag_317\n        /* \"#utility.yul\":6890:6897   */\n      dup5\n        /* \"#utility.yul\":6881:6887   */\n      dup3\n        /* \"#utility.yul\":6870:6879   */\n      dup6\n        /* \"#utility.yul\":6866:6888   */\n      add\n        /* \"#utility.yul\":6834:6898   */\n      tag_219\n      jump\t// in\n    tag_317:\n        /* \"#utility.yul\":6824:6898   */\n      swap2\n      pop\n        /* \"#utility.yul\":6780:6908   */\n      pop\n        /* \"#utility.yul\":6564:6915   */\n      swap3\n      swap2\n      pop\n      pop\n      jump\t// out\n        /* \"#utility.yul\":6921:7253   */\n    tag_99:\n        /* \"#utility.yul\":7042:7046   */\n      0x00\n        /* \"#utility.yul\":7080:7082   */\n      0x40\n        /* \"#utility.yul\":7069:7078   */\n      dup3\n        /* \"#utility.yul\":7065:7083   */\n      add\n        /* \"#utility.yul\":7057:7083   */\n      swap1\n      pop\n        /* \"#utility.yul\":7093:7164   */\n      tag_319\n        /* \"#utility.yul\":7161:7162   */\n      0x00\n        /* \"#utility.yul\":7150:7159   */\n      dup4\n        /* \"#utility.yul\":7146:7163   */\n      add\n        /* \"#utility.yul\":7137:7143   */\n      dup6\n        /* \"#utility.yul\":7093:7164   */\n      tag_197\n      jump\t// in\n    tag_319:\n        /* \"#utility.yul\":7174:7246   */\n      tag_320\n        /* \"#utility.yul\":7242:7244   */\n      0x20\n        /* \"#utility.yul\":7231:7240   */\n      dup4\n        /* \"#utility.yul\":7227:7245   */\n      add\n        /* \"#utility.yul\":7218:7224   */\n      dup5\n        /* \"#utility.yul\":7174:7246   */\n      tag_206\n      jump\t// in\n    tag_320:\n        /* \"#utility.yul\":6921:7253   */\n      swap4\n      swap3\n      pop\n      pop\n      pop\n      jump\t// out\n        /* \"#utility.yul\":7259:7349   */\n    tag_220:\n        /* \"#utility.yul\":7293:7300   */\n      0x00\n        /* \"#utility.yul\":7336:7341   */\n      dup2\n        /* \"#utility.yul\":7329:7342   */\n      iszero\n        /* \"#utility.yul\":7322:7343   */\n      iszero\n        /* \"#utility.yul\":7311:7343   */\n      swap1\n      pop\n        /* \"#utility.yul\":7259:7349   */\n      swap2\n      swap1\n      pop\n      jump\t// out\n        /* \"#utility.yul\":7355:7471   */\n    tag_221:\n        /* \"#utility.yul\":7425:7446   */\n      tag_323\n        /* \"#utility.yul\":7440:7445   */\n      dup2\n        /* \"#utility.yul\":7425:7446   */\n      tag_220\n      jump\t// in\n    tag_323:\n        /* \"#utility.yul\":7418:7423   */\n      dup2\n        /* \"#utility.yul\":7415:7447   */\n      eq\n        /* \"#utility.yul\":7405:7465   */\n      tag_324\n      jumpi\n        /* \"#utility.yul\":7461:7462   */\n      0x00\n        /* \"#utility.yul\":7458:7459   */\n      dup1\n        /* \"#utility.yul\":7451:7463   */\n      revert\n        /* \"#utility.yul\":7405:7465   */\n    tag_324:\n        /* \"#utility.yul\":7355:7471   */\n      pop\n      jump\t// out\n        /* \"#utility.yul\":7477:7614   */\n    tag_222:\n        /* \"#utility.yul\":7531:7536   */\n      0x00\n        /* \"#utility.yul\":7562:7568   */\n      dup2\n        /* \"#utility.yul\":7556:7569   */\n      mload\n        /* \"#utility.yul\":7547:7569   */\n      swap1\n      pop\n        /* \"#utility.yul\":7578:7608   */\n      tag_326\n        /* \"#utility.yul\":7602:7607   */\n      dup2\n        /* \"#utility.yul\":7578:7608   */\n      tag_221\n      jump\t// in\n    tag_326:\n        /* \"#utility.yul\":7477:7614   */\n      swap3\n      swap2\n      pop\n      pop\n      jump\t// out\n        /* \"#utility.yul\":7620:7965   */\n    tag_103:\n        /* \"#utility.yul\":7687:7693   */\n      0x00\n        /* \"#utility.yul\":7736:7738   */\n      0x20\n        /* \"#utility.yul\":7724:7733   */\n      dup3\n        /* \"#utility.yul\":7715:7722   */\n      dup5\n        /* \"#utility.yul\":7711:7734   */\n      sub\n        /* \"#utility.yul\":7707:7739   */\n      slt\n        /* \"#utility.yul\":7704:7823   */\n      iszero\n      tag_328\n      jumpi\n        /* \"#utility.yul\":7742:7821   */\n      tag_329\n      tag_199\n      jump\t// in\n    tag_329:\n        /* \"#utility.yul\":7704:7823   */\n    tag_328:\n        /* \"#utility.yul\":7862:7863   */\n      0x00\n        /* \"#utility.yul\":7887:7948   */\n      tag_330\n        /* \"#utility.yul\":7940:7947   */\n      dup5\n        /* \"#utility.yul\":7931:7937   */\n      dup3\n        /* \"#utility.yul\":7920:7929   */\n      dup6\n        /* \"#utility.yul\":7916:7938   */\n      add\n        /* \"#utility.yul\":7887:7948   */\n      tag_222\n      jump\t// in\n    tag_330:\n        /* \"#utility.yul\":7877:7948   */\n      swap2\n      pop\n        /* \"#utility.yul\":7833:7958   */\n      pop\n        /* \"#utility.yul\":7620:7965   */\n      swap3\n      swap2\n      pop\n      pop\n      jump\t// out\n        /* \"#utility.yul\":7971:8139   */\n    tag_223:\n        /* \"#utility.yul\":8111:8131   */\n      0x556e61626c6520746f207472616e736665720000000000000000000000000000\n        /* \"#utility.yul\":8107:8108   */\n      0x00\n        /* \"#utility.yul\":8099:8105   */\n      dup3\n        /* \"#utility.yul\":8095:8109   */\n      add\n        /* \"#utility.yul\":8088:8132   */\n      mstore\n        /* \"#utility.yul\":7971:8139   */\n      pop\n      jump\t// out\n        /* \"#utility.yul\":8145:8511   */\n    tag_224:\n        /* \"#utility.yul\":8287:8290   */\n      0x00\n        /* \"#utility.yul\":8308:8375   */\n      tag_333\n        /* \"#utility.yul\":8372:8374   */\n      0x12\n        /* \"#utility.yul\":8367:8370   */\n      dup4\n        /* \"#utility.yul\":8308:8375   */\n      tag_212\n      jump\t// in\n    tag_333:\n        /* \"#utility.yul\":8301:8375   */\n      swap2\n      pop\n        /* \"#utility.yul\":8384:8477   */\n      tag_334\n        /* \"#utility.yul\":8473:8476   */\n      dup3\n        /* \"#utility.yul\":8384:8477   */\n      tag_223\n      jump\t// in\n    tag_334:\n        /* \"#utility.yul\":8502:8504   */\n      0x20\n        /* \"#utility.yul\":8497:8500   */\n      dup3\n        /* \"#utility.yul\":8493:8505   */\n      add\n        /* \"#utility.yul\":8486:8505   */\n      swap1\n      pop\n        /* \"#utility.yul\":8145:8511   */\n      swap2\n      swap1\n      pop\n      jump\t// out\n        /* \"#utility.yul\":8517:8936   */\n    tag_106:\n        /* \"#utility.yul\":8683:8687   */\n      0x00\n        /* \"#utility.yul\":8721:8723   */\n      0x20\n        /* \"#utility.yul\":8710:8719   */\n      dup3\n        /* \"#utility.yul\":8706:8724   */\n      add\n        /* \"#utility.yul\":8698:8724   */\n      swap1\n      pop\n        /* \"#utility.yul\":8770:8779   */\n      dup2\n        /* \"#utility.yul\":8764:8768   */\n      dup2\n        /* \"#utility.yul\":8760:8780   */\n      sub\n        /* \"#utility.yul\":8756:8757   */\n      0x00\n        /* \"#utility.yul\":8745:8754   */\n      dup4\n        /* \"#utility.yul\":8741:8758   */\n      add\n        /* \"#utility.yul\":8734:8781   */\n      mstore\n        /* \"#utility.yul\":8798:8929   */\n      tag_336\n        /* \"#utility.yul\":8924:8928   */\n      dup2\n        /* \"#utility.yul\":8798:8929   */\n      tag_224\n      jump\t// in\n    tag_336:\n        /* \"#utility.yul\":8790:8929   */\n      swap1\n      pop\n        /* \"#utility.yul\":8517:8936   */\n      swap2\n      swap1\n      pop\n      jump\t// out\n        /* \"#utility.yul\":8942:9352   */\n    tag_112:\n        /* \"#utility.yul\":8982:8989   */\n      0x00\n        /* \"#utility.yul\":9005:9025   */\n      tag_338\n        /* \"#utility.yul\":9023:9024   */\n      dup3\n        /* \"#utility.yul\":9005:9025   */\n      tag_201\n      jump\t// in\n    tag_338:\n        /* \"#utility.yul\":9000:9025   */\n      swap2\n      pop\n        /* \"#utility.yul\":9039:9059   */\n      tag_339\n        /* \"#utility.yul\":9057:9058   */\n      dup4\n        /* \"#utility.yul\":9039:9059   */\n      tag_201\n      jump\t// in\n    tag_339:\n        /* \"#utility.yul\":9034:9059   */\n      swap3\n      pop\n        /* \"#utility.yul\":9094:9095   */\n      dup3\n        /* \"#utility.yul\":9091:9092   */\n      dup3\n        /* \"#utility.yul\":9087:9096   */\n      mul\n        /* \"#utility.yul\":9116:9146   */\n      tag_340\n        /* \"#utility.yul\":9134:9145   */\n      dup2\n        /* \"#utility.yul\":9116:9146   */\n      tag_201\n      jump\t// in\n    tag_340:\n        /* \"#utility.yul\":9105:9146   */\n      swap2\n      pop\n        /* \"#utility.yul\":9295:9296   */\n      dup3\n        /* \"#utility.yul\":9286:9293   */\n      dup3\n        /* \"#utility.yul\":9282:9297   */\n      div\n        /* \"#utility.yul\":9279:9280   */\n      dup5\n        /* \"#utility.yul\":9276:9298   */\n      eq\n        /* \"#utility.yul\":9256:9257   */\n      dup4\n        /* \"#utility.yul\":9249:9258   */\n      iszero\n        /* \"#utility.yul\":9229:9312   */\n      or\n        /* \"#utility.yul\":9206:9345   */\n      tag_341\n      jumpi\n        /* \"#utility.yul\":9325:9343   */\n      tag_342\n      tag_216\n      jump\t// in\n    tag_342:\n        /* \"#utility.yul\":9206:9345   */\n    tag_341:\n        /* \"#utility.yul\":8990:9352   */\n      pop\n        /* \"#utility.yul\":8942:9352   */\n      swap3\n      swap2\n      pop\n      pop\n      jump\t// out\n        /* \"#utility.yul\":9358:9543   */\n    tag_114:\n        /* \"#utility.yul\":9398:9399   */\n      0x00\n        /* \"#utility.yul\":9415:9435   */\n      tag_344\n        /* \"#utility.yul\":9433:9434   */\n      dup3\n        /* \"#utility.yul\":9415:9435   */\n      tag_201\n      jump\t// in\n    tag_344:\n        /* \"#utility.yul\":9410:9435   */\n      swap2\n      pop\n        /* \"#utility.yul\":9449:9469   */\n      tag_345\n        /* \"#utility.yul\":9467:9468   */\n      dup4\n        /* \"#utility.yul\":9449:9469   */\n      tag_201\n      jump\t// in\n    tag_345:\n        /* \"#utility.yul\":9444:9469   */\n      swap3\n      pop\n        /* \"#utility.yul\":9488:9489   */\n      dup3\n        /* \"#utility.yul\":9478:9513   */\n      tag_346\n      jumpi\n        /* \"#utility.yul\":9493:9511   */\n      tag_347\n      tag_215\n      jump\t// in\n    tag_347:\n        /* \"#utility.yul\":9478:9513   */\n    tag_346:\n        /* \"#utility.yul\":9535:9536   */\n      dup3\n        /* \"#utility.yul\":9532:9533   */\n      dup3\n        /* \"#utility.yul\":9528:9537   */\n      div\n        /* \"#utility.yul\":9523:9537   */\n      swap1\n      pop\n        /* \"#utility.yul\":9358:9543   */\n      swap3\n      swap2\n      pop\n      pop\n      jump\t// out\n        /* \"#utility.yul\":9549:9696   */\n    tag_225:\n        /* \"#utility.yul\":9650:9661   */\n      0x00\n        /* \"#utility.yul\":9687:9690   */\n      dup2\n        /* \"#utility.yul\":9672:9690   */\n      swap1\n      pop\n        /* \"#utility.yul\":9549:9696   */\n      swap3\n      swap2\n      pop\n      pop\n      jump\t// out\n        /* \"#utility.yul\":9702:9816   */\n    tag_226:\n      pop\n      jump\t// out\n        /* \"#utility.yul\":9822:10220   */\n    tag_227:\n        /* \"#utility.yul\":9981:9984   */\n      0x00\n        /* \"#utility.yul\":10002:10085   */\n      tag_351\n        /* \"#utility.yul\":10083:10084   */\n      0x00\n        /* \"#utility.yul\":10078:10081   */\n      dup4\n        /* \"#utility.yul\":10002:10085   */\n      tag_225\n      jump\t// in\n    tag_351:\n        /* \"#utility.yul\":9995:10085   */\n      swap2\n      pop\n        /* \"#utility.yul\":10094:10187   */\n      tag_352\n        /* \"#utility.yul\":10183:10186   */\n      dup3\n        /* \"#utility.yul\":10094:10187   */\n      tag_226\n      jump\t// in\n    tag_352:\n        /* \"#utility.yul\":10212:10213   */\n      0x00\n        /* \"#utility.yul\":10207:10210   */\n      dup3\n        /* \"#utility.yul\":10203:10214   */\n      add\n        /* \"#utility.yul\":10196:10214   */\n      swap1\n      pop\n        /* \"#utility.yul\":9822:10220   */\n      swap2\n      swap1\n      pop\n      jump\t// out\n        /* \"#utility.yul\":10226:10605   */\n    tag_116:\n        /* \"#utility.yul\":10410:10413   */\n      0x00\n        /* \"#utility.yul\":10432:10579   */\n      tag_354\n        /* \"#utility.yul\":10575:10578   */\n      dup3\n        /* \"#utility.yul\":10432:10579   */\n      tag_227\n      jump\t// in\n    tag_354:\n        /* \"#utility.yul\":10425:10579   */\n      swap2\n      pop\n        /* \"#utility.yul\":10596:10599   */\n      dup2\n        /* \"#utility.yul\":10589:10599   */\n      swap1\n      pop\n        /* \"#utility.yul\":10226:10605   */\n      swap2\n      swap1\n      pop\n      jump\t// out\n        /* \"#utility.yul\":10611:10843   */\n    tag_228:\n        /* \"#utility.yul\":10751:10785   */\n      0x43616c6c204661696c65642e20436f756c646e27742073656e6420746f206368\n        /* \"#utility.yul\":10747:10748   */\n      0x00\n        /* \"#utility.yul\":10739:10745   */\n      dup3\n        /* \"#utility.yul\":10735:10749   */\n      add\n        /* \"#utility.yul\":10728:10786   */\n      mstore\n        /* \"#utility.yul\":10820:10835   */\n      0x696c6420636f6e74726163742e00000000000000000000000000000000000000\n        /* \"#utility.yul\":10815:10817   */\n      0x20\n        /* \"#utility.yul\":10807:10813   */\n      dup3\n        /* \"#utility.yul\":10803:10818   */\n      add\n        /* \"#utility.yul\":10796:10836   */\n      mstore\n        /* \"#utility.yul\":10611:10843   */\n      pop\n      jump\t// out\n        /* \"#utility.yul\":10849:11215   */\n    tag_229:\n        /* \"#utility.yul\":10991:10994   */\n      0x00\n        /* \"#utility.yul\":11012:11079   */\n      tag_357\n        /* \"#utility.yul\":11076:11078   */\n      0x2d\n        /* \"#utility.yul\":11071:11074   */\n      dup4\n        /* \"#utility.yul\":11012:11079   */\n      tag_212\n      jump\t// in\n    tag_357:\n        /* \"#utility.yul\":11005:11079   */\n      swap2\n      pop\n        /* \"#utility.yul\":11088:11181   */\n      tag_358\n        /* \"#utility.yul\":11177:11180   */\n      dup3\n        /* \"#utility.yul\":11088:11181   */\n      tag_228\n      jump\t// in\n    tag_358:\n        /* \"#utility.yul\":11206:11208   */\n      0x40\n        /* \"#utility.yul\":11201:11204   */\n      dup3\n        /* \"#utility.yul\":11197:11209   */\n      add\n        /* \"#utility.yul\":11190:11209   */\n      swap1\n      pop\n        /* \"#utility.yul\":10849:11215   */\n      swap2\n      swap1\n      pop\n      jump\t// out\n        /* \"#utility.yul\":11221:11640   */\n    tag_122:\n        /* \"#utility.yul\":11387:11391   */\n      0x00\n        /* \"#utility.yul\":11425:11427   */\n      0x20\n        /* \"#utility.yul\":11414:11423   */\n      dup3\n        /* \"#utility.yul\":11410:11428   */\n      add\n        /* \"#utility.yul\":11402:11428   */\n      swap1\n      pop\n        /* \"#utility.yul\":11474:11483   */\n      dup2\n        /* \"#utility.yul\":11468:11472   */\n      dup2\n        /* \"#utility.yul\":11464:11484   */\n      sub\n        /* \"#utility.yul\":11460:11461   */\n      0x00\n        /* \"#utility.yul\":11449:11458   */\n      dup4\n        /* \"#utility.yul\":11445:11462   */\n      add\n        /* \"#utility.yul\":11438:11485   */\n      mstore\n        /* \"#utility.yul\":11502:11633   */\n      tag_360\n        /* \"#utility.yul\":11628:11632   */\n      dup2\n        /* \"#utility.yul\":11502:11633   */\n      tag_229\n      jump\t// in\n    tag_360:\n        /* \"#utility.yul\":11494:11633   */\n      swap1\n      pop\n        /* \"#utility.yul\":11221:11640   */\n      swap2\n      swap1\n      pop\n      jump\t// out\n        /* \"#utility.yul\":11646:11802   */\n    tag_230:\n        /* \"#utility.yul\":11786:11794   */\n      0x4661696c65640000000000000000000000000000000000000000000000000000\n        /* \"#utility.yul\":11782:11783   */\n      0x00\n        /* \"#utility.yul\":11774:11780   */\n      dup3\n        /* \"#utility.yul\":11770:11784   */\n      add\n        /* \"#utility.yul\":11763:11795   */\n      mstore\n        /* \"#utility.yul\":11646:11802   */\n      pop\n      jump\t// out\n        /* \"#utility.yul\":11808:12173   */\n    tag_231:\n        /* \"#utility.yul\":11950:11953   */\n      0x00\n        /* \"#utility.yul\":11971:12037   */\n      tag_363\n        /* \"#utility.yul\":12035:12036   */\n      0x06\n        /* \"#utility.yul\":12030:12033   */\n      dup4\n        /* \"#utility.yul\":11971:12037   */\n      tag_212\n      jump\t// in\n    tag_363:\n        /* \"#utility.yul\":11964:12037   */\n      swap2\n      pop\n        /* \"#utility.yul\":12046:12139   */\n      tag_364\n        /* \"#utility.yul\":12135:12138   */\n      dup3\n        /* \"#utility.yul\":12046:12139   */\n      tag_230\n      jump\t// in\n    tag_364:\n        /* \"#utility.yul\":12164:12166   */\n      0x20\n        /* \"#utility.yul\":12159:12162   */\n      dup3\n        /* \"#utility.yul\":12155:12167   */\n      add\n        /* \"#utility.yul\":12148:12167   */\n      swap1\n      pop\n        /* \"#utility.yul\":11808:12173   */\n      swap2\n      swap1\n      pop\n      jump\t// out\n        /* \"#utility.yul\":12179:12598   */\n    tag_141:\n        /* \"#utility.yul\":12345:12349   */\n      0x00\n        /* \"#utility.yul\":12383:12385   */\n      0x20\n        /* \"#utility.yul\":12372:12381   */\n      dup3\n        /* \"#utility.yul\":12368:12386   */\n      add\n        /* \"#utility.yul\":12360:12386   */\n      swap1\n      pop\n        /* \"#utility.yul\":12432:12441   */\n      dup2\n        /* \"#utility.yul\":12426:12430   */\n      dup2\n        /* \"#utility.yul\":12422:12442   */\n      sub\n        /* \"#utility.yul\":12418:12419   */\n      0x00\n        /* \"#utility.yul\":12407:12416   */\n      dup4\n        /* \"#utility.yul\":12403:12420   */\n      add\n        /* \"#utility.yul\":12396:12443   */\n      mstore\n        /* \"#utility.yul\":12460:12591   */\n      tag_366\n        /* \"#utility.yul\":12586:12590   */\n      dup2\n        /* \"#utility.yul\":12460:12591   */\n      tag_231\n      jump\t// in\n    tag_366:\n        /* \"#utility.yul\":12452:12591   */\n      swap1\n      pop\n        /* \"#utility.yul\":12179:12598   */\n      swap2\n      swap1\n      pop\n      jump\t// out\n        /* \"#utility.yul\":12604:12773   */\n    tag_232:\n        /* \"#utility.yul\":12744:12765   */\n      0x4e6f2054697020746f2077697468647261772100000000000000000000000000\n        /* \"#utility.yul\":12740:12741   */\n      0x00\n        /* \"#utility.yul\":12732:12738   */\n      dup3\n        /* \"#utility.yul\":12728:12742   */\n      add\n        /* \"#utility.yul\":12721:12766   */\n      mstore\n        /* \"#utility.yul\":12604:12773   */\n      pop\n      jump\t// out\n        /* \"#utility.yul\":12779:13145   */\n    tag_233:\n        /* \"#utility.yul\":12921:12924   */\n      0x00\n        /* \"#utility.yul\":12942:13009   */\n      tag_369\n        /* \"#utility.yul\":13006:13008   */\n      0x13\n        /* \"#utility.yul\":13001:13004   */\n      dup4\n        /* \"#utility.yul\":12942:13009   */\n      tag_212\n      jump\t// in\n    tag_369:\n        /* \"#utility.yul\":12935:13009   */\n      swap2\n      pop\n        /* \"#utility.yul\":13018:13111   */\n      tag_370\n        /* \"#utility.yul\":13107:13110   */\n      dup3\n        /* \"#utility.yul\":13018:13111   */\n      tag_232\n      jump\t// in\n    tag_370:\n        /* \"#utility.yul\":13136:13138   */\n      0x20\n        /* \"#utility.yul\":13131:13134   */\n      dup3\n        /* \"#utility.yul\":13127:13139   */\n      add\n        /* \"#utility.yul\":13120:13139   */\n      swap1\n      pop\n        /* \"#utility.yul\":12779:13145   */\n      swap2\n      swap1\n      pop\n      jump\t// out\n        /* \"#utility.yul\":13151:13570   */\n    tag_145:\n        /* \"#utility.yul\":13317:13321   */\n      0x00\n        /* \"#utility.yul\":13355:13357   */\n      0x20\n        /* \"#utility.yul\":13344:13353   */\n      dup3\n        /* \"#utility.yul\":13340:13358   */\n      add\n        /* \"#utility.yul\":13332:13358   */\n      swap1\n      pop\n        /* \"#utility.yul\":13404:13413   */\n      dup2\n        /* \"#utility.yul\":13398:13402   */\n      dup2\n        /* \"#utility.yul\":13394:13414   */\n      sub\n        /* \"#utility.yul\":13390:13391   */\n      0x00\n        /* \"#utility.yul\":13379:13388   */\n      dup4\n        /* \"#utility.yul\":13375:13392   */\n      add\n        /* \"#utility.yul\":13368:13415   */\n      mstore\n        /* \"#utility.yul\":13432:13563   */\n      tag_372\n        /* \"#utility.yul\":13558:13562   */\n      dup2\n        /* \"#utility.yul\":13432:13563   */\n      tag_233\n      jump\t// in\n    tag_372:\n        /* \"#utility.yul\":13424:13563   */\n      swap1\n      pop\n        /* \"#utility.yul\":13151:13570   */\n      swap2\n      swap1\n      pop\n      jump\t// out\n        /* \"#utility.yul\":13576:13756   */\n    tag_165:\n        /* \"#utility.yul\":13624:13701   */\n      0x4e487b7100000000000000000000000000000000000000000000000000000000\n        /* \"#utility.yul\":13621:13622   */\n      0x00\n        /* \"#utility.yul\":13614:13702   */\n      mstore\n        /* \"#utility.yul\":13721:13725   */\n      0x32\n        /* \"#utility.yul\":13718:13719   */\n      0x04\n        /* \"#utility.yul\":13711:13726   */\n      mstore\n        /* \"#utility.yul\":13745:13749   */\n      0x24\n        /* \"#utility.yul\":13742:13743   */\n      0x00\n        /* \"#utility.yul\":13735:13750   */\n      revert\n        /* \"#utility.yul\":13762:13942   */\n    tag_177:\n        /* \"#utility.yul\":13810:13887   */\n      0x4e487b7100000000000000000000000000000000000000000000000000000000\n        /* \"#utility.yul\":13807:13808   */\n      0x00\n        /* \"#utility.yul\":13800:13888   */\n      mstore\n        /* \"#utility.yul\":13907:13911   */\n      0x41\n        /* \"#utility.yul\":13904:13905   */\n      0x04\n        /* \"#utility.yul\":13897:13912   */\n      mstore\n        /* \"#utility.yul\":13931:13935   */\n      0x24\n        /* \"#utility.yul\":13928:13929   */\n      0x00\n        /* \"#utility.yul\":13921:13936   */\n      revert\n        /* \"#utility.yul\":13948:14053   */\n    tag_234:\n        /* \"#utility.yul\":13984:13991   */\n      0x00\n        /* \"#utility.yul\":14024:14046   */\n      0xffffffffffffffffffff\n        /* \"#utility.yul\":14017:14022   */\n      dup3\n        /* \"#utility.yul\":14013:14047   */\n      and\n        /* \"#utility.yul\":14002:14047   */\n      swap1\n      pop\n        /* \"#utility.yul\":13948:14053   */\n      swap2\n      swap1\n      pop\n      jump\t// out\n        /* \"#utility.yul\":14059:14179   */\n    tag_235:\n        /* \"#utility.yul\":14131:14154   */\n      tag_377\n        /* \"#utility.yul\":14148:14153   */\n      dup2\n        /* \"#utility.yul\":14131:14154   */\n      tag_234\n      jump\t// in\n    tag_377:\n        /* \"#utility.yul\":14124:14129   */\n      dup2\n        /* \"#utility.yul\":14121:14155   */\n      eq\n        /* \"#utility.yul\":14111:14173   */\n      tag_378\n      jumpi\n        /* \"#utility.yul\":14169:14170   */\n      0x00\n        /* \"#utility.yul\":14166:14167   */\n      dup1\n        /* \"#utility.yul\":14159:14171   */\n      revert\n        /* \"#utility.yul\":14111:14173   */\n    tag_378:\n        /* \"#utility.yul\":14059:14179   */\n      pop\n      jump\t// out\n        /* \"#utility.yul\":14185:14326   */\n    tag_236:\n        /* \"#utility.yul\":14241:14246   */\n      0x00\n        /* \"#utility.yul\":14272:14278   */\n      dup2\n        /* \"#utility.yul\":14266:14279   */\n      mload\n        /* \"#utility.yul\":14257:14279   */\n      swap1\n      pop\n        /* \"#utility.yul\":14288:14320   */\n      tag_380\n        /* \"#utility.yul\":14314:14319   */\n      dup2\n        /* \"#utility.yul\":14288:14320   */\n      tag_235\n      jump\t// in\n    tag_380:\n        /* \"#utility.yul\":14185:14326   */\n      swap3\n      swap2\n      pop\n      pop\n      jump\t// out\n        /* \"#utility.yul\":14332:14408   */\n    tag_237:\n        /* \"#utility.yul\":14368:14375   */\n      0x00\n        /* \"#utility.yul\":14397:14402   */\n      dup2\n        /* \"#utility.yul\":14386:14402   */\n      swap1\n      pop\n        /* \"#utility.yul\":14332:14408   */\n      swap2\n      swap1\n      pop\n      jump\t// out\n        /* \"#utility.yul\":14414:14534   */\n    tag_238:\n        /* \"#utility.yul\":14486:14509   */\n      tag_383\n        /* \"#utility.yul\":14503:14508   */\n      dup2\n        /* \"#utility.yul\":14486:14509   */\n      tag_237\n      jump\t// in\n    tag_383:\n        /* \"#utility.yul\":14479:14484   */\n      dup2\n        /* \"#utility.yul\":14476:14510   */\n      eq\n        /* \"#utility.yul\":14466:14528   */\n      tag_384\n      jumpi\n        /* \"#utility.yul\":14524:14525   */\n      0x00\n        /* \"#utility.yul\":14521:14522   */\n      dup1\n        /* \"#utility.yul\":14514:14526   */\n      revert\n        /* \"#utility.yul\":14466:14528   */\n    tag_384:\n        /* \"#utility.yul\":14414:14534   */\n      pop\n      jump\t// out\n        /* \"#utility.yul\":14540:14681   */\n    tag_239:\n        /* \"#utility.yul\":14596:14601   */\n      0x00\n        /* \"#utility.yul\":14627:14633   */\n      dup2\n        /* \"#utility.yul\":14621:14634   */\n      mload\n        /* \"#utility.yul\":14612:14634   */\n      swap1\n      pop\n        /* \"#utility.yul\":14643:14675   */\n      tag_386\n        /* \"#utility.yul\":14669:14674   */\n      dup2\n        /* \"#utility.yul\":14643:14675   */\n      tag_238\n      jump\t// in\n    tag_386:\n        /* \"#utility.yul\":14540:14681   */\n      swap3\n      swap2\n      pop\n      pop\n      jump\t// out\n        /* \"#utility.yul\":14687:15658   */\n    tag_185:\n        /* \"#utility.yul\":14790:14796   */\n      0x00\n        /* \"#utility.yul\":14798:14804   */\n      dup1\n        /* \"#utility.yul\":14806:14812   */\n      0x00\n        /* \"#utility.yul\":14814:14820   */\n      dup1\n        /* \"#utility.yul\":14822:14828   */\n      0x00\n        /* \"#utility.yul\":14871:14874   */\n      0xa0\n        /* \"#utility.yul\":14859:14868   */\n      dup7\n        /* \"#utility.yul\":14850:14857   */\n      dup9\n        /* \"#utility.yul\":14846:14869   */\n      sub\n        /* \"#utility.yul\":14842:14875   */\n      slt\n        /* \"#utility.yul\":14839:14959   */\n      iszero\n      tag_388\n      jumpi\n        /* \"#utility.yul\":14878:14957   */\n      tag_389\n      tag_199\n      jump\t// in\n    tag_389:\n        /* \"#utility.yul\":14839:14959   */\n    tag_388:\n        /* \"#utility.yul\":14998:14999   */\n      0x00\n        /* \"#utility.yul\":15023:15086   */\n      tag_390\n        /* \"#utility.yul\":15078:15085   */\n      dup9\n        /* \"#utility.yul\":15069:15075   */\n      dup3\n        /* \"#utility.yul\":15058:15067   */\n      dup10\n        /* \"#utility.yul\":15054:15076   */\n      add\n        /* \"#utility.yul\":15023:15086   */\n      tag_236\n      jump\t// in\n    tag_390:\n        /* \"#utility.yul\":15013:15086   */\n      swap6\n      pop\n        /* \"#utility.yul\":14969:15096   */\n      pop\n        /* \"#utility.yul\":15135:15137   */\n      0x20\n        /* \"#utility.yul\":15161:15224   */\n      tag_391\n        /* \"#utility.yul\":15216:15223   */\n      dup9\n        /* \"#utility.yul\":15207:15213   */\n      dup3\n        /* \"#utility.yul\":15196:15205   */\n      dup10\n        /* \"#utility.yul\":15192:15214   */\n      add\n        /* \"#utility.yul\":15161:15224   */\n      tag_239\n      jump\t// in\n    tag_391:\n        /* \"#utility.yul\":15151:15224   */\n      swap5\n      pop\n        /* \"#utility.yul\":15106:15234   */\n      pop\n        /* \"#utility.yul\":15273:15275   */\n      0x40\n        /* \"#utility.yul\":15299:15363   */\n      tag_392\n        /* \"#utility.yul\":15355:15362   */\n      dup9\n        /* \"#utility.yul\":15346:15352   */\n      dup3\n        /* \"#utility.yul\":15335:15344   */\n      dup10\n        /* \"#utility.yul\":15331:15353   */\n      add\n        /* \"#utility.yul\":15299:15363   */\n      tag_219\n      jump\t// in\n    tag_392:\n        /* \"#utility.yul\":15289:15363   */\n      swap4\n      pop\n        /* \"#utility.yul\":15244:15373   */\n      pop\n        /* \"#utility.yul\":15412:15414   */\n      0x60\n        /* \"#utility.yul\":15438:15502   */\n      tag_393\n        /* \"#utility.yul\":15494:15501   */\n      dup9\n        /* \"#utility.yul\":15485:15491   */\n      dup3\n        /* \"#utility.yul\":15474:15483   */\n      dup10\n        /* \"#utility.yul\":15470:15492   */\n      add\n        /* \"#utility.yul\":15438:15502   */\n      tag_219\n      jump\t// in\n    tag_393:\n        /* \"#utility.yul\":15428:15502   */\n      swap3\n      pop\n        /* \"#utility.yul\":15383:15512   */\n      pop\n        /* \"#utility.yul\":15551:15554   */\n      0x80\n        /* \"#utility.yul\":15578:15641   */\n      tag_394\n        /* \"#utility.yul\":15633:15640   */\n      dup9\n        /* \"#utility.yul\":15624:15630   */\n      dup3\n        /* \"#utility.yul\":15613:15622   */\n      dup10\n        /* \"#utility.yul\":15609:15631   */\n      add\n        /* \"#utility.yul\":15578:15641   */\n      tag_236\n      jump\t// in\n    tag_394:\n        /* \"#utility.yul\":15568:15641   */\n      swap2\n      pop\n        /* \"#utility.yul\":15522:15651   */\n      pop\n        /* \"#utility.yul\":14687:15658   */\n      swap3\n      swap6\n      pop\n      swap3\n      swap6\n      swap1\n      swap4\n      pop\n      jump\t// out\n        /* \"#utility.yul\":15664:16220   */\n    tag_187:\n        /* \"#utility.yul\":15703:15710   */\n      0x00\n        /* \"#utility.yul\":15726:15745   */\n      tag_396\n        /* \"#utility.yul\":15743:15744   */\n      dup3\n        /* \"#utility.yul\":15726:15745   */\n      tag_237\n      jump\t// in\n    tag_396:\n        /* \"#utility.yul\":15721:15745   */\n      swap2\n      pop\n        /* \"#utility.yul\":15759:15778   */\n      tag_397\n        /* \"#utility.yul\":15776:15777   */\n      dup4\n        /* \"#utility.yul\":15759:15778   */\n      tag_237\n      jump\t// in\n    tag_397:\n        /* \"#utility.yul\":15754:15778   */\n      swap3\n      pop\n        /* \"#utility.yul\":15813:15814   */\n      dup3\n        /* \"#utility.yul\":15810:15811   */\n      dup3\n        /* \"#utility.yul\":15806:15815   */\n      mul\n        /* \"#utility.yul\":15835:15864   */\n      tag_398\n        /* \"#utility.yul\":15852:15863   */\n      dup2\n        /* \"#utility.yul\":15835:15864   */\n      tag_237\n      jump\t// in\n    tag_398:\n        /* \"#utility.yul\":15824:15864   */\n      swap2\n      pop\n        /* \"#utility.yul\":15922:15988   */\n      0x8000000000000000000000000000000000000000000000000000000000000000\n        /* \"#utility.yul\":15919:15920   */\n      dup5\n        /* \"#utility.yul\":15916:15989   */\n      eq\n        /* \"#utility.yul\":15912:15913   */\n      0x00\n        /* \"#utility.yul\":15909:15910   */\n      dup5\n        /* \"#utility.yul\":15905:15914   */\n      slt\n        /* \"#utility.yul\":15901:15990   */\n      and\n        /* \"#utility.yul\":15898:16013   */\n      iszero\n      tag_399\n      jumpi\n        /* \"#utility.yul\":15993:16011   */\n      tag_400\n      tag_216\n      jump\t// in\n    tag_400:\n        /* \"#utility.yul\":15898:16013   */\n    tag_399:\n        /* \"#utility.yul\":16163:16164   */\n      dup3\n        /* \"#utility.yul\":16154:16161   */\n      dup3\n        /* \"#utility.yul\":16149:16165   */\n      sdiv\n        /* \"#utility.yul\":16146:16147   */\n      dup5\n        /* \"#utility.yul\":16143:16166   */\n      eq\n        /* \"#utility.yul\":16123:16124   */\n      dup4\n        /* \"#utility.yul\":16116:16125   */\n      iszero\n        /* \"#utility.yul\":16096:16180   */\n      or\n        /* \"#utility.yul\":16073:16213   */\n      tag_401\n      jumpi\n        /* \"#utility.yul\":16193:16211   */\n      tag_402\n      tag_216\n      jump\t// in\n    tag_402:\n        /* \"#utility.yul\":16073:16213   */\n    tag_401:\n        /* \"#utility.yul\":15711:16220   */\n      pop\n        /* \"#utility.yul\":15664:16220   */\n      swap3\n      swap2\n      pop\n      pop\n      jump\t// out\n\n    auxdata: 0xa264697066735822122000454f98a4cf0524dbbcbfe0eafb2138b9b36ed98522120db95b6c3a5f7a703264736f6c63430008180033\n}\n\nsub_1: assembly {\n        /* \"contracts/myProfit.sol\":63:639  contract myProfit {... */\n      mstore(0x40, 0xc0)\n        /* \"contracts/myProfit.sol\":171:277  constructor(address _creator) {... */\n      callvalue\n      dup1\n      iszero\n      tag_1\n      jumpi\n      0x00\n      dup1\n      revert\n    tag_1:\n      pop\n      mload(0x40)\n      sub(codesize, bytecodeSize)\n      dup1\n      bytecodeSize\n      dup4\n      codecopy\n      dup2\n      dup2\n      add\n      0x40\n      mstore\n      dup2\n      add\n      swap1\n      tag_2\n      swap2\n      swap1\n      tag_3\n      jump\t// in\n    tag_2:\n        /* \"contracts/myProfit.sol\":230:240  msg.sender */\n      caller\n        /* \"contracts/myProfit.sol\":212:240  creatorContract = msg.sender */\n      0xffffffffffffffffffffffffffffffffffffffff\n      and\n      0x80\n      dup2\n      0xffffffffffffffffffffffffffffffffffffffff\n      and\n      dup2\n      mstore\n      pop\n      pop\n        /* \"contracts/myProfit.sol\":261:269  _creator */\n      dup1\n        /* \"contracts/myProfit.sol\":251:269  creator = _creator */\n      0xffffffffffffffffffffffffffffffffffffffff\n      and\n      0xa0\n      dup2\n      0xffffffffffffffffffffffffffffffffffffffff\n      and\n      dup2\n      mstore\n      pop\n      pop\n        /* \"contracts/myProfit.sol\":171:277  constructor(address _creator) {... */\n      pop\n        /* \"contracts/myProfit.sol\":63:639  contract myProfit {... */\n      jump(tag_6)\n        /* \"#utility.yul\":88:205   */\n    tag_8:\n        /* \"#utility.yul\":197:198   */\n      0x00\n        /* \"#utility.yul\":194:195   */\n      dup1\n        /* \"#utility.yul\":187:199   */\n      revert\n        /* \"#utility.yul\":334:460   */\n    tag_10:\n        /* \"#utility.yul\":371:378   */\n      0x00\n        /* \"#utility.yul\":411:453   */\n      0xffffffffffffffffffffffffffffffffffffffff\n        /* \"#utility.yul\":404:409   */\n      dup3\n        /* \"#utility.yul\":400:454   */\n      and\n        /* \"#utility.yul\":389:454   */\n      swap1\n      pop\n        /* \"#utility.yul\":334:460   */\n      swap2\n      swap1\n      pop\n      jump\t// out\n        /* \"#utility.yul\":466:562   */\n    tag_11:\n        /* \"#utility.yul\":503:510   */\n      0x00\n        /* \"#utility.yul\":532:556   */\n      tag_20\n        /* \"#utility.yul\":550:555   */\n      dup3\n        /* \"#utility.yul\":532:556   */\n      tag_10\n      jump\t// in\n    tag_20:\n        /* \"#utility.yul\":521:556   */\n      swap1\n      pop\n        /* \"#utility.yul\":466:562   */\n      swap2\n      swap1\n      pop\n      jump\t// out\n        /* \"#utility.yul\":568:690   */\n    tag_12:\n        /* \"#utility.yul\":641:665   */\n      tag_22\n        /* \"#utility.yul\":659:664   */\n      dup2\n        /* \"#utility.yul\":641:665   */\n      tag_11\n      jump\t// in\n    tag_22:\n        /* \"#utility.yul\":634:639   */\n      dup2\n        /* \"#utility.yul\":631:666   */\n      eq\n        /* \"#utility.yul\":621:684   */\n      tag_23\n      jumpi\n        /* \"#utility.yul\":680:681   */\n      0x00\n        /* \"#utility.yul\":677:678   */\n      dup1\n        /* \"#utility.yul\":670:682   */\n      revert\n        /* \"#utility.yul\":621:684   */\n    tag_23:\n        /* \"#utility.yul\":568:690   */\n      pop\n      jump\t// out\n        /* \"#utility.yul\":696:839   */\n    tag_13:\n        /* \"#utility.yul\":753:758   */\n      0x00\n        /* \"#utility.yul\":784:790   */\n      dup2\n        /* \"#utility.yul\":778:791   */\n      mload\n        /* \"#utility.yul\":769:791   */\n      swap1\n      pop\n        /* \"#utility.yul\":800:833   */\n      tag_25\n        /* \"#utility.yul\":827:832   */\n      dup2\n        /* \"#utility.yul\":800:833   */\n      tag_12\n      jump\t// in\n    tag_25:\n        /* \"#utility.yul\":696:839   */\n      swap3\n      swap2\n      pop\n      pop\n      jump\t// out\n        /* \"#utility.yul\":845:1196   */\n    tag_3:\n        /* \"#utility.yul\":915:921   */\n      0x00\n        /* \"#utility.yul\":964:966   */\n      0x20\n        /* \"#utility.yul\":952:961   */\n      dup3\n        /* \"#utility.yul\":943:950   */\n      dup5\n        /* \"#utility.yul\":939:962   */\n      sub\n        /* \"#utility.yul\":935:967   */\n      slt\n        /* \"#utility.yul\":932:1051   */\n      iszero\n      tag_27\n      jumpi\n        /* \"#utility.yul\":970:1049   */\n      tag_28\n      tag_8\n      jump\t// in\n    tag_28:\n        /* \"#utility.yul\":932:1051   */\n    tag_27:\n        /* \"#utility.yul\":1090:1091   */\n      0x00\n        /* \"#utility.yul\":1115:1179   */\n      tag_29\n        /* \"#utility.yul\":1171:1178   */\n      dup5\n        /* \"#utility.yul\":1162:1168   */\n      dup3\n        /* \"#utility.yul\":1151:1160   */\n      dup6\n        /* \"#utility.yul\":1147:1169   */\n      add\n        /* \"#utility.yul\":1115:1179   */\n      tag_13\n      jump\t// in\n    tag_29:\n        /* \"#utility.yul\":1105:1179   */\n      swap2\n      pop\n        /* \"#utility.yul\":1061:1189   */\n      pop\n        /* \"#utility.yul\":845:1196   */\n      swap3\n      swap2\n      pop\n      pop\n      jump\t// out\n        /* \"contracts/myProfit.sol\":63:639  contract myProfit {... */\n    tag_6:\n      mload(0x80)\n      mload(0xa0)\n      codecopy(0x00, dataOffset(sub_0), dataSize(sub_0))\n      0x00\n      assignImmutable(\"0x1fc831daa0ae525fd7b45940566da1b8f6c6e1947d0154e040df867626c222be\")\n      0x00\n      assignImmutable(\"0x8b796318cc193a21d1a1fc61692e08663b3ac6f506ccb2a051e444c8d65b6c5d\")\n      return(0x00, dataSize(sub_0))\n    stop\n\n    sub_0: assembly {\n            /* \"contracts/myProfit.sol\":63:639  contract myProfit {... */\n          mstore(0x40, 0x80)\n          jumpi(tag_1, lt(calldatasize, 0x04))\n          shr(0xe0, calldataload(0x00))\n          dup1\n          0x37587b72\n          eq\n          tag_2\n          jumpi\n          dup1\n          0x3dae35ce\n          eq\n          tag_3\n          jumpi\n        tag_1:\n          0x00\n          dup1\n          revert\n            /* \"contracts/myProfit.sol\":285:508  function withdrawMyProfit() public onlyOwner payable {... */\n        tag_2:\n          tag_4\n          tag_5\n          jump\t// in\n        tag_4:\n          stop\n            /* \"contracts/myProfit.sol\":90:130  address public immutable creatorContract */\n        tag_3:\n          callvalue\n          dup1\n          iszero\n          tag_6\n          jumpi\n          0x00\n          dup1\n          revert\n        tag_6:\n          pop\n          tag_7\n          tag_8\n          jump\t// in\n        tag_7:\n          mload(0x40)\n          tag_9\n          swap2\n          swap1\n          tag_10\n          jump\t// in\n        tag_9:\n          mload(0x40)\n          dup1\n          swap2\n          sub\n          swap1\n          return\n            /* \"contracts/myProfit.sol\":285:508  function withdrawMyProfit() public onlyOwner payable {... */\n        tag_5:\n            /* \"contracts/myProfit.sol\":570:577  creator */\n          immutable(\"0x1fc831daa0ae525fd7b45940566da1b8f6c6e1947d0154e040df867626c222be\")\n            /* \"contracts/myProfit.sol\":556:577  msg.sender == creator */\n          0xffffffffffffffffffffffffffffffffffffffff\n          and\n            /* \"contracts/myProfit.sol\":556:566  msg.sender */\n          caller\n            /* \"contracts/myProfit.sol\":556:577  msg.sender == creator */\n          0xffffffffffffffffffffffffffffffffffffffff\n          and\n          eq\n            /* \"contracts/myProfit.sol\":548:616  require(msg.sender == creator, \"Not Allowed! You are not the owner\") */\n          tag_12\n          jumpi\n          mload(0x40)\n          0x08c379a000000000000000000000000000000000000000000000000000000000\n          dup2\n          mstore\n          0x04\n          add\n          tag_13\n          swap1\n          tag_14\n          jump\t// in\n        tag_13:\n          mload(0x40)\n          dup1\n          swap2\n          sub\n          swap1\n          revert\n        tag_12:\n            /* \"contracts/myProfit.sol\":350:366  bool callSuccess */\n          0x00\n            /* \"contracts/myProfit.sol\":380:390  msg.sender */\n          caller\n            /* \"contracts/myProfit.sol\":372:396  payable(msg.sender).call */\n          0xffffffffffffffffffffffffffffffffffffffff\n          and\n            /* \"contracts/myProfit.sol\":418:439  address(this).balance */\n          selfbalance\n            /* \"contracts/myProfit.sol\":372:454  payable(msg.sender).call{... */\n          mload(0x40)\n          tag_16\n          swap1\n          tag_17\n          jump\t// in\n        tag_16:\n          0x00\n          mload(0x40)\n          dup1\n          dup4\n          sub\n          dup2\n          dup6\n          dup8\n          gas\n          call\n          swap3\n          pop\n          pop\n          pop\n          returndatasize\n          dup1\n          0x00\n          dup2\n          eq\n          tag_20\n          jumpi\n          mload(0x40)\n          swap2\n          pop\n          and(add(returndatasize, 0x3f), not(0x1f))\n          dup3\n          add\n          0x40\n          mstore\n          returndatasize\n          dup3\n          mstore\n          returndatasize\n          0x00\n          0x20\n          dup5\n          add\n          returndatacopy\n          jump(tag_19)\n        tag_20:\n          0x60\n          swap2\n          pop\n        tag_19:\n          pop\n            /* \"contracts/myProfit.sol\":349:454  (bool callSuccess, ) = payable(msg.sender).call{... */\n          pop\n          swap1\n          pop\n            /* \"contracts/myProfit.sol\":473:484  callSuccess */\n          dup1\n            /* \"contracts/myProfit.sol\":465:500  require(callSuccess, \"Call Failed\") */\n          tag_21\n          jumpi\n          mload(0x40)\n          0x08c379a000000000000000000000000000000000000000000000000000000000\n          dup2\n          mstore\n          0x04\n          add\n          tag_22\n          swap1\n          tag_23\n          jump\t// in\n        tag_22:\n          mload(0x40)\n          dup1\n          swap2\n          sub\n          swap1\n          revert\n        tag_21:\n            /* \"contracts/myProfit.sol\":338:508  {... */\n          pop\n            /* \"contracts/myProfit.sol\":285:508  function withdrawMyProfit() public onlyOwner payable {... */\n          jump\t// out\n            /* \"contracts/myProfit.sol\":90:130  address public immutable creatorContract */\n        tag_8:\n          immutable(\"0x8b796318cc193a21d1a1fc61692e08663b3ac6f506ccb2a051e444c8d65b6c5d\")\n          dup2\n          jump\t// out\n            /* \"#utility.yul\":7:133   */\n        tag_24:\n            /* \"#utility.yul\":44:51   */\n          0x00\n            /* \"#utility.yul\":84:126   */\n          0xffffffffffffffffffffffffffffffffffffffff\n            /* \"#utility.yul\":77:82   */\n          dup3\n            /* \"#utility.yul\":73:127   */\n          and\n            /* \"#utility.yul\":62:127   */\n          swap1\n          pop\n            /* \"#utility.yul\":7:133   */\n          swap2\n          swap1\n          pop\n          jump\t// out\n            /* \"#utility.yul\":139:235   */\n        tag_25:\n            /* \"#utility.yul\":176:183   */\n          0x00\n            /* \"#utility.yul\":205:229   */\n          tag_38\n            /* \"#utility.yul\":223:228   */\n          dup3\n            /* \"#utility.yul\":205:229   */\n          tag_24\n          jump\t// in\n        tag_38:\n            /* \"#utility.yul\":194:229   */\n          swap1\n          pop\n            /* \"#utility.yul\":139:235   */\n          swap2\n          swap1\n          pop\n          jump\t// out\n            /* \"#utility.yul\":241:359   */\n        tag_26:\n            /* \"#utility.yul\":328:352   */\n          tag_40\n            /* \"#utility.yul\":346:351   */\n          dup2\n            /* \"#utility.yul\":328:352   */\n          tag_25\n          jump\t// in\n        tag_40:\n            /* \"#utility.yul\":323:326   */\n          dup3\n            /* \"#utility.yul\":316:353   */\n          mstore\n            /* \"#utility.yul\":241:359   */\n          pop\n          pop\n          jump\t// out\n            /* \"#utility.yul\":365:587   */\n        tag_10:\n            /* \"#utility.yul\":458:462   */\n          0x00\n            /* \"#utility.yul\":496:498   */\n          0x20\n            /* \"#utility.yul\":485:494   */\n          dup3\n            /* \"#utility.yul\":481:499   */\n          add\n            /* \"#utility.yul\":473:499   */\n          swap1\n          pop\n            /* \"#utility.yul\":509:580   */\n          tag_42\n            /* \"#utility.yul\":577:578   */\n          0x00\n            /* \"#utility.yul\":566:575   */\n          dup4\n            /* \"#utility.yul\":562:579   */\n          add\n            /* \"#utility.yul\":553:559   */\n          dup5\n            /* \"#utility.yul\":509:580   */\n          tag_26\n          jump\t// in\n        tag_42:\n            /* \"#utility.yul\":365:587   */\n          swap3\n          swap2\n          pop\n          pop\n          jump\t// out\n            /* \"#utility.yul\":593:762   */\n        tag_27:\n            /* \"#utility.yul\":677:688   */\n          0x00\n            /* \"#utility.yul\":711:717   */\n          dup3\n            /* \"#utility.yul\":706:709   */\n          dup3\n            /* \"#utility.yul\":699:718   */\n          mstore\n            /* \"#utility.yul\":751:755   */\n          0x20\n            /* \"#utility.yul\":746:749   */\n          dup3\n            /* \"#utility.yul\":742:756   */\n          add\n            /* \"#utility.yul\":727:756   */\n          swap1\n          pop\n            /* \"#utility.yul\":593:762   */\n          swap3\n          swap2\n          pop\n          pop\n          jump\t// out\n            /* \"#utility.yul\":768:989   */\n        tag_28:\n            /* \"#utility.yul\":908:942   */\n          0x4e6f7420416c6c6f7765642120596f7520617265206e6f7420746865206f776e\n            /* \"#utility.yul\":904:905   */\n          0x00\n            /* \"#utility.yul\":896:902   */\n          dup3\n            /* \"#utility.yul\":892:906   */\n          add\n            /* \"#utility.yul\":885:943   */\n          mstore\n            /* \"#utility.yul\":977:981   */\n          0x6572000000000000000000000000000000000000000000000000000000000000\n            /* \"#utility.yul\":972:974   */\n          0x20\n            /* \"#utility.yul\":964:970   */\n          dup3\n            /* \"#utility.yul\":960:975   */\n          add\n            /* \"#utility.yul\":953:982   */\n          mstore\n            /* \"#utility.yul\":768:989   */\n          pop\n          jump\t// out\n            /* \"#utility.yul\":995:1361   */\n        tag_29:\n            /* \"#utility.yul\":1137:1140   */\n          0x00\n            /* \"#utility.yul\":1158:1225   */\n          tag_46\n            /* \"#utility.yul\":1222:1224   */\n          0x22\n            /* \"#utility.yul\":1217:1220   */\n          dup4\n            /* \"#utility.yul\":1158:1225   */\n          tag_27\n          jump\t// in\n        tag_46:\n            /* \"#utility.yul\":1151:1225   */\n          swap2\n          pop\n            /* \"#utility.yul\":1234:1327   */\n          tag_47\n            /* \"#utility.yul\":1323:1326   */\n          dup3\n            /* \"#utility.yul\":1234:1327   */\n          tag_28\n          jump\t// in\n        tag_47:\n            /* \"#utility.yul\":1352:1354   */\n          0x40\n            /* \"#utility.yul\":1347:1350   */\n          dup3\n            /* \"#utility.yul\":1343:1355   */\n          add\n            /* \"#utility.yul\":1336:1355   */\n          swap1\n          pop\n            /* \"#utility.yul\":995:1361   */\n          swap2\n          swap1\n          pop\n          jump\t// out\n            /* \"#utility.yul\":1367:1786   */\n        tag_14:\n            /* \"#utility.yul\":1533:1537   */\n          0x00\n            /* \"#utility.yul\":1571:1573   */\n          0x20\n            /* \"#utility.yul\":1560:1569   */\n          dup3\n            /* \"#utility.yul\":1556:1574   */\n          add\n            /* \"#utility.yul\":1548:1574   */\n          swap1\n          pop\n            /* \"#utility.yul\":1620:1629   */\n          dup2\n            /* \"#utility.yul\":1614:1618   */\n          dup2\n            /* \"#utility.yul\":1610:1630   */\n          sub\n            /* \"#utility.yul\":1606:1607   */\n          0x00\n            /* \"#utility.yul\":1595:1604   */\n          dup4\n            /* \"#utility.yul\":1591:1608   */\n          add\n            /* \"#utility.yul\":1584:1631   */\n          mstore\n            /* \"#utility.yul\":1648:1779   */\n          tag_49\n            /* \"#utility.yul\":1774:1778   */\n          dup2\n            /* \"#utility.yul\":1648:1779   */\n          tag_29\n          jump\t// in\n        tag_49:\n            /* \"#utility.yul\":1640:1779   */\n          swap1\n          pop\n            /* \"#utility.yul\":1367:1786   */\n          swap2\n          swap1\n          pop\n          jump\t// out\n            /* \"#utility.yul\":1792:1939   */\n        tag_30:\n            /* \"#utility.yul\":1893:1904   */\n          0x00\n            /* \"#utility.yul\":1930:1933   */\n          dup2\n            /* \"#utility.yul\":1915:1933   */\n          swap1\n          pop\n            /* \"#utility.yul\":1792:1939   */\n          swap3\n          swap2\n          pop\n          pop\n          jump\t// out\n            /* \"#utility.yul\":1945:2059   */\n        tag_31:\n          pop\n          jump\t// out\n            /* \"#utility.yul\":2065:2463   */\n        tag_32:\n            /* \"#utility.yul\":2224:2227   */\n          0x00\n            /* \"#utility.yul\":2245:2328   */\n          tag_53\n            /* \"#utility.yul\":2326:2327   */\n          0x00\n            /* \"#utility.yul\":2321:2324   */\n          dup4\n            /* \"#utility.yul\":2245:2328   */\n          tag_30\n          jump\t// in\n        tag_53:\n            /* \"#utility.yul\":2238:2328   */\n          swap2\n          pop\n            /* \"#utility.yul\":2337:2430   */\n          tag_54\n            /* \"#utility.yul\":2426:2429   */\n          dup3\n            /* \"#utility.yul\":2337:2430   */\n          tag_31\n          jump\t// in\n        tag_54:\n            /* \"#utility.yul\":2455:2456   */\n          0x00\n            /* \"#utility.yul\":2450:2453   */\n          dup3\n            /* \"#utility.yul\":2446:2457   */\n          add\n            /* \"#utility.yul\":2439:2457   */\n          swap1\n          pop\n            /* \"#utility.yul\":2065:2463   */\n          swap2\n          swap1\n          pop\n          jump\t// out\n            /* \"#utility.yul\":2469:2848   */\n        tag_17:\n            /* \"#utility.yul\":2653:2656   */\n          0x00\n            /* \"#utility.yul\":2675:2822   */\n          tag_56\n            /* \"#utility.yul\":2818:2821   */\n          dup3\n            /* \"#utility.yul\":2675:2822   */\n          tag_32\n          jump\t// in\n        tag_56:\n            /* \"#utility.yul\":2668:2822   */\n          swap2\n          pop\n            /* \"#utility.yul\":2839:2842   */\n          dup2\n            /* \"#utility.yul\":2832:2842   */\n          swap1\n          pop\n            /* \"#utility.yul\":2469:2848   */\n          swap2\n          swap1\n          pop\n          jump\t// out\n            /* \"#utility.yul\":2854:3015   */\n        tag_33:\n            /* \"#utility.yul\":2994:3007   */\n          0x43616c6c204661696c6564000000000000000000000000000000000000000000\n            /* \"#utility.yul\":2990:2991   */\n          0x00\n            /* \"#utility.yul\":2982:2988   */\n          dup3\n            /* \"#utility.yul\":2978:2992   */\n          add\n            /* \"#utility.yul\":2971:3008   */\n          mstore\n            /* \"#utility.yul\":2854:3015   */\n          pop\n          jump\t// out\n            /* \"#utility.yul\":3021:3387   */\n        tag_34:\n            /* \"#utility.yul\":3163:3166   */\n          0x00\n            /* \"#utility.yul\":3184:3251   */\n          tag_59\n            /* \"#utility.yul\":3248:3250   */\n          0x0b\n            /* \"#utility.yul\":3243:3246   */\n          dup4\n            /* \"#utility.yul\":3184:3251   */\n          tag_27\n          jump\t// in\n        tag_59:\n            /* \"#utility.yul\":3177:3251   */\n          swap2\n          pop\n            /* \"#utility.yul\":3260:3353   */\n          tag_60\n            /* \"#utility.yul\":3349:3352   */\n          dup3\n            /* \"#utility.yul\":3260:3353   */\n          tag_33\n          jump\t// in\n        tag_60:\n            /* \"#utility.yul\":3378:3380   */\n          0x20\n            /* \"#utility.yul\":3373:3376   */\n          dup3\n            /* \"#utility.yul\":3369:3381   */\n          add\n            /* \"#utility.yul\":3362:3381   */\n          swap1\n          pop\n            /* \"#utility.yul\":3021:3387   */\n          swap2\n          swap1\n          pop\n          jump\t// out\n            /* \"#utility.yul\":3393:3812   */\n        tag_23:\n            /* \"#utility.yul\":3559:3563   */\n          0x00\n            /* \"#utility.yul\":3597:3599   */\n          0x20\n            /* \"#utility.yul\":3586:3595   */\n          dup3\n            /* \"#utility.yul\":3582:3600   */\n          add\n            /* \"#utility.yul\":3574:3600   */\n          swap1\n          pop\n            /* \"#utility.yul\":3646:3655   */\n          dup2\n            /* \"#utility.yul\":3640:3644   */\n          dup2\n            /* \"#utility.yul\":3636:3656   */\n          sub\n            /* \"#utility.yul\":3632:3633   */\n          0x00\n            /* \"#utility.yul\":3621:3630   */\n          dup4\n            /* \"#utility.yul\":3617:3634   */\n          add\n            /* \"#utility.yul\":3610:3657   */\n          mstore\n            /* \"#utility.yul\":3674:3805   */\n          tag_62\n            /* \"#utility.yul\":3800:3804   */\n          dup2\n            /* \"#utility.yul\":3674:3805   */\n          tag_34\n          jump\t// in\n        tag_62:\n            /* \"#utility.yul\":3666:3805   */\n          swap1\n          pop\n            /* \"#utility.yul\":3393:3812   */\n          swap2\n          swap1\n          pop\n          jump\t// out\n\n        auxdata: 0xa2646970667358221220142b10d162c45d69711abe4f8810136edc3a9e971c8d6b910be924aec3b95ea464736f6c63430008180033\n    }\n}\n",
				"bytecode": {
					"linkReferences": {},
					"object": "60c06040525f8055600360045f6101000a81548163ffffffff021916908363ffffffff16021790555073779877a7b0d9e8603169ddbd7836e478b46247896004806101000a81548173ffffffffffffffffffffffffffffffffffffffff021916908373ffffffffffffffffffffffffffffffffffffffff16021790555034801562000088575f80fd5b503373ffffffffffffffffffffffffffffffffffffffff1660808173ffffffffffffffffffffffffffffffffffffffff1681525050608051604051620000ce906200012e565b620000da91906200017f565b604051809103905ff080158015620000f4573d5f803e3d5ffd5b5073ffffffffffffffffffffffffffffffffffffffff1660a08173ffffffffffffffffffffffffffffffffffffffff16815250506200019a565b6104da80620019b183390190565b5f73ffffffffffffffffffffffffffffffffffffffff82169050919050565b5f62000167826200013c565b9050919050565b62000179816200015b565b82525050565b5f602082019050620001945f8301846200016e565b92915050565b60805160a0516117d9620001d85f395f81816107be0152610be301525f81816104b5015281816105290152818161070f01526108e901526117d95ff3fe608060405260043610610094575f3560e01c80639425d841116100585780639425d8411461017b578063d980114614610191578063e626223a146101a7578063ead506b6146101d1578063edca914c1461020d576100a3565b806302d05d3f146100ad57806335c1d349146100d757806350d3ebd8146101135780636d1570361461014f5780636f4a2cd014610165576100a3565b366100a3576100a1610217565b005b6100ab610217565b005b3480156100b8575f80fd5b506100c16104b3565b6040516100ce9190610f7d565b60405180910390f35b3480156100e2575f80fd5b506100fd60048036038101906100f89190610fcd565b6104d7565b60405161010a9190610f7d565b60405180910390f35b34801561011e575f80fd5b5061013960048036038101906101349190611022565b610512565b604051610146919061105c565b60405180910390f35b34801561015a575f80fd5b50610163610527565b005b348015610170575f80fd5b5061017961070d565b005b348015610186575f80fd5b5061018f6108e7565b005b34801561019c575f80fd5b506101a5610a20565b005b3480156101b2575f80fd5b506101bb610be1565b6040516101c891906110d0565b60405180910390f35b3480156101dc575f80fd5b506101f760048036038101906101f29190611022565b610c05565b604051610204919061105c565b60405180910390f35b610215610217565b005b678ac7230489e8000061022934610c1a565b11610269576040517f08c379a000000000000000000000000000000000000000000000000000000000815260040161026090611143565b60405180910390fd5b5f678ac7230489e8000061027c34610c1a565b610286919061118e565b905061029133610c52565b1561035857600133908060018154018082558091505060019003905f5260205f20015f9091909190916101000a81548173ffffffffffffffffffffffffffffffffffffffff021916908373ffffffffffffffffffffffffffffffffffffffff160217905550678ac7230489e8000061030834610c1a565b610312919061118e565b60025f3373ffffffffffffffffffffffffffffffffffffffff1673ffffffffffffffffffffffffffffffffffffffff1681526020019081526020015f20819055506103c7565b678ac7230489e8000061036a34610c1a565b610374919061118e565b60025f3373ffffffffffffffffffffffffffffffffffffffff1673ffffffffffffffffffffffffffffffffffffffff1681526020019081526020015f205f8282546103bf91906111eb565b925050819055505b5f8111156104b0575f60035f3373ffffffffffffffffffffffffffffffffffffffff1673ffffffffffffffffffffffffffffffffffffffff1681526020019081526020015f2054111561046c578060035f3373ffffffffffffffffffffffffffffffffffffffff1673ffffffffffffffffffffffffffffffffffffffff1681526020019081526020015f205f82825461046091906111eb565b925050819055506104af565b8060035f3373ffffffffffffffffffffffffffffffffffffffff1673ffffffffffffffffffffffffffffffffffffffff1681526020019081526020015f20819055505b5b50565b7f000000000000000000000000000000000000000000000000000000000000000081565b600181815481106104e6575f80fd5b905f5260205f20015f915054906101000a900473ffffffffffffffffffffffffffffffffffffffff1681565b6003602052805f5260405f205f915090505481565b7f000000000000000000000000000000000000000000000000000000000000000073ffffffffffffffffffffffffffffffffffffffff163373ffffffffffffffffffffffffffffffffffffffff16146105b5576040517f08c379a00000000000000000000000000000000000000000000000000000000081526004016105ac9061128e565b60405180910390fd5b5f60048054906101000a900473ffffffffffffffffffffffffffffffffffffffff1690508073ffffffffffffffffffffffffffffffffffffffff1663a9059cbb338373ffffffffffffffffffffffffffffffffffffffff166370a08231306040518263ffffffff1660e01b815260040161062f9190610f7d565b602060405180830381865afa15801561064a573d5f803e3d5ffd5b505050506040513d601f19601f8201168201806040525081019061066e91906112c0565b6040518363ffffffff1660e01b815260040161068b9291906112eb565b6020604051808303815f875af11580156106a7573d5f803e3d5ffd5b505050506040513d601f19601f820116820180604052508101906106cb9190611347565b61070a576040517f08c379a0000000000000000000000000000000000000000000000000000000008152600401610701906113bc565b60405180910390fd5b50565b7f000000000000000000000000000000000000000000000000000000000000000073ffffffffffffffffffffffffffffffffffffffff163373ffffffffffffffffffffffffffffffffffffffff161461079b576040517f08c379a00000000000000000000000000000000000000000000000000000000081526004016107929061128e565b60405180910390fd5b5f4790505f60646005836107af91906113da565b6107b9919061141b565b90505f7f000000000000000000000000000000000000000000000000000000000000000073ffffffffffffffffffffffffffffffffffffffff168260405161080090611478565b5f6040518083038185875af1925050503d805f811461083a576040519150601f19603f3d011682016040523d82523d5f602084013e61083f565b606091505b5050905080610883576040517f08c379a000000000000000000000000000000000000000000000000000000000815260040161087a906114fc565b60405180910390fd5b5f606460328561089391906113da565b61089d919061141b565b90505f6064601e866108af91906113da565b6108b9919061141b565b90505f6064600a876108cb91906113da565b6108d5919061141b565b90506108df610cf7565b505050505050565b7f000000000000000000000000000000000000000000000000000000000000000073ffffffffffffffffffffffffffffffffffffffff163373ffffffffffffffffffffffffffffffffffffffff1614610975576040517f08c379a000000000000000000000000000000000000000000000000000000000815260040161096c9061128e565b60405180910390fd5b5f3373ffffffffffffffffffffffffffffffffffffffff164760405161099a90611478565b5f6040518083038185875af1925050503d805f81146109d4576040519150601f19603f3d011682016040523d82523d5f602084013e6109d9565b606091505b5050905080610a1d576040517f08c379a0000000000000000000000000000000000000000000000000000000008152600401610a1490611564565b60405180910390fd5b50565b5f60035f3373ffffffffffffffffffffffffffffffffffffffff1673ffffffffffffffffffffffffffffffffffffffff1681526020019081526020015f205411610a9f576040517f08c379a0000000000000000000000000000000000000000000000000000000008152600401610a96906115cc565b60405180910390fd5b5f3373ffffffffffffffffffffffffffffffffffffffff166064606360035f3373ffffffffffffffffffffffffffffffffffffffff1673ffffffffffffffffffffffffffffffffffffffff1681526020019081526020015f2054610b0391906113da565b610b0d919061141b565b604051610b1990611478565b5f6040518083038185875af1925050503d805f8114610b53576040519150601f19603f3d011682016040523d82523d5f602084013e610b58565b606091505b5050905080610b9c576040517f08c379a0000000000000000000000000000000000000000000000000000000008152600401610b9390611564565b60405180910390fd5b5f60035f3373ffffffffffffffffffffffffffffffffffffffff1673ffffffffffffffffffffffffffffffffffffffff1681526020019081526020015f208190555050565b7f000000000000000000000000000000000000000000000000000000000000000081565b6002602052805f5260405f205f915090505481565b5f80610c24610df7565b90505f670de0b6b3a76400008483610c3c91906113da565b610c46919061141b565b90508092505050919050565b5f8060018054905090505f805b82811015610cec575f60018281548110610c7c57610c7b6115ea565b5b905f5260205f20015f9054906101000a900473ffffffffffffffffffffffffffffffffffffffff1690508573ffffffffffffffffffffffffffffffffffffffff168173ffffffffffffffffffffffffffffffffffffffff1603610cde57600192505b508080600101915050610c5f565b508092505050919050565b5f60018054905090505f5b81811015610d94575f60025f60018481548110610d2257610d216115ea565b5b905f5260205f20015f9054906101000a900473ffffffffffffffffffffffffffffffffffffffff1673ffffffffffffffffffffffffffffffffffffffff1673ffffffffffffffffffffffffffffffffffffffff1681526020019081526020015f20819055508080600101915050610d02565b505f67ffffffffffffffff811115610daf57610dae611617565b5b604051908082528060200260200182016040528015610ddd5781602001602082028036833780820191505090505b5060019080519060200190610df3929190610e9c565b5050565b5f8073694aa1769357215de4fac081bf1f309adc32530690505f8173ffffffffffffffffffffffffffffffffffffffff1663feaf968c6040518163ffffffff1660e01b815260040160a060405180830381865afa158015610e5a573d5f803e3d5ffd5b505050506040513d601f19601f82011682018060405250810190610e7e91906116b6565b5050509150506402540be40081610e95919061172d565b9250505090565b828054828255905f5260205f20908101928215610f12579160200282015b82811115610f11578251825f6101000a81548173ffffffffffffffffffffffffffffffffffffffff021916908373ffffffffffffffffffffffffffffffffffffffff16021790555091602001919060010190610eba565b5b509050610f1f9190610f23565b5090565b5b80821115610f3a575f815f905550600101610f24565b5090565b5f73ffffffffffffffffffffffffffffffffffffffff82169050919050565b5f610f6782610f3e565b9050919050565b610f7781610f5d565b82525050565b5f602082019050610f905f830184610f6e565b92915050565b5f80fd5b5f819050919050565b610fac81610f9a565b8114610fb6575f80fd5b50565b5f81359050610fc781610fa3565b92915050565b5f60208284031215610fe257610fe1610f96565b5b5f610fef84828501610fb9565b91505092915050565b61100181610f5d565b811461100b575f80fd5b50565b5f8135905061101c81610ff8565b92915050565b5f6020828403121561103757611036610f96565b5b5f6110448482850161100e565b91505092915050565b61105681610f9a565b82525050565b5f60208201905061106f5f83018461104d565b92915050565b5f819050919050565b5f61109861109361108e84610f3e565b611075565b610f3e565b9050919050565b5f6110a98261107e565b9050919050565b5f6110ba8261109f565b9050919050565b6110ca816110b0565b82525050565b5f6020820190506110e35f8301846110c1565b92915050565b5f82825260208201905092915050565b7f4e65656420746f2073656e64206d6f72652e00000000000000000000000000005f82015250565b5f61112d6012836110e9565b9150611138826110f9565b602082019050919050565b5f6020820190508181035f83015261115a81611121565b9050919050565b7f4e487b71000000000000000000000000000000000000000000000000000000005f52601260045260245ffd5b5f61119882610f9a565b91506111a383610f9a565b9250826111b3576111b2611161565b5b828206905092915050565b7f4e487b71000000000000000000000000000000000000000000000000000000005f52601160045260245ffd5b5f6111f582610f9a565b915061120083610f9a565b9250828201905080821115611218576112176111be565b5b92915050565b7f4e6f7420416c6c6f7765642120596f7520617265206e6f7420746865206f776e5f8201527f6572000000000000000000000000000000000000000000000000000000000000602082015250565b5f6112786022836110e9565b91506112838261121e565b604082019050919050565b5f6020820190508181035f8301526112a58161126c565b9050919050565b5f815190506112ba81610fa3565b92915050565b5f602082840312156112d5576112d4610f96565b5b5f6112e2848285016112ac565b91505092915050565b5f6040820190506112fe5f830185610f6e565b61130b602083018461104d565b9392505050565b5f8115159050919050565b61132681611312565b8114611330575f80fd5b50565b5f815190506113418161131d565b92915050565b5f6020828403121561135c5761135b610f96565b5b5f61136984828501611333565b91505092915050565b7f556e61626c6520746f207472616e7366657200000000000000000000000000005f82015250565b5f6113a66012836110e9565b91506113b182611372565b602082019050919050565b5f6020820190508181035f8301526113d38161139a565b9050919050565b5f6113e482610f9a565b91506113ef83610f9a565b92508282026113fd81610f9a565b91508282048414831517611414576114136111be565b5b5092915050565b5f61142582610f9a565b915061143083610f9a565b9250826114405761143f611161565b5b828204905092915050565b5f81905092915050565b50565b5f6114635f8361144b565b915061146e82611455565b5f82019050919050565b5f61148282611458565b9150819050919050565b7f43616c6c204661696c65642e20436f756c646e27742073656e6420746f2063685f8201527f696c6420636f6e74726163742e00000000000000000000000000000000000000602082015250565b5f6114e6602d836110e9565b91506114f18261148c565b604082019050919050565b5f6020820190508181035f830152611513816114da565b9050919050565b7f4661696c656400000000000000000000000000000000000000000000000000005f82015250565b5f61154e6006836110e9565b91506115598261151a565b602082019050919050565b5f6020820190508181035f83015261157b81611542565b9050919050565b7f4e6f2054697020746f20776974686472617721000000000000000000000000005f82015250565b5f6115b66013836110e9565b91506115c182611582565b602082019050919050565b5f6020820190508181035f8301526115e3816115aa565b9050919050565b7f4e487b71000000000000000000000000000000000000000000000000000000005f52603260045260245ffd5b7f4e487b71000000000000000000000000000000000000000000000000000000005f52604160045260245ffd5b5f69ffffffffffffffffffff82169050919050565b61166281611644565b811461166c575f80fd5b50565b5f8151905061167d81611659565b92915050565b5f819050919050565b61169581611683565b811461169f575f80fd5b50565b5f815190506116b08161168c565b92915050565b5f805f805f60a086880312156116cf576116ce610f96565b5b5f6116dc8882890161166f565b95505060206116ed888289016116a2565b94505060406116fe888289016112ac565b935050606061170f888289016112ac565b92505060806117208882890161166f565b9150509295509295909350565b5f61173782611683565b915061174283611683565b925082820261175081611683565b91507f800000000000000000000000000000000000000000000000000000000000000084145f84121615611787576117866111be565b5b828205841483151761179c5761179b6111be565b5b509291505056fea264697066735822122000454f98a4cf0524dbbcbfe0eafb2138b9b36ed98522120db95b6c3a5f7a703264736f6c6343000818003360c060405234801561000f575f80fd5b506040516104da3803806104da833981810160405281019061003191906100fd565b3373ffffffffffffffffffffffffffffffffffffffff1660808173ffffffffffffffffffffffffffffffffffffffff16815250508073ffffffffffffffffffffffffffffffffffffffff1660a08173ffffffffffffffffffffffffffffffffffffffff168152505050610128565b5f80fd5b5f73ffffffffffffffffffffffffffffffffffffffff82169050919050565b5f6100cc826100a3565b9050919050565b6100dc816100c2565b81146100e6575f80fd5b50565b5f815190506100f7816100d3565b92915050565b5f602082840312156101125761011161009f565b5b5f61011f848285016100e9565b91505092915050565b60805160a0516103926101485f395f606201525f61019b01526103925ff3fe608060405260043610610028575f3560e01c806337587b721461002c5780633dae35ce14610036575b5f80fd5b610034610060565b005b348015610041575f80fd5b5061004a610199565b60405161005791906101fc565b60405180910390f35b7f000000000000000000000000000000000000000000000000000000000000000073ffffffffffffffffffffffffffffffffffffffff163373ffffffffffffffffffffffffffffffffffffffff16146100ee576040517f08c379a00000000000000000000000000000000000000000000000000000000081526004016100e590610295565b60405180910390fd5b5f3373ffffffffffffffffffffffffffffffffffffffff1647604051610113906102e0565b5f6040518083038185875af1925050503d805f811461014d576040519150601f19603f3d011682016040523d82523d5f602084013e610152565b606091505b5050905080610196576040517f08c379a000000000000000000000000000000000000000000000000000000000815260040161018d9061033e565b60405180910390fd5b50565b7f000000000000000000000000000000000000000000000000000000000000000081565b5f73ffffffffffffffffffffffffffffffffffffffff82169050919050565b5f6101e6826101bd565b9050919050565b6101f6816101dc565b82525050565b5f60208201905061020f5f8301846101ed565b92915050565b5f82825260208201905092915050565b7f4e6f7420416c6c6f7765642120596f7520617265206e6f7420746865206f776e5f8201527f6572000000000000000000000000000000000000000000000000000000000000602082015250565b5f61027f602283610215565b915061028a82610225565b604082019050919050565b5f6020820190508181035f8301526102ac81610273565b9050919050565b5f81905092915050565b50565b5f6102cb5f836102b3565b91506102d6826102bd565b5f82019050919050565b5f6102ea826102c0565b9150819050919050565b7f43616c6c204661696c65640000000000000000000000000000000000000000005f82015250565b5f610328600b83610215565b9150610333826102f4565b602082019050919050565b5f6020820190508181035f8301526103558161031c565b905091905056fea2646970667358221220142b10d162c45d69711abe4f8810136edc3a9e971c8d6b910be924aec3b95ea464736f6c63430008180033",
					"opcodes": "PUSH1 0xC0 PUSH1 0x40 MSTORE PUSH0 DUP1 SSTORE PUSH1 0x3 PUSH1 0x4 PUSH0 PUSH2 0x100 EXP DUP2 SLOAD DUP2 PUSH4 0xFFFFFFFF MUL NOT AND SWAP1 DUP4 PUSH4 0xFFFFFFFF AND MUL OR SWAP1 SSTORE POP PUSH20 0x779877A7B0D9E8603169DDBD7836E478B4624789 PUSH1 0x4 DUP1 PUSH2 0x100 EXP DUP2 SLOAD DUP2 PUSH20 0xFFFFFFFFFFFFFFFFFFFFFFFFFFFFFFFFFFFFFFFF MUL NOT AND SWAP1 DUP4 PUSH20 0xFFFFFFFFFFFFFFFFFFFFFFFFFFFFFFFFFFFFFFFF AND MUL OR SWAP1 SSTORE POP CALLVALUE DUP1 ISZERO PUSH3 0x88 JUMPI PUSH0 DUP1 REVERT JUMPDEST POP CALLER PUSH20 0xFFFFFFFFFFFFFFFFFFFFFFFFFFFFFFFFFFFFFFFF AND PUSH1 0x80 DUP2 PUSH20 0xFFFFFFFFFFFFFFFFFFFFFFFFFFFFFFFFFFFFFFFF AND DUP2 MSTORE POP POP PUSH1 0x80 MLOAD PUSH1 0x40 MLOAD PUSH3 0xCE SWAP1 PUSH3 0x12E JUMP JUMPDEST PUSH3 0xDA SWAP2 SWAP1 PUSH3 0x17F JUMP JUMPDEST PUSH1 0x40 MLOAD DUP1 SWAP2 SUB SWAP1 PUSH0 CREATE DUP1 ISZERO DUP1 ISZERO PUSH3 0xF4 JUMPI RETURNDATASIZE PUSH0 DUP1 RETURNDATACOPY RETURNDATASIZE PUSH0 REVERT JUMPDEST POP PUSH20 0xFFFFFFFFFFFFFFFFFFFFFFFFFFFFFFFFFFFFFFFF AND PUSH1 0xA0 DUP2 PUSH20 0xFFFFFFFFFFFFFFFFFFFFFFFFFFFFFFFFFFFFFFFF AND DUP2 MSTORE POP POP PUSH3 0x19A JUMP JUMPDEST PUSH2 0x4DA DUP1 PUSH3 0x19B1 DUP4 CODECOPY ADD SWAP1 JUMP JUMPDEST PUSH0 PUSH20 0xFFFFFFFFFFFFFFFFFFFFFFFFFFFFFFFFFFFFFFFF DUP3 AND SWAP1 POP SWAP2 SWAP1 POP JUMP JUMPDEST PUSH0 PUSH3 0x167 DUP3 PUSH3 0x13C JUMP JUMPDEST SWAP1 POP SWAP2 SWAP1 POP JUMP JUMPDEST PUSH3 0x179 DUP2 PUSH3 0x15B JUMP JUMPDEST DUP3 MSTORE POP POP JUMP JUMPDEST PUSH0 PUSH1 0x20 DUP3 ADD SWAP1 POP PUSH3 0x194 PUSH0 DUP4 ADD DUP5 PUSH3 0x16E JUMP JUMPDEST SWAP3 SWAP2 POP POP JUMP JUMPDEST PUSH1 0x80 MLOAD PUSH1 0xA0 MLOAD PUSH2 0x17D9 PUSH3 0x1D8 PUSH0 CODECOPY PUSH0 DUP2 DUP2 PUSH2 0x7BE ADD MSTORE PUSH2 0xBE3 ADD MSTORE PUSH0 DUP2 DUP2 PUSH2 0x4B5 ADD MSTORE DUP2 DUP2 PUSH2 0x529 ADD MSTORE DUP2 DUP2 PUSH2 0x70F ADD MSTORE PUSH2 0x8E9 ADD MSTORE PUSH2 0x17D9 PUSH0 RETURN INVALID PUSH1 0x80 PUSH1 0x40 MSTORE PUSH1 0x4 CALLDATASIZE LT PUSH2 0x94 JUMPI PUSH0 CALLDATALOAD PUSH1 0xE0 SHR DUP1 PUSH4 0x9425D841 GT PUSH2 0x58 JUMPI DUP1 PUSH4 0x9425D841 EQ PUSH2 0x17B JUMPI DUP1 PUSH4 0xD9801146 EQ PUSH2 0x191 JUMPI DUP1 PUSH4 0xE626223A EQ PUSH2 0x1A7 JUMPI DUP1 PUSH4 0xEAD506B6 EQ PUSH2 0x1D1 JUMPI DUP1 PUSH4 0xEDCA914C EQ PUSH2 0x20D JUMPI PUSH2 0xA3 JUMP JUMPDEST DUP1 PUSH4 0x2D05D3F EQ PUSH2 0xAD JUMPI DUP1 PUSH4 0x35C1D349 EQ PUSH2 0xD7 JUMPI DUP1 PUSH4 0x50D3EBD8 EQ PUSH2 0x113 JUMPI DUP1 PUSH4 0x6D157036 EQ PUSH2 0x14F JUMPI DUP1 PUSH4 0x6F4A2CD0 EQ PUSH2 0x165 JUMPI PUSH2 0xA3 JUMP JUMPDEST CALLDATASIZE PUSH2 0xA3 JUMPI PUSH2 0xA1 PUSH2 0x217 JUMP JUMPDEST STOP JUMPDEST PUSH2 0xAB PUSH2 0x217 JUMP JUMPDEST STOP JUMPDEST CALLVALUE DUP1 ISZERO PUSH2 0xB8 JUMPI PUSH0 DUP1 REVERT JUMPDEST POP PUSH2 0xC1 PUSH2 0x4B3 JUMP JUMPDEST PUSH1 0x40 MLOAD PUSH2 0xCE SWAP2 SWAP1 PUSH2 0xF7D JUMP JUMPDEST PUSH1 0x40 MLOAD DUP1 SWAP2 SUB SWAP1 RETURN JUMPDEST CALLVALUE DUP1 ISZERO PUSH2 0xE2 JUMPI PUSH0 DUP1 REVERT JUMPDEST POP PUSH2 0xFD PUSH1 0x4 DUP1 CALLDATASIZE SUB DUP2 ADD SWAP1 PUSH2 0xF8 SWAP2 SWAP1 PUSH2 0xFCD JUMP JUMPDEST PUSH2 0x4D7 JUMP JUMPDEST PUSH1 0x40 MLOAD PUSH2 0x10A SWAP2 SWAP1 PUSH2 0xF7D JUMP JUMPDEST PUSH1 0x40 MLOAD DUP1 SWAP2 SUB SWAP1 RETURN JUMPDEST CALLVALUE DUP1 ISZERO PUSH2 0x11E JUMPI PUSH0 DUP1 REVERT JUMPDEST POP PUSH2 0x139 PUSH1 0x4 DUP1 CALLDATASIZE SUB DUP2 ADD SWAP1 PUSH2 0x134 SWAP2 SWAP1 PUSH2 0x1022 JUMP JUMPDEST PUSH2 0x512 JUMP JUMPDEST PUSH1 0x40 MLOAD PUSH2 0x146 SWAP2 SWAP1 PUSH2 0x105C JUMP JUMPDEST PUSH1 0x40 MLOAD DUP1 SWAP2 SUB SWAP1 RETURN JUMPDEST CALLVALUE DUP1 ISZERO PUSH2 0x15A JUMPI PUSH0 DUP1 REVERT JUMPDEST POP PUSH2 0x163 PUSH2 0x527 JUMP JUMPDEST STOP JUMPDEST CALLVALUE DUP1 ISZERO PUSH2 0x170 JUMPI PUSH0 DUP1 REVERT JUMPDEST POP PUSH2 0x179 PUSH2 0x70D JUMP JUMPDEST STOP JUMPDEST CALLVALUE DUP1 ISZERO PUSH2 0x186 JUMPI PUSH0 DUP1 REVERT JUMPDEST POP PUSH2 0x18F PUSH2 0x8E7 JUMP JUMPDEST STOP JUMPDEST CALLVALUE DUP1 ISZERO PUSH2 0x19C JUMPI PUSH0 DUP1 REVERT JUMPDEST POP PUSH2 0x1A5 PUSH2 0xA20 JUMP JUMPDEST STOP JUMPDEST CALLVALUE DUP1 ISZERO PUSH2 0x1B2 JUMPI PUSH0 DUP1 REVERT JUMPDEST POP PUSH2 0x1BB PUSH2 0xBE1 JUMP JUMPDEST PUSH1 0x40 MLOAD PUSH2 0x1C8 SWAP2 SWAP1 PUSH2 0x10D0 JUMP JUMPDEST PUSH1 0x40 MLOAD DUP1 SWAP2 SUB SWAP1 RETURN JUMPDEST CALLVALUE DUP1 ISZERO PUSH2 0x1DC JUMPI PUSH0 DUP1 REVERT JUMPDEST POP PUSH2 0x1F7 PUSH1 0x4 DUP1 CALLDATASIZE SUB DUP2 ADD SWAP1 PUSH2 0x1F2 SWAP2 SWAP1 PUSH2 0x1022 JUMP JUMPDEST PUSH2 0xC05 JUMP JUMPDEST PUSH1 0x40 MLOAD PUSH2 0x204 SWAP2 SWAP1 PUSH2 0x105C JUMP JUMPDEST PUSH1 0x40 MLOAD DUP1 SWAP2 SUB SWAP1 RETURN JUMPDEST PUSH2 0x215 PUSH2 0x217 JUMP JUMPDEST STOP JUMPDEST PUSH8 0x8AC7230489E80000 PUSH2 0x229 CALLVALUE PUSH2 0xC1A JUMP JUMPDEST GT PUSH2 0x269 JUMPI PUSH1 0x40 MLOAD PUSH32 0x8C379A000000000000000000000000000000000000000000000000000000000 DUP2 MSTORE PUSH1 0x4 ADD PUSH2 0x260 SWAP1 PUSH2 0x1143 JUMP JUMPDEST PUSH1 0x40 MLOAD DUP1 SWAP2 SUB SWAP1 REVERT JUMPDEST PUSH0 PUSH8 0x8AC7230489E80000 PUSH2 0x27C CALLVALUE PUSH2 0xC1A JUMP JUMPDEST PUSH2 0x286 SWAP2 SWAP1 PUSH2 0x118E JUMP JUMPDEST SWAP1 POP PUSH2 0x291 CALLER PUSH2 0xC52 JUMP JUMPDEST ISZERO PUSH2 0x358 JUMPI PUSH1 0x1 CALLER SWAP1 DUP1 PUSH1 0x1 DUP2 SLOAD ADD DUP1 DUP3 SSTORE DUP1 SWAP2 POP POP PUSH1 0x1 SWAP1 SUB SWAP1 PUSH0 MSTORE PUSH1 0x20 PUSH0 KECCAK256 ADD PUSH0 SWAP1 SWAP2 SWAP1 SWAP2 SWAP1 SWAP2 PUSH2 0x100 EXP DUP2 SLOAD DUP2 PUSH20 0xFFFFFFFFFFFFFFFFFFFFFFFFFFFFFFFFFFFFFFFF MUL NOT AND SWAP1 DUP4 PUSH20 0xFFFFFFFFFFFFFFFFFFFFFFFFFFFFFFFFFFFFFFFF AND MUL OR SWAP1 SSTORE POP PUSH8 0x8AC7230489E80000 PUSH2 0x308 CALLVALUE PUSH2 0xC1A JUMP JUMPDEST PUSH2 0x312 SWAP2 SWAP1 PUSH2 0x118E JUMP JUMPDEST PUSH1 0x2 PUSH0 CALLER PUSH20 0xFFFFFFFFFFFFFFFFFFFFFFFFFFFFFFFFFFFFFFFF AND PUSH20 0xFFFFFFFFFFFFFFFFFFFFFFFFFFFFFFFFFFFFFFFF AND DUP2 MSTORE PUSH1 0x20 ADD SWAP1 DUP2 MSTORE PUSH1 0x20 ADD PUSH0 KECCAK256 DUP2 SWAP1 SSTORE POP PUSH2 0x3C7 JUMP JUMPDEST PUSH8 0x8AC7230489E80000 PUSH2 0x36A CALLVALUE PUSH2 0xC1A JUMP JUMPDEST PUSH2 0x374 SWAP2 SWAP1 PUSH2 0x118E JUMP JUMPDEST PUSH1 0x2 PUSH0 CALLER PUSH20 0xFFFFFFFFFFFFFFFFFFFFFFFFFFFFFFFFFFFFFFFF AND PUSH20 0xFFFFFFFFFFFFFFFFFFFFFFFFFFFFFFFFFFFFFFFF AND DUP2 MSTORE PUSH1 0x20 ADD SWAP1 DUP2 MSTORE PUSH1 0x20 ADD PUSH0 KECCAK256 PUSH0 DUP3 DUP3 SLOAD PUSH2 0x3BF SWAP2 SWAP1 PUSH2 0x11EB JUMP JUMPDEST SWAP3 POP POP DUP2 SWAP1 SSTORE POP JUMPDEST PUSH0 DUP2 GT ISZERO PUSH2 0x4B0 JUMPI PUSH0 PUSH1 0x3 PUSH0 CALLER PUSH20 0xFFFFFFFFFFFFFFFFFFFFFFFFFFFFFFFFFFFFFFFF AND PUSH20 0xFFFFFFFFFFFFFFFFFFFFFFFFFFFFFFFFFFFFFFFF AND DUP2 MSTORE PUSH1 0x20 ADD SWAP1 DUP2 MSTORE PUSH1 0x20 ADD PUSH0 KECCAK256 SLOAD GT ISZERO PUSH2 0x46C JUMPI DUP1 PUSH1 0x3 PUSH0 CALLER PUSH20 0xFFFFFFFFFFFFFFFFFFFFFFFFFFFFFFFFFFFFFFFF AND PUSH20 0xFFFFFFFFFFFFFFFFFFFFFFFFFFFFFFFFFFFFFFFF AND DUP2 MSTORE PUSH1 0x20 ADD SWAP1 DUP2 MSTORE PUSH1 0x20 ADD PUSH0 KECCAK256 PUSH0 DUP3 DUP3 SLOAD PUSH2 0x460 SWAP2 SWAP1 PUSH2 0x11EB JUMP JUMPDEST SWAP3 POP POP DUP2 SWAP1 SSTORE POP PUSH2 0x4AF JUMP JUMPDEST DUP1 PUSH1 0x3 PUSH0 CALLER PUSH20 0xFFFFFFFFFFFFFFFFFFFFFFFFFFFFFFFFFFFFFFFF AND PUSH20 0xFFFFFFFFFFFFFFFFFFFFFFFFFFFFFFFFFFFFFFFF AND DUP2 MSTORE PUSH1 0x20 ADD SWAP1 DUP2 MSTORE PUSH1 0x20 ADD PUSH0 KECCAK256 DUP2 SWAP1 SSTORE POP JUMPDEST JUMPDEST POP JUMP JUMPDEST PUSH32 0x0 DUP2 JUMP JUMPDEST PUSH1 0x1 DUP2 DUP2 SLOAD DUP2 LT PUSH2 0x4E6 JUMPI PUSH0 DUP1 REVERT JUMPDEST SWAP1 PUSH0 MSTORE PUSH1 0x20 PUSH0 KECCAK256 ADD PUSH0 SWAP2 POP SLOAD SWAP1 PUSH2 0x100 EXP SWAP1 DIV PUSH20 0xFFFFFFFFFFFFFFFFFFFFFFFFFFFFFFFFFFFFFFFF AND DUP2 JUMP JUMPDEST PUSH1 0x3 PUSH1 0x20 MSTORE DUP1 PUSH0 MSTORE PUSH1 0x40 PUSH0 KECCAK256 PUSH0 SWAP2 POP SWAP1 POP SLOAD DUP2 JUMP JUMPDEST PUSH32 0x0 PUSH20 0xFFFFFFFFFFFFFFFFFFFFFFFFFFFFFFFFFFFFFFFF AND CALLER PUSH20 0xFFFFFFFFFFFFFFFFFFFFFFFFFFFFFFFFFFFFFFFF AND EQ PUSH2 0x5B5 JUMPI PUSH1 0x40 MLOAD PUSH32 0x8C379A000000000000000000000000000000000000000000000000000000000 DUP2 MSTORE PUSH1 0x4 ADD PUSH2 0x5AC SWAP1 PUSH2 0x128E JUMP JUMPDEST PUSH1 0x40 MLOAD DUP1 SWAP2 SUB SWAP1 REVERT JUMPDEST PUSH0 PUSH1 0x4 DUP1 SLOAD SWAP1 PUSH2 0x100 EXP SWAP1 DIV PUSH20 0xFFFFFFFFFFFFFFFFFFFFFFFFFFFFFFFFFFFFFFFF AND SWAP1 POP DUP1 PUSH20 0xFFFFFFFFFFFFFFFFFFFFFFFFFFFFFFFFFFFFFFFF AND PUSH4 0xA9059CBB CALLER DUP4 PUSH20 0xFFFFFFFFFFFFFFFFFFFFFFFFFFFFFFFFFFFFFFFF AND PUSH4 0x70A08231 ADDRESS PUSH1 0x40 MLOAD DUP3 PUSH4 0xFFFFFFFF AND PUSH1 0xE0 SHL DUP2 MSTORE PUSH1 0x4 ADD PUSH2 0x62F SWAP2 SWAP1 PUSH2 0xF7D JUMP JUMPDEST PUSH1 0x20 PUSH1 0x40 MLOAD DUP1 DUP4 SUB DUP2 DUP7 GAS STATICCALL ISZERO DUP1 ISZERO PUSH2 0x64A JUMPI RETURNDATASIZE PUSH0 DUP1 RETURNDATACOPY RETURNDATASIZE PUSH0 REVERT JUMPDEST POP POP POP POP PUSH1 0x40 MLOAD RETURNDATASIZE PUSH1 0x1F NOT PUSH1 0x1F DUP3 ADD AND DUP3 ADD DUP1 PUSH1 0x40 MSTORE POP DUP2 ADD SWAP1 PUSH2 0x66E SWAP2 SWAP1 PUSH2 0x12C0 JUMP JUMPDEST PUSH1 0x40 MLOAD DUP4 PUSH4 0xFFFFFFFF AND PUSH1 0xE0 SHL DUP2 MSTORE PUSH1 0x4 ADD PUSH2 0x68B SWAP3 SWAP2 SWAP1 PUSH2 0x12EB JUMP JUMPDEST PUSH1 0x20 PUSH1 0x40 MLOAD DUP1 DUP4 SUB DUP2 PUSH0 DUP8 GAS CALL ISZERO DUP1 ISZERO PUSH2 0x6A7 JUMPI RETURNDATASIZE PUSH0 DUP1 RETURNDATACOPY RETURNDATASIZE PUSH0 REVERT JUMPDEST POP POP POP POP PUSH1 0x40 MLOAD RETURNDATASIZE PUSH1 0x1F NOT PUSH1 0x1F DUP3 ADD AND DUP3 ADD DUP1 PUSH1 0x40 MSTORE POP DUP2 ADD SWAP1 PUSH2 0x6CB SWAP2 SWAP1 PUSH2 0x1347 JUMP JUMPDEST PUSH2 0x70A JUMPI PUSH1 0x40 MLOAD PUSH32 0x8C379A000000000000000000000000000000000000000000000000000000000 DUP2 MSTORE PUSH1 0x4 ADD PUSH2 0x701 SWAP1 PUSH2 0x13BC JUMP JUMPDEST PUSH1 0x40 MLOAD DUP1 SWAP2 SUB SWAP1 REVERT JUMPDEST POP JUMP JUMPDEST PUSH32 0x0 PUSH20 0xFFFFFFFFFFFFFFFFFFFFFFFFFFFFFFFFFFFFFFFF AND CALLER PUSH20 0xFFFFFFFFFFFFFFFFFFFFFFFFFFFFFFFFFFFFFFFF AND EQ PUSH2 0x79B JUMPI PUSH1 0x40 MLOAD PUSH32 0x8C379A000000000000000000000000000000000000000000000000000000000 DUP2 MSTORE PUSH1 0x4 ADD PUSH2 0x792 SWAP1 PUSH2 0x128E JUMP JUMPDEST PUSH1 0x40 MLOAD DUP1 SWAP2 SUB SWAP1 REVERT JUMPDEST PUSH0 SELFBALANCE SWAP1 POP PUSH0 PUSH1 0x64 PUSH1 0x5 DUP4 PUSH2 0x7AF SWAP2 SWAP1 PUSH2 0x13DA JUMP JUMPDEST PUSH2 0x7B9 SWAP2 SWAP1 PUSH2 0x141B JUMP JUMPDEST SWAP1 POP PUSH0 PUSH32 0x0 PUSH20 0xFFFFFFFFFFFFFFFFFFFFFFFFFFFFFFFFFFFFFFFF AND DUP3 PUSH1 0x40 MLOAD PUSH2 0x800 SWAP1 PUSH2 0x1478 JUMP JUMPDEST PUSH0 PUSH1 0x40 MLOAD DUP1 DUP4 SUB DUP2 DUP6 DUP8 GAS CALL SWAP3 POP POP POP RETURNDATASIZE DUP1 PUSH0 DUP2 EQ PUSH2 0x83A JUMPI PUSH1 0x40 MLOAD SWAP2 POP PUSH1 0x1F NOT PUSH1 0x3F RETURNDATASIZE ADD AND DUP3 ADD PUSH1 0x40 MSTORE RETURNDATASIZE DUP3 MSTORE RETURNDATASIZE PUSH0 PUSH1 0x20 DUP5 ADD RETURNDATACOPY PUSH2 0x83F JUMP JUMPDEST PUSH1 0x60 SWAP2 POP JUMPDEST POP POP SWAP1 POP DUP1 PUSH2 0x883 JUMPI PUSH1 0x40 MLOAD PUSH32 0x8C379A000000000000000000000000000000000000000000000000000000000 DUP2 MSTORE PUSH1 0x4 ADD PUSH2 0x87A SWAP1 PUSH2 0x14FC JUMP JUMPDEST PUSH1 0x40 MLOAD DUP1 SWAP2 SUB SWAP1 REVERT JUMPDEST PUSH0 PUSH1 0x64 PUSH1 0x32 DUP6 PUSH2 0x893 SWAP2 SWAP1 PUSH2 0x13DA JUMP JUMPDEST PUSH2 0x89D SWAP2 SWAP1 PUSH2 0x141B JUMP JUMPDEST SWAP1 POP PUSH0 PUSH1 0x64 PUSH1 0x1E DUP7 PUSH2 0x8AF SWAP2 SWAP1 PUSH2 0x13DA JUMP JUMPDEST PUSH2 0x8B9 SWAP2 SWAP1 PUSH2 0x141B JUMP JUMPDEST SWAP1 POP PUSH0 PUSH1 0x64 PUSH1 0xA DUP8 PUSH2 0x8CB SWAP2 SWAP1 PUSH2 0x13DA JUMP JUMPDEST PUSH2 0x8D5 SWAP2 SWAP1 PUSH2 0x141B JUMP JUMPDEST SWAP1 POP PUSH2 0x8DF PUSH2 0xCF7 JUMP JUMPDEST POP POP POP POP POP POP JUMP JUMPDEST PUSH32 0x0 PUSH20 0xFFFFFFFFFFFFFFFFFFFFFFFFFFFFFFFFFFFFFFFF AND CALLER PUSH20 0xFFFFFFFFFFFFFFFFFFFFFFFFFFFFFFFFFFFFFFFF AND EQ PUSH2 0x975 JUMPI PUSH1 0x40 MLOAD PUSH32 0x8C379A000000000000000000000000000000000000000000000000000000000 DUP2 MSTORE PUSH1 0x4 ADD PUSH2 0x96C SWAP1 PUSH2 0x128E JUMP JUMPDEST PUSH1 0x40 MLOAD DUP1 SWAP2 SUB SWAP1 REVERT JUMPDEST PUSH0 CALLER PUSH20 0xFFFFFFFFFFFFFFFFFFFFFFFFFFFFFFFFFFFFFFFF AND SELFBALANCE PUSH1 0x40 MLOAD PUSH2 0x99A SWAP1 PUSH2 0x1478 JUMP JUMPDEST PUSH0 PUSH1 0x40 MLOAD DUP1 DUP4 SUB DUP2 DUP6 DUP8 GAS CALL SWAP3 POP POP POP RETURNDATASIZE DUP1 PUSH0 DUP2 EQ PUSH2 0x9D4 JUMPI PUSH1 0x40 MLOAD SWAP2 POP PUSH1 0x1F NOT PUSH1 0x3F RETURNDATASIZE ADD AND DUP3 ADD PUSH1 0x40 MSTORE RETURNDATASIZE DUP3 MSTORE RETURNDATASIZE PUSH0 PUSH1 0x20 DUP5 ADD RETURNDATACOPY PUSH2 0x9D9 JUMP JUMPDEST PUSH1 0x60 SWAP2 POP JUMPDEST POP POP SWAP1 POP DUP1 PUSH2 0xA1D JUMPI PUSH1 0x40 MLOAD PUSH32 0x8C379A000000000000000000000000000000000000000000000000000000000 DUP2 MSTORE PUSH1 0x4 ADD PUSH2 0xA14 SWAP1 PUSH2 0x1564 JUMP JUMPDEST PUSH1 0x40 MLOAD DUP1 SWAP2 SUB SWAP1 REVERT JUMPDEST POP JUMP JUMPDEST PUSH0 PUSH1 0x3 PUSH0 CALLER PUSH20 0xFFFFFFFFFFFFFFFFFFFFFFFFFFFFFFFFFFFFFFFF AND PUSH20 0xFFFFFFFFFFFFFFFFFFFFFFFFFFFFFFFFFFFFFFFF AND DUP2 MSTORE PUSH1 0x20 ADD SWAP1 DUP2 MSTORE PUSH1 0x20 ADD PUSH0 KECCAK256 SLOAD GT PUSH2 0xA9F JUMPI PUSH1 0x40 MLOAD PUSH32 0x8C379A000000000000000000000000000000000000000000000000000000000 DUP2 MSTORE PUSH1 0x4 ADD PUSH2 0xA96 SWAP1 PUSH2 0x15CC JUMP JUMPDEST PUSH1 0x40 MLOAD DUP1 SWAP2 SUB SWAP1 REVERT JUMPDEST PUSH0 CALLER PUSH20 0xFFFFFFFFFFFFFFFFFFFFFFFFFFFFFFFFFFFFFFFF AND PUSH1 0x64 PUSH1 0x63 PUSH1 0x3 PUSH0 CALLER PUSH20 0xFFFFFFFFFFFFFFFFFFFFFFFFFFFFFFFFFFFFFFFF AND PUSH20 0xFFFFFFFFFFFFFFFFFFFFFFFFFFFFFFFFFFFFFFFF AND DUP2 MSTORE PUSH1 0x20 ADD SWAP1 DUP2 MSTORE PUSH1 0x20 ADD PUSH0 KECCAK256 SLOAD PUSH2 0xB03 SWAP2 SWAP1 PUSH2 0x13DA JUMP JUMPDEST PUSH2 0xB0D SWAP2 SWAP1 PUSH2 0x141B JUMP JUMPDEST PUSH1 0x40 MLOAD PUSH2 0xB19 SWAP1 PUSH2 0x1478 JUMP JUMPDEST PUSH0 PUSH1 0x40 MLOAD DUP1 DUP4 SUB DUP2 DUP6 DUP8 GAS CALL SWAP3 POP POP POP RETURNDATASIZE DUP1 PUSH0 DUP2 EQ PUSH2 0xB53 JUMPI PUSH1 0x40 MLOAD SWAP2 POP PUSH1 0x1F NOT PUSH1 0x3F RETURNDATASIZE ADD AND DUP3 ADD PUSH1 0x40 MSTORE RETURNDATASIZE DUP3 MSTORE RETURNDATASIZE PUSH0 PUSH1 0x20 DUP5 ADD RETURNDATACOPY PUSH2 0xB58 JUMP JUMPDEST PUSH1 0x60 SWAP2 POP JUMPDEST POP POP SWAP1 POP DUP1 PUSH2 0xB9C JUMPI PUSH1 0x40 MLOAD PUSH32 0x8C379A000000000000000000000000000000000000000000000000000000000 DUP2 MSTORE PUSH1 0x4 ADD PUSH2 0xB93 SWAP1 PUSH2 0x1564 JUMP JUMPDEST PUSH1 0x40 MLOAD DUP1 SWAP2 SUB SWAP1 REVERT JUMPDEST PUSH0 PUSH1 0x3 PUSH0 CALLER PUSH20 0xFFFFFFFFFFFFFFFFFFFFFFFFFFFFFFFFFFFFFFFF AND PUSH20 0xFFFFFFFFFFFFFFFFFFFFFFFFFFFFFFFFFFFFFFFF AND DUP2 MSTORE PUSH1 0x20 ADD SWAP1 DUP2 MSTORE PUSH1 0x20 ADD PUSH0 KECCAK256 DUP2 SWAP1 SSTORE POP POP JUMP JUMPDEST PUSH32 0x0 DUP2 JUMP JUMPDEST PUSH1 0x2 PUSH1 0x20 MSTORE DUP1 PUSH0 MSTORE PUSH1 0x40 PUSH0 KECCAK256 PUSH0 SWAP2 POP SWAP1 POP SLOAD DUP2 JUMP JUMPDEST PUSH0 DUP1 PUSH2 0xC24 PUSH2 0xDF7 JUMP JUMPDEST SWAP1 POP PUSH0 PUSH8 0xDE0B6B3A7640000 DUP5 DUP4 PUSH2 0xC3C SWAP2 SWAP1 PUSH2 0x13DA JUMP JUMPDEST PUSH2 0xC46 SWAP2 SWAP1 PUSH2 0x141B JUMP JUMPDEST SWAP1 POP DUP1 SWAP3 POP POP POP SWAP2 SWAP1 POP JUMP JUMPDEST PUSH0 DUP1 PUSH1 0x1 DUP1 SLOAD SWAP1 POP SWAP1 POP PUSH0 DUP1 JUMPDEST DUP3 DUP2 LT ISZERO PUSH2 0xCEC JUMPI PUSH0 PUSH1 0x1 DUP3 DUP2 SLOAD DUP2 LT PUSH2 0xC7C JUMPI PUSH2 0xC7B PUSH2 0x15EA JUMP JUMPDEST JUMPDEST SWAP1 PUSH0 MSTORE PUSH1 0x20 PUSH0 KECCAK256 ADD PUSH0 SWAP1 SLOAD SWAP1 PUSH2 0x100 EXP SWAP1 DIV PUSH20 0xFFFFFFFFFFFFFFFFFFFFFFFFFFFFFFFFFFFFFFFF AND SWAP1 POP DUP6 PUSH20 0xFFFFFFFFFFFFFFFFFFFFFFFFFFFFFFFFFFFFFFFF AND DUP2 PUSH20 0xFFFFFFFFFFFFFFFFFFFFFFFFFFFFFFFFFFFFFFFF AND SUB PUSH2 0xCDE JUMPI PUSH1 0x1 SWAP3 POP JUMPDEST POP DUP1 DUP1 PUSH1 0x1 ADD SWAP2 POP POP PUSH2 0xC5F JUMP JUMPDEST POP DUP1 SWAP3 POP POP POP SWAP2 SWAP1 POP JUMP JUMPDEST PUSH0 PUSH1 0x1 DUP1 SLOAD SWAP1 POP SWAP1 POP PUSH0 JUMPDEST DUP2 DUP2 LT ISZERO PUSH2 0xD94 JUMPI PUSH0 PUSH1 0x2 PUSH0 PUSH1 0x1 DUP5 DUP2 SLOAD DUP2 LT PUSH2 0xD22 JUMPI PUSH2 0xD21 PUSH2 0x15EA JUMP JUMPDEST JUMPDEST SWAP1 PUSH0 MSTORE PUSH1 0x20 PUSH0 KECCAK256 ADD PUSH0 SWAP1 SLOAD SWAP1 PUSH2 0x100 EXP SWAP1 DIV PUSH20 0xFFFFFFFFFFFFFFFFFFFFFFFFFFFFFFFFFFFFFFFF AND PUSH20 0xFFFFFFFFFFFFFFFFFFFFFFFFFFFFFFFFFFFFFFFF AND PUSH20 0xFFFFFFFFFFFFFFFFFFFFFFFFFFFFFFFFFFFFFFFF AND DUP2 MSTORE PUSH1 0x20 ADD SWAP1 DUP2 MSTORE PUSH1 0x20 ADD PUSH0 KECCAK256 DUP2 SWAP1 SSTORE POP DUP1 DUP1 PUSH1 0x1 ADD SWAP2 POP POP PUSH2 0xD02 JUMP JUMPDEST POP PUSH0 PUSH8 0xFFFFFFFFFFFFFFFF DUP2 GT ISZERO PUSH2 0xDAF JUMPI PUSH2 0xDAE PUSH2 0x1617 JUMP JUMPDEST JUMPDEST PUSH1 0x40 MLOAD SWAP1 DUP1 DUP3 MSTORE DUP1 PUSH1 0x20 MUL PUSH1 0x20 ADD DUP3 ADD PUSH1 0x40 MSTORE DUP1 ISZERO PUSH2 0xDDD JUMPI DUP2 PUSH1 0x20 ADD PUSH1 0x20 DUP3 MUL DUP1 CALLDATASIZE DUP4 CALLDATACOPY DUP1 DUP3 ADD SWAP2 POP POP SWAP1 POP JUMPDEST POP PUSH1 0x1 SWAP1 DUP1 MLOAD SWAP1 PUSH1 0x20 ADD SWAP1 PUSH2 0xDF3 SWAP3 SWAP2 SWAP1 PUSH2 0xE9C JUMP JUMPDEST POP POP JUMP JUMPDEST PUSH0 DUP1 PUSH20 0x694AA1769357215DE4FAC081BF1F309ADC325306 SWAP1 POP PUSH0 DUP2 PUSH20 0xFFFFFFFFFFFFFFFFFFFFFFFFFFFFFFFFFFFFFFFF AND PUSH4 0xFEAF968C PUSH1 0x40 MLOAD DUP2 PUSH4 0xFFFFFFFF AND PUSH1 0xE0 SHL DUP2 MSTORE PUSH1 0x4 ADD PUSH1 0xA0 PUSH1 0x40 MLOAD DUP1 DUP4 SUB DUP2 DUP7 GAS STATICCALL ISZERO DUP1 ISZERO PUSH2 0xE5A JUMPI RETURNDATASIZE PUSH0 DUP1 RETURNDATACOPY RETURNDATASIZE PUSH0 REVERT JUMPDEST POP POP POP POP PUSH1 0x40 MLOAD RETURNDATASIZE PUSH1 0x1F NOT PUSH1 0x1F DUP3 ADD AND DUP3 ADD DUP1 PUSH1 0x40 MSTORE POP DUP2 ADD SWAP1 PUSH2 0xE7E SWAP2 SWAP1 PUSH2 0x16B6 JUMP JUMPDEST POP POP POP SWAP2 POP POP PUSH5 0x2540BE400 DUP2 PUSH2 0xE95 SWAP2 SWAP1 PUSH2 0x172D JUMP JUMPDEST SWAP3 POP POP POP SWAP1 JUMP JUMPDEST DUP3 DUP1 SLOAD DUP3 DUP3 SSTORE SWAP1 PUSH0 MSTORE PUSH1 0x20 PUSH0 KECCAK256 SWAP1 DUP2 ADD SWAP3 DUP3 ISZERO PUSH2 0xF12 JUMPI SWAP2 PUSH1 0x20 MUL DUP3 ADD JUMPDEST DUP3 DUP2 GT ISZERO PUSH2 0xF11 JUMPI DUP3 MLOAD DUP3 PUSH0 PUSH2 0x100 EXP DUP2 SLOAD DUP2 PUSH20 0xFFFFFFFFFFFFFFFFFFFFFFFFFFFFFFFFFFFFFFFF MUL NOT AND SWAP1 DUP4 PUSH20 0xFFFFFFFFFFFFFFFFFFFFFFFFFFFFFFFFFFFFFFFF AND MUL OR SWAP1 SSTORE POP SWAP2 PUSH1 0x20 ADD SWAP2 SWAP1 PUSH1 0x1 ADD SWAP1 PUSH2 0xEBA JUMP JUMPDEST JUMPDEST POP SWAP1 POP PUSH2 0xF1F SWAP2 SWAP1 PUSH2 0xF23 JUMP JUMPDEST POP SWAP1 JUMP JUMPDEST JUMPDEST DUP1 DUP3 GT ISZERO PUSH2 0xF3A JUMPI PUSH0 DUP2 PUSH0 SWAP1 SSTORE POP PUSH1 0x1 ADD PUSH2 0xF24 JUMP JUMPDEST POP SWAP1 JUMP JUMPDEST PUSH0 PUSH20 0xFFFFFFFFFFFFFFFFFFFFFFFFFFFFFFFFFFFFFFFF DUP3 AND SWAP1 POP SWAP2 SWAP1 POP JUMP JUMPDEST PUSH0 PUSH2 0xF67 DUP3 PUSH2 0xF3E JUMP JUMPDEST SWAP1 POP SWAP2 SWAP1 POP JUMP JUMPDEST PUSH2 0xF77 DUP2 PUSH2 0xF5D JUMP JUMPDEST DUP3 MSTORE POP POP JUMP JUMPDEST PUSH0 PUSH1 0x20 DUP3 ADD SWAP1 POP PUSH2 0xF90 PUSH0 DUP4 ADD DUP5 PUSH2 0xF6E JUMP JUMPDEST SWAP3 SWAP2 POP POP JUMP JUMPDEST PUSH0 DUP1 REVERT JUMPDEST PUSH0 DUP2 SWAP1 POP SWAP2 SWAP1 POP JUMP JUMPDEST PUSH2 0xFAC DUP2 PUSH2 0xF9A JUMP JUMPDEST DUP2 EQ PUSH2 0xFB6 JUMPI PUSH0 DUP1 REVERT JUMPDEST POP JUMP JUMPDEST PUSH0 DUP2 CALLDATALOAD SWAP1 POP PUSH2 0xFC7 DUP2 PUSH2 0xFA3 JUMP JUMPDEST SWAP3 SWAP2 POP POP JUMP JUMPDEST PUSH0 PUSH1 0x20 DUP3 DUP5 SUB SLT ISZERO PUSH2 0xFE2 JUMPI PUSH2 0xFE1 PUSH2 0xF96 JUMP JUMPDEST JUMPDEST PUSH0 PUSH2 0xFEF DUP5 DUP3 DUP6 ADD PUSH2 0xFB9 JUMP JUMPDEST SWAP2 POP POP SWAP3 SWAP2 POP POP JUMP JUMPDEST PUSH2 0x1001 DUP2 PUSH2 0xF5D JUMP JUMPDEST DUP2 EQ PUSH2 0x100B JUMPI PUSH0 DUP1 REVERT JUMPDEST POP JUMP JUMPDEST PUSH0 DUP2 CALLDATALOAD SWAP1 POP PUSH2 0x101C DUP2 PUSH2 0xFF8 JUMP JUMPDEST SWAP3 SWAP2 POP POP JUMP JUMPDEST PUSH0 PUSH1 0x20 DUP3 DUP5 SUB SLT ISZERO PUSH2 0x1037 JUMPI PUSH2 0x1036 PUSH2 0xF96 JUMP JUMPDEST JUMPDEST PUSH0 PUSH2 0x1044 DUP5 DUP3 DUP6 ADD PUSH2 0x100E JUMP JUMPDEST SWAP2 POP POP SWAP3 SWAP2 POP POP JUMP JUMPDEST PUSH2 0x1056 DUP2 PUSH2 0xF9A JUMP JUMPDEST DUP3 MSTORE POP POP JUMP JUMPDEST PUSH0 PUSH1 0x20 DUP3 ADD SWAP1 POP PUSH2 0x106F PUSH0 DUP4 ADD DUP5 PUSH2 0x104D JUMP JUMPDEST SWAP3 SWAP2 POP POP JUMP JUMPDEST PUSH0 DUP2 SWAP1 POP SWAP2 SWAP1 POP JUMP JUMPDEST PUSH0 PUSH2 0x1098 PUSH2 0x1093 PUSH2 0x108E DUP5 PUSH2 0xF3E JUMP JUMPDEST PUSH2 0x1075 JUMP JUMPDEST PUSH2 0xF3E JUMP JUMPDEST SWAP1 POP SWAP2 SWAP1 POP JUMP JUMPDEST PUSH0 PUSH2 0x10A9 DUP3 PUSH2 0x107E JUMP JUMPDEST SWAP1 POP SWAP2 SWAP1 POP JUMP JUMPDEST PUSH0 PUSH2 0x10BA DUP3 PUSH2 0x109F JUMP JUMPDEST SWAP1 POP SWAP2 SWAP1 POP JUMP JUMPDEST PUSH2 0x10CA DUP2 PUSH2 0x10B0 JUMP JUMPDEST DUP3 MSTORE POP POP JUMP JUMPDEST PUSH0 PUSH1 0x20 DUP3 ADD SWAP1 POP PUSH2 0x10E3 PUSH0 DUP4 ADD DUP5 PUSH2 0x10C1 JUMP JUMPDEST SWAP3 SWAP2 POP POP JUMP JUMPDEST PUSH0 DUP3 DUP3 MSTORE PUSH1 0x20 DUP3 ADD SWAP1 POP SWAP3 SWAP2 POP POP JUMP JUMPDEST PUSH32 0x4E65656420746F2073656E64206D6F72652E0000000000000000000000000000 PUSH0 DUP3 ADD MSTORE POP JUMP JUMPDEST PUSH0 PUSH2 0x112D PUSH1 0x12 DUP4 PUSH2 0x10E9 JUMP JUMPDEST SWAP2 POP PUSH2 0x1138 DUP3 PUSH2 0x10F9 JUMP JUMPDEST PUSH1 0x20 DUP3 ADD SWAP1 POP SWAP2 SWAP1 POP JUMP JUMPDEST PUSH0 PUSH1 0x20 DUP3 ADD SWAP1 POP DUP2 DUP2 SUB PUSH0 DUP4 ADD MSTORE PUSH2 0x115A DUP2 PUSH2 0x1121 JUMP JUMPDEST SWAP1 POP SWAP2 SWAP1 POP JUMP JUMPDEST PUSH32 0x4E487B7100000000000000000000000000000000000000000000000000000000 PUSH0 MSTORE PUSH1 0x12 PUSH1 0x4 MSTORE PUSH1 0x24 PUSH0 REVERT JUMPDEST PUSH0 PUSH2 0x1198 DUP3 PUSH2 0xF9A JUMP JUMPDEST SWAP2 POP PUSH2 0x11A3 DUP4 PUSH2 0xF9A JUMP JUMPDEST SWAP3 POP DUP3 PUSH2 0x11B3 JUMPI PUSH2 0x11B2 PUSH2 0x1161 JUMP JUMPDEST JUMPDEST DUP3 DUP3 MOD SWAP1 POP SWAP3 SWAP2 POP POP JUMP JUMPDEST PUSH32 0x4E487B7100000000000000000000000000000000000000000000000000000000 PUSH0 MSTORE PUSH1 0x11 PUSH1 0x4 MSTORE PUSH1 0x24 PUSH0 REVERT JUMPDEST PUSH0 PUSH2 0x11F5 DUP3 PUSH2 0xF9A JUMP JUMPDEST SWAP2 POP PUSH2 0x1200 DUP4 PUSH2 0xF9A JUMP JUMPDEST SWAP3 POP DUP3 DUP3 ADD SWAP1 POP DUP1 DUP3 GT ISZERO PUSH2 0x1218 JUMPI PUSH2 0x1217 PUSH2 0x11BE JUMP JUMPDEST JUMPDEST SWAP3 SWAP2 POP POP JUMP JUMPDEST PUSH32 0x4E6F7420416C6C6F7765642120596F7520617265206E6F7420746865206F776E PUSH0 DUP3 ADD MSTORE PUSH32 0x6572000000000000000000000000000000000000000000000000000000000000 PUSH1 0x20 DUP3 ADD MSTORE POP JUMP JUMPDEST PUSH0 PUSH2 0x1278 PUSH1 0x22 DUP4 PUSH2 0x10E9 JUMP JUMPDEST SWAP2 POP PUSH2 0x1283 DUP3 PUSH2 0x121E JUMP JUMPDEST PUSH1 0x40 DUP3 ADD SWAP1 POP SWAP2 SWAP1 POP JUMP JUMPDEST PUSH0 PUSH1 0x20 DUP3 ADD SWAP1 POP DUP2 DUP2 SUB PUSH0 DUP4 ADD MSTORE PUSH2 0x12A5 DUP2 PUSH2 0x126C JUMP JUMPDEST SWAP1 POP SWAP2 SWAP1 POP JUMP JUMPDEST PUSH0 DUP2 MLOAD SWAP1 POP PUSH2 0x12BA DUP2 PUSH2 0xFA3 JUMP JUMPDEST SWAP3 SWAP2 POP POP JUMP JUMPDEST PUSH0 PUSH1 0x20 DUP3 DUP5 SUB SLT ISZERO PUSH2 0x12D5 JUMPI PUSH2 0x12D4 PUSH2 0xF96 JUMP JUMPDEST JUMPDEST PUSH0 PUSH2 0x12E2 DUP5 DUP3 DUP6 ADD PUSH2 0x12AC JUMP JUMPDEST SWAP2 POP POP SWAP3 SWAP2 POP POP JUMP JUMPDEST PUSH0 PUSH1 0x40 DUP3 ADD SWAP1 POP PUSH2 0x12FE PUSH0 DUP4 ADD DUP6 PUSH2 0xF6E JUMP JUMPDEST PUSH2 0x130B PUSH1 0x20 DUP4 ADD DUP5 PUSH2 0x104D JUMP JUMPDEST SWAP4 SWAP3 POP POP POP JUMP JUMPDEST PUSH0 DUP2 ISZERO ISZERO SWAP1 POP SWAP2 SWAP1 POP JUMP JUMPDEST PUSH2 0x1326 DUP2 PUSH2 0x1312 JUMP JUMPDEST DUP2 EQ PUSH2 0x1330 JUMPI PUSH0 DUP1 REVERT JUMPDEST POP JUMP JUMPDEST PUSH0 DUP2 MLOAD SWAP1 POP PUSH2 0x1341 DUP2 PUSH2 0x131D JUMP JUMPDEST SWAP3 SWAP2 POP POP JUMP JUMPDEST PUSH0 PUSH1 0x20 DUP3 DUP5 SUB SLT ISZERO PUSH2 0x135C JUMPI PUSH2 0x135B PUSH2 0xF96 JUMP JUMPDEST JUMPDEST PUSH0 PUSH2 0x1369 DUP5 DUP3 DUP6 ADD PUSH2 0x1333 JUMP JUMPDEST SWAP2 POP POP SWAP3 SWAP2 POP POP JUMP JUMPDEST PUSH32 0x556E61626C6520746F207472616E736665720000000000000000000000000000 PUSH0 DUP3 ADD MSTORE POP JUMP JUMPDEST PUSH0 PUSH2 0x13A6 PUSH1 0x12 DUP4 PUSH2 0x10E9 JUMP JUMPDEST SWAP2 POP PUSH2 0x13B1 DUP3 PUSH2 0x1372 JUMP JUMPDEST PUSH1 0x20 DUP3 ADD SWAP1 POP SWAP2 SWAP1 POP JUMP JUMPDEST PUSH0 PUSH1 0x20 DUP3 ADD SWAP1 POP DUP2 DUP2 SUB PUSH0 DUP4 ADD MSTORE PUSH2 0x13D3 DUP2 PUSH2 0x139A JUMP JUMPDEST SWAP1 POP SWAP2 SWAP1 POP JUMP JUMPDEST PUSH0 PUSH2 0x13E4 DUP3 PUSH2 0xF9A JUMP JUMPDEST SWAP2 POP PUSH2 0x13EF DUP4 PUSH2 0xF9A JUMP JUMPDEST SWAP3 POP DUP3 DUP3 MUL PUSH2 0x13FD DUP2 PUSH2 0xF9A JUMP JUMPDEST SWAP2 POP DUP3 DUP3 DIV DUP5 EQ DUP4 ISZERO OR PUSH2 0x1414 JUMPI PUSH2 0x1413 PUSH2 0x11BE JUMP JUMPDEST JUMPDEST POP SWAP3 SWAP2 POP POP JUMP JUMPDEST PUSH0 PUSH2 0x1425 DUP3 PUSH2 0xF9A JUMP JUMPDEST SWAP2 POP PUSH2 0x1430 DUP4 PUSH2 0xF9A JUMP JUMPDEST SWAP3 POP DUP3 PUSH2 0x1440 JUMPI PUSH2 0x143F PUSH2 0x1161 JUMP JUMPDEST JUMPDEST DUP3 DUP3 DIV SWAP1 POP SWAP3 SWAP2 POP POP JUMP JUMPDEST PUSH0 DUP2 SWAP1 POP SWAP3 SWAP2 POP POP JUMP JUMPDEST POP JUMP JUMPDEST PUSH0 PUSH2 0x1463 PUSH0 DUP4 PUSH2 0x144B JUMP JUMPDEST SWAP2 POP PUSH2 0x146E DUP3 PUSH2 0x1455 JUMP JUMPDEST PUSH0 DUP3 ADD SWAP1 POP SWAP2 SWAP1 POP JUMP JUMPDEST PUSH0 PUSH2 0x1482 DUP3 PUSH2 0x1458 JUMP JUMPDEST SWAP2 POP DUP2 SWAP1 POP SWAP2 SWAP1 POP JUMP JUMPDEST PUSH32 0x43616C6C204661696C65642E20436F756C646E27742073656E6420746F206368 PUSH0 DUP3 ADD MSTORE PUSH32 0x696C6420636F6E74726163742E00000000000000000000000000000000000000 PUSH1 0x20 DUP3 ADD MSTORE POP JUMP JUMPDEST PUSH0 PUSH2 0x14E6 PUSH1 0x2D DUP4 PUSH2 0x10E9 JUMP JUMPDEST SWAP2 POP PUSH2 0x14F1 DUP3 PUSH2 0x148C JUMP JUMPDEST PUSH1 0x40 DUP3 ADD SWAP1 POP SWAP2 SWAP1 POP JUMP JUMPDEST PUSH0 PUSH1 0x20 DUP3 ADD SWAP1 POP DUP2 DUP2 SUB PUSH0 DUP4 ADD MSTORE PUSH2 0x1513 DUP2 PUSH2 0x14DA JUMP JUMPDEST SWAP1 POP SWAP2 SWAP1 POP JUMP JUMPDEST PUSH32 0x4661696C65640000000000000000000000000000000000000000000000000000 PUSH0 DUP3 ADD MSTORE POP JUMP JUMPDEST PUSH0 PUSH2 0x154E PUSH1 0x6 DUP4 PUSH2 0x10E9 JUMP JUMPDEST SWAP2 POP PUSH2 0x1559 DUP3 PUSH2 0x151A JUMP JUMPDEST PUSH1 0x20 DUP3 ADD SWAP1 POP SWAP2 SWAP1 POP JUMP JUMPDEST PUSH0 PUSH1 0x20 DUP3 ADD SWAP1 POP DUP2 DUP2 SUB PUSH0 DUP4 ADD MSTORE PUSH2 0x157B DUP2 PUSH2 0x1542 JUMP JUMPDEST SWAP1 POP SWAP2 SWAP1 POP JUMP JUMPDEST PUSH32 0x4E6F2054697020746F2077697468647261772100000000000000000000000000 PUSH0 DUP3 ADD MSTORE POP JUMP JUMPDEST PUSH0 PUSH2 0x15B6 PUSH1 0x13 DUP4 PUSH2 0x10E9 JUMP JUMPDEST SWAP2 POP PUSH2 0x15C1 DUP3 PUSH2 0x1582 JUMP JUMPDEST PUSH1 0x20 DUP3 ADD SWAP1 POP SWAP2 SWAP1 POP JUMP JUMPDEST PUSH0 PUSH1 0x20 DUP3 ADD SWAP1 POP DUP2 DUP2 SUB PUSH0 DUP4 ADD MSTORE PUSH2 0x15E3 DUP2 PUSH2 0x15AA JUMP JUMPDEST SWAP1 POP SWAP2 SWAP1 POP JUMP JUMPDEST PUSH32 0x4E487B7100000000000000000000000000000000000000000000000000000000 PUSH0 MSTORE PUSH1 0x32 PUSH1 0x4 MSTORE PUSH1 0x24 PUSH0 REVERT JUMPDEST PUSH32 0x4E487B7100000000000000000000000000000000000000000000000000000000 PUSH0 MSTORE PUSH1 0x41 PUSH1 0x4 MSTORE PUSH1 0x24 PUSH0 REVERT JUMPDEST PUSH0 PUSH10 0xFFFFFFFFFFFFFFFFFFFF DUP3 AND SWAP1 POP SWAP2 SWAP1 POP JUMP JUMPDEST PUSH2 0x1662 DUP2 PUSH2 0x1644 JUMP JUMPDEST DUP2 EQ PUSH2 0x166C JUMPI PUSH0 DUP1 REVERT JUMPDEST POP JUMP JUMPDEST PUSH0 DUP2 MLOAD SWAP1 POP PUSH2 0x167D DUP2 PUSH2 0x1659 JUMP JUMPDEST SWAP3 SWAP2 POP POP JUMP JUMPDEST PUSH0 DUP2 SWAP1 POP SWAP2 SWAP1 POP JUMP JUMPDEST PUSH2 0x1695 DUP2 PUSH2 0x1683 JUMP JUMPDEST DUP2 EQ PUSH2 0x169F JUMPI PUSH0 DUP1 REVERT JUMPDEST POP JUMP JUMPDEST PUSH0 DUP2 MLOAD SWAP1 POP PUSH2 0x16B0 DUP2 PUSH2 0x168C JUMP JUMPDEST SWAP3 SWAP2 POP POP JUMP JUMPDEST PUSH0 DUP1 PUSH0 DUP1 PUSH0 PUSH1 0xA0 DUP7 DUP9 SUB SLT ISZERO PUSH2 0x16CF JUMPI PUSH2 0x16CE PUSH2 0xF96 JUMP JUMPDEST JUMPDEST PUSH0 PUSH2 0x16DC DUP9 DUP3 DUP10 ADD PUSH2 0x166F JUMP JUMPDEST SWAP6 POP POP PUSH1 0x20 PUSH2 0x16ED DUP9 DUP3 DUP10 ADD PUSH2 0x16A2 JUMP JUMPDEST SWAP5 POP POP PUSH1 0x40 PUSH2 0x16FE DUP9 DUP3 DUP10 ADD PUSH2 0x12AC JUMP JUMPDEST SWAP4 POP POP PUSH1 0x60 PUSH2 0x170F DUP9 DUP3 DUP10 ADD PUSH2 0x12AC JUMP JUMPDEST SWAP3 POP POP PUSH1 0x80 PUSH2 0x1720 DUP9 DUP3 DUP10 ADD PUSH2 0x166F JUMP JUMPDEST SWAP2 POP POP SWAP3 SWAP6 POP SWAP3 SWAP6 SWAP1 SWAP4 POP JUMP JUMPDEST PUSH0 PUSH2 0x1737 DUP3 PUSH2 0x1683 JUMP JUMPDEST SWAP2 POP PUSH2 0x1742 DUP4 PUSH2 0x1683 JUMP JUMPDEST SWAP3 POP DUP3 DUP3 MUL PUSH2 0x1750 DUP2 PUSH2 0x1683 JUMP JUMPDEST SWAP2 POP PUSH32 0x8000000000000000000000000000000000000000000000000000000000000000 DUP5 EQ PUSH0 DUP5 SLT AND ISZERO PUSH2 0x1787 JUMPI PUSH2 0x1786 PUSH2 0x11BE JUMP JUMPDEST JUMPDEST DUP3 DUP3 SDIV DUP5 EQ DUP4 ISZERO OR PUSH2 0x179C JUMPI PUSH2 0x179B PUSH2 0x11BE JUMP JUMPDEST JUMPDEST POP SWAP3 SWAP2 POP POP JUMP INVALID LOG2 PUSH5 0x6970667358 0x22 SLT KECCAK256 STOP GASLIMIT 0x4F SWAP9 LOG4 0xCF SDIV 0x24 0xDB 0xBC 0xBF 0xE0 0xEA 0xFB 0x21 CODESIZE 0xB9 0xB3 PUSH15 0xD98522120DB95B6C3A5F7A70326473 PUSH16 0x6C6343000818003360C0604052348015 PUSH2 0xF JUMPI PUSH0 DUP1 REVERT JUMPDEST POP PUSH1 0x40 MLOAD PUSH2 0x4DA CODESIZE SUB DUP1 PUSH2 0x4DA DUP4 CODECOPY DUP2 DUP2 ADD PUSH1 0x40 MSTORE DUP2 ADD SWAP1 PUSH2 0x31 SWAP2 SWAP1 PUSH2 0xFD JUMP JUMPDEST CALLER PUSH20 0xFFFFFFFFFFFFFFFFFFFFFFFFFFFFFFFFFFFFFFFF AND PUSH1 0x80 DUP2 PUSH20 0xFFFFFFFFFFFFFFFFFFFFFFFFFFFFFFFFFFFFFFFF AND DUP2 MSTORE POP POP DUP1 PUSH20 0xFFFFFFFFFFFFFFFFFFFFFFFFFFFFFFFFFFFFFFFF AND PUSH1 0xA0 DUP2 PUSH20 0xFFFFFFFFFFFFFFFFFFFFFFFFFFFFFFFFFFFFFFFF AND DUP2 MSTORE POP POP POP PUSH2 0x128 JUMP JUMPDEST PUSH0 DUP1 REVERT JUMPDEST PUSH0 PUSH20 0xFFFFFFFFFFFFFFFFFFFFFFFFFFFFFFFFFFFFFFFF DUP3 AND SWAP1 POP SWAP2 SWAP1 POP JUMP JUMPDEST PUSH0 PUSH2 0xCC DUP3 PUSH2 0xA3 JUMP JUMPDEST SWAP1 POP SWAP2 SWAP1 POP JUMP JUMPDEST PUSH2 0xDC DUP2 PUSH2 0xC2 JUMP JUMPDEST DUP2 EQ PUSH2 0xE6 JUMPI PUSH0 DUP1 REVERT JUMPDEST POP JUMP JUMPDEST PUSH0 DUP2 MLOAD SWAP1 POP PUSH2 0xF7 DUP2 PUSH2 0xD3 JUMP JUMPDEST SWAP3 SWAP2 POP POP JUMP JUMPDEST PUSH0 PUSH1 0x20 DUP3 DUP5 SUB SLT ISZERO PUSH2 0x112 JUMPI PUSH2 0x111 PUSH2 0x9F JUMP JUMPDEST JUMPDEST PUSH0 PUSH2 0x11F DUP5 DUP3 DUP6 ADD PUSH2 0xE9 JUMP JUMPDEST SWAP2 POP POP SWAP3 SWAP2 POP POP JUMP JUMPDEST PUSH1 0x80 MLOAD PUSH1 0xA0 MLOAD PUSH2 0x392 PUSH2 0x148 PUSH0 CODECOPY PUSH0 PUSH1 0x62 ADD MSTORE PUSH0 PUSH2 0x19B ADD MSTORE PUSH2 0x392 PUSH0 RETURN INVALID PUSH1 0x80 PUSH1 0x40 MSTORE PUSH1 0x4 CALLDATASIZE LT PUSH2 0x28 JUMPI PUSH0 CALLDATALOAD PUSH1 0xE0 SHR DUP1 PUSH4 0x37587B72 EQ PUSH2 0x2C JUMPI DUP1 PUSH4 0x3DAE35CE EQ PUSH2 0x36 JUMPI JUMPDEST PUSH0 DUP1 REVERT JUMPDEST PUSH2 0x34 PUSH2 0x60 JUMP JUMPDEST STOP JUMPDEST CALLVALUE DUP1 ISZERO PUSH2 0x41 JUMPI PUSH0 DUP1 REVERT JUMPDEST POP PUSH2 0x4A PUSH2 0x199 JUMP JUMPDEST PUSH1 0x40 MLOAD PUSH2 0x57 SWAP2 SWAP1 PUSH2 0x1FC JUMP JUMPDEST PUSH1 0x40 MLOAD DUP1 SWAP2 SUB SWAP1 RETURN JUMPDEST PUSH32 0x0 PUSH20 0xFFFFFFFFFFFFFFFFFFFFFFFFFFFFFFFFFFFFFFFF AND CALLER PUSH20 0xFFFFFFFFFFFFFFFFFFFFFFFFFFFFFFFFFFFFFFFF AND EQ PUSH2 0xEE JUMPI PUSH1 0x40 MLOAD PUSH32 0x8C379A000000000000000000000000000000000000000000000000000000000 DUP2 MSTORE PUSH1 0x4 ADD PUSH2 0xE5 SWAP1 PUSH2 0x295 JUMP JUMPDEST PUSH1 0x40 MLOAD DUP1 SWAP2 SUB SWAP1 REVERT JUMPDEST PUSH0 CALLER PUSH20 0xFFFFFFFFFFFFFFFFFFFFFFFFFFFFFFFFFFFFFFFF AND SELFBALANCE PUSH1 0x40 MLOAD PUSH2 0x113 SWAP1 PUSH2 0x2E0 JUMP JUMPDEST PUSH0 PUSH1 0x40 MLOAD DUP1 DUP4 SUB DUP2 DUP6 DUP8 GAS CALL SWAP3 POP POP POP RETURNDATASIZE DUP1 PUSH0 DUP2 EQ PUSH2 0x14D JUMPI PUSH1 0x40 MLOAD SWAP2 POP PUSH1 0x1F NOT PUSH1 0x3F RETURNDATASIZE ADD AND DUP3 ADD PUSH1 0x40 MSTORE RETURNDATASIZE DUP3 MSTORE RETURNDATASIZE PUSH0 PUSH1 0x20 DUP5 ADD RETURNDATACOPY PUSH2 0x152 JUMP JUMPDEST PUSH1 0x60 SWAP2 POP JUMPDEST POP POP SWAP1 POP DUP1 PUSH2 0x196 JUMPI PUSH1 0x40 MLOAD PUSH32 0x8C379A000000000000000000000000000000000000000000000000000000000 DUP2 MSTORE PUSH1 0x4 ADD PUSH2 0x18D SWAP1 PUSH2 0x33E JUMP JUMPDEST PUSH1 0x40 MLOAD DUP1 SWAP2 SUB SWAP1 REVERT JUMPDEST POP JUMP JUMPDEST PUSH32 0x0 DUP2 JUMP JUMPDEST PUSH0 PUSH20 0xFFFFFFFFFFFFFFFFFFFFFFFFFFFFFFFFFFFFFFFF DUP3 AND SWAP1 POP SWAP2 SWAP1 POP JUMP JUMPDEST PUSH0 PUSH2 0x1E6 DUP3 PUSH2 0x1BD JUMP JUMPDEST SWAP1 POP SWAP2 SWAP1 POP JUMP JUMPDEST PUSH2 0x1F6 DUP2 PUSH2 0x1DC JUMP JUMPDEST DUP3 MSTORE POP POP JUMP JUMPDEST PUSH0 PUSH1 0x20 DUP3 ADD SWAP1 POP PUSH2 0x20F PUSH0 DUP4 ADD DUP5 PUSH2 0x1ED JUMP JUMPDEST SWAP3 SWAP2 POP POP JUMP JUMPDEST PUSH0 DUP3 DUP3 MSTORE PUSH1 0x20 DUP3 ADD SWAP1 POP SWAP3 SWAP2 POP POP JUMP JUMPDEST PUSH32 0x4E6F7420416C6C6F7765642120596F7520617265206E6F7420746865206F776E PUSH0 DUP3 ADD MSTORE PUSH32 0x6572000000000000000000000000000000000000000000000000000000000000 PUSH1 0x20 DUP3 ADD MSTORE POP JUMP JUMPDEST PUSH0 PUSH2 0x27F PUSH1 0x22 DUP4 PUSH2 0x215 JUMP JUMPDEST SWAP2 POP PUSH2 0x28A DUP3 PUSH2 0x225 JUMP JUMPDEST PUSH1 0x40 DUP3 ADD SWAP1 POP SWAP2 SWAP1 POP JUMP JUMPDEST PUSH0 PUSH1 0x20 DUP3 ADD SWAP1 POP DUP2 DUP2 SUB PUSH0 DUP4 ADD MSTORE PUSH2 0x2AC DUP2 PUSH2 0x273 JUMP JUMPDEST SWAP1 POP SWAP2 SWAP1 POP JUMP JUMPDEST PUSH0 DUP2 SWAP1 POP SWAP3 SWAP2 POP POP JUMP JUMPDEST POP JUMP JUMPDEST PUSH0 PUSH2 0x2CB PUSH0 DUP4 PUSH2 0x2B3 JUMP JUMPDEST SWAP2 POP PUSH2 0x2D6 DUP3 PUSH2 0x2BD JUMP JUMPDEST PUSH0 DUP3 ADD SWAP1 POP SWAP2 SWAP1 POP JUMP JUMPDEST PUSH0 PUSH2 0x2EA DUP3 PUSH2 0x2C0 JUMP JUMPDEST SWAP2 POP DUP2 SWAP1 POP SWAP2 SWAP1 POP JUMP JUMPDEST PUSH32 0x43616C6C204661696C6564000000000000000000000000000000000000000000 PUSH0 DUP3 ADD MSTORE POP JUMP JUMPDEST PUSH0 PUSH2 0x328 PUSH1 0xB DUP4 PUSH2 0x215 JUMP JUMPDEST SWAP2 POP PUSH2 0x333 DUP3 PUSH2 0x2F4 JUMP JUMPDEST PUSH1 0x20 DUP3 ADD SWAP1 POP SWAP2 SWAP1 POP JUMP JUMPDEST PUSH0 PUSH1 0x20 DUP3 ADD SWAP1 POP DUP2 DUP2 SUB PUSH0 DUP4 ADD MSTORE PUSH2 0x355 DUP2 PUSH2 0x31C JUMP JUMPDEST SWAP1 POP SWAP2 SWAP1 POP JUMP INVALID LOG2 PUSH5 0x6970667358 0x22 SLT KECCAK256 EQ 0x2B LT 0xD1 PUSH3 0xC45D69 PUSH18 0x1ABE4F8810136EDC3A9E971C8D6B910BE924 0xAE 0xC3 0xB9 MCOPY LOG4 PUSH5 0x736F6C6343 STOP ADDMOD XOR STOP CALLER "
				},
				"gasEstimates": {
					"creation": {
						"codeDepositCost": "1221000",
						"executionCost": "infinite",
						"totalCost": "infinite"
					},
					"external": {
						"": "infinite",
						"addressToNumberOfTickets(address)": "2868",
						"addressToTip(address)": "2847",
						"buyTicket()": "infinite",
						"childContract()": "infinite",
						"creator()": "infinite",
						"distributeRewards()": "infinite",
						"participants(uint256)": "4967",
						"withdrawAllLinkFromContract()": "infinite",
						"withdrawEverythingAlsoCalledRugLol()": "infinite",
						"withdrawTip()": "infinite"
					},
					"internal": {
						"isNewBuyer(address)": "infinite",
						"resetEverything()": "infinite"
					}
				},
				"methodIdentifiers": {
					"addressToNumberOfTickets(address)": "ead506b6",
					"addressToTip(address)": "50d3ebd8",
					"buyTicket()": "edca914c",
					"childContract()": "e626223a",
					"creator()": "02d05d3f",
					"distributeRewards()": "6f4a2cd0",
					"participants(uint256)": "35c1d349",
					"withdrawAllLinkFromContract()": "6d157036",
					"withdrawEverythingAlsoCalledRugLol()": "9425d841",
					"withdrawTip()": "d9801146"
				}
			},
			"storageLayout": {
				"storage": [
					{
						"astId": 157,
						"contract": "contracts/lottery.sol:lottery",
						"label": "numberOfParticipants",
						"offset": 0,
						"slot": "0",
						"type": "t_uint256"
					},
					{
						"astId": 165,
						"contract": "contracts/lottery.sol:lottery",
						"label": "participants",
						"offset": 0,
						"slot": "1",
						"type": "t_array(t_address)dyn_storage"
					},
					{
						"astId": 169,
						"contract": "contracts/lottery.sol:lottery",
						"label": "addressToNumberOfTickets",
						"offset": 0,
						"slot": "2",
						"type": "t_mapping(t_address,t_uint256)"
					},
					{
						"astId": 173,
						"contract": "contracts/lottery.sol:lottery",
						"label": "addressToTip",
						"offset": 0,
						"slot": "3",
						"type": "t_mapping(t_address,t_uint256)"
					},
					{
						"astId": 176,
						"contract": "contracts/lottery.sol:lottery",
						"label": "numWords",
						"offset": 0,
						"slot": "4",
						"type": "t_uint32"
					},
					{
						"astId": 179,
						"contract": "contracts/lottery.sol:lottery",
						"label": "linkAddress",
						"offset": 4,
						"slot": "4",
						"type": "t_address"
					}
				],
				"types": {
					"t_address": {
						"encoding": "inplace",
						"label": "address",
						"numberOfBytes": "20"
					},
					"t_array(t_address)dyn_storage": {
						"base": "t_address",
						"encoding": "dynamic_array",
						"label": "address[]",
						"numberOfBytes": "32"
					},
					"t_mapping(t_address,t_uint256)": {
						"encoding": "mapping",
						"key": "t_address",
						"label": "mapping(address => uint256)",
						"numberOfBytes": "32",
						"value": "t_uint256"
					},
					"t_uint256": {
						"encoding": "inplace",
						"label": "uint256",
						"numberOfBytes": "32"
					},
					"t_uint32": {
						"encoding": "inplace",
						"label": "uint32",
						"numberOfBytes": "4"
					}
				}
			},
			"userdoc": {
				"kind": "user",
				"methods": {},
				"version": 1
			}
		}
	}
}