{
	"contracts/getRandom.sol": {
		"RandomNumber": {
			"abi": [
				{
					"inputs": [],
					"stateMutability": "nonpayable",
					"type": "constructor"
				},
				{
					"anonymous": false,
					"inputs": [
						{
							"indexed": true,
							"internalType": "address",
							"name": "from",
							"type": "address"
						},
						{
							"indexed": true,
							"internalType": "address",
							"name": "to",
							"type": "address"
						}
					],
					"name": "OwnershipTransferRequested",
					"type": "event"
				},
				{
					"anonymous": false,
					"inputs": [
						{
							"indexed": true,
							"internalType": "address",
							"name": "from",
							"type": "address"
						},
						{
							"indexed": true,
							"internalType": "address",
							"name": "to",
							"type": "address"
						}
					],
					"name": "OwnershipTransferred",
					"type": "event"
				},
				{
					"inputs": [],
					"name": "acceptOwnership",
					"outputs": [],
					"stateMutability": "nonpayable",
					"type": "function"
				},
				{
					"inputs": [],
					"name": "owner",
					"outputs": [
						{
							"internalType": "address",
							"name": "",
							"type": "address"
						}
					],
					"stateMutability": "view",
					"type": "function"
				},
				{
					"inputs": [
						{
							"internalType": "uint256",
							"name": "_requestId",
							"type": "uint256"
						},
						{
							"internalType": "uint256[]",
							"name": "_randomWords",
							"type": "uint256[]"
						}
					],
					"name": "rawFulfillRandomWords",
					"outputs": [],
					"stateMutability": "nonpayable",
					"type": "function"
				},
				{
					"inputs": [
						{
							"internalType": "uint256",
							"name": "one",
							"type": "uint256"
						},
						{
							"internalType": "uint256",
							"name": "two",
							"type": "uint256"
						},
						{
							"internalType": "uint256",
							"name": "three",
							"type": "uint256"
						}
					],
					"name": "requestRandomWords",
					"outputs": [
						{
							"internalType": "uint256",
							"name": "",
							"type": "uint256"
						}
					],
					"stateMutability": "nonpayable",
					"type": "function"
				},
				{
					"inputs": [
						{
							"internalType": "address",
							"name": "to",
							"type": "address"
						}
					],
					"name": "transferOwnership",
					"outputs": [],
					"stateMutability": "nonpayable",
					"type": "function"
				}
			],
			"devdoc": {
				"kind": "dev",
				"methods": {},
				"version": 1
			},
			"evm": {
				"assembly": "    /* \"contracts/getRandom.sol\":393:2064  contract RandomNumber is ConfirmedOwner, VRFV2WrapperConsumerBase {... */\n  mstore(0x40, 0xe0)\n    /* \"contracts/getRandom.sol\":1029:1178  constructor()... */\n  callvalue\n  dup1\n  iszero\n  tag_1\n  jumpi\n  0x00\n  dup1\n  revert\ntag_1:\n  pop\n    /* \"contracts/getRandom.sol\":499:541  0x779877A7B0D9E8603169DdbD7836e478b4624789 */\n  0x779877a7b0d9e8603169ddbd7836e478b4624789\n    /* \"contracts/getRandom.sol\":575:617  0xab18414CD93297B0d12ac29E63Ca20f515b3DB46 */\n  0xab18414cd93297b0d12ac29e63ca20f515b3db46\n    /* \"contracts/getRandom.sol\":1063:1073  msg.sender */\n  caller\n    /* \"@chainlink/contracts@0.8.0/src/v0.8/shared/access/ConfirmedOwner.sol\":327:335  newOwner */\n  dup1\n    /* \"@chainlink/contracts@0.8.0/src/v0.8/shared/access/ConfirmedOwner.sol\":345:346  0 */\n  0x00\n    /* \"@chainlink/contracts@0.8.0/src/v0.8/shared/access/ConfirmedOwnerWithProposal.sol\":557:558  0 */\n  dup1\n    /* \"@chainlink/contracts@0.8.0/src/v0.8/shared/access/ConfirmedOwnerWithProposal.sol\":537:559  newOwner != address(0) */\n  0xffffffffffffffffffffffffffffffffffffffff\n  and\n    /* \"@chainlink/contracts@0.8.0/src/v0.8/shared/access/ConfirmedOwnerWithProposal.sol\":537:545  newOwner */\n  dup3\n    /* \"@chainlink/contracts@0.8.0/src/v0.8/shared/access/ConfirmedOwnerWithProposal.sol\":537:559  newOwner != address(0) */\n  0xffffffffffffffffffffffffffffffffffffffff\n  and\n  sub\n    /* \"@chainlink/contracts@0.8.0/src/v0.8/shared/access/ConfirmedOwnerWithProposal.sol\":529:588  require(newOwner != address(0), \"Cannot set owner to zero\") */\n  tag_7\n  jumpi\n  mload(0x40)\n  0x08c379a000000000000000000000000000000000000000000000000000000000\n  dup2\n  mstore\n  0x04\n  add\n  tag_8\n  swap1\n  tag_9\n  jump\t// in\ntag_8:\n  mload(0x40)\n  dup1\n  swap2\n  sub\n  swap1\n  revert\ntag_7:\n    /* \"@chainlink/contracts@0.8.0/src/v0.8/shared/access/ConfirmedOwnerWithProposal.sol\":605:613  newOwner */\n  dup2\n    /* \"@chainlink/contracts@0.8.0/src/v0.8/shared/access/ConfirmedOwnerWithProposal.sol\":595:602  s_owner */\n  0x00\n  dup1\n    /* \"@chainlink/contracts@0.8.0/src/v0.8/shared/access/ConfirmedOwnerWithProposal.sol\":595:613  s_owner = newOwner */\n  0x0100\n  exp\n  dup2\n  sload\n  dup2\n  0xffffffffffffffffffffffffffffffffffffffff\n  mul\n  not\n  and\n  swap1\n  dup4\n  0xffffffffffffffffffffffffffffffffffffffff\n  and\n  mul\n  or\n  swap1\n  sstore\n  pop\n    /* \"@chainlink/contracts@0.8.0/src/v0.8/shared/access/ConfirmedOwnerWithProposal.sol\":647:648  0 */\n  0x00\n    /* \"@chainlink/contracts@0.8.0/src/v0.8/shared/access/ConfirmedOwnerWithProposal.sol\":623:649  pendingOwner != address(0) */\n  0xffffffffffffffffffffffffffffffffffffffff\n  and\n    /* \"@chainlink/contracts@0.8.0/src/v0.8/shared/access/ConfirmedOwnerWithProposal.sol\":623:635  pendingOwner */\n  dup2\n    /* \"@chainlink/contracts@0.8.0/src/v0.8/shared/access/ConfirmedOwnerWithProposal.sol\":623:649  pendingOwner != address(0) */\n  0xffffffffffffffffffffffffffffffffffffffff\n  and\n  eq\n    /* \"@chainlink/contracts@0.8.0/src/v0.8/shared/access/ConfirmedOwnerWithProposal.sol\":619:698  if (pendingOwner != address(0)) {... */\n  tag_10\n  jumpi\n    /* \"@chainlink/contracts@0.8.0/src/v0.8/shared/access/ConfirmedOwnerWithProposal.sol\":659:691  _transferOwnership(pendingOwner) */\n  tag_11\n    /* \"@chainlink/contracts@0.8.0/src/v0.8/shared/access/ConfirmedOwnerWithProposal.sol\":678:690  pendingOwner */\n  dup2\n    /* \"@chainlink/contracts@0.8.0/src/v0.8/shared/access/ConfirmedOwnerWithProposal.sol\":659:677  _transferOwnership */\n  shl(0x20, tag_12)\n    /* \"@chainlink/contracts@0.8.0/src/v0.8/shared/access/ConfirmedOwnerWithProposal.sol\":659:691  _transferOwnership(pendingOwner) */\n  0x20\n  shr\n  jump\t// in\ntag_11:\n    /* \"@chainlink/contracts@0.8.0/src/v0.8/shared/access/ConfirmedOwnerWithProposal.sol\":619:698  if (pendingOwner != address(0)) {... */\ntag_10:\n    /* \"@chainlink/contracts@0.8.0/src/v0.8/shared/access/ConfirmedOwnerWithProposal.sol\":471:702  constructor(address newOwner, address pendingOwner) {... */\n  pop\n  pop\n    /* \"@chainlink/contracts@0.8.0/src/v0.8/shared/access/ConfirmedOwner.sol\":270:351  constructor(address newOwner) ConfirmedOwnerWithProposal(newOwner, address(0)) {} */\n  pop\n    /* \"@chainlink/contracts@0.8.0/src/v0.8/vrf/VRFV2WrapperConsumerBase.sol\":1947:1952  _link */\n  dup2\n    /* \"@chainlink/contracts@0.8.0/src/v0.8/vrf/VRFV2WrapperConsumerBase.sol\":1921:1953  LINK = LinkTokenInterface(_link) */\n  0xffffffffffffffffffffffffffffffffffffffff\n  and\n  0x80\n  dup2\n  0xffffffffffffffffffffffffffffffffffffffff\n  and\n  dup2\n  mstore\n  pop\n  pop\n    /* \"@chainlink/contracts@0.8.0/src/v0.8/vrf/VRFV2WrapperConsumerBase.sol\":1998:2011  _vrfV2Wrapper */\n  dup1\n    /* \"@chainlink/contracts@0.8.0/src/v0.8/vrf/VRFV2WrapperConsumerBase.sol\":1959:2012  VRF_V2_WRAPPER = VRFV2WrapperInterface(_vrfV2Wrapper) */\n  0xffffffffffffffffffffffffffffffffffffffff\n  and\n  0xa0\n  dup2\n  0xffffffffffffffffffffffffffffffffffffffff\n  and\n  dup2\n  mstore\n  pop\n  pop\n    /* \"@chainlink/contracts@0.8.0/src/v0.8/vrf/VRFV2WrapperConsumerBase.sol\":1865:2017  constructor(address _link, address _vrfV2Wrapper) {... */\n  pop\n  pop\n    /* \"contracts/getRandom.sol\":1160:1170  msg.sender */\n  caller\n    /* \"contracts/getRandom.sol\":1143:1170  deployerParent = msg.sender */\n  0xffffffffffffffffffffffffffffffffffffffff\n  and\n  0xc0\n  dup2\n  0xffffffffffffffffffffffffffffffffffffffff\n  and\n  dup2\n  mstore\n  pop\n  pop\n    /* \"contracts/getRandom.sol\":393:2064  contract RandomNumber is ConfirmedOwner, VRFV2WrapperConsumerBase {... */\n  jump(tag_16)\n    /* \"@chainlink/contracts@0.8.0/src/v0.8/shared/access/ConfirmedOwnerWithProposal.sol\":1482:1670  function _transferOwnership(address to) private {... */\ntag_12:\n    /* \"@chainlink/contracts@0.8.0/src/v0.8/shared/access/ConfirmedOwnerWithProposal.sol\":1550:1560  msg.sender */\n  caller\n    /* \"@chainlink/contracts@0.8.0/src/v0.8/shared/access/ConfirmedOwnerWithProposal.sol\":1544:1560  to != msg.sender */\n  0xffffffffffffffffffffffffffffffffffffffff\n  and\n    /* \"@chainlink/contracts@0.8.0/src/v0.8/shared/access/ConfirmedOwnerWithProposal.sol\":1544:1546  to */\n  dup2\n    /* \"@chainlink/contracts@0.8.0/src/v0.8/shared/access/ConfirmedOwnerWithProposal.sol\":1544:1560  to != msg.sender */\n  0xffffffffffffffffffffffffffffffffffffffff\n  and\n  sub\n    /* \"@chainlink/contracts@0.8.0/src/v0.8/shared/access/ConfirmedOwnerWithProposal.sol\":1536:1588  require(to != msg.sender, \"Cannot transfer to self\") */\n  tag_18\n  jumpi\n  mload(0x40)\n  0x08c379a000000000000000000000000000000000000000000000000000000000\n  dup2\n  mstore\n  0x04\n  add\n  tag_19\n  swap1\n  tag_20\n  jump\t// in\ntag_19:\n  mload(0x40)\n  dup1\n  swap2\n  sub\n  swap1\n  revert\ntag_18:\n    /* \"@chainlink/contracts@0.8.0/src/v0.8/shared/access/ConfirmedOwnerWithProposal.sol\":1612:1614  to */\n  dup1\n    /* \"@chainlink/contracts@0.8.0/src/v0.8/shared/access/ConfirmedOwnerWithProposal.sol\":1595:1609  s_pendingOwner */\n  0x01\n  0x00\n    /* \"@chainlink/contracts@0.8.0/src/v0.8/shared/access/ConfirmedOwnerWithProposal.sol\":1595:1614  s_pendingOwner = to */\n  0x0100\n  exp\n  dup2\n  sload\n  dup2\n  0xffffffffffffffffffffffffffffffffffffffff\n  mul\n  not\n  and\n  swap1\n  dup4\n  0xffffffffffffffffffffffffffffffffffffffff\n  and\n  mul\n  or\n  swap1\n  sstore\n  pop\n    /* \"@chainlink/contracts@0.8.0/src/v0.8/shared/access/ConfirmedOwnerWithProposal.sol\":1662:1664  to */\n  dup1\n    /* \"@chainlink/contracts@0.8.0/src/v0.8/shared/access/ConfirmedOwnerWithProposal.sol\":1626:1665  OwnershipTransferRequested(s_owner, to) */\n  0xffffffffffffffffffffffffffffffffffffffff\n  and\n    /* \"@chainlink/contracts@0.8.0/src/v0.8/shared/access/ConfirmedOwnerWithProposal.sol\":1653:1660  s_owner */\n  0x00\n  dup1\n  sload\n  swap1\n  0x0100\n  exp\n  swap1\n  div\n  0xffffffffffffffffffffffffffffffffffffffff\n  and\n    /* \"@chainlink/contracts@0.8.0/src/v0.8/shared/access/ConfirmedOwnerWithProposal.sol\":1626:1665  OwnershipTransferRequested(s_owner, to) */\n  0xffffffffffffffffffffffffffffffffffffffff\n  and\n  0xed8889f560326eb138920d842192f0eb3dd22b4f139c87a2c57538e05bae1278\n  mload(0x40)\n  mload(0x40)\n  dup1\n  swap2\n  sub\n  swap1\n  log3\n    /* \"@chainlink/contracts@0.8.0/src/v0.8/shared/access/ConfirmedOwnerWithProposal.sol\":1482:1670  function _transferOwnership(address to) private {... */\n  pop\n  jump\t// out\n    /* \"#utility.yul\":7:176   */\ntag_21:\n    /* \"#utility.yul\":91:102   */\n  0x00\n    /* \"#utility.yul\":125:131   */\n  dup3\n    /* \"#utility.yul\":120:123   */\n  dup3\n    /* \"#utility.yul\":113:132   */\n  mstore\n    /* \"#utility.yul\":165:169   */\n  0x20\n    /* \"#utility.yul\":160:163   */\n  dup3\n    /* \"#utility.yul\":156:170   */\n  add\n    /* \"#utility.yul\":141:170   */\n  swap1\n  pop\n    /* \"#utility.yul\":7:176   */\n  swap3\n  swap2\n  pop\n  pop\n  jump\t// out\n    /* \"#utility.yul\":182:356   */\ntag_22:\n    /* \"#utility.yul\":322:348   */\n  0x43616e6e6f7420736574206f776e657220746f207a65726f0000000000000000\n    /* \"#utility.yul\":318:319   */\n  0x00\n    /* \"#utility.yul\":310:316   */\n  dup3\n    /* \"#utility.yul\":306:320   */\n  add\n    /* \"#utility.yul\":299:349   */\n  mstore\n    /* \"#utility.yul\":182:356   */\n  pop\n  jump\t// out\n    /* \"#utility.yul\":362:728   */\ntag_23:\n    /* \"#utility.yul\":504:507   */\n  0x00\n    /* \"#utility.yul\":525:592   */\n  tag_30\n    /* \"#utility.yul\":589:591   */\n  0x18\n    /* \"#utility.yul\":584:587   */\n  dup4\n    /* \"#utility.yul\":525:592   */\n  tag_21\n  jump\t// in\ntag_30:\n    /* \"#utility.yul\":518:592   */\n  swap2\n  pop\n    /* \"#utility.yul\":601:694   */\n  tag_31\n    /* \"#utility.yul\":690:693   */\n  dup3\n    /* \"#utility.yul\":601:694   */\n  tag_22\n  jump\t// in\ntag_31:\n    /* \"#utility.yul\":719:721   */\n  0x20\n    /* \"#utility.yul\":714:717   */\n  dup3\n    /* \"#utility.yul\":710:722   */\n  add\n    /* \"#utility.yul\":703:722   */\n  swap1\n  pop\n    /* \"#utility.yul\":362:728   */\n  swap2\n  swap1\n  pop\n  jump\t// out\n    /* \"#utility.yul\":734:1153   */\ntag_9:\n    /* \"#utility.yul\":900:904   */\n  0x00\n    /* \"#utility.yul\":938:940   */\n  0x20\n    /* \"#utility.yul\":927:936   */\n  dup3\n    /* \"#utility.yul\":923:941   */\n  add\n    /* \"#utility.yul\":915:941   */\n  swap1\n  pop\n    /* \"#utility.yul\":987:996   */\n  dup2\n    /* \"#utility.yul\":981:985   */\n  dup2\n    /* \"#utility.yul\":977:997   */\n  sub\n    /* \"#utility.yul\":973:974   */\n  0x00\n    /* \"#utility.yul\":962:971   */\n  dup4\n    /* \"#utility.yul\":958:975   */\n  add\n    /* \"#utility.yul\":951:998   */\n  mstore\n    /* \"#utility.yul\":1015:1146   */\n  tag_33\n    /* \"#utility.yul\":1141:1145   */\n  dup2\n    /* \"#utility.yul\":1015:1146   */\n  tag_23\n  jump\t// in\ntag_33:\n    /* \"#utility.yul\":1007:1146   */\n  swap1\n  pop\n    /* \"#utility.yul\":734:1153   */\n  swap2\n  swap1\n  pop\n  jump\t// out\n    /* \"#utility.yul\":1159:1332   */\ntag_24:\n    /* \"#utility.yul\":1299:1324   */\n  0x43616e6e6f74207472616e7366657220746f2073656c66000000000000000000\n    /* \"#utility.yul\":1295:1296   */\n  0x00\n    /* \"#utility.yul\":1287:1293   */\n  dup3\n    /* \"#utility.yul\":1283:1297   */\n  add\n    /* \"#utility.yul\":1276:1325   */\n  mstore\n    /* \"#utility.yul\":1159:1332   */\n  pop\n  jump\t// out\n    /* \"#utility.yul\":1338:1704   */\ntag_25:\n    /* \"#utility.yul\":1480:1483   */\n  0x00\n    /* \"#utility.yul\":1501:1568   */\n  tag_36\n    /* \"#utility.yul\":1565:1567   */\n  0x17\n    /* \"#utility.yul\":1560:1563   */\n  dup4\n    /* \"#utility.yul\":1501:1568   */\n  tag_21\n  jump\t// in\ntag_36:\n    /* \"#utility.yul\":1494:1568   */\n  swap2\n  pop\n    /* \"#utility.yul\":1577:1670   */\n  tag_37\n    /* \"#utility.yul\":1666:1669   */\n  dup3\n    /* \"#utility.yul\":1577:1670   */\n  tag_24\n  jump\t// in\ntag_37:\n    /* \"#utility.yul\":1695:1697   */\n  0x20\n    /* \"#utility.yul\":1690:1693   */\n  dup3\n    /* \"#utility.yul\":1686:1698   */\n  add\n    /* \"#utility.yul\":1679:1698   */\n  swap1\n  pop\n    /* \"#utility.yul\":1338:1704   */\n  swap2\n  swap1\n  pop\n  jump\t// out\n    /* \"#utility.yul\":1710:2129   */\ntag_20:\n    /* \"#utility.yul\":1876:1880   */\n  0x00\n    /* \"#utility.yul\":1914:1916   */\n  0x20\n    /* \"#utility.yul\":1903:1912   */\n  dup3\n    /* \"#utility.yul\":1899:1917   */\n  add\n    /* \"#utility.yul\":1891:1917   */\n  swap1\n  pop\n    /* \"#utility.yul\":1963:1972   */\n  dup2\n    /* \"#utility.yul\":1957:1961   */\n  dup2\n    /* \"#utility.yul\":1953:1973   */\n  sub\n    /* \"#utility.yul\":1949:1950   */\n  0x00\n    /* \"#utility.yul\":1938:1947   */\n  dup4\n    /* \"#utility.yul\":1934:1951   */\n  add\n    /* \"#utility.yul\":1927:1974   */\n  mstore\n    /* \"#utility.yul\":1991:2122   */\n  tag_39\n    /* \"#utility.yul\":2117:2121   */\n  dup2\n    /* \"#utility.yul\":1991:2122   */\n  tag_25\n  jump\t// in\ntag_39:\n    /* \"#utility.yul\":1983:2122   */\n  swap1\n  pop\n    /* \"#utility.yul\":1710:2129   */\n  swap2\n  swap1\n  pop\n  jump\t// out\n    /* \"contracts/getRandom.sol\":393:2064  contract RandomNumber is ConfirmedOwner, VRFV2WrapperConsumerBase {... */\ntag_16:\n  mload(0x80)\n  mload(0xa0)\n  mload(0xc0)\n  codecopy(0x00, dataOffset(sub_0), dataSize(sub_0))\n  0x00\n  assignImmutable(\"0x7e73c6705797180140a00ad870c82eb4092a3440c76c03cda76c4c497759837c\")\n  0x00\n  assignImmutable(\"0xb54132232922229e38cc95c863488521e95e5e7a61a99a0c1f7114e9af332ed3\")\n  0x00\n  assignImmutable(\"0x1ec028d8f61438d0c8fe7f648326da239a9b9b5acd20368337c73966e8c44e82\")\n  return(0x00, dataSize(sub_0))\nstop\n\nsub_0: assembly {\n        /* \"contracts/getRandom.sol\":393:2064  contract RandomNumber is ConfirmedOwner, VRFV2WrapperConsumerBase {... */\n      mstore(0x40, 0x80)\n      callvalue\n      dup1\n      iszero\n      tag_1\n      jumpi\n      0x00\n      dup1\n      revert\n    tag_1:\n      pop\n      jumpi(tag_2, lt(calldatasize, 0x04))\n      shr(0xe0, calldataload(0x00))\n      dup1\n      0x1fe543e3\n      eq\n      tag_3\n      jumpi\n      dup1\n      0x32601f64\n      eq\n      tag_4\n      jumpi\n      dup1\n      0x79ba5097\n      eq\n      tag_5\n      jumpi\n      dup1\n      0x8da5cb5b\n      eq\n      tag_6\n      jumpi\n      dup1\n      0xf2fde38b\n      eq\n      tag_7\n      jumpi\n    tag_2:\n      0x00\n      dup1\n      revert\n        /* \"@chainlink/contracts@0.8.0/src/v0.8/vrf/VRFV2WrapperConsumerBase.sol\":3398:3631  function rawFulfillRandomWords(uint256 _requestId, uint256[] memory _randomWords) external {... */\n    tag_3:\n      tag_8\n      0x04\n      dup1\n      calldatasize\n      sub\n      dup2\n      add\n      swap1\n      tag_9\n      swap2\n      swap1\n      tag_10\n      jump\t// in\n    tag_9:\n      tag_11\n      jump\t// in\n    tag_8:\n      stop\n        /* \"contracts/getRandom.sol\":1186:1699  function requestRandomWords(uint256 one, uint256 two, uint256 three) external onlyOwner returns (uint256) {... */\n    tag_4:\n      tag_12\n      0x04\n      dup1\n      calldatasize\n      sub\n      dup2\n      add\n      swap1\n      tag_13\n      swap2\n      swap1\n      tag_14\n      jump\t// in\n    tag_13:\n      tag_15\n      jump\t// in\n    tag_12:\n      mload(0x40)\n      tag_16\n      swap2\n      swap1\n      tag_17\n      jump\t// in\n    tag_16:\n      mload(0x40)\n      dup1\n      swap2\n      sub\n      swap1\n      return\n        /* \"@chainlink/contracts@0.8.0/src/v0.8/shared/access/ConfirmedOwnerWithProposal.sol\":1001:1266  function acceptOwnership() external override {... */\n    tag_5:\n      tag_18\n      tag_19\n      jump\t// in\n    tag_18:\n      stop\n        /* \"@chainlink/contracts@0.8.0/src/v0.8/shared/access/ConfirmedOwnerWithProposal.sol\":1317:1398  function owner() public view override returns (address) {... */\n    tag_6:\n      tag_20\n      tag_21\n      jump\t// in\n    tag_20:\n      mload(0x40)\n      tag_22\n      swap2\n      swap1\n      tag_23\n      jump\t// in\n    tag_22:\n      mload(0x40)\n      dup1\n      swap2\n      sub\n      swap1\n      return\n        /* \"@chainlink/contracts@0.8.0/src/v0.8/shared/access/ConfirmedOwnerWithProposal.sol\":811:909  function transferOwnership(address to) public override onlyOwner {... */\n    tag_7:\n      tag_24\n      0x04\n      dup1\n      calldatasize\n      sub\n      dup2\n      add\n      swap1\n      tag_25\n      swap2\n      swap1\n      tag_26\n      jump\t// in\n    tag_25:\n      tag_27\n      jump\t// in\n    tag_24:\n      stop\n        /* \"@chainlink/contracts@0.8.0/src/v0.8/vrf/VRFV2WrapperConsumerBase.sol\":3398:3631  function rawFulfillRandomWords(uint256 _requestId, uint256[] memory _randomWords) external {... */\n    tag_11:\n        /* \"@chainlink/contracts@0.8.0/src/v0.8/vrf/VRFV2WrapperConsumerBase.sol\":3525:3539  VRF_V2_WRAPPER */\n      immutable(\"0xb54132232922229e38cc95c863488521e95e5e7a61a99a0c1f7114e9af332ed3\")\n        /* \"@chainlink/contracts@0.8.0/src/v0.8/vrf/VRFV2WrapperConsumerBase.sol\":3503:3540  msg.sender == address(VRF_V2_WRAPPER) */\n      0xffffffffffffffffffffffffffffffffffffffff\n      and\n        /* \"@chainlink/contracts@0.8.0/src/v0.8/vrf/VRFV2WrapperConsumerBase.sol\":3503:3513  msg.sender */\n      caller\n        /* \"@chainlink/contracts@0.8.0/src/v0.8/vrf/VRFV2WrapperConsumerBase.sol\":3503:3540  msg.sender == address(VRF_V2_WRAPPER) */\n      0xffffffffffffffffffffffffffffffffffffffff\n      and\n      eq\n        /* \"@chainlink/contracts@0.8.0/src/v0.8/vrf/VRFV2WrapperConsumerBase.sol\":3495:3576  require(msg.sender == address(VRF_V2_WRAPPER), \"only VRF V2 wrapper can fulfill\") */\n      tag_29\n      jumpi\n      mload(0x40)\n      0x08c379a000000000000000000000000000000000000000000000000000000000\n      dup2\n      mstore\n      0x04\n      add\n      tag_30\n      swap1\n      tag_31\n      jump\t// in\n    tag_30:\n      mload(0x40)\n      dup1\n      swap2\n      sub\n      swap1\n      revert\n    tag_29:\n        /* \"@chainlink/contracts@0.8.0/src/v0.8/vrf/VRFV2WrapperConsumerBase.sol\":3582:3626  fulfillRandomWords(_requestId, _randomWords) */\n      tag_32\n        /* \"@chainlink/contracts@0.8.0/src/v0.8/vrf/VRFV2WrapperConsumerBase.sol\":3601:3611  _requestId */\n      dup3\n        /* \"@chainlink/contracts@0.8.0/src/v0.8/vrf/VRFV2WrapperConsumerBase.sol\":3613:3625  _randomWords */\n      dup3\n        /* \"@chainlink/contracts@0.8.0/src/v0.8/vrf/VRFV2WrapperConsumerBase.sol\":3582:3600  fulfillRandomWords */\n      tag_33\n        /* \"@chainlink/contracts@0.8.0/src/v0.8/vrf/VRFV2WrapperConsumerBase.sol\":3582:3626  fulfillRandomWords(_requestId, _randomWords) */\n      jump\t// in\n    tag_32:\n        /* \"@chainlink/contracts@0.8.0/src/v0.8/vrf/VRFV2WrapperConsumerBase.sol\":3398:3631  function rawFulfillRandomWords(uint256 _requestId, uint256[] memory _randomWords) external {... */\n      pop\n      pop\n      jump\t// out\n        /* \"contracts/getRandom.sol\":1186:1699  function requestRandomWords(uint256 one, uint256 two, uint256 three) external onlyOwner returns (uint256) {... */\n    tag_15:\n        /* \"contracts/getRandom.sol\":1283:1290  uint256 */\n      0x00\n        /* \"@chainlink/contracts@0.8.0/src/v0.8/shared/access/ConfirmedOwnerWithProposal.sol\":1941:1961  _validateOwnership() */\n      tag_35\n        /* \"@chainlink/contracts@0.8.0/src/v0.8/shared/access/ConfirmedOwnerWithProposal.sol\":1941:1959  _validateOwnership */\n      tag_36\n        /* \"@chainlink/contracts@0.8.0/src/v0.8/shared/access/ConfirmedOwnerWithProposal.sol\":1941:1961  _validateOwnership() */\n      jump\t// in\n    tag_35:\n        /* \"contracts/getRandom.sol\":1303:1320  uint256 requestId */\n      0x00\n        /* \"contracts/getRandom.sol\":1323:1440  requestRandomness(... */\n      tag_38\n        /* \"contracts/getRandom.sol\":661:667  100000 */\n      0x0186a0\n        /* \"contracts/getRandom.sol\":713:714  1 */\n      0x01\n        /* \"contracts/getRandom.sol\":748:749  3 */\n      0x03\n        /* \"contracts/getRandom.sol\":1323:1340  requestRandomness */\n      tag_39\n        /* \"contracts/getRandom.sol\":1323:1440  requestRandomness(... */\n      jump\t// in\n    tag_38:\n        /* \"contracts/getRandom.sol\":1303:1440  uint256 requestId = requestRandomness(... */\n      swap1\n      pop\n        /* \"contracts/getRandom.sol\":1451:1461  requestIds */\n      0x02\n        /* \"contracts/getRandom.sol\":1467:1476  requestId */\n      dup2\n        /* \"contracts/getRandom.sol\":1451:1477  requestIds.push(requestId) */\n      swap1\n      dup1\n      0x01\n      dup2\n      sload\n      add\n      dup1\n      dup3\n      sstore\n      dup1\n      swap2\n      pop\n      pop\n      0x01\n      swap1\n      sub\n      swap1\n      0x00\n      mstore\n      keccak256(0x00, 0x20)\n      add\n      0x00\n      swap1\n      swap2\n      swap1\n      swap2\n      swap1\n      swap2\n      pop\n      sstore\n        /* \"contracts/getRandom.sol\":1530:1539  requestId */\n      dup1\n        /* \"contracts/getRandom.sol\":1488:1506  requestIdToNumbers */\n      0x03\n        /* \"contracts/getRandom.sol\":1488:1517  requestIdToNumbers[requestId] */\n      0x00\n        /* \"contracts/getRandom.sol\":1507:1516  requestId */\n      dup4\n        /* \"contracts/getRandom.sol\":1488:1517  requestIdToNumbers[requestId] */\n      dup2\n      mstore\n      0x20\n      add\n      swap1\n      dup2\n      mstore\n      0x20\n      add\n      0x00\n      keccak256\n        /* \"contracts/getRandom.sol\":1488:1527  requestIdToNumbers[requestId].requestID */\n      0x00\n      add\n        /* \"contracts/getRandom.sol\":1488:1539  requestIdToNumbers[requestId].requestID = requestId */\n      dup2\n      swap1\n      sstore\n      pop\n        /* \"contracts/getRandom.sol\":1550:1606  requestIdToNumbers[requestId].prizes = [one, two, three] */\n      mload(0x40)\n      dup1\n      0x60\n      add\n      0x40\n      mstore\n      dup1\n        /* \"contracts/getRandom.sol\":1590:1593  one */\n      dup7\n        /* \"contracts/getRandom.sol\":1550:1606  requestIdToNumbers[requestId].prizes = [one, two, three] */\n      dup2\n      mstore\n      0x20\n      add\n        /* \"contracts/getRandom.sol\":1595:1598  two */\n      dup6\n        /* \"contracts/getRandom.sol\":1550:1606  requestIdToNumbers[requestId].prizes = [one, two, three] */\n      dup2\n      mstore\n      0x20\n      add\n        /* \"contracts/getRandom.sol\":1600:1605  three */\n      dup5\n        /* \"contracts/getRandom.sol\":1550:1606  requestIdToNumbers[requestId].prizes = [one, two, three] */\n      dup2\n      mstore\n      pop\n        /* \"contracts/getRandom.sol\":1550:1568  requestIdToNumbers */\n      0x03\n        /* \"contracts/getRandom.sol\":1550:1579  requestIdToNumbers[requestId] */\n      0x00\n        /* \"contracts/getRandom.sol\":1569:1578  requestId */\n      dup4\n        /* \"contracts/getRandom.sol\":1550:1579  requestIdToNumbers[requestId] */\n      dup2\n      mstore\n      0x20\n      add\n      swap1\n      dup2\n      mstore\n      0x20\n      add\n      0x00\n      keccak256\n        /* \"contracts/getRandom.sol\":1550:1586  requestIdToNumbers[requestId].prizes */\n      0x01\n      add\n        /* \"contracts/getRandom.sol\":1550:1606  requestIdToNumbers[requestId].prizes = [one, two, three] */\n      swap1\n      0x03\n      tag_41\n      swap3\n      swap2\n      swap1\n      tag_42\n      jump\t// in\n    tag_41:\n      pop\n        /* \"contracts/getRandom.sol\":1659:1664  false */\n      0x00\n        /* \"contracts/getRandom.sol\":1617:1635  requestIdToNumbers */\n      0x03\n        /* \"contracts/getRandom.sol\":1617:1646  requestIdToNumbers[requestId] */\n      0x00\n        /* \"contracts/getRandom.sol\":1636:1645  requestId */\n      dup4\n        /* \"contracts/getRandom.sol\":1617:1646  requestIdToNumbers[requestId] */\n      dup2\n      mstore\n      0x20\n      add\n      swap1\n      dup2\n      mstore\n      0x20\n      add\n      0x00\n      keccak256\n        /* \"contracts/getRandom.sol\":1617:1656  requestIdToNumbers[requestId].fulfilled */\n      0x03\n      add\n      0x00\n        /* \"contracts/getRandom.sol\":1617:1664  requestIdToNumbers[requestId].fulfilled = false */\n      0x0100\n      exp\n      dup2\n      sload\n      dup2\n      0xff\n      mul\n      not\n      and\n      swap1\n      dup4\n      iszero\n      iszero\n      mul\n      or\n      swap1\n      sstore\n      pop\n        /* \"contracts/getRandom.sol\":1682:1691  requestId */\n      dup1\n        /* \"contracts/getRandom.sol\":1675:1691  return requestId */\n      swap2\n      pop\n      pop\n        /* \"contracts/getRandom.sol\":1186:1699  function requestRandomWords(uint256 one, uint256 two, uint256 three) external onlyOwner returns (uint256) {... */\n      swap4\n      swap3\n      pop\n      pop\n      pop\n      jump\t// out\n        /* \"@chainlink/contracts@0.8.0/src/v0.8/shared/access/ConfirmedOwnerWithProposal.sol\":1001:1266  function acceptOwnership() external override {... */\n    tag_19:\n        /* \"@chainlink/contracts@0.8.0/src/v0.8/shared/access/ConfirmedOwnerWithProposal.sol\":1074:1088  s_pendingOwner */\n      0x01\n      0x00\n      swap1\n      sload\n      swap1\n      0x0100\n      exp\n      swap1\n      div\n      0xffffffffffffffffffffffffffffffffffffffff\n      and\n        /* \"@chainlink/contracts@0.8.0/src/v0.8/shared/access/ConfirmedOwnerWithProposal.sol\":1060:1088  msg.sender == s_pendingOwner */\n      0xffffffffffffffffffffffffffffffffffffffff\n      and\n        /* \"@chainlink/contracts@0.8.0/src/v0.8/shared/access/ConfirmedOwnerWithProposal.sol\":1060:1070  msg.sender */\n      caller\n        /* \"@chainlink/contracts@0.8.0/src/v0.8/shared/access/ConfirmedOwnerWithProposal.sol\":1060:1088  msg.sender == s_pendingOwner */\n      0xffffffffffffffffffffffffffffffffffffffff\n      and\n      eq\n        /* \"@chainlink/contracts@0.8.0/src/v0.8/shared/access/ConfirmedOwnerWithProposal.sol\":1052:1115  require(msg.sender == s_pendingOwner, \"Must be proposed owner\") */\n      tag_44\n      jumpi\n      mload(0x40)\n      0x08c379a000000000000000000000000000000000000000000000000000000000\n      dup2\n      mstore\n      0x04\n      add\n      tag_45\n      swap1\n      tag_46\n      jump\t// in\n    tag_45:\n      mload(0x40)\n      dup1\n      swap2\n      sub\n      swap1\n      revert\n    tag_44:\n        /* \"@chainlink/contracts@0.8.0/src/v0.8/shared/access/ConfirmedOwnerWithProposal.sol\":1122:1138  address oldOwner */\n      0x00\n        /* \"@chainlink/contracts@0.8.0/src/v0.8/shared/access/ConfirmedOwnerWithProposal.sol\":1141:1148  s_owner */\n      dup1\n      0x00\n      swap1\n      sload\n      swap1\n      0x0100\n      exp\n      swap1\n      div\n      0xffffffffffffffffffffffffffffffffffffffff\n      and\n        /* \"@chainlink/contracts@0.8.0/src/v0.8/shared/access/ConfirmedOwnerWithProposal.sol\":1122:1148  address oldOwner = s_owner */\n      swap1\n      pop\n        /* \"@chainlink/contracts@0.8.0/src/v0.8/shared/access/ConfirmedOwnerWithProposal.sol\":1164:1174  msg.sender */\n      caller\n        /* \"@chainlink/contracts@0.8.0/src/v0.8/shared/access/ConfirmedOwnerWithProposal.sol\":1154:1161  s_owner */\n      0x00\n      dup1\n        /* \"@chainlink/contracts@0.8.0/src/v0.8/shared/access/ConfirmedOwnerWithProposal.sol\":1154:1174  s_owner = msg.sender */\n      0x0100\n      exp\n      dup2\n      sload\n      dup2\n      0xffffffffffffffffffffffffffffffffffffffff\n      mul\n      not\n      and\n      swap1\n      dup4\n      0xffffffffffffffffffffffffffffffffffffffff\n      and\n      mul\n      or\n      swap1\n      sstore\n      pop\n        /* \"@chainlink/contracts@0.8.0/src/v0.8/shared/access/ConfirmedOwnerWithProposal.sol\":1205:1206  0 */\n      0x00\n        /* \"@chainlink/contracts@0.8.0/src/v0.8/shared/access/ConfirmedOwnerWithProposal.sol\":1180:1194  s_pendingOwner */\n      0x01\n      0x00\n        /* \"@chainlink/contracts@0.8.0/src/v0.8/shared/access/ConfirmedOwnerWithProposal.sol\":1180:1207  s_pendingOwner = address(0) */\n      0x0100\n      exp\n      dup2\n      sload\n      dup2\n      0xffffffffffffffffffffffffffffffffffffffff\n      mul\n      not\n      and\n      swap1\n      dup4\n      0xffffffffffffffffffffffffffffffffffffffff\n      and\n      mul\n      or\n      swap1\n      sstore\n      pop\n        /* \"@chainlink/contracts@0.8.0/src/v0.8/shared/access/ConfirmedOwnerWithProposal.sol\":1250:1260  msg.sender */\n      caller\n        /* \"@chainlink/contracts@0.8.0/src/v0.8/shared/access/ConfirmedOwnerWithProposal.sol\":1219:1261  OwnershipTransferred(oldOwner, msg.sender) */\n      0xffffffffffffffffffffffffffffffffffffffff\n      and\n        /* \"@chainlink/contracts@0.8.0/src/v0.8/shared/access/ConfirmedOwnerWithProposal.sol\":1240:1248  oldOwner */\n      dup2\n        /* \"@chainlink/contracts@0.8.0/src/v0.8/shared/access/ConfirmedOwnerWithProposal.sol\":1219:1261  OwnershipTransferred(oldOwner, msg.sender) */\n      0xffffffffffffffffffffffffffffffffffffffff\n      and\n      0x8be0079c531659141344cd1fd0a4f28419497f9722a3daafe3b4186f6b6457e0\n      mload(0x40)\n      mload(0x40)\n      dup1\n      swap2\n      sub\n      swap1\n      log3\n        /* \"@chainlink/contracts@0.8.0/src/v0.8/shared/access/ConfirmedOwnerWithProposal.sol\":1046:1266  {... */\n      pop\n        /* \"@chainlink/contracts@0.8.0/src/v0.8/shared/access/ConfirmedOwnerWithProposal.sol\":1001:1266  function acceptOwnership() external override {... */\n      jump\t// out\n        /* \"@chainlink/contracts@0.8.0/src/v0.8/shared/access/ConfirmedOwnerWithProposal.sol\":1317:1398  function owner() public view override returns (address) {... */\n    tag_21:\n        /* \"@chainlink/contracts@0.8.0/src/v0.8/shared/access/ConfirmedOwnerWithProposal.sol\":1364:1371  address */\n      0x00\n        /* \"@chainlink/contracts@0.8.0/src/v0.8/shared/access/ConfirmedOwnerWithProposal.sol\":1386:1393  s_owner */\n      dup1\n      0x00\n      swap1\n      sload\n      swap1\n      0x0100\n      exp\n      swap1\n      div\n      0xffffffffffffffffffffffffffffffffffffffff\n      and\n        /* \"@chainlink/contracts@0.8.0/src/v0.8/shared/access/ConfirmedOwnerWithProposal.sol\":1379:1393  return s_owner */\n      swap1\n      pop\n        /* \"@chainlink/contracts@0.8.0/src/v0.8/shared/access/ConfirmedOwnerWithProposal.sol\":1317:1398  function owner() public view override returns (address) {... */\n      swap1\n      jump\t// out\n        /* \"@chainlink/contracts@0.8.0/src/v0.8/shared/access/ConfirmedOwnerWithProposal.sol\":811:909  function transferOwnership(address to) public override onlyOwner {... */\n    tag_27:\n        /* \"@chainlink/contracts@0.8.0/src/v0.8/shared/access/ConfirmedOwnerWithProposal.sol\":1941:1961  _validateOwnership() */\n      tag_49\n        /* \"@chainlink/contracts@0.8.0/src/v0.8/shared/access/ConfirmedOwnerWithProposal.sol\":1941:1959  _validateOwnership */\n      tag_36\n        /* \"@chainlink/contracts@0.8.0/src/v0.8/shared/access/ConfirmedOwnerWithProposal.sol\":1941:1961  _validateOwnership() */\n      jump\t// in\n    tag_49:\n        /* \"@chainlink/contracts@0.8.0/src/v0.8/shared/access/ConfirmedOwnerWithProposal.sol\":882:904  _transferOwnership(to) */\n      tag_51\n        /* \"@chainlink/contracts@0.8.0/src/v0.8/shared/access/ConfirmedOwnerWithProposal.sol\":901:903  to */\n      dup2\n        /* \"@chainlink/contracts@0.8.0/src/v0.8/shared/access/ConfirmedOwnerWithProposal.sol\":882:900  _transferOwnership */\n      tag_52\n        /* \"@chainlink/contracts@0.8.0/src/v0.8/shared/access/ConfirmedOwnerWithProposal.sol\":882:904  _transferOwnership(to) */\n      jump\t// in\n    tag_51:\n        /* \"@chainlink/contracts@0.8.0/src/v0.8/shared/access/ConfirmedOwnerWithProposal.sol\":811:909  function transferOwnership(address to) public override onlyOwner {... */\n      pop\n      jump\t// out\n        /* \"contracts/getRandom.sol\":1707:1934  function fulfillRandomWords(uint256 _requestId, uint256[] memory _randomWords) internal override {... */\n    tag_33:\n        /* \"contracts/getRandom.sol\":1858:1862  true */\n      0x01\n        /* \"contracts/getRandom.sol\":1815:1833  requestIdToNumbers */\n      0x03\n        /* \"contracts/getRandom.sol\":1815:1845  requestIdToNumbers[_requestId] */\n      0x00\n        /* \"contracts/getRandom.sol\":1834:1844  _requestId */\n      dup5\n        /* \"contracts/getRandom.sol\":1815:1845  requestIdToNumbers[_requestId] */\n      dup2\n      mstore\n      0x20\n      add\n      swap1\n      dup2\n      mstore\n      0x20\n      add\n      0x00\n      keccak256\n        /* \"contracts/getRandom.sol\":1815:1855  requestIdToNumbers[_requestId].fulfilled */\n      0x03\n      add\n      0x00\n        /* \"contracts/getRandom.sol\":1815:1862  requestIdToNumbers[_requestId].fulfilled = true */\n      0x0100\n      exp\n      dup2\n      sload\n      dup2\n      0xff\n      mul\n      not\n      and\n      swap1\n      dup4\n      iszero\n      iszero\n      mul\n      or\n      swap1\n      sstore\n      pop\n        /* \"contracts/getRandom.sol\":1914:1926  _randomWords */\n      dup1\n        /* \"contracts/getRandom.sol\":1873:1891  requestIdToNumbers */\n      0x03\n        /* \"contracts/getRandom.sol\":1873:1903  requestIdToNumbers[_requestId] */\n      0x00\n        /* \"contracts/getRandom.sol\":1892:1902  _requestId */\n      dup5\n        /* \"contracts/getRandom.sol\":1873:1903  requestIdToNumbers[_requestId] */\n      dup2\n      mstore\n      0x20\n      add\n      swap1\n      dup2\n      mstore\n      0x20\n      add\n      0x00\n      keccak256\n        /* \"contracts/getRandom.sol\":1873:1911  requestIdToNumbers[_requestId].numbers */\n      0x02\n      add\n        /* \"contracts/getRandom.sol\":1873:1926  requestIdToNumbers[_requestId].numbers = _randomWords */\n      swap1\n      dup1\n      mload\n      swap1\n      0x20\n      add\n      swap1\n      tag_54\n      swap3\n      swap2\n      swap1\n      tag_55\n      jump\t// in\n    tag_54:\n      pop\n        /* \"contracts/getRandom.sol\":1707:1934  function fulfillRandomWords(uint256 _requestId, uint256[] memory _randomWords) internal override {... */\n      pop\n      pop\n      jump\t// out\n        /* \"@chainlink/contracts@0.8.0/src/v0.8/shared/access/ConfirmedOwnerWithProposal.sol\":1715:1826  function _validateOwnership() internal view {... */\n    tag_36:\n        /* \"@chainlink/contracts@0.8.0/src/v0.8/shared/access/ConfirmedOwnerWithProposal.sol\":1787:1794  s_owner */\n      0x00\n      dup1\n      sload\n      swap1\n      0x0100\n      exp\n      swap1\n      div\n      0xffffffffffffffffffffffffffffffffffffffff\n      and\n        /* \"@chainlink/contracts@0.8.0/src/v0.8/shared/access/ConfirmedOwnerWithProposal.sol\":1773:1794  msg.sender == s_owner */\n      0xffffffffffffffffffffffffffffffffffffffff\n      and\n        /* \"@chainlink/contracts@0.8.0/src/v0.8/shared/access/ConfirmedOwnerWithProposal.sol\":1773:1783  msg.sender */\n      caller\n        /* \"@chainlink/contracts@0.8.0/src/v0.8/shared/access/ConfirmedOwnerWithProposal.sol\":1773:1794  msg.sender == s_owner */\n      0xffffffffffffffffffffffffffffffffffffffff\n      and\n      eq\n        /* \"@chainlink/contracts@0.8.0/src/v0.8/shared/access/ConfirmedOwnerWithProposal.sol\":1765:1821  require(msg.sender == s_owner, \"Only callable by owner\") */\n      tag_57\n      jumpi\n      mload(0x40)\n      0x08c379a000000000000000000000000000000000000000000000000000000000\n      dup2\n      mstore\n      0x04\n      add\n      tag_58\n      swap1\n      tag_59\n      jump\t// in\n    tag_58:\n      mload(0x40)\n      dup1\n      swap2\n      sub\n      swap1\n      revert\n    tag_57:\n        /* \"@chainlink/contracts@0.8.0/src/v0.8/shared/access/ConfirmedOwnerWithProposal.sol\":1715:1826  function _validateOwnership() internal view {... */\n      jump\t// out\n        /* \"@chainlink/contracts@0.8.0/src/v0.8/vrf/VRFV2WrapperConsumerBase.sol\":2654:3053  function requestRandomness(... */\n    tag_39:\n        /* \"@chainlink/contracts@0.8.0/src/v0.8/vrf/VRFV2WrapperConsumerBase.sol\":2789:2806  uint256 requestId */\n      0x00\n        /* \"@chainlink/contracts@0.8.0/src/v0.8/vrf/VRFV2WrapperConsumerBase.sol\":2814:2818  LINK */\n      immutable(\"0x1ec028d8f61438d0c8fe7f648326da239a9b9b5acd20368337c73966e8c44e82\")\n        /* \"@chainlink/contracts@0.8.0/src/v0.8/vrf/VRFV2WrapperConsumerBase.sol\":2814:2834  LINK.transferAndCall */\n      0xffffffffffffffffffffffffffffffffffffffff\n      and\n      0x4000aea0\n        /* \"@chainlink/contracts@0.8.0/src/v0.8/vrf/VRFV2WrapperConsumerBase.sol\":2850:2864  VRF_V2_WRAPPER */\n      immutable(\"0xb54132232922229e38cc95c863488521e95e5e7a61a99a0c1f7114e9af332ed3\")\n        /* \"@chainlink/contracts@0.8.0/src/v0.8/vrf/VRFV2WrapperConsumerBase.sol\":2873:2887  VRF_V2_WRAPPER */\n      immutable(\"0xb54132232922229e38cc95c863488521e95e5e7a61a99a0c1f7114e9af332ed3\")\n        /* \"@chainlink/contracts@0.8.0/src/v0.8/vrf/VRFV2WrapperConsumerBase.sol\":2873:2909  VRF_V2_WRAPPER.calculateRequestPrice */\n      0xffffffffffffffffffffffffffffffffffffffff\n      and\n      0x4306d354\n        /* \"@chainlink/contracts@0.8.0/src/v0.8/vrf/VRFV2WrapperConsumerBase.sol\":2910:2927  _callbackGasLimit */\n      dup9\n        /* \"@chainlink/contracts@0.8.0/src/v0.8/vrf/VRFV2WrapperConsumerBase.sol\":2873:2928  VRF_V2_WRAPPER.calculateRequestPrice(_callbackGasLimit) */\n      mload(0x40)\n      dup3\n      0xffffffff\n      and\n      0xe0\n      shl\n      dup2\n      mstore\n      0x04\n      add\n      tag_61\n      swap2\n      swap1\n      tag_62\n      jump\t// in\n    tag_61:\n      0x20\n      mload(0x40)\n      dup1\n      dup4\n      sub\n      dup2\n      dup7\n      gas\n      staticcall\n      iszero\n      dup1\n      iszero\n      tag_64\n      jumpi\n      returndatasize\n      0x00\n      dup1\n      returndatacopy\n      revert(0x00, returndatasize)\n    tag_64:\n      pop\n      pop\n      pop\n      pop\n      mload(0x40)\n      returndatasize\n      not(0x1f)\n      0x1f\n      dup3\n      add\n      and\n      dup3\n      add\n      dup1\n      0x40\n      mstore\n      pop\n      dup2\n      add\n      swap1\n      tag_65\n      swap2\n      swap1\n      tag_66\n      jump\t// in\n    tag_65:\n        /* \"@chainlink/contracts@0.8.0/src/v0.8/vrf/VRFV2WrapperConsumerBase.sol\":2947:2964  _callbackGasLimit */\n      dup8\n        /* \"@chainlink/contracts@0.8.0/src/v0.8/vrf/VRFV2WrapperConsumerBase.sol\":2966:2987  _requestConfirmations */\n      dup8\n        /* \"@chainlink/contracts@0.8.0/src/v0.8/vrf/VRFV2WrapperConsumerBase.sol\":2989:2998  _numWords */\n      dup8\n        /* \"@chainlink/contracts@0.8.0/src/v0.8/vrf/VRFV2WrapperConsumerBase.sol\":2936:2999  abi.encode(_callbackGasLimit, _requestConfirmations, _numWords) */\n      add(0x20, mload(0x40))\n      tag_67\n      swap4\n      swap3\n      swap2\n      swap1\n      tag_68\n      jump\t// in\n    tag_67:\n      mload(0x40)\n      0x20\n      dup2\n      dup4\n      sub\n      sub\n      dup2\n      mstore\n      swap1\n      0x40\n      mstore\n        /* \"@chainlink/contracts@0.8.0/src/v0.8/vrf/VRFV2WrapperConsumerBase.sol\":2814:3005  LINK.transferAndCall(... */\n      mload(0x40)\n      dup5\n      0xffffffff\n      and\n      0xe0\n      shl\n      dup2\n      mstore\n      0x04\n      add\n      tag_69\n      swap4\n      swap3\n      swap2\n      swap1\n      tag_70\n      jump\t// in\n    tag_69:\n      0x20\n      mload(0x40)\n      dup1\n      dup4\n      sub\n      dup2\n      0x00\n      dup8\n      gas\n      call\n      iszero\n      dup1\n      iszero\n      tag_72\n      jumpi\n      returndatasize\n      0x00\n      dup1\n      returndatacopy\n      revert(0x00, returndatasize)\n    tag_72:\n      pop\n      pop\n      pop\n      pop\n      mload(0x40)\n      returndatasize\n      not(0x1f)\n      0x1f\n      dup3\n      add\n      and\n      dup3\n      add\n      dup1\n      0x40\n      mstore\n      pop\n      dup2\n      add\n      swap1\n      tag_73\n      swap2\n      swap1\n      tag_74\n      jump\t// in\n    tag_73:\n      pop\n        /* \"@chainlink/contracts@0.8.0/src/v0.8/vrf/VRFV2WrapperConsumerBase.sol\":3018:3032  VRF_V2_WRAPPER */\n      immutable(\"0xb54132232922229e38cc95c863488521e95e5e7a61a99a0c1f7114e9af332ed3\")\n        /* \"@chainlink/contracts@0.8.0/src/v0.8/vrf/VRFV2WrapperConsumerBase.sol\":3018:3046  VRF_V2_WRAPPER.lastRequestId */\n      0xffffffffffffffffffffffffffffffffffffffff\n      and\n      0xfc2a88c3\n        /* \"@chainlink/contracts@0.8.0/src/v0.8/vrf/VRFV2WrapperConsumerBase.sol\":3018:3048  VRF_V2_WRAPPER.lastRequestId() */\n      mload(0x40)\n      dup2\n      0xffffffff\n      and\n      0xe0\n      shl\n      dup2\n      mstore\n      0x04\n      add\n      0x20\n      mload(0x40)\n      dup1\n      dup4\n      sub\n      dup2\n      dup7\n      gas\n      staticcall\n      iszero\n      dup1\n      iszero\n      tag_76\n      jumpi\n      returndatasize\n      0x00\n      dup1\n      returndatacopy\n      revert(0x00, returndatasize)\n    tag_76:\n      pop\n      pop\n      pop\n      pop\n      mload(0x40)\n      returndatasize\n      not(0x1f)\n      0x1f\n      dup3\n      add\n      and\n      dup3\n      add\n      dup1\n      0x40\n      mstore\n      pop\n      dup2\n      add\n      swap1\n      tag_77\n      swap2\n      swap1\n      tag_66\n      jump\t// in\n    tag_77:\n        /* \"@chainlink/contracts@0.8.0/src/v0.8/vrf/VRFV2WrapperConsumerBase.sol\":3011:3048  return VRF_V2_WRAPPER.lastRequestId() */\n      swap1\n      pop\n        /* \"@chainlink/contracts@0.8.0/src/v0.8/vrf/VRFV2WrapperConsumerBase.sol\":2654:3053  function requestRandomness(... */\n      swap4\n      swap3\n      pop\n      pop\n      pop\n      jump\t// out\n        /* \"@chainlink/contracts@0.8.0/src/v0.8/shared/access/ConfirmedOwnerWithProposal.sol\":1482:1670  function _transferOwnership(address to) private {... */\n    tag_52:\n        /* \"@chainlink/contracts@0.8.0/src/v0.8/shared/access/ConfirmedOwnerWithProposal.sol\":1550:1560  msg.sender */\n      caller\n        /* \"@chainlink/contracts@0.8.0/src/v0.8/shared/access/ConfirmedOwnerWithProposal.sol\":1544:1560  to != msg.sender */\n      0xffffffffffffffffffffffffffffffffffffffff\n      and\n        /* \"@chainlink/contracts@0.8.0/src/v0.8/shared/access/ConfirmedOwnerWithProposal.sol\":1544:1546  to */\n      dup2\n        /* \"@chainlink/contracts@0.8.0/src/v0.8/shared/access/ConfirmedOwnerWithProposal.sol\":1544:1560  to != msg.sender */\n      0xffffffffffffffffffffffffffffffffffffffff\n      and\n      sub\n        /* \"@chainlink/contracts@0.8.0/src/v0.8/shared/access/ConfirmedOwnerWithProposal.sol\":1536:1588  require(to != msg.sender, \"Cannot transfer to self\") */\n      tag_79\n      jumpi\n      mload(0x40)\n      0x08c379a000000000000000000000000000000000000000000000000000000000\n      dup2\n      mstore\n      0x04\n      add\n      tag_80\n      swap1\n      tag_81\n      jump\t// in\n    tag_80:\n      mload(0x40)\n      dup1\n      swap2\n      sub\n      swap1\n      revert\n    tag_79:\n        /* \"@chainlink/contracts@0.8.0/src/v0.8/shared/access/ConfirmedOwnerWithProposal.sol\":1612:1614  to */\n      dup1\n        /* \"@chainlink/contracts@0.8.0/src/v0.8/shared/access/ConfirmedOwnerWithProposal.sol\":1595:1609  s_pendingOwner */\n      0x01\n      0x00\n        /* \"@chainlink/contracts@0.8.0/src/v0.8/shared/access/ConfirmedOwnerWithProposal.sol\":1595:1614  s_pendingOwner = to */\n      0x0100\n      exp\n      dup2\n      sload\n      dup2\n      0xffffffffffffffffffffffffffffffffffffffff\n      mul\n      not\n      and\n      swap1\n      dup4\n      0xffffffffffffffffffffffffffffffffffffffff\n      and\n      mul\n      or\n      swap1\n      sstore\n      pop\n        /* \"@chainlink/contracts@0.8.0/src/v0.8/shared/access/ConfirmedOwnerWithProposal.sol\":1662:1664  to */\n      dup1\n        /* \"@chainlink/contracts@0.8.0/src/v0.8/shared/access/ConfirmedOwnerWithProposal.sol\":1626:1665  OwnershipTransferRequested(s_owner, to) */\n      0xffffffffffffffffffffffffffffffffffffffff\n      and\n        /* \"@chainlink/contracts@0.8.0/src/v0.8/shared/access/ConfirmedOwnerWithProposal.sol\":1653:1660  s_owner */\n      0x00\n      dup1\n      sload\n      swap1\n      0x0100\n      exp\n      swap1\n      div\n      0xffffffffffffffffffffffffffffffffffffffff\n      and\n        /* \"@chainlink/contracts@0.8.0/src/v0.8/shared/access/ConfirmedOwnerWithProposal.sol\":1626:1665  OwnershipTransferRequested(s_owner, to) */\n      0xffffffffffffffffffffffffffffffffffffffff\n      and\n      0xed8889f560326eb138920d842192f0eb3dd22b4f139c87a2c57538e05bae1278\n      mload(0x40)\n      mload(0x40)\n      dup1\n      swap2\n      sub\n      swap1\n      log3\n        /* \"@chainlink/contracts@0.8.0/src/v0.8/shared/access/ConfirmedOwnerWithProposal.sol\":1482:1670  function _transferOwnership(address to) private {... */\n      pop\n      jump\t// out\n    tag_42:\n      dup3\n      dup1\n      sload\n      dup3\n      dup3\n      sstore\n      swap1\n      0x00\n      mstore\n      keccak256(0x00, 0x20)\n      swap1\n      dup2\n      add\n      swap3\n      dup3\n      iszero\n      tag_82\n      jumpi\n      swap2\n      0x20\n      mul\n      dup3\n      add\n    tag_83:\n      dup3\n      dup2\n      gt\n      iszero\n      tag_84\n      jumpi\n      dup3\n      mload\n      dup3\n      sstore\n      swap2\n      0x20\n      add\n      swap2\n      swap1\n      0x01\n      add\n      swap1\n      jump(tag_83)\n    tag_84:\n    tag_82:\n      pop\n      swap1\n      pop\n      tag_85\n      swap2\n      swap1\n      tag_86\n      jump\t// in\n    tag_85:\n      pop\n      swap1\n      jump\t// out\n    tag_55:\n      dup3\n      dup1\n      sload\n      dup3\n      dup3\n      sstore\n      swap1\n      0x00\n      mstore\n      keccak256(0x00, 0x20)\n      swap1\n      dup2\n      add\n      swap3\n      dup3\n      iszero\n      tag_87\n      jumpi\n      swap2\n      0x20\n      mul\n      dup3\n      add\n    tag_88:\n      dup3\n      dup2\n      gt\n      iszero\n      tag_89\n      jumpi\n      dup3\n      mload\n      dup3\n      sstore\n      swap2\n      0x20\n      add\n      swap2\n      swap1\n      0x01\n      add\n      swap1\n      jump(tag_88)\n    tag_89:\n    tag_87:\n      pop\n      swap1\n      pop\n      tag_90\n      swap2\n      swap1\n      tag_86\n      jump\t// in\n    tag_90:\n      pop\n      swap1\n      jump\t// out\n    tag_86:\n    tag_91:\n      dup1\n      dup3\n      gt\n      iszero\n      tag_92\n      jumpi\n      0x00\n      dup2\n      0x00\n      swap1\n      sstore\n      pop\n      0x01\n      add\n      jump(tag_91)\n    tag_92:\n      pop\n      swap1\n      jump\t// out\n        /* \"#utility.yul\":7:82   */\n    tag_93:\n        /* \"#utility.yul\":40:46   */\n      0x00\n        /* \"#utility.yul\":73:75   */\n      0x40\n        /* \"#utility.yul\":67:76   */\n      mload\n        /* \"#utility.yul\":57:76   */\n      swap1\n      pop\n        /* \"#utility.yul\":7:82   */\n      swap1\n      jump\t// out\n        /* \"#utility.yul\":88:205   */\n    tag_94:\n        /* \"#utility.yul\":197:198   */\n      0x00\n        /* \"#utility.yul\":194:195   */\n      dup1\n        /* \"#utility.yul\":187:199   */\n      revert\n        /* \"#utility.yul\":211:328   */\n    tag_95:\n        /* \"#utility.yul\":320:321   */\n      0x00\n        /* \"#utility.yul\":317:318   */\n      dup1\n        /* \"#utility.yul\":310:322   */\n      revert\n        /* \"#utility.yul\":334:411   */\n    tag_96:\n        /* \"#utility.yul\":371:378   */\n      0x00\n        /* \"#utility.yul\":400:405   */\n      dup2\n        /* \"#utility.yul\":389:405   */\n      swap1\n      pop\n        /* \"#utility.yul\":334:411   */\n      swap2\n      swap1\n      pop\n      jump\t// out\n        /* \"#utility.yul\":417:539   */\n    tag_97:\n        /* \"#utility.yul\":490:514   */\n      tag_141\n        /* \"#utility.yul\":508:513   */\n      dup2\n        /* \"#utility.yul\":490:514   */\n      tag_96\n      jump\t// in\n    tag_141:\n        /* \"#utility.yul\":483:488   */\n      dup2\n        /* \"#utility.yul\":480:515   */\n      eq\n        /* \"#utility.yul\":470:533   */\n      tag_142\n      jumpi\n        /* \"#utility.yul\":529:530   */\n      0x00\n        /* \"#utility.yul\":526:527   */\n      dup1\n        /* \"#utility.yul\":519:531   */\n      revert\n        /* \"#utility.yul\":470:533   */\n    tag_142:\n        /* \"#utility.yul\":417:539   */\n      pop\n      jump\t// out\n        /* \"#utility.yul\":545:684   */\n    tag_98:\n        /* \"#utility.yul\":591:596   */\n      0x00\n        /* \"#utility.yul\":629:635   */\n      dup2\n        /* \"#utility.yul\":616:636   */\n      calldataload\n        /* \"#utility.yul\":607:636   */\n      swap1\n      pop\n        /* \"#utility.yul\":645:678   */\n      tag_144\n        /* \"#utility.yul\":672:677   */\n      dup2\n        /* \"#utility.yul\":645:678   */\n      tag_97\n      jump\t// in\n    tag_144:\n        /* \"#utility.yul\":545:684   */\n      swap3\n      swap2\n      pop\n      pop\n      jump\t// out\n        /* \"#utility.yul\":690:807   */\n    tag_99:\n        /* \"#utility.yul\":799:800   */\n      0x00\n        /* \"#utility.yul\":796:797   */\n      dup1\n        /* \"#utility.yul\":789:801   */\n      revert\n        /* \"#utility.yul\":813:915   */\n    tag_100:\n        /* \"#utility.yul\":854:860   */\n      0x00\n        /* \"#utility.yul\":905:907   */\n      0x1f\n        /* \"#utility.yul\":901:908   */\n      not\n        /* \"#utility.yul\":896:898   */\n      0x1f\n        /* \"#utility.yul\":889:894   */\n      dup4\n        /* \"#utility.yul\":885:899   */\n      add\n        /* \"#utility.yul\":881:909   */\n      and\n        /* \"#utility.yul\":871:909   */\n      swap1\n      pop\n        /* \"#utility.yul\":813:915   */\n      swap2\n      swap1\n      pop\n      jump\t// out\n        /* \"#utility.yul\":921:1101   */\n    tag_101:\n        /* \"#utility.yul\":969:1046   */\n      0x4e487b7100000000000000000000000000000000000000000000000000000000\n        /* \"#utility.yul\":966:967   */\n      0x00\n        /* \"#utility.yul\":959:1047   */\n      mstore\n        /* \"#utility.yul\":1066:1070   */\n      0x41\n        /* \"#utility.yul\":1063:1064   */\n      0x04\n        /* \"#utility.yul\":1056:1071   */\n      mstore\n        /* \"#utility.yul\":1090:1094   */\n      0x24\n        /* \"#utility.yul\":1087:1088   */\n      0x00\n        /* \"#utility.yul\":1080:1095   */\n      revert\n        /* \"#utility.yul\":1107:1388   */\n    tag_102:\n        /* \"#utility.yul\":1190:1217   */\n      tag_149\n        /* \"#utility.yul\":1212:1216   */\n      dup3\n        /* \"#utility.yul\":1190:1217   */\n      tag_100\n      jump\t// in\n    tag_149:\n        /* \"#utility.yul\":1182:1188   */\n      dup2\n        /* \"#utility.yul\":1178:1218   */\n      add\n        /* \"#utility.yul\":1320:1326   */\n      dup2\n        /* \"#utility.yul\":1308:1318   */\n      dup2\n        /* \"#utility.yul\":1305:1327   */\n      lt\n        /* \"#utility.yul\":1284:1302   */\n      0xffffffffffffffff\n        /* \"#utility.yul\":1272:1282   */\n      dup3\n        /* \"#utility.yul\":1269:1303   */\n      gt\n        /* \"#utility.yul\":1266:1328   */\n      or\n        /* \"#utility.yul\":1263:1351   */\n      iszero\n      tag_150\n      jumpi\n        /* \"#utility.yul\":1331:1349   */\n      tag_151\n      tag_101\n      jump\t// in\n    tag_151:\n        /* \"#utility.yul\":1263:1351   */\n    tag_150:\n        /* \"#utility.yul\":1371:1381   */\n      dup1\n        /* \"#utility.yul\":1367:1369   */\n      0x40\n        /* \"#utility.yul\":1360:1382   */\n      mstore\n        /* \"#utility.yul\":1150:1388   */\n      pop\n        /* \"#utility.yul\":1107:1388   */\n      pop\n      pop\n      jump\t// out\n        /* \"#utility.yul\":1394:1523   */\n    tag_103:\n        /* \"#utility.yul\":1428:1434   */\n      0x00\n        /* \"#utility.yul\":1455:1475   */\n      tag_153\n      tag_93\n      jump\t// in\n    tag_153:\n        /* \"#utility.yul\":1445:1475   */\n      swap1\n      pop\n        /* \"#utility.yul\":1484:1517   */\n      tag_154\n        /* \"#utility.yul\":1512:1516   */\n      dup3\n        /* \"#utility.yul\":1504:1510   */\n      dup3\n        /* \"#utility.yul\":1484:1517   */\n      tag_102\n      jump\t// in\n    tag_154:\n        /* \"#utility.yul\":1394:1523   */\n      swap2\n      swap1\n      pop\n      jump\t// out\n        /* \"#utility.yul\":1529:1840   */\n    tag_104:\n        /* \"#utility.yul\":1606:1610   */\n      0x00\n        /* \"#utility.yul\":1696:1714   */\n      0xffffffffffffffff\n        /* \"#utility.yul\":1688:1694   */\n      dup3\n        /* \"#utility.yul\":1685:1715   */\n      gt\n        /* \"#utility.yul\":1682:1738   */\n      iszero\n      tag_156\n      jumpi\n        /* \"#utility.yul\":1718:1736   */\n      tag_157\n      tag_101\n      jump\t// in\n    tag_157:\n        /* \"#utility.yul\":1682:1738   */\n    tag_156:\n        /* \"#utility.yul\":1768:1772   */\n      0x20\n        /* \"#utility.yul\":1760:1766   */\n      dup3\n        /* \"#utility.yul\":1756:1773   */\n      mul\n        /* \"#utility.yul\":1748:1773   */\n      swap1\n      pop\n        /* \"#utility.yul\":1828:1832   */\n      0x20\n        /* \"#utility.yul\":1822:1826   */\n      dup2\n        /* \"#utility.yul\":1818:1833   */\n      add\n        /* \"#utility.yul\":1810:1833   */\n      swap1\n      pop\n        /* \"#utility.yul\":1529:1840   */\n      swap2\n      swap1\n      pop\n      jump\t// out\n        /* \"#utility.yul\":1846:1963   */\n    tag_105:\n        /* \"#utility.yul\":1955:1956   */\n      0x00\n        /* \"#utility.yul\":1952:1953   */\n      dup1\n        /* \"#utility.yul\":1945:1957   */\n      revert\n        /* \"#utility.yul\":1986:2696   */\n    tag_106:\n        /* \"#utility.yul\":2082:2087   */\n      0x00\n        /* \"#utility.yul\":2107:2188   */\n      tag_160\n        /* \"#utility.yul\":2123:2187   */\n      tag_161\n        /* \"#utility.yul\":2180:2186   */\n      dup5\n        /* \"#utility.yul\":2123:2187   */\n      tag_104\n      jump\t// in\n    tag_161:\n        /* \"#utility.yul\":2107:2188   */\n      tag_103\n      jump\t// in\n    tag_160:\n        /* \"#utility.yul\":2098:2188   */\n      swap1\n      pop\n        /* \"#utility.yul\":2208:2213   */\n      dup1\n        /* \"#utility.yul\":2237:2243   */\n      dup4\n        /* \"#utility.yul\":2230:2235   */\n      dup3\n        /* \"#utility.yul\":2223:2244   */\n      mstore\n        /* \"#utility.yul\":2271:2275   */\n      0x20\n        /* \"#utility.yul\":2264:2269   */\n      dup3\n        /* \"#utility.yul\":2260:2276   */\n      add\n        /* \"#utility.yul\":2253:2276   */\n      swap1\n      pop\n        /* \"#utility.yul\":2324:2328   */\n      0x20\n        /* \"#utility.yul\":2316:2322   */\n      dup5\n        /* \"#utility.yul\":2312:2329   */\n      mul\n        /* \"#utility.yul\":2304:2310   */\n      dup4\n        /* \"#utility.yul\":2300:2330   */\n      add\n        /* \"#utility.yul\":2353:2356   */\n      dup6\n        /* \"#utility.yul\":2345:2351   */\n      dup2\n        /* \"#utility.yul\":2342:2357   */\n      gt\n        /* \"#utility.yul\":2339:2461   */\n      iszero\n      tag_162\n      jumpi\n        /* \"#utility.yul\":2372:2451   */\n      tag_163\n      tag_105\n      jump\t// in\n    tag_163:\n        /* \"#utility.yul\":2339:2461   */\n    tag_162:\n        /* \"#utility.yul\":2487:2493   */\n      dup4\n        /* \"#utility.yul\":2470:2690   */\n    tag_164:\n        /* \"#utility.yul\":2504:2510   */\n      dup2\n        /* \"#utility.yul\":2499:2502   */\n      dup2\n        /* \"#utility.yul\":2496:2511   */\n      lt\n        /* \"#utility.yul\":2470:2690   */\n      iszero\n      tag_166\n      jumpi\n        /* \"#utility.yul\":2579:2582   */\n      dup1\n        /* \"#utility.yul\":2608:2645   */\n      tag_167\n        /* \"#utility.yul\":2641:2644   */\n      dup9\n        /* \"#utility.yul\":2629:2639   */\n      dup3\n        /* \"#utility.yul\":2608:2645   */\n      tag_98\n      jump\t// in\n    tag_167:\n        /* \"#utility.yul\":2603:2606   */\n      dup5\n        /* \"#utility.yul\":2596:2646   */\n      mstore\n        /* \"#utility.yul\":2675:2679   */\n      0x20\n        /* \"#utility.yul\":2670:2673   */\n      dup5\n        /* \"#utility.yul\":2666:2680   */\n      add\n        /* \"#utility.yul\":2659:2680   */\n      swap4\n      pop\n        /* \"#utility.yul\":2546:2690   */\n      pop\n        /* \"#utility.yul\":2530:2534   */\n      0x20\n        /* \"#utility.yul\":2525:2528   */\n      dup2\n        /* \"#utility.yul\":2521:2535   */\n      add\n        /* \"#utility.yul\":2514:2535   */\n      swap1\n      pop\n        /* \"#utility.yul\":2470:2690   */\n      jump(tag_164)\n    tag_166:\n        /* \"#utility.yul\":2474:2495   */\n      pop\n        /* \"#utility.yul\":2088:2696   */\n      pop\n      pop\n        /* \"#utility.yul\":1986:2696   */\n      swap4\n      swap3\n      pop\n      pop\n      pop\n      jump\t// out\n        /* \"#utility.yul\":2719:3089   */\n    tag_107:\n        /* \"#utility.yul\":2790:2795   */\n      0x00\n        /* \"#utility.yul\":2839:2842   */\n      dup3\n        /* \"#utility.yul\":2832:2836   */\n      0x1f\n        /* \"#utility.yul\":2824:2830   */\n      dup4\n        /* \"#utility.yul\":2820:2837   */\n      add\n        /* \"#utility.yul\":2816:2843   */\n      slt\n        /* \"#utility.yul\":2806:2928   */\n      tag_169\n      jumpi\n        /* \"#utility.yul\":2847:2926   */\n      tag_170\n      tag_99\n      jump\t// in\n    tag_170:\n        /* \"#utility.yul\":2806:2928   */\n    tag_169:\n        /* \"#utility.yul\":2964:2970   */\n      dup2\n        /* \"#utility.yul\":2951:2971   */\n      calldataload\n        /* \"#utility.yul\":2989:3083   */\n      tag_171\n        /* \"#utility.yul\":3079:3082   */\n      dup5\n        /* \"#utility.yul\":3071:3077   */\n      dup3\n        /* \"#utility.yul\":3064:3068   */\n      0x20\n        /* \"#utility.yul\":3056:3062   */\n      dup7\n        /* \"#utility.yul\":3052:3069   */\n      add\n        /* \"#utility.yul\":2989:3083   */\n      tag_106\n      jump\t// in\n    tag_171:\n        /* \"#utility.yul\":2980:3083   */\n      swap2\n      pop\n        /* \"#utility.yul\":2796:3089   */\n      pop\n        /* \"#utility.yul\":2719:3089   */\n      swap3\n      swap2\n      pop\n      pop\n      jump\t// out\n        /* \"#utility.yul\":3095:3779   */\n    tag_10:\n        /* \"#utility.yul\":3188:3194   */\n      0x00\n        /* \"#utility.yul\":3196:3202   */\n      dup1\n        /* \"#utility.yul\":3245:3247   */\n      0x40\n        /* \"#utility.yul\":3233:3242   */\n      dup4\n        /* \"#utility.yul\":3224:3231   */\n      dup6\n        /* \"#utility.yul\":3220:3243   */\n      sub\n        /* \"#utility.yul\":3216:3248   */\n      slt\n        /* \"#utility.yul\":3213:3332   */\n      iszero\n      tag_173\n      jumpi\n        /* \"#utility.yul\":3251:3330   */\n      tag_174\n      tag_94\n      jump\t// in\n    tag_174:\n        /* \"#utility.yul\":3213:3332   */\n    tag_173:\n        /* \"#utility.yul\":3371:3372   */\n      0x00\n        /* \"#utility.yul\":3396:3449   */\n      tag_175\n        /* \"#utility.yul\":3441:3448   */\n      dup6\n        /* \"#utility.yul\":3432:3438   */\n      dup3\n        /* \"#utility.yul\":3421:3430   */\n      dup7\n        /* \"#utility.yul\":3417:3439   */\n      add\n        /* \"#utility.yul\":3396:3449   */\n      tag_98\n      jump\t// in\n    tag_175:\n        /* \"#utility.yul\":3386:3449   */\n      swap3\n      pop\n        /* \"#utility.yul\":3342:3459   */\n      pop\n        /* \"#utility.yul\":3526:3528   */\n      0x20\n        /* \"#utility.yul\":3515:3524   */\n      dup4\n        /* \"#utility.yul\":3511:3529   */\n      add\n        /* \"#utility.yul\":3498:3530   */\n      calldataload\n        /* \"#utility.yul\":3557:3575   */\n      0xffffffffffffffff\n        /* \"#utility.yul\":3549:3555   */\n      dup2\n        /* \"#utility.yul\":3546:3576   */\n      gt\n        /* \"#utility.yul\":3543:3660   */\n      iszero\n      tag_176\n      jumpi\n        /* \"#utility.yul\":3579:3658   */\n      tag_177\n      tag_95\n      jump\t// in\n    tag_177:\n        /* \"#utility.yul\":3543:3660   */\n    tag_176:\n        /* \"#utility.yul\":3684:3762   */\n      tag_178\n        /* \"#utility.yul\":3754:3761   */\n      dup6\n        /* \"#utility.yul\":3745:3751   */\n      dup3\n        /* \"#utility.yul\":3734:3743   */\n      dup7\n        /* \"#utility.yul\":3730:3752   */\n      add\n        /* \"#utility.yul\":3684:3762   */\n      tag_107\n      jump\t// in\n    tag_178:\n        /* \"#utility.yul\":3674:3762   */\n      swap2\n      pop\n        /* \"#utility.yul\":3469:3772   */\n      pop\n        /* \"#utility.yul\":3095:3779   */\n      swap3\n      pop\n      swap3\n      swap1\n      pop\n      jump\t// out\n        /* \"#utility.yul\":3785:4404   */\n    tag_14:\n        /* \"#utility.yul\":3862:3868   */\n      0x00\n        /* \"#utility.yul\":3870:3876   */\n      dup1\n        /* \"#utility.yul\":3878:3884   */\n      0x00\n        /* \"#utility.yul\":3927:3929   */\n      0x60\n        /* \"#utility.yul\":3915:3924   */\n      dup5\n        /* \"#utility.yul\":3906:3913   */\n      dup7\n        /* \"#utility.yul\":3902:3925   */\n      sub\n        /* \"#utility.yul\":3898:3930   */\n      slt\n        /* \"#utility.yul\":3895:4014   */\n      iszero\n      tag_180\n      jumpi\n        /* \"#utility.yul\":3933:4012   */\n      tag_181\n      tag_94\n      jump\t// in\n    tag_181:\n        /* \"#utility.yul\":3895:4014   */\n    tag_180:\n        /* \"#utility.yul\":4053:4054   */\n      0x00\n        /* \"#utility.yul\":4078:4131   */\n      tag_182\n        /* \"#utility.yul\":4123:4130   */\n      dup7\n        /* \"#utility.yul\":4114:4120   */\n      dup3\n        /* \"#utility.yul\":4103:4112   */\n      dup8\n        /* \"#utility.yul\":4099:4121   */\n      add\n        /* \"#utility.yul\":4078:4131   */\n      tag_98\n      jump\t// in\n    tag_182:\n        /* \"#utility.yul\":4068:4131   */\n      swap4\n      pop\n        /* \"#utility.yul\":4024:4141   */\n      pop\n        /* \"#utility.yul\":4180:4182   */\n      0x20\n        /* \"#utility.yul\":4206:4259   */\n      tag_183\n        /* \"#utility.yul\":4251:4258   */\n      dup7\n        /* \"#utility.yul\":4242:4248   */\n      dup3\n        /* \"#utility.yul\":4231:4240   */\n      dup8\n        /* \"#utility.yul\":4227:4249   */\n      add\n        /* \"#utility.yul\":4206:4259   */\n      tag_98\n      jump\t// in\n    tag_183:\n        /* \"#utility.yul\":4196:4259   */\n      swap3\n      pop\n        /* \"#utility.yul\":4151:4269   */\n      pop\n        /* \"#utility.yul\":4308:4310   */\n      0x40\n        /* \"#utility.yul\":4334:4387   */\n      tag_184\n        /* \"#utility.yul\":4379:4386   */\n      dup7\n        /* \"#utility.yul\":4370:4376   */\n      dup3\n        /* \"#utility.yul\":4359:4368   */\n      dup8\n        /* \"#utility.yul\":4355:4377   */\n      add\n        /* \"#utility.yul\":4334:4387   */\n      tag_98\n      jump\t// in\n    tag_184:\n        /* \"#utility.yul\":4324:4387   */\n      swap2\n      pop\n        /* \"#utility.yul\":4279:4397   */\n      pop\n        /* \"#utility.yul\":3785:4404   */\n      swap3\n      pop\n      swap3\n      pop\n      swap3\n      jump\t// out\n        /* \"#utility.yul\":4410:4528   */\n    tag_108:\n        /* \"#utility.yul\":4497:4521   */\n      tag_186\n        /* \"#utility.yul\":4515:4520   */\n      dup2\n        /* \"#utility.yul\":4497:4521   */\n      tag_96\n      jump\t// in\n    tag_186:\n        /* \"#utility.yul\":4492:4495   */\n      dup3\n        /* \"#utility.yul\":4485:4522   */\n      mstore\n        /* \"#utility.yul\":4410:4528   */\n      pop\n      pop\n      jump\t// out\n        /* \"#utility.yul\":4534:4756   */\n    tag_17:\n        /* \"#utility.yul\":4627:4631   */\n      0x00\n        /* \"#utility.yul\":4665:4667   */\n      0x20\n        /* \"#utility.yul\":4654:4663   */\n      dup3\n        /* \"#utility.yul\":4650:4668   */\n      add\n        /* \"#utility.yul\":4642:4668   */\n      swap1\n      pop\n        /* \"#utility.yul\":4678:4749   */\n      tag_188\n        /* \"#utility.yul\":4746:4747   */\n      0x00\n        /* \"#utility.yul\":4735:4744   */\n      dup4\n        /* \"#utility.yul\":4731:4748   */\n      add\n        /* \"#utility.yul\":4722:4728   */\n      dup5\n        /* \"#utility.yul\":4678:4749   */\n      tag_108\n      jump\t// in\n    tag_188:\n        /* \"#utility.yul\":4534:4756   */\n      swap3\n      swap2\n      pop\n      pop\n      jump\t// out\n        /* \"#utility.yul\":4762:4888   */\n    tag_109:\n        /* \"#utility.yul\":4799:4806   */\n      0x00\n        /* \"#utility.yul\":4839:4881   */\n      0xffffffffffffffffffffffffffffffffffffffff\n        /* \"#utility.yul\":4832:4837   */\n      dup3\n        /* \"#utility.yul\":4828:4882   */\n      and\n        /* \"#utility.yul\":4817:4882   */\n      swap1\n      pop\n        /* \"#utility.yul\":4762:4888   */\n      swap2\n      swap1\n      pop\n      jump\t// out\n        /* \"#utility.yul\":4894:4990   */\n    tag_110:\n        /* \"#utility.yul\":4931:4938   */\n      0x00\n        /* \"#utility.yul\":4960:4984   */\n      tag_191\n        /* \"#utility.yul\":4978:4983   */\n      dup3\n        /* \"#utility.yul\":4960:4984   */\n      tag_109\n      jump\t// in\n    tag_191:\n        /* \"#utility.yul\":4949:4984   */\n      swap1\n      pop\n        /* \"#utility.yul\":4894:4990   */\n      swap2\n      swap1\n      pop\n      jump\t// out\n        /* \"#utility.yul\":4996:5114   */\n    tag_111:\n        /* \"#utility.yul\":5083:5107   */\n      tag_193\n        /* \"#utility.yul\":5101:5106   */\n      dup2\n        /* \"#utility.yul\":5083:5107   */\n      tag_110\n      jump\t// in\n    tag_193:\n        /* \"#utility.yul\":5078:5081   */\n      dup3\n        /* \"#utility.yul\":5071:5108   */\n      mstore\n        /* \"#utility.yul\":4996:5114   */\n      pop\n      pop\n      jump\t// out\n        /* \"#utility.yul\":5120:5342   */\n    tag_23:\n        /* \"#utility.yul\":5213:5217   */\n      0x00\n        /* \"#utility.yul\":5251:5253   */\n      0x20\n        /* \"#utility.yul\":5240:5249   */\n      dup3\n        /* \"#utility.yul\":5236:5254   */\n      add\n        /* \"#utility.yul\":5228:5254   */\n      swap1\n      pop\n        /* \"#utility.yul\":5264:5335   */\n      tag_195\n        /* \"#utility.yul\":5332:5333   */\n      0x00\n        /* \"#utility.yul\":5321:5330   */\n      dup4\n        /* \"#utility.yul\":5317:5334   */\n      add\n        /* \"#utility.yul\":5308:5314   */\n      dup5\n        /* \"#utility.yul\":5264:5335   */\n      tag_111\n      jump\t// in\n    tag_195:\n        /* \"#utility.yul\":5120:5342   */\n      swap3\n      swap2\n      pop\n      pop\n      jump\t// out\n        /* \"#utility.yul\":5348:5470   */\n    tag_112:\n        /* \"#utility.yul\":5421:5445   */\n      tag_197\n        /* \"#utility.yul\":5439:5444   */\n      dup2\n        /* \"#utility.yul\":5421:5445   */\n      tag_110\n      jump\t// in\n    tag_197:\n        /* \"#utility.yul\":5414:5419   */\n      dup2\n        /* \"#utility.yul\":5411:5446   */\n      eq\n        /* \"#utility.yul\":5401:5464   */\n      tag_198\n      jumpi\n        /* \"#utility.yul\":5460:5461   */\n      0x00\n        /* \"#utility.yul\":5457:5458   */\n      dup1\n        /* \"#utility.yul\":5450:5462   */\n      revert\n        /* \"#utility.yul\":5401:5464   */\n    tag_198:\n        /* \"#utility.yul\":5348:5470   */\n      pop\n      jump\t// out\n        /* \"#utility.yul\":5476:5615   */\n    tag_113:\n        /* \"#utility.yul\":5522:5527   */\n      0x00\n        /* \"#utility.yul\":5560:5566   */\n      dup2\n        /* \"#utility.yul\":5547:5567   */\n      calldataload\n        /* \"#utility.yul\":5538:5567   */\n      swap1\n      pop\n        /* \"#utility.yul\":5576:5609   */\n      tag_200\n        /* \"#utility.yul\":5603:5608   */\n      dup2\n        /* \"#utility.yul\":5576:5609   */\n      tag_112\n      jump\t// in\n    tag_200:\n        /* \"#utility.yul\":5476:5615   */\n      swap3\n      swap2\n      pop\n      pop\n      jump\t// out\n        /* \"#utility.yul\":5621:5950   */\n    tag_26:\n        /* \"#utility.yul\":5680:5686   */\n      0x00\n        /* \"#utility.yul\":5729:5731   */\n      0x20\n        /* \"#utility.yul\":5717:5726   */\n      dup3\n        /* \"#utility.yul\":5708:5715   */\n      dup5\n        /* \"#utility.yul\":5704:5727   */\n      sub\n        /* \"#utility.yul\":5700:5732   */\n      slt\n        /* \"#utility.yul\":5697:5816   */\n      iszero\n      tag_202\n      jumpi\n        /* \"#utility.yul\":5735:5814   */\n      tag_203\n      tag_94\n      jump\t// in\n    tag_203:\n        /* \"#utility.yul\":5697:5816   */\n    tag_202:\n        /* \"#utility.yul\":5855:5856   */\n      0x00\n        /* \"#utility.yul\":5880:5933   */\n      tag_204\n        /* \"#utility.yul\":5925:5932   */\n      dup5\n        /* \"#utility.yul\":5916:5922   */\n      dup3\n        /* \"#utility.yul\":5905:5914   */\n      dup6\n        /* \"#utility.yul\":5901:5923   */\n      add\n        /* \"#utility.yul\":5880:5933   */\n      tag_113\n      jump\t// in\n    tag_204:\n        /* \"#utility.yul\":5870:5933   */\n      swap2\n      pop\n        /* \"#utility.yul\":5826:5943   */\n      pop\n        /* \"#utility.yul\":5621:5950   */\n      swap3\n      swap2\n      pop\n      pop\n      jump\t// out\n        /* \"#utility.yul\":5956:6125   */\n    tag_114:\n        /* \"#utility.yul\":6040:6051   */\n      0x00\n        /* \"#utility.yul\":6074:6080   */\n      dup3\n        /* \"#utility.yul\":6069:6072   */\n      dup3\n        /* \"#utility.yul\":6062:6081   */\n      mstore\n        /* \"#utility.yul\":6114:6118   */\n      0x20\n        /* \"#utility.yul\":6109:6112   */\n      dup3\n        /* \"#utility.yul\":6105:6119   */\n      add\n        /* \"#utility.yul\":6090:6119   */\n      swap1\n      pop\n        /* \"#utility.yul\":5956:6125   */\n      swap3\n      swap2\n      pop\n      pop\n      jump\t// out\n        /* \"#utility.yul\":6131:6312   */\n    tag_115:\n        /* \"#utility.yul\":6271:6304   */\n      0x6f6e6c792056524620563220777261707065722063616e2066756c66696c6c00\n        /* \"#utility.yul\":6267:6268   */\n      0x00\n        /* \"#utility.yul\":6259:6265   */\n      dup3\n        /* \"#utility.yul\":6255:6269   */\n      add\n        /* \"#utility.yul\":6248:6305   */\n      mstore\n        /* \"#utility.yul\":6131:6312   */\n      pop\n      jump\t// out\n        /* \"#utility.yul\":6318:6684   */\n    tag_116:\n        /* \"#utility.yul\":6460:6463   */\n      0x00\n        /* \"#utility.yul\":6481:6548   */\n      tag_208\n        /* \"#utility.yul\":6545:6547   */\n      0x1f\n        /* \"#utility.yul\":6540:6543   */\n      dup4\n        /* \"#utility.yul\":6481:6548   */\n      tag_114\n      jump\t// in\n    tag_208:\n        /* \"#utility.yul\":6474:6548   */\n      swap2\n      pop\n        /* \"#utility.yul\":6557:6650   */\n      tag_209\n        /* \"#utility.yul\":6646:6649   */\n      dup3\n        /* \"#utility.yul\":6557:6650   */\n      tag_115\n      jump\t// in\n    tag_209:\n        /* \"#utility.yul\":6675:6677   */\n      0x20\n        /* \"#utility.yul\":6670:6673   */\n      dup3\n        /* \"#utility.yul\":6666:6678   */\n      add\n        /* \"#utility.yul\":6659:6678   */\n      swap1\n      pop\n        /* \"#utility.yul\":6318:6684   */\n      swap2\n      swap1\n      pop\n      jump\t// out\n        /* \"#utility.yul\":6690:7109   */\n    tag_31:\n        /* \"#utility.yul\":6856:6860   */\n      0x00\n        /* \"#utility.yul\":6894:6896   */\n      0x20\n        /* \"#utility.yul\":6883:6892   */\n      dup3\n        /* \"#utility.yul\":6879:6897   */\n      add\n        /* \"#utility.yul\":6871:6897   */\n      swap1\n      pop\n        /* \"#utility.yul\":6943:6952   */\n      dup2\n        /* \"#utility.yul\":6937:6941   */\n      dup2\n        /* \"#utility.yul\":6933:6953   */\n      sub\n        /* \"#utility.yul\":6929:6930   */\n      0x00\n        /* \"#utility.yul\":6918:6927   */\n      dup4\n        /* \"#utility.yul\":6914:6931   */\n      add\n        /* \"#utility.yul\":6907:6954   */\n      mstore\n        /* \"#utility.yul\":6971:7102   */\n      tag_211\n        /* \"#utility.yul\":7097:7101   */\n      dup2\n        /* \"#utility.yul\":6971:7102   */\n      tag_116\n      jump\t// in\n    tag_211:\n        /* \"#utility.yul\":6963:7102   */\n      swap1\n      pop\n        /* \"#utility.yul\":6690:7109   */\n      swap2\n      swap1\n      pop\n      jump\t// out\n        /* \"#utility.yul\":7115:7287   */\n    tag_117:\n        /* \"#utility.yul\":7255:7279   */\n      0x4d7573742062652070726f706f736564206f776e657200000000000000000000\n        /* \"#utility.yul\":7251:7252   */\n      0x00\n        /* \"#utility.yul\":7243:7249   */\n      dup3\n        /* \"#utility.yul\":7239:7253   */\n      add\n        /* \"#utility.yul\":7232:7280   */\n      mstore\n        /* \"#utility.yul\":7115:7287   */\n      pop\n      jump\t// out\n        /* \"#utility.yul\":7293:7659   */\n    tag_118:\n        /* \"#utility.yul\":7435:7438   */\n      0x00\n        /* \"#utility.yul\":7456:7523   */\n      tag_214\n        /* \"#utility.yul\":7520:7522   */\n      0x16\n        /* \"#utility.yul\":7515:7518   */\n      dup4\n        /* \"#utility.yul\":7456:7523   */\n      tag_114\n      jump\t// in\n    tag_214:\n        /* \"#utility.yul\":7449:7523   */\n      swap2\n      pop\n        /* \"#utility.yul\":7532:7625   */\n      tag_215\n        /* \"#utility.yul\":7621:7624   */\n      dup3\n        /* \"#utility.yul\":7532:7625   */\n      tag_117\n      jump\t// in\n    tag_215:\n        /* \"#utility.yul\":7650:7652   */\n      0x20\n        /* \"#utility.yul\":7645:7648   */\n      dup3\n        /* \"#utility.yul\":7641:7653   */\n      add\n        /* \"#utility.yul\":7634:7653   */\n      swap1\n      pop\n        /* \"#utility.yul\":7293:7659   */\n      swap2\n      swap1\n      pop\n      jump\t// out\n        /* \"#utility.yul\":7665:8084   */\n    tag_46:\n        /* \"#utility.yul\":7831:7835   */\n      0x00\n        /* \"#utility.yul\":7869:7871   */\n      0x20\n        /* \"#utility.yul\":7858:7867   */\n      dup3\n        /* \"#utility.yul\":7854:7872   */\n      add\n        /* \"#utility.yul\":7846:7872   */\n      swap1\n      pop\n        /* \"#utility.yul\":7918:7927   */\n      dup2\n        /* \"#utility.yul\":7912:7916   */\n      dup2\n        /* \"#utility.yul\":7908:7928   */\n      sub\n        /* \"#utility.yul\":7904:7905   */\n      0x00\n        /* \"#utility.yul\":7893:7902   */\n      dup4\n        /* \"#utility.yul\":7889:7906   */\n      add\n        /* \"#utility.yul\":7882:7929   */\n      mstore\n        /* \"#utility.yul\":7946:8077   */\n      tag_217\n        /* \"#utility.yul\":8072:8076   */\n      dup2\n        /* \"#utility.yul\":7946:8077   */\n      tag_118\n      jump\t// in\n    tag_217:\n        /* \"#utility.yul\":7938:8077   */\n      swap1\n      pop\n        /* \"#utility.yul\":7665:8084   */\n      swap2\n      swap1\n      pop\n      jump\t// out\n        /* \"#utility.yul\":8090:8262   */\n    tag_119:\n        /* \"#utility.yul\":8230:8254   */\n      0x4f6e6c792063616c6c61626c65206279206f776e657200000000000000000000\n        /* \"#utility.yul\":8226:8227   */\n      0x00\n        /* \"#utility.yul\":8218:8224   */\n      dup3\n        /* \"#utility.yul\":8214:8228   */\n      add\n        /* \"#utility.yul\":8207:8255   */\n      mstore\n        /* \"#utility.yul\":8090:8262   */\n      pop\n      jump\t// out\n        /* \"#utility.yul\":8268:8634   */\n    tag_120:\n        /* \"#utility.yul\":8410:8413   */\n      0x00\n        /* \"#utility.yul\":8431:8498   */\n      tag_220\n        /* \"#utility.yul\":8495:8497   */\n      0x16\n        /* \"#utility.yul\":8490:8493   */\n      dup4\n        /* \"#utility.yul\":8431:8498   */\n      tag_114\n      jump\t// in\n    tag_220:\n        /* \"#utility.yul\":8424:8498   */\n      swap2\n      pop\n        /* \"#utility.yul\":8507:8600   */\n      tag_221\n        /* \"#utility.yul\":8596:8599   */\n      dup3\n        /* \"#utility.yul\":8507:8600   */\n      tag_119\n      jump\t// in\n    tag_221:\n        /* \"#utility.yul\":8625:8627   */\n      0x20\n        /* \"#utility.yul\":8620:8623   */\n      dup3\n        /* \"#utility.yul\":8616:8628   */\n      add\n        /* \"#utility.yul\":8609:8628   */\n      swap1\n      pop\n        /* \"#utility.yul\":8268:8634   */\n      swap2\n      swap1\n      pop\n      jump\t// out\n        /* \"#utility.yul\":8640:9059   */\n    tag_59:\n        /* \"#utility.yul\":8806:8810   */\n      0x00\n        /* \"#utility.yul\":8844:8846   */\n      0x20\n        /* \"#utility.yul\":8833:8842   */\n      dup3\n        /* \"#utility.yul\":8829:8847   */\n      add\n        /* \"#utility.yul\":8821:8847   */\n      swap1\n      pop\n        /* \"#utility.yul\":8893:8902   */\n      dup2\n        /* \"#utility.yul\":8887:8891   */\n      dup2\n        /* \"#utility.yul\":8883:8903   */\n      sub\n        /* \"#utility.yul\":8879:8880   */\n      0x00\n        /* \"#utility.yul\":8868:8877   */\n      dup4\n        /* \"#utility.yul\":8864:8881   */\n      add\n        /* \"#utility.yul\":8857:8904   */\n      mstore\n        /* \"#utility.yul\":8921:9052   */\n      tag_223\n        /* \"#utility.yul\":9047:9051   */\n      dup2\n        /* \"#utility.yul\":8921:9052   */\n      tag_120\n      jump\t// in\n    tag_223:\n        /* \"#utility.yul\":8913:9052   */\n      swap1\n      pop\n        /* \"#utility.yul\":8640:9059   */\n      swap2\n      swap1\n      pop\n      jump\t// out\n        /* \"#utility.yul\":9065:9158   */\n    tag_121:\n        /* \"#utility.yul\":9101:9108   */\n      0x00\n        /* \"#utility.yul\":9141:9151   */\n      0xffffffff\n        /* \"#utility.yul\":9134:9139   */\n      dup3\n        /* \"#utility.yul\":9130:9152   */\n      and\n        /* \"#utility.yul\":9119:9152   */\n      swap1\n      pop\n        /* \"#utility.yul\":9065:9158   */\n      swap2\n      swap1\n      pop\n      jump\t// out\n        /* \"#utility.yul\":9164:9279   */\n    tag_122:\n        /* \"#utility.yul\":9249:9272   */\n      tag_226\n        /* \"#utility.yul\":9266:9271   */\n      dup2\n        /* \"#utility.yul\":9249:9272   */\n      tag_121\n      jump\t// in\n    tag_226:\n        /* \"#utility.yul\":9244:9247   */\n      dup3\n        /* \"#utility.yul\":9237:9273   */\n      mstore\n        /* \"#utility.yul\":9164:9279   */\n      pop\n      pop\n      jump\t// out\n        /* \"#utility.yul\":9285:9503   */\n    tag_62:\n        /* \"#utility.yul\":9376:9380   */\n      0x00\n        /* \"#utility.yul\":9414:9416   */\n      0x20\n        /* \"#utility.yul\":9403:9412   */\n      dup3\n        /* \"#utility.yul\":9399:9417   */\n      add\n        /* \"#utility.yul\":9391:9417   */\n      swap1\n      pop\n        /* \"#utility.yul\":9427:9496   */\n      tag_228\n        /* \"#utility.yul\":9493:9494   */\n      0x00\n        /* \"#utility.yul\":9482:9491   */\n      dup4\n        /* \"#utility.yul\":9478:9495   */\n      add\n        /* \"#utility.yul\":9469:9475   */\n      dup5\n        /* \"#utility.yul\":9427:9496   */\n      tag_122\n      jump\t// in\n    tag_228:\n        /* \"#utility.yul\":9285:9503   */\n      swap3\n      swap2\n      pop\n      pop\n      jump\t// out\n        /* \"#utility.yul\":9509:9652   */\n    tag_123:\n        /* \"#utility.yul\":9566:9571   */\n      0x00\n        /* \"#utility.yul\":9597:9603   */\n      dup2\n        /* \"#utility.yul\":9591:9604   */\n      mload\n        /* \"#utility.yul\":9582:9604   */\n      swap1\n      pop\n        /* \"#utility.yul\":9613:9646   */\n      tag_230\n        /* \"#utility.yul\":9640:9645   */\n      dup2\n        /* \"#utility.yul\":9613:9646   */\n      tag_97\n      jump\t// in\n    tag_230:\n        /* \"#utility.yul\":9509:9652   */\n      swap3\n      swap2\n      pop\n      pop\n      jump\t// out\n        /* \"#utility.yul\":9658:10009   */\n    tag_66:\n        /* \"#utility.yul\":9728:9734   */\n      0x00\n        /* \"#utility.yul\":9777:9779   */\n      0x20\n        /* \"#utility.yul\":9765:9774   */\n      dup3\n        /* \"#utility.yul\":9756:9763   */\n      dup5\n        /* \"#utility.yul\":9752:9775   */\n      sub\n        /* \"#utility.yul\":9748:9780   */\n      slt\n        /* \"#utility.yul\":9745:9864   */\n      iszero\n      tag_232\n      jumpi\n        /* \"#utility.yul\":9783:9862   */\n      tag_233\n      tag_94\n      jump\t// in\n    tag_233:\n        /* \"#utility.yul\":9745:9864   */\n    tag_232:\n        /* \"#utility.yul\":9903:9904   */\n      0x00\n        /* \"#utility.yul\":9928:9992   */\n      tag_234\n        /* \"#utility.yul\":9984:9991   */\n      dup5\n        /* \"#utility.yul\":9975:9981   */\n      dup3\n        /* \"#utility.yul\":9964:9973   */\n      dup6\n        /* \"#utility.yul\":9960:9982   */\n      add\n        /* \"#utility.yul\":9928:9992   */\n      tag_123\n      jump\t// in\n    tag_234:\n        /* \"#utility.yul\":9918:9992   */\n      swap2\n      pop\n        /* \"#utility.yul\":9874:10002   */\n      pop\n        /* \"#utility.yul\":9658:10009   */\n      swap3\n      swap2\n      pop\n      pop\n      jump\t// out\n        /* \"#utility.yul\":10015:10104   */\n    tag_124:\n        /* \"#utility.yul\":10051:10058   */\n      0x00\n        /* \"#utility.yul\":10091:10097   */\n      0xffff\n        /* \"#utility.yul\":10084:10089   */\n      dup3\n        /* \"#utility.yul\":10080:10098   */\n      and\n        /* \"#utility.yul\":10069:10098   */\n      swap1\n      pop\n        /* \"#utility.yul\":10015:10104   */\n      swap2\n      swap1\n      pop\n      jump\t// out\n        /* \"#utility.yul\":10110:10225   */\n    tag_125:\n        /* \"#utility.yul\":10195:10218   */\n      tag_237\n        /* \"#utility.yul\":10212:10217   */\n      dup2\n        /* \"#utility.yul\":10195:10218   */\n      tag_124\n      jump\t// in\n    tag_237:\n        /* \"#utility.yul\":10190:10193   */\n      dup3\n        /* \"#utility.yul\":10183:10219   */\n      mstore\n        /* \"#utility.yul\":10110:10225   */\n      pop\n      pop\n      jump\t// out\n        /* \"#utility.yul\":10231:10661   */\n    tag_68:\n        /* \"#utility.yul\":10374:10378   */\n      0x00\n        /* \"#utility.yul\":10412:10414   */\n      0x60\n        /* \"#utility.yul\":10401:10410   */\n      dup3\n        /* \"#utility.yul\":10397:10415   */\n      add\n        /* \"#utility.yul\":10389:10415   */\n      swap1\n      pop\n        /* \"#utility.yul\":10425:10494   */\n      tag_239\n        /* \"#utility.yul\":10491:10492   */\n      0x00\n        /* \"#utility.yul\":10480:10489   */\n      dup4\n        /* \"#utility.yul\":10476:10493   */\n      add\n        /* \"#utility.yul\":10467:10473   */\n      dup7\n        /* \"#utility.yul\":10425:10494   */\n      tag_122\n      jump\t// in\n    tag_239:\n        /* \"#utility.yul\":10504:10574   */\n      tag_240\n        /* \"#utility.yul\":10570:10572   */\n      0x20\n        /* \"#utility.yul\":10559:10568   */\n      dup4\n        /* \"#utility.yul\":10555:10573   */\n      add\n        /* \"#utility.yul\":10546:10552   */\n      dup6\n        /* \"#utility.yul\":10504:10574   */\n      tag_125\n      jump\t// in\n    tag_240:\n        /* \"#utility.yul\":10584:10654   */\n      tag_241\n        /* \"#utility.yul\":10650:10652   */\n      0x40\n        /* \"#utility.yul\":10639:10648   */\n      dup4\n        /* \"#utility.yul\":10635:10653   */\n      add\n        /* \"#utility.yul\":10626:10632   */\n      dup5\n        /* \"#utility.yul\":10584:10654   */\n      tag_122\n      jump\t// in\n    tag_241:\n        /* \"#utility.yul\":10231:10661   */\n      swap5\n      swap4\n      pop\n      pop\n      pop\n      pop\n      jump\t// out\n        /* \"#utility.yul\":10667:10765   */\n    tag_126:\n        /* \"#utility.yul\":10718:10724   */\n      0x00\n        /* \"#utility.yul\":10752:10757   */\n      dup2\n        /* \"#utility.yul\":10746:10758   */\n      mload\n        /* \"#utility.yul\":10736:10758   */\n      swap1\n      pop\n        /* \"#utility.yul\":10667:10765   */\n      swap2\n      swap1\n      pop\n      jump\t// out\n        /* \"#utility.yul\":10771:10939   */\n    tag_127:\n        /* \"#utility.yul\":10854:10865   */\n      0x00\n        /* \"#utility.yul\":10888:10894   */\n      dup3\n        /* \"#utility.yul\":10883:10886   */\n      dup3\n        /* \"#utility.yul\":10876:10895   */\n      mstore\n        /* \"#utility.yul\":10928:10932   */\n      0x20\n        /* \"#utility.yul\":10923:10926   */\n      dup3\n        /* \"#utility.yul\":10919:10933   */\n      add\n        /* \"#utility.yul\":10904:10933   */\n      swap1\n      pop\n        /* \"#utility.yul\":10771:10939   */\n      swap3\n      swap2\n      pop\n      pop\n      jump\t// out\n        /* \"#utility.yul\":10945:11191   */\n    tag_128:\n        /* \"#utility.yul\":11026:11027   */\n      0x00\n        /* \"#utility.yul\":11036:11149   */\n    tag_245:\n        /* \"#utility.yul\":11050:11056   */\n      dup4\n        /* \"#utility.yul\":11047:11048   */\n      dup2\n        /* \"#utility.yul\":11044:11057   */\n      lt\n        /* \"#utility.yul\":11036:11149   */\n      iszero\n      tag_247\n      jumpi\n        /* \"#utility.yul\":11135:11136   */\n      dup1\n        /* \"#utility.yul\":11130:11133   */\n      dup3\n        /* \"#utility.yul\":11126:11137   */\n      add\n        /* \"#utility.yul\":11120:11138   */\n      mload\n        /* \"#utility.yul\":11116:11117   */\n      dup2\n        /* \"#utility.yul\":11111:11114   */\n      dup5\n        /* \"#utility.yul\":11107:11118   */\n      add\n        /* \"#utility.yul\":11100:11139   */\n      mstore\n        /* \"#utility.yul\":11072:11074   */\n      0x20\n        /* \"#utility.yul\":11069:11070   */\n      dup2\n        /* \"#utility.yul\":11065:11075   */\n      add\n        /* \"#utility.yul\":11060:11075   */\n      swap1\n      pop\n        /* \"#utility.yul\":11036:11149   */\n      jump(tag_245)\n    tag_247:\n        /* \"#utility.yul\":11183:11184   */\n      0x00\n        /* \"#utility.yul\":11174:11180   */\n      dup5\n        /* \"#utility.yul\":11169:11172   */\n      dup5\n        /* \"#utility.yul\":11165:11181   */\n      add\n        /* \"#utility.yul\":11158:11185   */\n      mstore\n        /* \"#utility.yul\":11007:11191   */\n      pop\n        /* \"#utility.yul\":10945:11191   */\n      pop\n      pop\n      pop\n      jump\t// out\n        /* \"#utility.yul\":11197:11570   */\n    tag_129:\n        /* \"#utility.yul\":11283:11286   */\n      0x00\n        /* \"#utility.yul\":11311:11349   */\n      tag_249\n        /* \"#utility.yul\":11343:11348   */\n      dup3\n        /* \"#utility.yul\":11311:11349   */\n      tag_126\n      jump\t// in\n    tag_249:\n        /* \"#utility.yul\":11365:11435   */\n      tag_250\n        /* \"#utility.yul\":11428:11434   */\n      dup2\n        /* \"#utility.yul\":11423:11426   */\n      dup6\n        /* \"#utility.yul\":11365:11435   */\n      tag_127\n      jump\t// in\n    tag_250:\n        /* \"#utility.yul\":11358:11435   */\n      swap4\n      pop\n        /* \"#utility.yul\":11444:11509   */\n      tag_251\n        /* \"#utility.yul\":11502:11508   */\n      dup2\n        /* \"#utility.yul\":11497:11500   */\n      dup6\n        /* \"#utility.yul\":11490:11494   */\n      0x20\n        /* \"#utility.yul\":11483:11488   */\n      dup7\n        /* \"#utility.yul\":11479:11495   */\n      add\n        /* \"#utility.yul\":11444:11509   */\n      tag_128\n      jump\t// in\n    tag_251:\n        /* \"#utility.yul\":11534:11563   */\n      tag_252\n        /* \"#utility.yul\":11556:11562   */\n      dup2\n        /* \"#utility.yul\":11534:11563   */\n      tag_100\n      jump\t// in\n    tag_252:\n        /* \"#utility.yul\":11529:11532   */\n      dup5\n        /* \"#utility.yul\":11525:11564   */\n      add\n        /* \"#utility.yul\":11518:11564   */\n      swap2\n      pop\n        /* \"#utility.yul\":11287:11570   */\n      pop\n        /* \"#utility.yul\":11197:11570   */\n      swap3\n      swap2\n      pop\n      pop\n      jump\t// out\n        /* \"#utility.yul\":11576:12105   */\n    tag_70:\n        /* \"#utility.yul\":11743:11747   */\n      0x00\n        /* \"#utility.yul\":11781:11783   */\n      0x60\n        /* \"#utility.yul\":11770:11779   */\n      dup3\n        /* \"#utility.yul\":11766:11784   */\n      add\n        /* \"#utility.yul\":11758:11784   */\n      swap1\n      pop\n        /* \"#utility.yul\":11794:11865   */\n      tag_254\n        /* \"#utility.yul\":11862:11863   */\n      0x00\n        /* \"#utility.yul\":11851:11860   */\n      dup4\n        /* \"#utility.yul\":11847:11864   */\n      add\n        /* \"#utility.yul\":11838:11844   */\n      dup7\n        /* \"#utility.yul\":11794:11865   */\n      tag_111\n      jump\t// in\n    tag_254:\n        /* \"#utility.yul\":11875:11947   */\n      tag_255\n        /* \"#utility.yul\":11943:11945   */\n      0x20\n        /* \"#utility.yul\":11932:11941   */\n      dup4\n        /* \"#utility.yul\":11928:11946   */\n      add\n        /* \"#utility.yul\":11919:11925   */\n      dup6\n        /* \"#utility.yul\":11875:11947   */\n      tag_108\n      jump\t// in\n    tag_255:\n        /* \"#utility.yul\":11994:12003   */\n      dup2\n        /* \"#utility.yul\":11988:11992   */\n      dup2\n        /* \"#utility.yul\":11984:12004   */\n      sub\n        /* \"#utility.yul\":11979:11981   */\n      0x40\n        /* \"#utility.yul\":11968:11977   */\n      dup4\n        /* \"#utility.yul\":11964:11982   */\n      add\n        /* \"#utility.yul\":11957:12005   */\n      mstore\n        /* \"#utility.yul\":12022:12098   */\n      tag_256\n        /* \"#utility.yul\":12093:12097   */\n      dup2\n        /* \"#utility.yul\":12084:12090   */\n      dup5\n        /* \"#utility.yul\":12022:12098   */\n      tag_129\n      jump\t// in\n    tag_256:\n        /* \"#utility.yul\":12014:12098   */\n      swap1\n      pop\n        /* \"#utility.yul\":11576:12105   */\n      swap5\n      swap4\n      pop\n      pop\n      pop\n      pop\n      jump\t// out\n        /* \"#utility.yul\":12111:12201   */\n    tag_130:\n        /* \"#utility.yul\":12145:12152   */\n      0x00\n        /* \"#utility.yul\":12188:12193   */\n      dup2\n        /* \"#utility.yul\":12181:12194   */\n      iszero\n        /* \"#utility.yul\":12174:12195   */\n      iszero\n        /* \"#utility.yul\":12163:12195   */\n      swap1\n      pop\n        /* \"#utility.yul\":12111:12201   */\n      swap2\n      swap1\n      pop\n      jump\t// out\n        /* \"#utility.yul\":12207:12323   */\n    tag_131:\n        /* \"#utility.yul\":12277:12298   */\n      tag_259\n        /* \"#utility.yul\":12292:12297   */\n      dup2\n        /* \"#utility.yul\":12277:12298   */\n      tag_130\n      jump\t// in\n    tag_259:\n        /* \"#utility.yul\":12270:12275   */\n      dup2\n        /* \"#utility.yul\":12267:12299   */\n      eq\n        /* \"#utility.yul\":12257:12317   */\n      tag_260\n      jumpi\n        /* \"#utility.yul\":12313:12314   */\n      0x00\n        /* \"#utility.yul\":12310:12311   */\n      dup1\n        /* \"#utility.yul\":12303:12315   */\n      revert\n        /* \"#utility.yul\":12257:12317   */\n    tag_260:\n        /* \"#utility.yul\":12207:12323   */\n      pop\n      jump\t// out\n        /* \"#utility.yul\":12329:12466   */\n    tag_132:\n        /* \"#utility.yul\":12383:12388   */\n      0x00\n        /* \"#utility.yul\":12414:12420   */\n      dup2\n        /* \"#utility.yul\":12408:12421   */\n      mload\n        /* \"#utility.yul\":12399:12421   */\n      swap1\n      pop\n        /* \"#utility.yul\":12430:12460   */\n      tag_262\n        /* \"#utility.yul\":12454:12459   */\n      dup2\n        /* \"#utility.yul\":12430:12460   */\n      tag_131\n      jump\t// in\n    tag_262:\n        /* \"#utility.yul\":12329:12466   */\n      swap3\n      swap2\n      pop\n      pop\n      jump\t// out\n        /* \"#utility.yul\":12472:12817   */\n    tag_74:\n        /* \"#utility.yul\":12539:12545   */\n      0x00\n        /* \"#utility.yul\":12588:12590   */\n      0x20\n        /* \"#utility.yul\":12576:12585   */\n      dup3\n        /* \"#utility.yul\":12567:12574   */\n      dup5\n        /* \"#utility.yul\":12563:12586   */\n      sub\n        /* \"#utility.yul\":12559:12591   */\n      slt\n        /* \"#utility.yul\":12556:12675   */\n      iszero\n      tag_264\n      jumpi\n        /* \"#utility.yul\":12594:12673   */\n      tag_265\n      tag_94\n      jump\t// in\n    tag_265:\n        /* \"#utility.yul\":12556:12675   */\n    tag_264:\n        /* \"#utility.yul\":12714:12715   */\n      0x00\n        /* \"#utility.yul\":12739:12800   */\n      tag_266\n        /* \"#utility.yul\":12792:12799   */\n      dup5\n        /* \"#utility.yul\":12783:12789   */\n      dup3\n        /* \"#utility.yul\":12772:12781   */\n      dup6\n        /* \"#utility.yul\":12768:12790   */\n      add\n        /* \"#utility.yul\":12739:12800   */\n      tag_132\n      jump\t// in\n    tag_266:\n        /* \"#utility.yul\":12729:12800   */\n      swap2\n      pop\n        /* \"#utility.yul\":12685:12810   */\n      pop\n        /* \"#utility.yul\":12472:12817   */\n      swap3\n      swap2\n      pop\n      pop\n      jump\t// out\n        /* \"#utility.yul\":12823:12996   */\n    tag_133:\n        /* \"#utility.yul\":12963:12988   */\n      0x43616e6e6f74207472616e7366657220746f2073656c66000000000000000000\n        /* \"#utility.yul\":12959:12960   */\n      0x00\n        /* \"#utility.yul\":12951:12957   */\n      dup3\n        /* \"#utility.yul\":12947:12961   */\n      add\n        /* \"#utility.yul\":12940:12989   */\n      mstore\n        /* \"#utility.yul\":12823:12996   */\n      pop\n      jump\t// out\n        /* \"#utility.yul\":13002:13368   */\n    tag_134:\n        /* \"#utility.yul\":13144:13147   */\n      0x00\n        /* \"#utility.yul\":13165:13232   */\n      tag_269\n        /* \"#utility.yul\":13229:13231   */\n      0x17\n        /* \"#utility.yul\":13224:13227   */\n      dup4\n        /* \"#utility.yul\":13165:13232   */\n      tag_114\n      jump\t// in\n    tag_269:\n        /* \"#utility.yul\":13158:13232   */\n      swap2\n      pop\n        /* \"#utility.yul\":13241:13334   */\n      tag_270\n        /* \"#utility.yul\":13330:13333   */\n      dup3\n        /* \"#utility.yul\":13241:13334   */\n      tag_133\n      jump\t// in\n    tag_270:\n        /* \"#utility.yul\":13359:13361   */\n      0x20\n        /* \"#utility.yul\":13354:13357   */\n      dup3\n        /* \"#utility.yul\":13350:13362   */\n      add\n        /* \"#utility.yul\":13343:13362   */\n      swap1\n      pop\n        /* \"#utility.yul\":13002:13368   */\n      swap2\n      swap1\n      pop\n      jump\t// out\n        /* \"#utility.yul\":13374:13793   */\n    tag_81:\n        /* \"#utility.yul\":13540:13544   */\n      0x00\n        /* \"#utility.yul\":13578:13580   */\n      0x20\n        /* \"#utility.yul\":13567:13576   */\n      dup3\n        /* \"#utility.yul\":13563:13581   */\n      add\n        /* \"#utility.yul\":13555:13581   */\n      swap1\n      pop\n        /* \"#utility.yul\":13627:13636   */\n      dup2\n        /* \"#utility.yul\":13621:13625   */\n      dup2\n        /* \"#utility.yul\":13617:13637   */\n      sub\n        /* \"#utility.yul\":13613:13614   */\n      0x00\n        /* \"#utility.yul\":13602:13611   */\n      dup4\n        /* \"#utility.yul\":13598:13615   */\n      add\n        /* \"#utility.yul\":13591:13638   */\n      mstore\n        /* \"#utility.yul\":13655:13786   */\n      tag_272\n        /* \"#utility.yul\":13781:13785   */\n      dup2\n        /* \"#utility.yul\":13655:13786   */\n      tag_134\n      jump\t// in\n    tag_272:\n        /* \"#utility.yul\":13647:13786   */\n      swap1\n      pop\n        /* \"#utility.yul\":13374:13793   */\n      swap2\n      swap1\n      pop\n      jump\t// out\n\n    auxdata: 0xa26469706673582212207b9b2c6a08e58bf68e0d79dd8ad469175517063dd2af323cbd822ece35c9a4b064736f6c63430008180033\n}\n",
				"bytecode": {
					"linkReferences": {},
					"object": "60e060405234801562000010575f80fd5b5073779877a7b0d9e8603169ddbd7836e478b462478973ab18414cd93297b0d12ac29e63ca20f515b3db4633805f8073ffffffffffffffffffffffffffffffffffffffff168273ffffffffffffffffffffffffffffffffffffffff1603620000af576040517f08c379a0000000000000000000000000000000000000000000000000000000008152600401620000a69062000366565b60405180910390fd5b815f806101000a81548173ffffffffffffffffffffffffffffffffffffffff021916908373ffffffffffffffffffffffffffffffffffffffff1602179055505f73ffffffffffffffffffffffffffffffffffffffff168173ffffffffffffffffffffffffffffffffffffffff161462000134576200013381620001db60201b60201c565b5b5050508173ffffffffffffffffffffffffffffffffffffffff1660808173ffffffffffffffffffffffffffffffffffffffff16815250508073ffffffffffffffffffffffffffffffffffffffff1660a08173ffffffffffffffffffffffffffffffffffffffff168152505050503373ffffffffffffffffffffffffffffffffffffffff1660c08173ffffffffffffffffffffffffffffffffffffffff1681525050620003f4565b3373ffffffffffffffffffffffffffffffffffffffff168173ffffffffffffffffffffffffffffffffffffffff16036200024c576040517f08c379a00000000000000000000000000000000000000000000000000000000081526004016200024390620003d4565b60405180910390fd5b8060015f6101000a81548173ffffffffffffffffffffffffffffffffffffffff021916908373ffffffffffffffffffffffffffffffffffffffff1602179055508073ffffffffffffffffffffffffffffffffffffffff165f8054906101000a900473ffffffffffffffffffffffffffffffffffffffff1673ffffffffffffffffffffffffffffffffffffffff167fed8889f560326eb138920d842192f0eb3dd22b4f139c87a2c57538e05bae127860405160405180910390a350565b5f82825260208201905092915050565b7f43616e6e6f7420736574206f776e657220746f207a65726f00000000000000005f82015250565b5f6200034e60188362000308565b91506200035b8262000318565b602082019050919050565b5f6020820190508181035f8301526200037f8162000340565b9050919050565b7f43616e6e6f74207472616e7366657220746f2073656c660000000000000000005f82015250565b5f620003bc60178362000308565b9150620003c98262000386565b602082019050919050565b5f6020820190508181035f830152620003ed81620003ae565b9050919050565b60805160a05160c051610fc5620004305f395f50505f818160eb0152818161054401528181610565015261068001525f6105080152610fc55ff3fe608060405234801561000f575f80fd5b5060043610610055575f3560e01c80631fe543e31461005957806332601f641461007557806379ba5097146100a55780638da5cb5b146100af578063f2fde38b146100cd575b5f80fd5b610073600480360381019061006e9190610a83565b6100e9565b005b61008f600480360381019061008a9190610add565b610185565b60405161009c9190610b3c565b60405180910390f35b6100ad610253565b005b6100b76103e2565b6040516100c49190610b94565b60405180910390f35b6100e760048036038101906100e29190610bd7565b610409565b005b7f000000000000000000000000000000000000000000000000000000000000000073ffffffffffffffffffffffffffffffffffffffff163373ffffffffffffffffffffffffffffffffffffffff1614610177576040517f08c379a000000000000000000000000000000000000000000000000000000000815260040161016e90610c5c565b60405180910390fd5b610181828261041d565b5050565b5f61018e610476565b5f61019f620186a060016003610505565b9050600281908060018154018082558091505060019003905f5260205f20015f90919091909150558060035f8381526020019081526020015f205f018190555060405180606001604052808681526020018581526020018481525060035f8381526020019081526020015f2060010190600361021c92919061083e565b505f60035f8381526020019081526020015f206003015f6101000a81548160ff021916908315150217905550809150509392505050565b60015f9054906101000a900473ffffffffffffffffffffffffffffffffffffffff1673ffffffffffffffffffffffffffffffffffffffff163373ffffffffffffffffffffffffffffffffffffffff16146102e2576040517f08c379a00000000000000000000000000000000000000000000000000000000081526004016102d990610cc4565b60405180910390fd5b5f805f9054906101000a900473ffffffffffffffffffffffffffffffffffffffff169050335f806101000a81548173ffffffffffffffffffffffffffffffffffffffff021916908373ffffffffffffffffffffffffffffffffffffffff1602179055505f60015f6101000a81548173ffffffffffffffffffffffffffffffffffffffff021916908373ffffffffffffffffffffffffffffffffffffffff1602179055503373ffffffffffffffffffffffffffffffffffffffff168173ffffffffffffffffffffffffffffffffffffffff167f8be0079c531659141344cd1fd0a4f28419497f9722a3daafe3b4186f6b6457e060405160405180910390a350565b5f805f9054906101000a900473ffffffffffffffffffffffffffffffffffffffff16905090565b610411610476565b61041a81610714565b50565b600160035f8481526020019081526020015f206003015f6101000a81548160ff0219169083151502179055508060035f8481526020019081526020015f206002019080519060200190610471929190610889565b505050565b5f8054906101000a900473ffffffffffffffffffffffffffffffffffffffff1673ffffffffffffffffffffffffffffffffffffffff163373ffffffffffffffffffffffffffffffffffffffff1614610503576040517f08c379a00000000000000000000000000000000000000000000000000000000081526004016104fa90610d2c565b60405180910390fd5b565b5f7f000000000000000000000000000000000000000000000000000000000000000073ffffffffffffffffffffffffffffffffffffffff16634000aea07f00000000000000000000000000000000000000000000000000000000000000007f000000000000000000000000000000000000000000000000000000000000000073ffffffffffffffffffffffffffffffffffffffff16634306d354886040518263ffffffff1660e01b81526004016105bc9190610d68565b602060405180830381865afa1580156105d7573d5f803e3d5ffd5b505050506040513d601f19601f820116820180604052508101906105fb9190610d95565b87878760405160200161061093929190610ddc565b6040516020818303038152906040526040518463ffffffff1660e01b815260040161063d93929190610e8b565b6020604051808303815f875af1158015610659573d5f803e3d5ffd5b505050506040513d601f19601f8201168201806040525081019061067d9190610efc565b507f000000000000000000000000000000000000000000000000000000000000000073ffffffffffffffffffffffffffffffffffffffff1663fc2a88c36040518163ffffffff1660e01b8152600401602060405180830381865afa1580156106e7573d5f803e3d5ffd5b505050506040513d601f19601f8201168201806040525081019061070b9190610d95565b90509392505050565b3373ffffffffffffffffffffffffffffffffffffffff168173ffffffffffffffffffffffffffffffffffffffff1603610782576040517f08c379a000000000000000000000000000000000000000000000000000000000815260040161077990610f71565b60405180910390fd5b8060015f6101000a81548173ffffffffffffffffffffffffffffffffffffffff021916908373ffffffffffffffffffffffffffffffffffffffff1602179055508073ffffffffffffffffffffffffffffffffffffffff165f8054906101000a900473ffffffffffffffffffffffffffffffffffffffff1673ffffffffffffffffffffffffffffffffffffffff167fed8889f560326eb138920d842192f0eb3dd22b4f139c87a2c57538e05bae127860405160405180910390a350565b828054828255905f5260205f20908101928215610878579160200282015b8281111561087757825182559160200191906001019061085c565b5b50905061088591906108d4565b5090565b828054828255905f5260205f209081019282156108c3579160200282015b828111156108c25782518255916020019190600101906108a7565b5b5090506108d091906108d4565b5090565b5b808211156108eb575f815f9055506001016108d5565b5090565b5f604051905090565b5f80fd5b5f80fd5b5f819050919050565b61091281610900565b811461091c575f80fd5b50565b5f8135905061092d81610909565b92915050565b5f80fd5b5f601f19601f8301169050919050565b7f4e487b71000000000000000000000000000000000000000000000000000000005f52604160045260245ffd5b61097d82610937565b810181811067ffffffffffffffff8211171561099c5761099b610947565b5b80604052505050565b5f6109ae6108ef565b90506109ba8282610974565b919050565b5f67ffffffffffffffff8211156109d9576109d8610947565b5b602082029050602081019050919050565b5f80fd5b5f610a006109fb846109bf565b6109a5565b90508083825260208201905060208402830185811115610a2357610a226109ea565b5b835b81811015610a4c5780610a38888261091f565b845260208401935050602081019050610a25565b5050509392505050565b5f82601f830112610a6a57610a69610933565b5b8135610a7a8482602086016109ee565b91505092915050565b5f8060408385031215610a9957610a986108f8565b5b5f610aa68582860161091f565b925050602083013567ffffffffffffffff811115610ac757610ac66108fc565b5b610ad385828601610a56565b9150509250929050565b5f805f60608486031215610af457610af36108f8565b5b5f610b018682870161091f565b9350506020610b128682870161091f565b9250506040610b238682870161091f565b9150509250925092565b610b3681610900565b82525050565b5f602082019050610b4f5f830184610b2d565b92915050565b5f73ffffffffffffffffffffffffffffffffffffffff82169050919050565b5f610b7e82610b55565b9050919050565b610b8e81610b74565b82525050565b5f602082019050610ba75f830184610b85565b92915050565b610bb681610b74565b8114610bc0575f80fd5b50565b5f81359050610bd181610bad565b92915050565b5f60208284031215610bec57610beb6108f8565b5b5f610bf984828501610bc3565b91505092915050565b5f82825260208201905092915050565b7f6f6e6c792056524620563220777261707065722063616e2066756c66696c6c005f82015250565b5f610c46601f83610c02565b9150610c5182610c12565b602082019050919050565b5f6020820190508181035f830152610c7381610c3a565b9050919050565b7f4d7573742062652070726f706f736564206f776e6572000000000000000000005f82015250565b5f610cae601683610c02565b9150610cb982610c7a565b602082019050919050565b5f6020820190508181035f830152610cdb81610ca2565b9050919050565b7f4f6e6c792063616c6c61626c65206279206f776e6572000000000000000000005f82015250565b5f610d16601683610c02565b9150610d2182610ce2565b602082019050919050565b5f6020820190508181035f830152610d4381610d0a565b9050919050565b5f63ffffffff82169050919050565b610d6281610d4a565b82525050565b5f602082019050610d7b5f830184610d59565b92915050565b5f81519050610d8f81610909565b92915050565b5f60208284031215610daa57610da96108f8565b5b5f610db784828501610d81565b91505092915050565b5f61ffff82169050919050565b610dd681610dc0565b82525050565b5f606082019050610def5f830186610d59565b610dfc6020830185610dcd565b610e096040830184610d59565b949350505050565b5f81519050919050565b5f82825260208201905092915050565b5f5b83811015610e48578082015181840152602081019050610e2d565b5f8484015250505050565b5f610e5d82610e11565b610e678185610e1b565b9350610e77818560208601610e2b565b610e8081610937565b840191505092915050565b5f606082019050610e9e5f830186610b85565b610eab6020830185610b2d565b8181036040830152610ebd8184610e53565b9050949350505050565b5f8115159050919050565b610edb81610ec7565b8114610ee5575f80fd5b50565b5f81519050610ef681610ed2565b92915050565b5f60208284031215610f1157610f106108f8565b5b5f610f1e84828501610ee8565b91505092915050565b7f43616e6e6f74207472616e7366657220746f2073656c660000000000000000005f82015250565b5f610f5b601783610c02565b9150610f6682610f27565b602082019050919050565b5f6020820190508181035f830152610f8881610f4f565b905091905056fea26469706673582212207b9b2c6a08e58bf68e0d79dd8ad469175517063dd2af323cbd822ece35c9a4b064736f6c63430008180033",
					"opcodes": "PUSH1 0xE0 PUSH1 0x40 MSTORE CALLVALUE DUP1 ISZERO PUSH3 0x10 JUMPI PUSH0 DUP1 REVERT JUMPDEST POP PUSH20 0x779877A7B0D9E8603169DDBD7836E478B4624789 PUSH20 0xAB18414CD93297B0D12AC29E63CA20F515B3DB46 CALLER DUP1 PUSH0 DUP1 PUSH20 0xFFFFFFFFFFFFFFFFFFFFFFFFFFFFFFFFFFFFFFFF AND DUP3 PUSH20 0xFFFFFFFFFFFFFFFFFFFFFFFFFFFFFFFFFFFFFFFF AND SUB PUSH3 0xAF JUMPI PUSH1 0x40 MLOAD PUSH32 0x8C379A000000000000000000000000000000000000000000000000000000000 DUP2 MSTORE PUSH1 0x4 ADD PUSH3 0xA6 SWAP1 PUSH3 0x366 JUMP JUMPDEST PUSH1 0x40 MLOAD DUP1 SWAP2 SUB SWAP1 REVERT JUMPDEST DUP2 PUSH0 DUP1 PUSH2 0x100 EXP DUP2 SLOAD DUP2 PUSH20 0xFFFFFFFFFFFFFFFFFFFFFFFFFFFFFFFFFFFFFFFF MUL NOT AND SWAP1 DUP4 PUSH20 0xFFFFFFFFFFFFFFFFFFFFFFFFFFFFFFFFFFFFFFFF AND MUL OR SWAP1 SSTORE POP PUSH0 PUSH20 0xFFFFFFFFFFFFFFFFFFFFFFFFFFFFFFFFFFFFFFFF AND DUP2 PUSH20 0xFFFFFFFFFFFFFFFFFFFFFFFFFFFFFFFFFFFFFFFF AND EQ PUSH3 0x134 JUMPI PUSH3 0x133 DUP2 PUSH3 0x1DB PUSH1 0x20 SHL PUSH1 0x20 SHR JUMP JUMPDEST JUMPDEST POP POP POP DUP2 PUSH20 0xFFFFFFFFFFFFFFFFFFFFFFFFFFFFFFFFFFFFFFFF AND PUSH1 0x80 DUP2 PUSH20 0xFFFFFFFFFFFFFFFFFFFFFFFFFFFFFFFFFFFFFFFF AND DUP2 MSTORE POP POP DUP1 PUSH20 0xFFFFFFFFFFFFFFFFFFFFFFFFFFFFFFFFFFFFFFFF AND PUSH1 0xA0 DUP2 PUSH20 0xFFFFFFFFFFFFFFFFFFFFFFFFFFFFFFFFFFFFFFFF AND DUP2 MSTORE POP POP POP POP CALLER PUSH20 0xFFFFFFFFFFFFFFFFFFFFFFFFFFFFFFFFFFFFFFFF AND PUSH1 0xC0 DUP2 PUSH20 0xFFFFFFFFFFFFFFFFFFFFFFFFFFFFFFFFFFFFFFFF AND DUP2 MSTORE POP POP PUSH3 0x3F4 JUMP JUMPDEST CALLER PUSH20 0xFFFFFFFFFFFFFFFFFFFFFFFFFFFFFFFFFFFFFFFF AND DUP2 PUSH20 0xFFFFFFFFFFFFFFFFFFFFFFFFFFFFFFFFFFFFFFFF AND SUB PUSH3 0x24C JUMPI PUSH1 0x40 MLOAD PUSH32 0x8C379A000000000000000000000000000000000000000000000000000000000 DUP2 MSTORE PUSH1 0x4 ADD PUSH3 0x243 SWAP1 PUSH3 0x3D4 JUMP JUMPDEST PUSH1 0x40 MLOAD DUP1 SWAP2 SUB SWAP1 REVERT JUMPDEST DUP1 PUSH1 0x1 PUSH0 PUSH2 0x100 EXP DUP2 SLOAD DUP2 PUSH20 0xFFFFFFFFFFFFFFFFFFFFFFFFFFFFFFFFFFFFFFFF MUL NOT AND SWAP1 DUP4 PUSH20 0xFFFFFFFFFFFFFFFFFFFFFFFFFFFFFFFFFFFFFFFF AND MUL OR SWAP1 SSTORE POP DUP1 PUSH20 0xFFFFFFFFFFFFFFFFFFFFFFFFFFFFFFFFFFFFFFFF AND PUSH0 DUP1 SLOAD SWAP1 PUSH2 0x100 EXP SWAP1 DIV PUSH20 0xFFFFFFFFFFFFFFFFFFFFFFFFFFFFFFFFFFFFFFFF AND PUSH20 0xFFFFFFFFFFFFFFFFFFFFFFFFFFFFFFFFFFFFFFFF AND PUSH32 0xED8889F560326EB138920D842192F0EB3DD22B4F139C87A2C57538E05BAE1278 PUSH1 0x40 MLOAD PUSH1 0x40 MLOAD DUP1 SWAP2 SUB SWAP1 LOG3 POP JUMP JUMPDEST PUSH0 DUP3 DUP3 MSTORE PUSH1 0x20 DUP3 ADD SWAP1 POP SWAP3 SWAP2 POP POP JUMP JUMPDEST PUSH32 0x43616E6E6F7420736574206F776E657220746F207A65726F0000000000000000 PUSH0 DUP3 ADD MSTORE POP JUMP JUMPDEST PUSH0 PUSH3 0x34E PUSH1 0x18 DUP4 PUSH3 0x308 JUMP JUMPDEST SWAP2 POP PUSH3 0x35B DUP3 PUSH3 0x318 JUMP JUMPDEST PUSH1 0x20 DUP3 ADD SWAP1 POP SWAP2 SWAP1 POP JUMP JUMPDEST PUSH0 PUSH1 0x20 DUP3 ADD SWAP1 POP DUP2 DUP2 SUB PUSH0 DUP4 ADD MSTORE PUSH3 0x37F DUP2 PUSH3 0x340 JUMP JUMPDEST SWAP1 POP SWAP2 SWAP1 POP JUMP JUMPDEST PUSH32 0x43616E6E6F74207472616E7366657220746F2073656C66000000000000000000 PUSH0 DUP3 ADD MSTORE POP JUMP JUMPDEST PUSH0 PUSH3 0x3BC PUSH1 0x17 DUP4 PUSH3 0x308 JUMP JUMPDEST SWAP2 POP PUSH3 0x3C9 DUP3 PUSH3 0x386 JUMP JUMPDEST PUSH1 0x20 DUP3 ADD SWAP1 POP SWAP2 SWAP1 POP JUMP JUMPDEST PUSH0 PUSH1 0x20 DUP3 ADD SWAP1 POP DUP2 DUP2 SUB PUSH0 DUP4 ADD MSTORE PUSH3 0x3ED DUP2 PUSH3 0x3AE JUMP JUMPDEST SWAP1 POP SWAP2 SWAP1 POP JUMP JUMPDEST PUSH1 0x80 MLOAD PUSH1 0xA0 MLOAD PUSH1 0xC0 MLOAD PUSH2 0xFC5 PUSH3 0x430 PUSH0 CODECOPY PUSH0 POP POP PUSH0 DUP2 DUP2 PUSH1 0xEB ADD MSTORE DUP2 DUP2 PUSH2 0x544 ADD MSTORE DUP2 DUP2 PUSH2 0x565 ADD MSTORE PUSH2 0x680 ADD MSTORE PUSH0 PUSH2 0x508 ADD MSTORE PUSH2 0xFC5 PUSH0 RETURN INVALID PUSH1 0x80 PUSH1 0x40 MSTORE CALLVALUE DUP1 ISZERO PUSH2 0xF JUMPI PUSH0 DUP1 REVERT JUMPDEST POP PUSH1 0x4 CALLDATASIZE LT PUSH2 0x55 JUMPI PUSH0 CALLDATALOAD PUSH1 0xE0 SHR DUP1 PUSH4 0x1FE543E3 EQ PUSH2 0x59 JUMPI DUP1 PUSH4 0x32601F64 EQ PUSH2 0x75 JUMPI DUP1 PUSH4 0x79BA5097 EQ PUSH2 0xA5 JUMPI DUP1 PUSH4 0x8DA5CB5B EQ PUSH2 0xAF JUMPI DUP1 PUSH4 0xF2FDE38B EQ PUSH2 0xCD JUMPI JUMPDEST PUSH0 DUP1 REVERT JUMPDEST PUSH2 0x73 PUSH1 0x4 DUP1 CALLDATASIZE SUB DUP2 ADD SWAP1 PUSH2 0x6E SWAP2 SWAP1 PUSH2 0xA83 JUMP JUMPDEST PUSH2 0xE9 JUMP JUMPDEST STOP JUMPDEST PUSH2 0x8F PUSH1 0x4 DUP1 CALLDATASIZE SUB DUP2 ADD SWAP1 PUSH2 0x8A SWAP2 SWAP1 PUSH2 0xADD JUMP JUMPDEST PUSH2 0x185 JUMP JUMPDEST PUSH1 0x40 MLOAD PUSH2 0x9C SWAP2 SWAP1 PUSH2 0xB3C JUMP JUMPDEST PUSH1 0x40 MLOAD DUP1 SWAP2 SUB SWAP1 RETURN JUMPDEST PUSH2 0xAD PUSH2 0x253 JUMP JUMPDEST STOP JUMPDEST PUSH2 0xB7 PUSH2 0x3E2 JUMP JUMPDEST PUSH1 0x40 MLOAD PUSH2 0xC4 SWAP2 SWAP1 PUSH2 0xB94 JUMP JUMPDEST PUSH1 0x40 MLOAD DUP1 SWAP2 SUB SWAP1 RETURN JUMPDEST PUSH2 0xE7 PUSH1 0x4 DUP1 CALLDATASIZE SUB DUP2 ADD SWAP1 PUSH2 0xE2 SWAP2 SWAP1 PUSH2 0xBD7 JUMP JUMPDEST PUSH2 0x409 JUMP JUMPDEST STOP JUMPDEST PUSH32 0x0 PUSH20 0xFFFFFFFFFFFFFFFFFFFFFFFFFFFFFFFFFFFFFFFF AND CALLER PUSH20 0xFFFFFFFFFFFFFFFFFFFFFFFFFFFFFFFFFFFFFFFF AND EQ PUSH2 0x177 JUMPI PUSH1 0x40 MLOAD PUSH32 0x8C379A000000000000000000000000000000000000000000000000000000000 DUP2 MSTORE PUSH1 0x4 ADD PUSH2 0x16E SWAP1 PUSH2 0xC5C JUMP JUMPDEST PUSH1 0x40 MLOAD DUP1 SWAP2 SUB SWAP1 REVERT JUMPDEST PUSH2 0x181 DUP3 DUP3 PUSH2 0x41D JUMP JUMPDEST POP POP JUMP JUMPDEST PUSH0 PUSH2 0x18E PUSH2 0x476 JUMP JUMPDEST PUSH0 PUSH2 0x19F PUSH3 0x186A0 PUSH1 0x1 PUSH1 0x3 PUSH2 0x505 JUMP JUMPDEST SWAP1 POP PUSH1 0x2 DUP2 SWAP1 DUP1 PUSH1 0x1 DUP2 SLOAD ADD DUP1 DUP3 SSTORE DUP1 SWAP2 POP POP PUSH1 0x1 SWAP1 SUB SWAP1 PUSH0 MSTORE PUSH1 0x20 PUSH0 KECCAK256 ADD PUSH0 SWAP1 SWAP2 SWAP1 SWAP2 SWAP1 SWAP2 POP SSTORE DUP1 PUSH1 0x3 PUSH0 DUP4 DUP2 MSTORE PUSH1 0x20 ADD SWAP1 DUP2 MSTORE PUSH1 0x20 ADD PUSH0 KECCAK256 PUSH0 ADD DUP2 SWAP1 SSTORE POP PUSH1 0x40 MLOAD DUP1 PUSH1 0x60 ADD PUSH1 0x40 MSTORE DUP1 DUP7 DUP2 MSTORE PUSH1 0x20 ADD DUP6 DUP2 MSTORE PUSH1 0x20 ADD DUP5 DUP2 MSTORE POP PUSH1 0x3 PUSH0 DUP4 DUP2 MSTORE PUSH1 0x20 ADD SWAP1 DUP2 MSTORE PUSH1 0x20 ADD PUSH0 KECCAK256 PUSH1 0x1 ADD SWAP1 PUSH1 0x3 PUSH2 0x21C SWAP3 SWAP2 SWAP1 PUSH2 0x83E JUMP JUMPDEST POP PUSH0 PUSH1 0x3 PUSH0 DUP4 DUP2 MSTORE PUSH1 0x20 ADD SWAP1 DUP2 MSTORE PUSH1 0x20 ADD PUSH0 KECCAK256 PUSH1 0x3 ADD PUSH0 PUSH2 0x100 EXP DUP2 SLOAD DUP2 PUSH1 0xFF MUL NOT AND SWAP1 DUP4 ISZERO ISZERO MUL OR SWAP1 SSTORE POP DUP1 SWAP2 POP POP SWAP4 SWAP3 POP POP POP JUMP JUMPDEST PUSH1 0x1 PUSH0 SWAP1 SLOAD SWAP1 PUSH2 0x100 EXP SWAP1 DIV PUSH20 0xFFFFFFFFFFFFFFFFFFFFFFFFFFFFFFFFFFFFFFFF AND PUSH20 0xFFFFFFFFFFFFFFFFFFFFFFFFFFFFFFFFFFFFFFFF AND CALLER PUSH20 0xFFFFFFFFFFFFFFFFFFFFFFFFFFFFFFFFFFFFFFFF AND EQ PUSH2 0x2E2 JUMPI PUSH1 0x40 MLOAD PUSH32 0x8C379A000000000000000000000000000000000000000000000000000000000 DUP2 MSTORE PUSH1 0x4 ADD PUSH2 0x2D9 SWAP1 PUSH2 0xCC4 JUMP JUMPDEST PUSH1 0x40 MLOAD DUP1 SWAP2 SUB SWAP1 REVERT JUMPDEST PUSH0 DUP1 PUSH0 SWAP1 SLOAD SWAP1 PUSH2 0x100 EXP SWAP1 DIV PUSH20 0xFFFFFFFFFFFFFFFFFFFFFFFFFFFFFFFFFFFFFFFF AND SWAP1 POP CALLER PUSH0 DUP1 PUSH2 0x100 EXP DUP2 SLOAD DUP2 PUSH20 0xFFFFFFFFFFFFFFFFFFFFFFFFFFFFFFFFFFFFFFFF MUL NOT AND SWAP1 DUP4 PUSH20 0xFFFFFFFFFFFFFFFFFFFFFFFFFFFFFFFFFFFFFFFF AND MUL OR SWAP1 SSTORE POP PUSH0 PUSH1 0x1 PUSH0 PUSH2 0x100 EXP DUP2 SLOAD DUP2 PUSH20 0xFFFFFFFFFFFFFFFFFFFFFFFFFFFFFFFFFFFFFFFF MUL NOT AND SWAP1 DUP4 PUSH20 0xFFFFFFFFFFFFFFFFFFFFFFFFFFFFFFFFFFFFFFFF AND MUL OR SWAP1 SSTORE POP CALLER PUSH20 0xFFFFFFFFFFFFFFFFFFFFFFFFFFFFFFFFFFFFFFFF AND DUP2 PUSH20 0xFFFFFFFFFFFFFFFFFFFFFFFFFFFFFFFFFFFFFFFF AND PUSH32 0x8BE0079C531659141344CD1FD0A4F28419497F9722A3DAAFE3B4186F6B6457E0 PUSH1 0x40 MLOAD PUSH1 0x40 MLOAD DUP1 SWAP2 SUB SWAP1 LOG3 POP JUMP JUMPDEST PUSH0 DUP1 PUSH0 SWAP1 SLOAD SWAP1 PUSH2 0x100 EXP SWAP1 DIV PUSH20 0xFFFFFFFFFFFFFFFFFFFFFFFFFFFFFFFFFFFFFFFF AND SWAP1 POP SWAP1 JUMP JUMPDEST PUSH2 0x411 PUSH2 0x476 JUMP JUMPDEST PUSH2 0x41A DUP2 PUSH2 0x714 JUMP JUMPDEST POP JUMP JUMPDEST PUSH1 0x1 PUSH1 0x3 PUSH0 DUP5 DUP2 MSTORE PUSH1 0x20 ADD SWAP1 DUP2 MSTORE PUSH1 0x20 ADD PUSH0 KECCAK256 PUSH1 0x3 ADD PUSH0 PUSH2 0x100 EXP DUP2 SLOAD DUP2 PUSH1 0xFF MUL NOT AND SWAP1 DUP4 ISZERO ISZERO MUL OR SWAP1 SSTORE POP DUP1 PUSH1 0x3 PUSH0 DUP5 DUP2 MSTORE PUSH1 0x20 ADD SWAP1 DUP2 MSTORE PUSH1 0x20 ADD PUSH0 KECCAK256 PUSH1 0x2 ADD SWAP1 DUP1 MLOAD SWAP1 PUSH1 0x20 ADD SWAP1 PUSH2 0x471 SWAP3 SWAP2 SWAP1 PUSH2 0x889 JUMP JUMPDEST POP POP POP JUMP JUMPDEST PUSH0 DUP1 SLOAD SWAP1 PUSH2 0x100 EXP SWAP1 DIV PUSH20 0xFFFFFFFFFFFFFFFFFFFFFFFFFFFFFFFFFFFFFFFF AND PUSH20 0xFFFFFFFFFFFFFFFFFFFFFFFFFFFFFFFFFFFFFFFF AND CALLER PUSH20 0xFFFFFFFFFFFFFFFFFFFFFFFFFFFFFFFFFFFFFFFF AND EQ PUSH2 0x503 JUMPI PUSH1 0x40 MLOAD PUSH32 0x8C379A000000000000000000000000000000000000000000000000000000000 DUP2 MSTORE PUSH1 0x4 ADD PUSH2 0x4FA SWAP1 PUSH2 0xD2C JUMP JUMPDEST PUSH1 0x40 MLOAD DUP1 SWAP2 SUB SWAP1 REVERT JUMPDEST JUMP JUMPDEST PUSH0 PUSH32 0x0 PUSH20 0xFFFFFFFFFFFFFFFFFFFFFFFFFFFFFFFFFFFFFFFF AND PUSH4 0x4000AEA0 PUSH32 0x0 PUSH32 0x0 PUSH20 0xFFFFFFFFFFFFFFFFFFFFFFFFFFFFFFFFFFFFFFFF AND PUSH4 0x4306D354 DUP9 PUSH1 0x40 MLOAD DUP3 PUSH4 0xFFFFFFFF AND PUSH1 0xE0 SHL DUP2 MSTORE PUSH1 0x4 ADD PUSH2 0x5BC SWAP2 SWAP1 PUSH2 0xD68 JUMP JUMPDEST PUSH1 0x20 PUSH1 0x40 MLOAD DUP1 DUP4 SUB DUP2 DUP7 GAS STATICCALL ISZERO DUP1 ISZERO PUSH2 0x5D7 JUMPI RETURNDATASIZE PUSH0 DUP1 RETURNDATACOPY RETURNDATASIZE PUSH0 REVERT JUMPDEST POP POP POP POP PUSH1 0x40 MLOAD RETURNDATASIZE PUSH1 0x1F NOT PUSH1 0x1F DUP3 ADD AND DUP3 ADD DUP1 PUSH1 0x40 MSTORE POP DUP2 ADD SWAP1 PUSH2 0x5FB SWAP2 SWAP1 PUSH2 0xD95 JUMP JUMPDEST DUP8 DUP8 DUP8 PUSH1 0x40 MLOAD PUSH1 0x20 ADD PUSH2 0x610 SWAP4 SWAP3 SWAP2 SWAP1 PUSH2 0xDDC JUMP JUMPDEST PUSH1 0x40 MLOAD PUSH1 0x20 DUP2 DUP4 SUB SUB DUP2 MSTORE SWAP1 PUSH1 0x40 MSTORE PUSH1 0x40 MLOAD DUP5 PUSH4 0xFFFFFFFF AND PUSH1 0xE0 SHL DUP2 MSTORE PUSH1 0x4 ADD PUSH2 0x63D SWAP4 SWAP3 SWAP2 SWAP1 PUSH2 0xE8B JUMP JUMPDEST PUSH1 0x20 PUSH1 0x40 MLOAD DUP1 DUP4 SUB DUP2 PUSH0 DUP8 GAS CALL ISZERO DUP1 ISZERO PUSH2 0x659 JUMPI RETURNDATASIZE PUSH0 DUP1 RETURNDATACOPY RETURNDATASIZE PUSH0 REVERT JUMPDEST POP POP POP POP PUSH1 0x40 MLOAD RETURNDATASIZE PUSH1 0x1F NOT PUSH1 0x1F DUP3 ADD AND DUP3 ADD DUP1 PUSH1 0x40 MSTORE POP DUP2 ADD SWAP1 PUSH2 0x67D SWAP2 SWAP1 PUSH2 0xEFC JUMP JUMPDEST POP PUSH32 0x0 PUSH20 0xFFFFFFFFFFFFFFFFFFFFFFFFFFFFFFFFFFFFFFFF AND PUSH4 0xFC2A88C3 PUSH1 0x40 MLOAD DUP2 PUSH4 0xFFFFFFFF AND PUSH1 0xE0 SHL DUP2 MSTORE PUSH1 0x4 ADD PUSH1 0x20 PUSH1 0x40 MLOAD DUP1 DUP4 SUB DUP2 DUP7 GAS STATICCALL ISZERO DUP1 ISZERO PUSH2 0x6E7 JUMPI RETURNDATASIZE PUSH0 DUP1 RETURNDATACOPY RETURNDATASIZE PUSH0 REVERT JUMPDEST POP POP POP POP PUSH1 0x40 MLOAD RETURNDATASIZE PUSH1 0x1F NOT PUSH1 0x1F DUP3 ADD AND DUP3 ADD DUP1 PUSH1 0x40 MSTORE POP DUP2 ADD SWAP1 PUSH2 0x70B SWAP2 SWAP1 PUSH2 0xD95 JUMP JUMPDEST SWAP1 POP SWAP4 SWAP3 POP POP POP JUMP JUMPDEST CALLER PUSH20 0xFFFFFFFFFFFFFFFFFFFFFFFFFFFFFFFFFFFFFFFF AND DUP2 PUSH20 0xFFFFFFFFFFFFFFFFFFFFFFFFFFFFFFFFFFFFFFFF AND SUB PUSH2 0x782 JUMPI PUSH1 0x40 MLOAD PUSH32 0x8C379A000000000000000000000000000000000000000000000000000000000 DUP2 MSTORE PUSH1 0x4 ADD PUSH2 0x779 SWAP1 PUSH2 0xF71 JUMP JUMPDEST PUSH1 0x40 MLOAD DUP1 SWAP2 SUB SWAP1 REVERT JUMPDEST DUP1 PUSH1 0x1 PUSH0 PUSH2 0x100 EXP DUP2 SLOAD DUP2 PUSH20 0xFFFFFFFFFFFFFFFFFFFFFFFFFFFFFFFFFFFFFFFF MUL NOT AND SWAP1 DUP4 PUSH20 0xFFFFFFFFFFFFFFFFFFFFFFFFFFFFFFFFFFFFFFFF AND MUL OR SWAP1 SSTORE POP DUP1 PUSH20 0xFFFFFFFFFFFFFFFFFFFFFFFFFFFFFFFFFFFFFFFF AND PUSH0 DUP1 SLOAD SWAP1 PUSH2 0x100 EXP SWAP1 DIV PUSH20 0xFFFFFFFFFFFFFFFFFFFFFFFFFFFFFFFFFFFFFFFF AND PUSH20 0xFFFFFFFFFFFFFFFFFFFFFFFFFFFFFFFFFFFFFFFF AND PUSH32 0xED8889F560326EB138920D842192F0EB3DD22B4F139C87A2C57538E05BAE1278 PUSH1 0x40 MLOAD PUSH1 0x40 MLOAD DUP1 SWAP2 SUB SWAP1 LOG3 POP JUMP JUMPDEST DUP3 DUP1 SLOAD DUP3 DUP3 SSTORE SWAP1 PUSH0 MSTORE PUSH1 0x20 PUSH0 KECCAK256 SWAP1 DUP2 ADD SWAP3 DUP3 ISZERO PUSH2 0x878 JUMPI SWAP2 PUSH1 0x20 MUL DUP3 ADD JUMPDEST DUP3 DUP2 GT ISZERO PUSH2 0x877 JUMPI DUP3 MLOAD DUP3 SSTORE SWAP2 PUSH1 0x20 ADD SWAP2 SWAP1 PUSH1 0x1 ADD SWAP1 PUSH2 0x85C JUMP JUMPDEST JUMPDEST POP SWAP1 POP PUSH2 0x885 SWAP2 SWAP1 PUSH2 0x8D4 JUMP JUMPDEST POP SWAP1 JUMP JUMPDEST DUP3 DUP1 SLOAD DUP3 DUP3 SSTORE SWAP1 PUSH0 MSTORE PUSH1 0x20 PUSH0 KECCAK256 SWAP1 DUP2 ADD SWAP3 DUP3 ISZERO PUSH2 0x8C3 JUMPI SWAP2 PUSH1 0x20 MUL DUP3 ADD JUMPDEST DUP3 DUP2 GT ISZERO PUSH2 0x8C2 JUMPI DUP3 MLOAD DUP3 SSTORE SWAP2 PUSH1 0x20 ADD SWAP2 SWAP1 PUSH1 0x1 ADD SWAP1 PUSH2 0x8A7 JUMP JUMPDEST JUMPDEST POP SWAP1 POP PUSH2 0x8D0 SWAP2 SWAP1 PUSH2 0x8D4 JUMP JUMPDEST POP SWAP1 JUMP JUMPDEST JUMPDEST DUP1 DUP3 GT ISZERO PUSH2 0x8EB JUMPI PUSH0 DUP2 PUSH0 SWAP1 SSTORE POP PUSH1 0x1 ADD PUSH2 0x8D5 JUMP JUMPDEST POP SWAP1 JUMP JUMPDEST PUSH0 PUSH1 0x40 MLOAD SWAP1 POP SWAP1 JUMP JUMPDEST PUSH0 DUP1 REVERT JUMPDEST PUSH0 DUP1 REVERT JUMPDEST PUSH0 DUP2 SWAP1 POP SWAP2 SWAP1 POP JUMP JUMPDEST PUSH2 0x912 DUP2 PUSH2 0x900 JUMP JUMPDEST DUP2 EQ PUSH2 0x91C JUMPI PUSH0 DUP1 REVERT JUMPDEST POP JUMP JUMPDEST PUSH0 DUP2 CALLDATALOAD SWAP1 POP PUSH2 0x92D DUP2 PUSH2 0x909 JUMP JUMPDEST SWAP3 SWAP2 POP POP JUMP JUMPDEST PUSH0 DUP1 REVERT JUMPDEST PUSH0 PUSH1 0x1F NOT PUSH1 0x1F DUP4 ADD AND SWAP1 POP SWAP2 SWAP1 POP JUMP JUMPDEST PUSH32 0x4E487B7100000000000000000000000000000000000000000000000000000000 PUSH0 MSTORE PUSH1 0x41 PUSH1 0x4 MSTORE PUSH1 0x24 PUSH0 REVERT JUMPDEST PUSH2 0x97D DUP3 PUSH2 0x937 JUMP JUMPDEST DUP2 ADD DUP2 DUP2 LT PUSH8 0xFFFFFFFFFFFFFFFF DUP3 GT OR ISZERO PUSH2 0x99C JUMPI PUSH2 0x99B PUSH2 0x947 JUMP JUMPDEST JUMPDEST DUP1 PUSH1 0x40 MSTORE POP POP POP JUMP JUMPDEST PUSH0 PUSH2 0x9AE PUSH2 0x8EF JUMP JUMPDEST SWAP1 POP PUSH2 0x9BA DUP3 DUP3 PUSH2 0x974 JUMP JUMPDEST SWAP2 SWAP1 POP JUMP JUMPDEST PUSH0 PUSH8 0xFFFFFFFFFFFFFFFF DUP3 GT ISZERO PUSH2 0x9D9 JUMPI PUSH2 0x9D8 PUSH2 0x947 JUMP JUMPDEST JUMPDEST PUSH1 0x20 DUP3 MUL SWAP1 POP PUSH1 0x20 DUP2 ADD SWAP1 POP SWAP2 SWAP1 POP JUMP JUMPDEST PUSH0 DUP1 REVERT JUMPDEST PUSH0 PUSH2 0xA00 PUSH2 0x9FB DUP5 PUSH2 0x9BF JUMP JUMPDEST PUSH2 0x9A5 JUMP JUMPDEST SWAP1 POP DUP1 DUP4 DUP3 MSTORE PUSH1 0x20 DUP3 ADD SWAP1 POP PUSH1 0x20 DUP5 MUL DUP4 ADD DUP6 DUP2 GT ISZERO PUSH2 0xA23 JUMPI PUSH2 0xA22 PUSH2 0x9EA JUMP JUMPDEST JUMPDEST DUP4 JUMPDEST DUP2 DUP2 LT ISZERO PUSH2 0xA4C JUMPI DUP1 PUSH2 0xA38 DUP9 DUP3 PUSH2 0x91F JUMP JUMPDEST DUP5 MSTORE PUSH1 0x20 DUP5 ADD SWAP4 POP POP PUSH1 0x20 DUP2 ADD SWAP1 POP PUSH2 0xA25 JUMP JUMPDEST POP POP POP SWAP4 SWAP3 POP POP POP JUMP JUMPDEST PUSH0 DUP3 PUSH1 0x1F DUP4 ADD SLT PUSH2 0xA6A JUMPI PUSH2 0xA69 PUSH2 0x933 JUMP JUMPDEST JUMPDEST DUP2 CALLDATALOAD PUSH2 0xA7A DUP5 DUP3 PUSH1 0x20 DUP7 ADD PUSH2 0x9EE JUMP JUMPDEST SWAP2 POP POP SWAP3 SWAP2 POP POP JUMP JUMPDEST PUSH0 DUP1 PUSH1 0x40 DUP4 DUP6 SUB SLT ISZERO PUSH2 0xA99 JUMPI PUSH2 0xA98 PUSH2 0x8F8 JUMP JUMPDEST JUMPDEST PUSH0 PUSH2 0xAA6 DUP6 DUP3 DUP7 ADD PUSH2 0x91F JUMP JUMPDEST SWAP3 POP POP PUSH1 0x20 DUP4 ADD CALLDATALOAD PUSH8 0xFFFFFFFFFFFFFFFF DUP2 GT ISZERO PUSH2 0xAC7 JUMPI PUSH2 0xAC6 PUSH2 0x8FC JUMP JUMPDEST JUMPDEST PUSH2 0xAD3 DUP6 DUP3 DUP7 ADD PUSH2 0xA56 JUMP JUMPDEST SWAP2 POP POP SWAP3 POP SWAP3 SWAP1 POP JUMP JUMPDEST PUSH0 DUP1 PUSH0 PUSH1 0x60 DUP5 DUP7 SUB SLT ISZERO PUSH2 0xAF4 JUMPI PUSH2 0xAF3 PUSH2 0x8F8 JUMP JUMPDEST JUMPDEST PUSH0 PUSH2 0xB01 DUP7 DUP3 DUP8 ADD PUSH2 0x91F JUMP JUMPDEST SWAP4 POP POP PUSH1 0x20 PUSH2 0xB12 DUP7 DUP3 DUP8 ADD PUSH2 0x91F JUMP JUMPDEST SWAP3 POP POP PUSH1 0x40 PUSH2 0xB23 DUP7 DUP3 DUP8 ADD PUSH2 0x91F JUMP JUMPDEST SWAP2 POP POP SWAP3 POP SWAP3 POP SWAP3 JUMP JUMPDEST PUSH2 0xB36 DUP2 PUSH2 0x900 JUMP JUMPDEST DUP3 MSTORE POP POP JUMP JUMPDEST PUSH0 PUSH1 0x20 DUP3 ADD SWAP1 POP PUSH2 0xB4F PUSH0 DUP4 ADD DUP5 PUSH2 0xB2D JUMP JUMPDEST SWAP3 SWAP2 POP POP JUMP JUMPDEST PUSH0 PUSH20 0xFFFFFFFFFFFFFFFFFFFFFFFFFFFFFFFFFFFFFFFF DUP3 AND SWAP1 POP SWAP2 SWAP1 POP JUMP JUMPDEST PUSH0 PUSH2 0xB7E DUP3 PUSH2 0xB55 JUMP JUMPDEST SWAP1 POP SWAP2 SWAP1 POP JUMP JUMPDEST PUSH2 0xB8E DUP2 PUSH2 0xB74 JUMP JUMPDEST DUP3 MSTORE POP POP JUMP JUMPDEST PUSH0 PUSH1 0x20 DUP3 ADD SWAP1 POP PUSH2 0xBA7 PUSH0 DUP4 ADD DUP5 PUSH2 0xB85 JUMP JUMPDEST SWAP3 SWAP2 POP POP JUMP JUMPDEST PUSH2 0xBB6 DUP2 PUSH2 0xB74 JUMP JUMPDEST DUP2 EQ PUSH2 0xBC0 JUMPI PUSH0 DUP1 REVERT JUMPDEST POP JUMP JUMPDEST PUSH0 DUP2 CALLDATALOAD SWAP1 POP PUSH2 0xBD1 DUP2 PUSH2 0xBAD JUMP JUMPDEST SWAP3 SWAP2 POP POP JUMP JUMPDEST PUSH0 PUSH1 0x20 DUP3 DUP5 SUB SLT ISZERO PUSH2 0xBEC JUMPI PUSH2 0xBEB PUSH2 0x8F8 JUMP JUMPDEST JUMPDEST PUSH0 PUSH2 0xBF9 DUP5 DUP3 DUP6 ADD PUSH2 0xBC3 JUMP JUMPDEST SWAP2 POP POP SWAP3 SWAP2 POP POP JUMP JUMPDEST PUSH0 DUP3 DUP3 MSTORE PUSH1 0x20 DUP3 ADD SWAP1 POP SWAP3 SWAP2 POP POP JUMP JUMPDEST PUSH32 0x6F6E6C792056524620563220777261707065722063616E2066756C66696C6C00 PUSH0 DUP3 ADD MSTORE POP JUMP JUMPDEST PUSH0 PUSH2 0xC46 PUSH1 0x1F DUP4 PUSH2 0xC02 JUMP JUMPDEST SWAP2 POP PUSH2 0xC51 DUP3 PUSH2 0xC12 JUMP JUMPDEST PUSH1 0x20 DUP3 ADD SWAP1 POP SWAP2 SWAP1 POP JUMP JUMPDEST PUSH0 PUSH1 0x20 DUP3 ADD SWAP1 POP DUP2 DUP2 SUB PUSH0 DUP4 ADD MSTORE PUSH2 0xC73 DUP2 PUSH2 0xC3A JUMP JUMPDEST SWAP1 POP SWAP2 SWAP1 POP JUMP JUMPDEST PUSH32 0x4D7573742062652070726F706F736564206F776E657200000000000000000000 PUSH0 DUP3 ADD MSTORE POP JUMP JUMPDEST PUSH0 PUSH2 0xCAE PUSH1 0x16 DUP4 PUSH2 0xC02 JUMP JUMPDEST SWAP2 POP PUSH2 0xCB9 DUP3 PUSH2 0xC7A JUMP JUMPDEST PUSH1 0x20 DUP3 ADD SWAP1 POP SWAP2 SWAP1 POP JUMP JUMPDEST PUSH0 PUSH1 0x20 DUP3 ADD SWAP1 POP DUP2 DUP2 SUB PUSH0 DUP4 ADD MSTORE PUSH2 0xCDB DUP2 PUSH2 0xCA2 JUMP JUMPDEST SWAP1 POP SWAP2 SWAP1 POP JUMP JUMPDEST PUSH32 0x4F6E6C792063616C6C61626C65206279206F776E657200000000000000000000 PUSH0 DUP3 ADD MSTORE POP JUMP JUMPDEST PUSH0 PUSH2 0xD16 PUSH1 0x16 DUP4 PUSH2 0xC02 JUMP JUMPDEST SWAP2 POP PUSH2 0xD21 DUP3 PUSH2 0xCE2 JUMP JUMPDEST PUSH1 0x20 DUP3 ADD SWAP1 POP SWAP2 SWAP1 POP JUMP JUMPDEST PUSH0 PUSH1 0x20 DUP3 ADD SWAP1 POP DUP2 DUP2 SUB PUSH0 DUP4 ADD MSTORE PUSH2 0xD43 DUP2 PUSH2 0xD0A JUMP JUMPDEST SWAP1 POP SWAP2 SWAP1 POP JUMP JUMPDEST PUSH0 PUSH4 0xFFFFFFFF DUP3 AND SWAP1 POP SWAP2 SWAP1 POP JUMP JUMPDEST PUSH2 0xD62 DUP2 PUSH2 0xD4A JUMP JUMPDEST DUP3 MSTORE POP POP JUMP JUMPDEST PUSH0 PUSH1 0x20 DUP3 ADD SWAP1 POP PUSH2 0xD7B PUSH0 DUP4 ADD DUP5 PUSH2 0xD59 JUMP JUMPDEST SWAP3 SWAP2 POP POP JUMP JUMPDEST PUSH0 DUP2 MLOAD SWAP1 POP PUSH2 0xD8F DUP2 PUSH2 0x909 JUMP JUMPDEST SWAP3 SWAP2 POP POP JUMP JUMPDEST PUSH0 PUSH1 0x20 DUP3 DUP5 SUB SLT ISZERO PUSH2 0xDAA JUMPI PUSH2 0xDA9 PUSH2 0x8F8 JUMP JUMPDEST JUMPDEST PUSH0 PUSH2 0xDB7 DUP5 DUP3 DUP6 ADD PUSH2 0xD81 JUMP JUMPDEST SWAP2 POP POP SWAP3 SWAP2 POP POP JUMP JUMPDEST PUSH0 PUSH2 0xFFFF DUP3 AND SWAP1 POP SWAP2 SWAP1 POP JUMP JUMPDEST PUSH2 0xDD6 DUP2 PUSH2 0xDC0 JUMP JUMPDEST DUP3 MSTORE POP POP JUMP JUMPDEST PUSH0 PUSH1 0x60 DUP3 ADD SWAP1 POP PUSH2 0xDEF PUSH0 DUP4 ADD DUP7 PUSH2 0xD59 JUMP JUMPDEST PUSH2 0xDFC PUSH1 0x20 DUP4 ADD DUP6 PUSH2 0xDCD JUMP JUMPDEST PUSH2 0xE09 PUSH1 0x40 DUP4 ADD DUP5 PUSH2 0xD59 JUMP JUMPDEST SWAP5 SWAP4 POP POP POP POP JUMP JUMPDEST PUSH0 DUP2 MLOAD SWAP1 POP SWAP2 SWAP1 POP JUMP JUMPDEST PUSH0 DUP3 DUP3 MSTORE PUSH1 0x20 DUP3 ADD SWAP1 POP SWAP3 SWAP2 POP POP JUMP JUMPDEST PUSH0 JUMPDEST DUP4 DUP2 LT ISZERO PUSH2 0xE48 JUMPI DUP1 DUP3 ADD MLOAD DUP2 DUP5 ADD MSTORE PUSH1 0x20 DUP2 ADD SWAP1 POP PUSH2 0xE2D JUMP JUMPDEST PUSH0 DUP5 DUP5 ADD MSTORE POP POP POP POP JUMP JUMPDEST PUSH0 PUSH2 0xE5D DUP3 PUSH2 0xE11 JUMP JUMPDEST PUSH2 0xE67 DUP2 DUP6 PUSH2 0xE1B JUMP JUMPDEST SWAP4 POP PUSH2 0xE77 DUP2 DUP6 PUSH1 0x20 DUP7 ADD PUSH2 0xE2B JUMP JUMPDEST PUSH2 0xE80 DUP2 PUSH2 0x937 JUMP JUMPDEST DUP5 ADD SWAP2 POP POP SWAP3 SWAP2 POP POP JUMP JUMPDEST PUSH0 PUSH1 0x60 DUP3 ADD SWAP1 POP PUSH2 0xE9E PUSH0 DUP4 ADD DUP7 PUSH2 0xB85 JUMP JUMPDEST PUSH2 0xEAB PUSH1 0x20 DUP4 ADD DUP6 PUSH2 0xB2D JUMP JUMPDEST DUP2 DUP2 SUB PUSH1 0x40 DUP4 ADD MSTORE PUSH2 0xEBD DUP2 DUP5 PUSH2 0xE53 JUMP JUMPDEST SWAP1 POP SWAP5 SWAP4 POP POP POP POP JUMP JUMPDEST PUSH0 DUP2 ISZERO ISZERO SWAP1 POP SWAP2 SWAP1 POP JUMP JUMPDEST PUSH2 0xEDB DUP2 PUSH2 0xEC7 JUMP JUMPDEST DUP2 EQ PUSH2 0xEE5 JUMPI PUSH0 DUP1 REVERT JUMPDEST POP JUMP JUMPDEST PUSH0 DUP2 MLOAD SWAP1 POP PUSH2 0xEF6 DUP2 PUSH2 0xED2 JUMP JUMPDEST SWAP3 SWAP2 POP POP JUMP JUMPDEST PUSH0 PUSH1 0x20 DUP3 DUP5 SUB SLT ISZERO PUSH2 0xF11 JUMPI PUSH2 0xF10 PUSH2 0x8F8 JUMP JUMPDEST JUMPDEST PUSH0 PUSH2 0xF1E DUP5 DUP3 DUP6 ADD PUSH2 0xEE8 JUMP JUMPDEST SWAP2 POP POP SWAP3 SWAP2 POP POP JUMP JUMPDEST PUSH32 0x43616E6E6F74207472616E7366657220746F2073656C66000000000000000000 PUSH0 DUP3 ADD MSTORE POP JUMP JUMPDEST PUSH0 PUSH2 0xF5B PUSH1 0x17 DUP4 PUSH2 0xC02 JUMP JUMPDEST SWAP2 POP PUSH2 0xF66 DUP3 PUSH2 0xF27 JUMP JUMPDEST PUSH1 0x20 DUP3 ADD SWAP1 POP SWAP2 SWAP1 POP JUMP JUMPDEST PUSH0 PUSH1 0x20 DUP3 ADD SWAP1 POP DUP2 DUP2 SUB PUSH0 DUP4 ADD MSTORE PUSH2 0xF88 DUP2 PUSH2 0xF4F JUMP JUMPDEST SWAP1 POP SWAP2 SWAP1 POP JUMP INVALID LOG2 PUSH5 0x6970667358 0x22 SLT KECCAK256 PUSH28 0x9B2C6A08E58BF68E0D79DD8AD469175517063DD2AF323CBD822ECE35 0xC9 LOG4 0xB0 PUSH5 0x736F6C6343 STOP ADDMOD XOR STOP CALLER "
				},
				"gasEstimates": {
					"creation": {
						"codeDepositCost": "807400",
						"executionCost": "infinite",
						"totalCost": "infinite"
					},
					"external": {
						"acceptOwnership()": "54555",
						"owner()": "2559",
						"rawFulfillRandomWords(uint256,uint256[])": "infinite",
						"requestRandomWords(uint256,uint256,uint256)": "infinite",
						"transferOwnership(address)": "30711"
					},
					"internal": {
						"fulfillRandomWords(uint256,uint256[] memory)": "infinite"
					}
				},
				"methodIdentifiers": {
					"acceptOwnership()": "79ba5097",
					"owner()": "8da5cb5b",
					"rawFulfillRandomWords(uint256,uint256[])": "1fe543e3",
					"requestRandomWords(uint256,uint256,uint256)": "32601f64",
					"transferOwnership(address)": "f2fde38b"
				}
			},
			"storageLayout": {
				"storage": [
					{
						"astId": 54,
						"contract": "contracts/getRandom.sol:RandomNumber",
						"label": "s_owner",
						"offset": 0,
						"slot": "0",
						"type": "t_address"
					},
					{
						"astId": 56,
						"contract": "contracts/getRandom.sol:RandomNumber",
						"label": "s_pendingOwner",
						"offset": 0,
						"slot": "1",
						"type": "t_address"
					},
					{
						"astId": 452,
						"contract": "contracts/getRandom.sol:RandomNumber",
						"label": "requestIds",
						"offset": 0,
						"slot": "2",
						"type": "t_array(t_uint256)dyn_storage"
					},
					{
						"astId": 468,
						"contract": "contracts/getRandom.sol:RandomNumber",
						"label": "requestIdToNumbers",
						"offset": 0,
						"slot": "3",
						"type": "t_mapping(t_uint256,t_struct(randomNumbers)463_storage)"
					}
				],
				"types": {
					"t_address": {
						"encoding": "inplace",
						"label": "address",
						"numberOfBytes": "20"
					},
					"t_array(t_uint256)dyn_storage": {
						"base": "t_uint256",
						"encoding": "dynamic_array",
						"label": "uint256[]",
						"numberOfBytes": "32"
					},
					"t_bool": {
						"encoding": "inplace",
						"label": "bool",
						"numberOfBytes": "1"
					},
					"t_mapping(t_uint256,t_struct(randomNumbers)463_storage)": {
						"encoding": "mapping",
						"key": "t_uint256",
						"label": "mapping(uint256 => struct RandomNumber.randomNumbers)",
						"numberOfBytes": "32",
						"value": "t_struct(randomNumbers)463_storage"
					},
					"t_struct(randomNumbers)463_storage": {
						"encoding": "inplace",
						"label": "struct RandomNumber.randomNumbers",
						"members": [
							{
								"astId": 454,
								"contract": "contracts/getRandom.sol:RandomNumber",
								"label": "requestID",
								"offset": 0,
								"slot": "0",
								"type": "t_uint256"
							},
							{
								"astId": 457,
								"contract": "contracts/getRandom.sol:RandomNumber",
								"label": "prizes",
								"offset": 0,
								"slot": "1",
								"type": "t_array(t_uint256)dyn_storage"
							},
							{
								"astId": 460,
								"contract": "contracts/getRandom.sol:RandomNumber",
								"label": "numbers",
								"offset": 0,
								"slot": "2",
								"type": "t_array(t_uint256)dyn_storage"
							},
							{
								"astId": 462,
								"contract": "contracts/getRandom.sol:RandomNumber",
								"label": "fulfilled",
								"offset": 0,
								"slot": "3",
								"type": "t_bool"
							}
						],
						"numberOfBytes": "128"
					},
					"t_uint256": {
						"encoding": "inplace",
						"label": "uint256",
						"numberOfBytes": "32"
					}
				}
			},
			"userdoc": {
				"kind": "user",
				"methods": {
					"acceptOwnership()": {
						"notice": "Allows an ownership transfer to be completed by the recipient."
					},
					"owner()": {
						"notice": "Get the current owner"
					},
					"transferOwnership(address)": {
						"notice": "Allows an owner to begin transferring ownership to a new address, pending."
					}
				},
				"version": 1
			}
		}
	}
}