{
	"contracts/myProfit.sol": {
		"myProfit": {
			"abi": [
				{
					"inputs": [
						{
							"internalType": "address",
							"name": "_creator",
							"type": "address"
						}
					],
					"stateMutability": "nonpayable",
					"type": "constructor"
				},
				{
					"inputs": [],
					"name": "creatorContract",
					"outputs": [
						{
							"internalType": "address",
							"name": "",
							"type": "address"
						}
					],
					"stateMutability": "view",
					"type": "function"
				},
				{
					"inputs": [],
					"name": "withdrawMyProfit",
					"outputs": [],
					"stateMutability": "payable",
					"type": "function"
				}
			],
			"devdoc": {
				"kind": "dev",
				"methods": {},
				"version": 1
			},
			"evm": {
				"assembly": "    /* \"contracts/myProfit.sol\":63:639  contract myProfit {... */\n  mstore(0x40, 0xc0)\n    /* \"contracts/myProfit.sol\":171:277  constructor(address _creator) {... */\n  callvalue\n  dup1\n  iszero\n  tag_1\n  jumpi\n  0x00\n  dup1\n  revert\ntag_1:\n  pop\n  mload(0x40)\n  sub(codesize, bytecodeSize)\n  dup1\n  bytecodeSize\n  dup4\n  codecopy\n  dup2\n  dup2\n  add\n  0x40\n  mstore\n  dup2\n  add\n  swap1\n  tag_2\n  swap2\n  swap1\n  tag_3\n  jump\t// in\ntag_2:\n    /* \"contracts/myProfit.sol\":230:240  msg.sender */\n  caller\n    /* \"contracts/myProfit.sol\":212:240  creatorContract = msg.sender */\n  0xffffffffffffffffffffffffffffffffffffffff\n  and\n  0x80\n  dup2\n  0xffffffffffffffffffffffffffffffffffffffff\n  and\n  dup2\n  mstore\n  pop\n  pop\n    /* \"contracts/myProfit.sol\":261:269  _creator */\n  dup1\n    /* \"contracts/myProfit.sol\":251:269  creator = _creator */\n  0xffffffffffffffffffffffffffffffffffffffff\n  and\n  0xa0\n  dup2\n  0xffffffffffffffffffffffffffffffffffffffff\n  and\n  dup2\n  mstore\n  pop\n  pop\n    /* \"contracts/myProfit.sol\":171:277  constructor(address _creator) {... */\n  pop\n    /* \"contracts/myProfit.sol\":63:639  contract myProfit {... */\n  jump(tag_6)\n    /* \"#utility.yul\":88:205   */\ntag_8:\n    /* \"#utility.yul\":197:198   */\n  0x00\n    /* \"#utility.yul\":194:195   */\n  dup1\n    /* \"#utility.yul\":187:199   */\n  revert\n    /* \"#utility.yul\":334:460   */\ntag_10:\n    /* \"#utility.yul\":371:378   */\n  0x00\n    /* \"#utility.yul\":411:453   */\n  0xffffffffffffffffffffffffffffffffffffffff\n    /* \"#utility.yul\":404:409   */\n  dup3\n    /* \"#utility.yul\":400:454   */\n  and\n    /* \"#utility.yul\":389:454   */\n  swap1\n  pop\n    /* \"#utility.yul\":334:460   */\n  swap2\n  swap1\n  pop\n  jump\t// out\n    /* \"#utility.yul\":466:562   */\ntag_11:\n    /* \"#utility.yul\":503:510   */\n  0x00\n    /* \"#utility.yul\":532:556   */\n  tag_20\n    /* \"#utility.yul\":550:555   */\n  dup3\n    /* \"#utility.yul\":532:556   */\n  tag_10\n  jump\t// in\ntag_20:\n    /* \"#utility.yul\":521:556   */\n  swap1\n  pop\n    /* \"#utility.yul\":466:562   */\n  swap2\n  swap1\n  pop\n  jump\t// out\n    /* \"#utility.yul\":568:690   */\ntag_12:\n    /* \"#utility.yul\":641:665   */\n  tag_22\n    /* \"#utility.yul\":659:664   */\n  dup2\n    /* \"#utility.yul\":641:665   */\n  tag_11\n  jump\t// in\ntag_22:\n    /* \"#utility.yul\":634:639   */\n  dup2\n    /* \"#utility.yul\":631:666   */\n  eq\n    /* \"#utility.yul\":621:684   */\n  tag_23\n  jumpi\n    /* \"#utility.yul\":680:681   */\n  0x00\n    /* \"#utility.yul\":677:678   */\n  dup1\n    /* \"#utility.yul\":670:682   */\n  revert\n    /* \"#utility.yul\":621:684   */\ntag_23:\n    /* \"#utility.yul\":568:690   */\n  pop\n  jump\t// out\n    /* \"#utility.yul\":696:839   */\ntag_13:\n    /* \"#utility.yul\":753:758   */\n  0x00\n    /* \"#utility.yul\":784:790   */\n  dup2\n    /* \"#utility.yul\":778:791   */\n  mload\n    /* \"#utility.yul\":769:791   */\n  swap1\n  pop\n    /* \"#utility.yul\":800:833   */\n  tag_25\n    /* \"#utility.yul\":827:832   */\n  dup2\n    /* \"#utility.yul\":800:833   */\n  tag_12\n  jump\t// in\ntag_25:\n    /* \"#utility.yul\":696:839   */\n  swap3\n  swap2\n  pop\n  pop\n  jump\t// out\n    /* \"#utility.yul\":845:1196   */\ntag_3:\n    /* \"#utility.yul\":915:921   */\n  0x00\n    /* \"#utility.yul\":964:966   */\n  0x20\n    /* \"#utility.yul\":952:961   */\n  dup3\n    /* \"#utility.yul\":943:950   */\n  dup5\n    /* \"#utility.yul\":939:962   */\n  sub\n    /* \"#utility.yul\":935:967   */\n  slt\n    /* \"#utility.yul\":932:1051   */\n  iszero\n  tag_27\n  jumpi\n    /* \"#utility.yul\":970:1049   */\n  tag_28\n  tag_8\n  jump\t// in\ntag_28:\n    /* \"#utility.yul\":932:1051   */\ntag_27:\n    /* \"#utility.yul\":1090:1091   */\n  0x00\n    /* \"#utility.yul\":1115:1179   */\n  tag_29\n    /* \"#utility.yul\":1171:1178   */\n  dup5\n    /* \"#utility.yul\":1162:1168   */\n  dup3\n    /* \"#utility.yul\":1151:1160   */\n  dup6\n    /* \"#utility.yul\":1147:1169   */\n  add\n    /* \"#utility.yul\":1115:1179   */\n  tag_13\n  jump\t// in\ntag_29:\n    /* \"#utility.yul\":1105:1179   */\n  swap2\n  pop\n    /* \"#utility.yul\":1061:1189   */\n  pop\n    /* \"#utility.yul\":845:1196   */\n  swap3\n  swap2\n  pop\n  pop\n  jump\t// out\n    /* \"contracts/myProfit.sol\":63:639  contract myProfit {... */\ntag_6:\n  mload(0x80)\n  mload(0xa0)\n  codecopy(0x00, dataOffset(sub_0), dataSize(sub_0))\n  0x00\n  assignImmutable(\"0xceebf77a833b30520287ddd9478ff51abbdffa30aa90a8d655dba0e8a79ce0c1\")\n  0x00\n  assignImmutable(\"0x2a80e1ef1d7842f27f2e6be0972bb708b9a135c38860dbe73c27c3486c34f4de\")\n  return(0x00, dataSize(sub_0))\nstop\n\nsub_0: assembly {\n        /* \"contracts/myProfit.sol\":63:639  contract myProfit {... */\n      mstore(0x40, 0x80)\n      jumpi(tag_1, lt(calldatasize, 0x04))\n      shr(0xe0, calldataload(0x00))\n      dup1\n      0x37587b72\n      eq\n      tag_2\n      jumpi\n      dup1\n      0x3dae35ce\n      eq\n      tag_3\n      jumpi\n    tag_1:\n      0x00\n      dup1\n      revert\n        /* \"contracts/myProfit.sol\":285:508  function withdrawMyProfit() public onlyOwner payable {... */\n    tag_2:\n      tag_4\n      tag_5\n      jump\t// in\n    tag_4:\n      stop\n        /* \"contracts/myProfit.sol\":90:130  address public immutable creatorContract */\n    tag_3:\n      callvalue\n      dup1\n      iszero\n      tag_6\n      jumpi\n      0x00\n      dup1\n      revert\n    tag_6:\n      pop\n      tag_7\n      tag_8\n      jump\t// in\n    tag_7:\n      mload(0x40)\n      tag_9\n      swap2\n      swap1\n      tag_10\n      jump\t// in\n    tag_9:\n      mload(0x40)\n      dup1\n      swap2\n      sub\n      swap1\n      return\n        /* \"contracts/myProfit.sol\":285:508  function withdrawMyProfit() public onlyOwner payable {... */\n    tag_5:\n        /* \"contracts/myProfit.sol\":570:577  creator */\n      immutable(\"0xceebf77a833b30520287ddd9478ff51abbdffa30aa90a8d655dba0e8a79ce0c1\")\n        /* \"contracts/myProfit.sol\":556:577  msg.sender == creator */\n      0xffffffffffffffffffffffffffffffffffffffff\n      and\n        /* \"contracts/myProfit.sol\":556:566  msg.sender */\n      caller\n        /* \"contracts/myProfit.sol\":556:577  msg.sender == creator */\n      0xffffffffffffffffffffffffffffffffffffffff\n      and\n      eq\n        /* \"contracts/myProfit.sol\":548:616  require(msg.sender == creator, \"Not Allowed! You are not the owner\") */\n      tag_12\n      jumpi\n      mload(0x40)\n      0x08c379a000000000000000000000000000000000000000000000000000000000\n      dup2\n      mstore\n      0x04\n      add\n      tag_13\n      swap1\n      tag_14\n      jump\t// in\n    tag_13:\n      mload(0x40)\n      dup1\n      swap2\n      sub\n      swap1\n      revert\n    tag_12:\n        /* \"contracts/myProfit.sol\":350:366  bool callSuccess */\n      0x00\n        /* \"contracts/myProfit.sol\":380:390  msg.sender */\n      caller\n        /* \"contracts/myProfit.sol\":372:396  payable(msg.sender).call */\n      0xffffffffffffffffffffffffffffffffffffffff\n      and\n        /* \"contracts/myProfit.sol\":418:439  address(this).balance */\n      selfbalance\n        /* \"contracts/myProfit.sol\":372:454  payable(msg.sender).call{... */\n      mload(0x40)\n      tag_16\n      swap1\n      tag_17\n      jump\t// in\n    tag_16:\n      0x00\n      mload(0x40)\n      dup1\n      dup4\n      sub\n      dup2\n      dup6\n      dup8\n      gas\n      call\n      swap3\n      pop\n      pop\n      pop\n      returndatasize\n      dup1\n      0x00\n      dup2\n      eq\n      tag_20\n      jumpi\n      mload(0x40)\n      swap2\n      pop\n      and(add(returndatasize, 0x3f), not(0x1f))\n      dup3\n      add\n      0x40\n      mstore\n      returndatasize\n      dup3\n      mstore\n      returndatasize\n      0x00\n      0x20\n      dup5\n      add\n      returndatacopy\n      jump(tag_19)\n    tag_20:\n      0x60\n      swap2\n      pop\n    tag_19:\n      pop\n        /* \"contracts/myProfit.sol\":349:454  (bool callSuccess, ) = payable(msg.sender).call{... */\n      pop\n      swap1\n      pop\n        /* \"contracts/myProfit.sol\":473:484  callSuccess */\n      dup1\n        /* \"contracts/myProfit.sol\":465:500  require(callSuccess, \"Call Failed\") */\n      tag_21\n      jumpi\n      mload(0x40)\n      0x08c379a000000000000000000000000000000000000000000000000000000000\n      dup2\n      mstore\n      0x04\n      add\n      tag_22\n      swap1\n      tag_23\n      jump\t// in\n    tag_22:\n      mload(0x40)\n      dup1\n      swap2\n      sub\n      swap1\n      revert\n    tag_21:\n        /* \"contracts/myProfit.sol\":338:508  {... */\n      pop\n        /* \"contracts/myProfit.sol\":285:508  function withdrawMyProfit() public onlyOwner payable {... */\n      jump\t// out\n        /* \"contracts/myProfit.sol\":90:130  address public immutable creatorContract */\n    tag_8:\n      immutable(\"0x2a80e1ef1d7842f27f2e6be0972bb708b9a135c38860dbe73c27c3486c34f4de\")\n      dup2\n      jump\t// out\n        /* \"#utility.yul\":7:133   */\n    tag_24:\n        /* \"#utility.yul\":44:51   */\n      0x00\n        /* \"#utility.yul\":84:126   */\n      0xffffffffffffffffffffffffffffffffffffffff\n        /* \"#utility.yul\":77:82   */\n      dup3\n        /* \"#utility.yul\":73:127   */\n      and\n        /* \"#utility.yul\":62:127   */\n      swap1\n      pop\n        /* \"#utility.yul\":7:133   */\n      swap2\n      swap1\n      pop\n      jump\t// out\n        /* \"#utility.yul\":139:235   */\n    tag_25:\n        /* \"#utility.yul\":176:183   */\n      0x00\n        /* \"#utility.yul\":205:229   */\n      tag_38\n        /* \"#utility.yul\":223:228   */\n      dup3\n        /* \"#utility.yul\":205:229   */\n      tag_24\n      jump\t// in\n    tag_38:\n        /* \"#utility.yul\":194:229   */\n      swap1\n      pop\n        /* \"#utility.yul\":139:235   */\n      swap2\n      swap1\n      pop\n      jump\t// out\n        /* \"#utility.yul\":241:359   */\n    tag_26:\n        /* \"#utility.yul\":328:352   */\n      tag_40\n        /* \"#utility.yul\":346:351   */\n      dup2\n        /* \"#utility.yul\":328:352   */\n      tag_25\n      jump\t// in\n    tag_40:\n        /* \"#utility.yul\":323:326   */\n      dup3\n        /* \"#utility.yul\":316:353   */\n      mstore\n        /* \"#utility.yul\":241:359   */\n      pop\n      pop\n      jump\t// out\n        /* \"#utility.yul\":365:587   */\n    tag_10:\n        /* \"#utility.yul\":458:462   */\n      0x00\n        /* \"#utility.yul\":496:498   */\n      0x20\n        /* \"#utility.yul\":485:494   */\n      dup3\n        /* \"#utility.yul\":481:499   */\n      add\n        /* \"#utility.yul\":473:499   */\n      swap1\n      pop\n        /* \"#utility.yul\":509:580   */\n      tag_42\n        /* \"#utility.yul\":577:578   */\n      0x00\n        /* \"#utility.yul\":566:575   */\n      dup4\n        /* \"#utility.yul\":562:579   */\n      add\n        /* \"#utility.yul\":553:559   */\n      dup5\n        /* \"#utility.yul\":509:580   */\n      tag_26\n      jump\t// in\n    tag_42:\n        /* \"#utility.yul\":365:587   */\n      swap3\n      swap2\n      pop\n      pop\n      jump\t// out\n        /* \"#utility.yul\":593:762   */\n    tag_27:\n        /* \"#utility.yul\":677:688   */\n      0x00\n        /* \"#utility.yul\":711:717   */\n      dup3\n        /* \"#utility.yul\":706:709   */\n      dup3\n        /* \"#utility.yul\":699:718   */\n      mstore\n        /* \"#utility.yul\":751:755   */\n      0x20\n        /* \"#utility.yul\":746:749   */\n      dup3\n        /* \"#utility.yul\":742:756   */\n      add\n        /* \"#utility.yul\":727:756   */\n      swap1\n      pop\n        /* \"#utility.yul\":593:762   */\n      swap3\n      swap2\n      pop\n      pop\n      jump\t// out\n        /* \"#utility.yul\":768:989   */\n    tag_28:\n        /* \"#utility.yul\":908:942   */\n      0x4e6f7420416c6c6f7765642120596f7520617265206e6f7420746865206f776e\n        /* \"#utility.yul\":904:905   */\n      0x00\n        /* \"#utility.yul\":896:902   */\n      dup3\n        /* \"#utility.yul\":892:906   */\n      add\n        /* \"#utility.yul\":885:943   */\n      mstore\n        /* \"#utility.yul\":977:981   */\n      0x6572000000000000000000000000000000000000000000000000000000000000\n        /* \"#utility.yul\":972:974   */\n      0x20\n        /* \"#utility.yul\":964:970   */\n      dup3\n        /* \"#utility.yul\":960:975   */\n      add\n        /* \"#utility.yul\":953:982   */\n      mstore\n        /* \"#utility.yul\":768:989   */\n      pop\n      jump\t// out\n        /* \"#utility.yul\":995:1361   */\n    tag_29:\n        /* \"#utility.yul\":1137:1140   */\n      0x00\n        /* \"#utility.yul\":1158:1225   */\n      tag_46\n        /* \"#utility.yul\":1222:1224   */\n      0x22\n        /* \"#utility.yul\":1217:1220   */\n      dup4\n        /* \"#utility.yul\":1158:1225   */\n      tag_27\n      jump\t// in\n    tag_46:\n        /* \"#utility.yul\":1151:1225   */\n      swap2\n      pop\n        /* \"#utility.yul\":1234:1327   */\n      tag_47\n        /* \"#utility.yul\":1323:1326   */\n      dup3\n        /* \"#utility.yul\":1234:1327   */\n      tag_28\n      jump\t// in\n    tag_47:\n        /* \"#utility.yul\":1352:1354   */\n      0x40\n        /* \"#utility.yul\":1347:1350   */\n      dup3\n        /* \"#utility.yul\":1343:1355   */\n      add\n        /* \"#utility.yul\":1336:1355   */\n      swap1\n      pop\n        /* \"#utility.yul\":995:1361   */\n      swap2\n      swap1\n      pop\n      jump\t// out\n        /* \"#utility.yul\":1367:1786   */\n    tag_14:\n        /* \"#utility.yul\":1533:1537   */\n      0x00\n        /* \"#utility.yul\":1571:1573   */\n      0x20\n        /* \"#utility.yul\":1560:1569   */\n      dup3\n        /* \"#utility.yul\":1556:1574   */\n      add\n        /* \"#utility.yul\":1548:1574   */\n      swap1\n      pop\n        /* \"#utility.yul\":1620:1629   */\n      dup2\n        /* \"#utility.yul\":1614:1618   */\n      dup2\n        /* \"#utility.yul\":1610:1630   */\n      sub\n        /* \"#utility.yul\":1606:1607   */\n      0x00\n        /* \"#utility.yul\":1595:1604   */\n      dup4\n        /* \"#utility.yul\":1591:1608   */\n      add\n        /* \"#utility.yul\":1584:1631   */\n      mstore\n        /* \"#utility.yul\":1648:1779   */\n      tag_49\n        /* \"#utility.yul\":1774:1778   */\n      dup2\n        /* \"#utility.yul\":1648:1779   */\n      tag_29\n      jump\t// in\n    tag_49:\n        /* \"#utility.yul\":1640:1779   */\n      swap1\n      pop\n        /* \"#utility.yul\":1367:1786   */\n      swap2\n      swap1\n      pop\n      jump\t// out\n        /* \"#utility.yul\":1792:1939   */\n    tag_30:\n        /* \"#utility.yul\":1893:1904   */\n      0x00\n        /* \"#utility.yul\":1930:1933   */\n      dup2\n        /* \"#utility.yul\":1915:1933   */\n      swap1\n      pop\n        /* \"#utility.yul\":1792:1939   */\n      swap3\n      swap2\n      pop\n      pop\n      jump\t// out\n        /* \"#utility.yul\":1945:2059   */\n    tag_31:\n      pop\n      jump\t// out\n        /* \"#utility.yul\":2065:2463   */\n    tag_32:\n        /* \"#utility.yul\":2224:2227   */\n      0x00\n        /* \"#utility.yul\":2245:2328   */\n      tag_53\n        /* \"#utility.yul\":2326:2327   */\n      0x00\n        /* \"#utility.yul\":2321:2324   */\n      dup4\n        /* \"#utility.yul\":2245:2328   */\n      tag_30\n      jump\t// in\n    tag_53:\n        /* \"#utility.yul\":2238:2328   */\n      swap2\n      pop\n        /* \"#utility.yul\":2337:2430   */\n      tag_54\n        /* \"#utility.yul\":2426:2429   */\n      dup3\n        /* \"#utility.yul\":2337:2430   */\n      tag_31\n      jump\t// in\n    tag_54:\n        /* \"#utility.yul\":2455:2456   */\n      0x00\n        /* \"#utility.yul\":2450:2453   */\n      dup3\n        /* \"#utility.yul\":2446:2457   */\n      add\n        /* \"#utility.yul\":2439:2457   */\n      swap1\n      pop\n        /* \"#utility.yul\":2065:2463   */\n      swap2\n      swap1\n      pop\n      jump\t// out\n        /* \"#utility.yul\":2469:2848   */\n    tag_17:\n        /* \"#utility.yul\":2653:2656   */\n      0x00\n        /* \"#utility.yul\":2675:2822   */\n      tag_56\n        /* \"#utility.yul\":2818:2821   */\n      dup3\n        /* \"#utility.yul\":2675:2822   */\n      tag_32\n      jump\t// in\n    tag_56:\n        /* \"#utility.yul\":2668:2822   */\n      swap2\n      pop\n        /* \"#utility.yul\":2839:2842   */\n      dup2\n        /* \"#utility.yul\":2832:2842   */\n      swap1\n      pop\n        /* \"#utility.yul\":2469:2848   */\n      swap2\n      swap1\n      pop\n      jump\t// out\n        /* \"#utility.yul\":2854:3015   */\n    tag_33:\n        /* \"#utility.yul\":2994:3007   */\n      0x43616c6c204661696c6564000000000000000000000000000000000000000000\n        /* \"#utility.yul\":2990:2991   */\n      0x00\n        /* \"#utility.yul\":2982:2988   */\n      dup3\n        /* \"#utility.yul\":2978:2992   */\n      add\n        /* \"#utility.yul\":2971:3008   */\n      mstore\n        /* \"#utility.yul\":2854:3015   */\n      pop\n      jump\t// out\n        /* \"#utility.yul\":3021:3387   */\n    tag_34:\n        /* \"#utility.yul\":3163:3166   */\n      0x00\n        /* \"#utility.yul\":3184:3251   */\n      tag_59\n        /* \"#utility.yul\":3248:3250   */\n      0x0b\n        /* \"#utility.yul\":3243:3246   */\n      dup4\n        /* \"#utility.yul\":3184:3251   */\n      tag_27\n      jump\t// in\n    tag_59:\n        /* \"#utility.yul\":3177:3251   */\n      swap2\n      pop\n        /* \"#utility.yul\":3260:3353   */\n      tag_60\n        /* \"#utility.yul\":3349:3352   */\n      dup3\n        /* \"#utility.yul\":3260:3353   */\n      tag_33\n      jump\t// in\n    tag_60:\n        /* \"#utility.yul\":3378:3380   */\n      0x20\n        /* \"#utility.yul\":3373:3376   */\n      dup3\n        /* \"#utility.yul\":3369:3381   */\n      add\n        /* \"#utility.yul\":3362:3381   */\n      swap1\n      pop\n        /* \"#utility.yul\":3021:3387   */\n      swap2\n      swap1\n      pop\n      jump\t// out\n        /* \"#utility.yul\":3393:3812   */\n    tag_23:\n        /* \"#utility.yul\":3559:3563   */\n      0x00\n        /* \"#utility.yul\":3597:3599   */\n      0x20\n        /* \"#utility.yul\":3586:3595   */\n      dup3\n        /* \"#utility.yul\":3582:3600   */\n      add\n        /* \"#utility.yul\":3574:3600   */\n      swap1\n      pop\n        /* \"#utility.yul\":3646:3655   */\n      dup2\n        /* \"#utility.yul\":3640:3644   */\n      dup2\n        /* \"#utility.yul\":3636:3656   */\n      sub\n        /* \"#utility.yul\":3632:3633   */\n      0x00\n        /* \"#utility.yul\":3621:3630   */\n      dup4\n        /* \"#utility.yul\":3617:3634   */\n      add\n        /* \"#utility.yul\":3610:3657   */\n      mstore\n        /* \"#utility.yul\":3674:3805   */\n      tag_62\n        /* \"#utility.yul\":3800:3804   */\n      dup2\n        /* \"#utility.yul\":3674:3805   */\n      tag_34\n      jump\t// in\n    tag_62:\n        /* \"#utility.yul\":3666:3805   */\n      swap1\n      pop\n        /* \"#utility.yul\":3393:3812   */\n      swap2\n      swap1\n      pop\n      jump\t// out\n\n    auxdata: 0xa2646970667358221220142b10d162c45d69711abe4f8810136edc3a9e971c8d6b910be924aec3b95ea464736f6c63430008180033\n}\n",
				"bytecode": {
					"linkReferences": {},
					"object": "60c060405234801561000f575f80fd5b506040516104da3803806104da833981810160405281019061003191906100fd565b3373ffffffffffffffffffffffffffffffffffffffff1660808173ffffffffffffffffffffffffffffffffffffffff16815250508073ffffffffffffffffffffffffffffffffffffffff1660a08173ffffffffffffffffffffffffffffffffffffffff168152505050610128565b5f80fd5b5f73ffffffffffffffffffffffffffffffffffffffff82169050919050565b5f6100cc826100a3565b9050919050565b6100dc816100c2565b81146100e6575f80fd5b50565b5f815190506100f7816100d3565b92915050565b5f602082840312156101125761011161009f565b5b5f61011f848285016100e9565b91505092915050565b60805160a0516103926101485f395f606201525f61019b01526103925ff3fe608060405260043610610028575f3560e01c806337587b721461002c5780633dae35ce14610036575b5f80fd5b610034610060565b005b348015610041575f80fd5b5061004a610199565b60405161005791906101fc565b60405180910390f35b7f000000000000000000000000000000000000000000000000000000000000000073ffffffffffffffffffffffffffffffffffffffff163373ffffffffffffffffffffffffffffffffffffffff16146100ee576040517f08c379a00000000000000000000000000000000000000000000000000000000081526004016100e590610295565b60405180910390fd5b5f3373ffffffffffffffffffffffffffffffffffffffff1647604051610113906102e0565b5f6040518083038185875af1925050503d805f811461014d576040519150601f19603f3d011682016040523d82523d5f602084013e610152565b606091505b5050905080610196576040517f08c379a000000000000000000000000000000000000000000000000000000000815260040161018d9061033e565b60405180910390fd5b50565b7f000000000000000000000000000000000000000000000000000000000000000081565b5f73ffffffffffffffffffffffffffffffffffffffff82169050919050565b5f6101e6826101bd565b9050919050565b6101f6816101dc565b82525050565b5f60208201905061020f5f8301846101ed565b92915050565b5f82825260208201905092915050565b7f4e6f7420416c6c6f7765642120596f7520617265206e6f7420746865206f776e5f8201527f6572000000000000000000000000000000000000000000000000000000000000602082015250565b5f61027f602283610215565b915061028a82610225565b604082019050919050565b5f6020820190508181035f8301526102ac81610273565b9050919050565b5f81905092915050565b50565b5f6102cb5f836102b3565b91506102d6826102bd565b5f82019050919050565b5f6102ea826102c0565b9150819050919050565b7f43616c6c204661696c65640000000000000000000000000000000000000000005f82015250565b5f610328600b83610215565b9150610333826102f4565b602082019050919050565b5f6020820190508181035f8301526103558161031c565b905091905056fea2646970667358221220142b10d162c45d69711abe4f8810136edc3a9e971c8d6b910be924aec3b95ea464736f6c63430008180033",
					"opcodes": "PUSH1 0xC0 PUSH1 0x40 MSTORE CALLVALUE DUP1 ISZERO PUSH2 0xF JUMPI PUSH0 DUP1 REVERT JUMPDEST POP PUSH1 0x40 MLOAD PUSH2 0x4DA CODESIZE SUB DUP1 PUSH2 0x4DA DUP4 CODECOPY DUP2 DUP2 ADD PUSH1 0x40 MSTORE DUP2 ADD SWAP1 PUSH2 0x31 SWAP2 SWAP1 PUSH2 0xFD JUMP JUMPDEST CALLER PUSH20 0xFFFFFFFFFFFFFFFFFFFFFFFFFFFFFFFFFFFFFFFF AND PUSH1 0x80 DUP2 PUSH20 0xFFFFFFFFFFFFFFFFFFFFFFFFFFFFFFFFFFFFFFFF AND DUP2 MSTORE POP POP DUP1 PUSH20 0xFFFFFFFFFFFFFFFFFFFFFFFFFFFFFFFFFFFFFFFF AND PUSH1 0xA0 DUP2 PUSH20 0xFFFFFFFFFFFFFFFFFFFFFFFFFFFFFFFFFFFFFFFF AND DUP2 MSTORE POP POP POP PUSH2 0x128 JUMP JUMPDEST PUSH0 DUP1 REVERT JUMPDEST PUSH0 PUSH20 0xFFFFFFFFFFFFFFFFFFFFFFFFFFFFFFFFFFFFFFFF DUP3 AND SWAP1 POP SWAP2 SWAP1 POP JUMP JUMPDEST PUSH0 PUSH2 0xCC DUP3 PUSH2 0xA3 JUMP JUMPDEST SWAP1 POP SWAP2 SWAP1 POP JUMP JUMPDEST PUSH2 0xDC DUP2 PUSH2 0xC2 JUMP JUMPDEST DUP2 EQ PUSH2 0xE6 JUMPI PUSH0 DUP1 REVERT JUMPDEST POP JUMP JUMPDEST PUSH0 DUP2 MLOAD SWAP1 POP PUSH2 0xF7 DUP2 PUSH2 0xD3 JUMP JUMPDEST SWAP3 SWAP2 POP POP JUMP JUMPDEST PUSH0 PUSH1 0x20 DUP3 DUP5 SUB SLT ISZERO PUSH2 0x112 JUMPI PUSH2 0x111 PUSH2 0x9F JUMP JUMPDEST JUMPDEST PUSH0 PUSH2 0x11F DUP5 DUP3 DUP6 ADD PUSH2 0xE9 JUMP JUMPDEST SWAP2 POP POP SWAP3 SWAP2 POP POP JUMP JUMPDEST PUSH1 0x80 MLOAD PUSH1 0xA0 MLOAD PUSH2 0x392 PUSH2 0x148 PUSH0 CODECOPY PUSH0 PUSH1 0x62 ADD MSTORE PUSH0 PUSH2 0x19B ADD MSTORE PUSH2 0x392 PUSH0 RETURN INVALID PUSH1 0x80 PUSH1 0x40 MSTORE PUSH1 0x4 CALLDATASIZE LT PUSH2 0x28 JUMPI PUSH0 CALLDATALOAD PUSH1 0xE0 SHR DUP1 PUSH4 0x37587B72 EQ PUSH2 0x2C JUMPI DUP1 PUSH4 0x3DAE35CE EQ PUSH2 0x36 JUMPI JUMPDEST PUSH0 DUP1 REVERT JUMPDEST PUSH2 0x34 PUSH2 0x60 JUMP JUMPDEST STOP JUMPDEST CALLVALUE DUP1 ISZERO PUSH2 0x41 JUMPI PUSH0 DUP1 REVERT JUMPDEST POP PUSH2 0x4A PUSH2 0x199 JUMP JUMPDEST PUSH1 0x40 MLOAD PUSH2 0x57 SWAP2 SWAP1 PUSH2 0x1FC JUMP JUMPDEST PUSH1 0x40 MLOAD DUP1 SWAP2 SUB SWAP1 RETURN JUMPDEST PUSH32 0x0 PUSH20 0xFFFFFFFFFFFFFFFFFFFFFFFFFFFFFFFFFFFFFFFF AND CALLER PUSH20 0xFFFFFFFFFFFFFFFFFFFFFFFFFFFFFFFFFFFFFFFF AND EQ PUSH2 0xEE JUMPI PUSH1 0x40 MLOAD PUSH32 0x8C379A000000000000000000000000000000000000000000000000000000000 DUP2 MSTORE PUSH1 0x4 ADD PUSH2 0xE5 SWAP1 PUSH2 0x295 JUMP JUMPDEST PUSH1 0x40 MLOAD DUP1 SWAP2 SUB SWAP1 REVERT JUMPDEST PUSH0 CALLER PUSH20 0xFFFFFFFFFFFFFFFFFFFFFFFFFFFFFFFFFFFFFFFF AND SELFBALANCE PUSH1 0x40 MLOAD PUSH2 0x113 SWAP1 PUSH2 0x2E0 JUMP JUMPDEST PUSH0 PUSH1 0x40 MLOAD DUP1 DUP4 SUB DUP2 DUP6 DUP8 GAS CALL SWAP3 POP POP POP RETURNDATASIZE DUP1 PUSH0 DUP2 EQ PUSH2 0x14D JUMPI PUSH1 0x40 MLOAD SWAP2 POP PUSH1 0x1F NOT PUSH1 0x3F RETURNDATASIZE ADD AND DUP3 ADD PUSH1 0x40 MSTORE RETURNDATASIZE DUP3 MSTORE RETURNDATASIZE PUSH0 PUSH1 0x20 DUP5 ADD RETURNDATACOPY PUSH2 0x152 JUMP JUMPDEST PUSH1 0x60 SWAP2 POP JUMPDEST POP POP SWAP1 POP DUP1 PUSH2 0x196 JUMPI PUSH1 0x40 MLOAD PUSH32 0x8C379A000000000000000000000000000000000000000000000000000000000 DUP2 MSTORE PUSH1 0x4 ADD PUSH2 0x18D SWAP1 PUSH2 0x33E JUMP JUMPDEST PUSH1 0x40 MLOAD DUP1 SWAP2 SUB SWAP1 REVERT JUMPDEST POP JUMP JUMPDEST PUSH32 0x0 DUP2 JUMP JUMPDEST PUSH0 PUSH20 0xFFFFFFFFFFFFFFFFFFFFFFFFFFFFFFFFFFFFFFFF DUP3 AND SWAP1 POP SWAP2 SWAP1 POP JUMP JUMPDEST PUSH0 PUSH2 0x1E6 DUP3 PUSH2 0x1BD JUMP JUMPDEST SWAP1 POP SWAP2 SWAP1 POP JUMP JUMPDEST PUSH2 0x1F6 DUP2 PUSH2 0x1DC JUMP JUMPDEST DUP3 MSTORE POP POP JUMP JUMPDEST PUSH0 PUSH1 0x20 DUP3 ADD SWAP1 POP PUSH2 0x20F PUSH0 DUP4 ADD DUP5 PUSH2 0x1ED JUMP JUMPDEST SWAP3 SWAP2 POP POP JUMP JUMPDEST PUSH0 DUP3 DUP3 MSTORE PUSH1 0x20 DUP3 ADD SWAP1 POP SWAP3 SWAP2 POP POP JUMP JUMPDEST PUSH32 0x4E6F7420416C6C6F7765642120596F7520617265206E6F7420746865206F776E PUSH0 DUP3 ADD MSTORE PUSH32 0x6572000000000000000000000000000000000000000000000000000000000000 PUSH1 0x20 DUP3 ADD MSTORE POP JUMP JUMPDEST PUSH0 PUSH2 0x27F PUSH1 0x22 DUP4 PUSH2 0x215 JUMP JUMPDEST SWAP2 POP PUSH2 0x28A DUP3 PUSH2 0x225 JUMP JUMPDEST PUSH1 0x40 DUP3 ADD SWAP1 POP SWAP2 SWAP1 POP JUMP JUMPDEST PUSH0 PUSH1 0x20 DUP3 ADD SWAP1 POP DUP2 DUP2 SUB PUSH0 DUP4 ADD MSTORE PUSH2 0x2AC DUP2 PUSH2 0x273 JUMP JUMPDEST SWAP1 POP SWAP2 SWAP1 POP JUMP JUMPDEST PUSH0 DUP2 SWAP1 POP SWAP3 SWAP2 POP POP JUMP JUMPDEST POP JUMP JUMPDEST PUSH0 PUSH2 0x2CB PUSH0 DUP4 PUSH2 0x2B3 JUMP JUMPDEST SWAP2 POP PUSH2 0x2D6 DUP3 PUSH2 0x2BD JUMP JUMPDEST PUSH0 DUP3 ADD SWAP1 POP SWAP2 SWAP1 POP JUMP JUMPDEST PUSH0 PUSH2 0x2EA DUP3 PUSH2 0x2C0 JUMP JUMPDEST SWAP2 POP DUP2 SWAP1 POP SWAP2 SWAP1 POP JUMP JUMPDEST PUSH32 0x43616C6C204661696C6564000000000000000000000000000000000000000000 PUSH0 DUP3 ADD MSTORE POP JUMP JUMPDEST PUSH0 PUSH2 0x328 PUSH1 0xB DUP4 PUSH2 0x215 JUMP JUMPDEST SWAP2 POP PUSH2 0x333 DUP3 PUSH2 0x2F4 JUMP JUMPDEST PUSH1 0x20 DUP3 ADD SWAP1 POP SWAP2 SWAP1 POP JUMP JUMPDEST PUSH0 PUSH1 0x20 DUP3 ADD SWAP1 POP DUP2 DUP2 SUB PUSH0 DUP4 ADD MSTORE PUSH2 0x355 DUP2 PUSH2 0x31C JUMP JUMPDEST SWAP1 POP SWAP2 SWAP1 POP JUMP INVALID LOG2 PUSH5 0x6970667358 0x22 SLT KECCAK256 EQ 0x2B LT 0xD1 PUSH3 0xC45D69 PUSH18 0x1ABE4F8810136EDC3A9E971C8D6B910BE924 0xAE 0xC3 0xB9 MCOPY LOG4 PUSH5 0x736F6C6343 STOP ADDMOD XOR STOP CALLER "
				},
				"gasEstimates": {
					"creation": {
						"codeDepositCost": "182800",
						"executionCost": "infinite",
						"totalCost": "infinite"
					},
					"external": {
						"creatorContract()": "infinite",
						"withdrawMyProfit()": "infinite"
					}
				},
				"methodIdentifiers": {
					"creatorContract()": "3dae35ce",
					"withdrawMyProfit()": "37587b72"
				}
			},
			"storageLayout": {
				"storage": [],
				"types": null
			},
			"userdoc": {
				"kind": "user",
				"methods": {},
				"version": 1
			}
		}
	}
}